{
  "contractName": "ActorFactory",
  "abi": [
    {
      "constant": true,
      "inputs": [
        {
          "name": "",
          "type": "uint256"
        }
      ],
      "name": "actorsIds",
      "outputs": [
        {
          "name": "",
          "type": "address"
        }
      ],
      "payable": false,
      "stateMutability": "view",
      "type": "function"
    },
    {
      "constant": true,
      "inputs": [
        {
          "name": "",
          "type": "address"
        }
      ],
      "name": "addressToActor",
      "outputs": [
        {
          "name": "name",
          "type": "bytes32"
        },
        {
          "name": "typeOfActor",
          "type": "bytes32"
        },
        {
          "name": "country",
          "type": "bytes32"
        },
        {
          "name": "region",
          "type": "bytes32"
        },
        {
          "name": "email",
          "type": "bytes32"
        }
      ],
      "payable": false,
      "stateMutability": "view",
      "type": "function"
    },
    {
      "anonymous": false,
      "inputs": [
        {
          "indexed": true,
          "name": "_id",
          "type": "address"
        },
        {
          "indexed": false,
          "name": "_name",
          "type": "bytes32"
        },
        {
          "indexed": false,
          "name": "_typeOfActor",
          "type": "bytes32"
        },
        {
          "indexed": false,
          "name": "_country",
          "type": "bytes32"
        },
        {
          "indexed": false,
          "name": "_region",
          "type": "bytes32"
        },
        {
          "indexed": false,
          "name": "_email",
          "type": "bytes32"
        }
      ],
      "name": "LogAddActor",
      "type": "event"
    },
    {
      "anonymous": false,
      "inputs": [
        {
          "indexed": true,
          "name": "_id",
          "type": "address"
        },
        {
          "indexed": false,
          "name": "_name",
          "type": "bytes32"
        },
        {
          "indexed": false,
          "name": "_typeOfActor",
          "type": "bytes32"
        },
        {
          "indexed": false,
          "name": "_country",
          "type": "bytes32"
        },
        {
          "indexed": false,
          "name": "_region",
          "type": "bytes32"
        },
        {
          "indexed": false,
          "name": "_email",
          "type": "bytes32"
        }
      ],
      "name": "LogUpdateActor",
      "type": "event"
    },
    {
      "anonymous": false,
      "inputs": [
        {
          "indexed": true,
          "name": "_owner",
          "type": "address"
        },
        {
          "indexed": true,
          "name": "_allowed",
          "type": "address"
        },
        {
          "indexed": false,
          "name": "_value",
          "type": "bool"
        }
      ],
      "name": "LogApproval",
      "type": "event"
    },
    {
      "constant": true,
      "inputs": [],
      "name": "getActorCount",
      "outputs": [
        {
          "name": "count",
          "type": "uint256"
        }
      ],
      "payable": false,
      "stateMutability": "view",
      "type": "function"
    },
    {
      "constant": true,
      "inputs": [
        {
          "name": "_owner",
          "type": "address"
        }
      ],
      "name": "getAccountType",
      "outputs": [
        {
          "name": "",
          "type": "bytes32"
        }
      ],
      "payable": false,
      "stateMutability": "view",
      "type": "function"
    },
    {
      "constant": true,
      "inputs": [
        {
          "name": "_owner",
          "type": "address"
        },
        {
          "name": "_target",
          "type": "address"
        }
      ],
      "name": "isAllowed",
      "outputs": [
        {
          "name": "",
          "type": "bool"
        }
      ],
      "payable": false,
      "stateMutability": "view",
      "type": "function"
    },
    {
      "constant": true,
      "inputs": [],
      "name": "returnOwner",
      "outputs": [
        {
          "name": "",
          "type": "bytes32"
        },
        {
          "name": "",
          "type": "bytes32"
        },
        {
          "name": "",
          "type": "bytes32"
        },
        {
          "name": "",
          "type": "bytes32"
        },
        {
          "name": "",
          "type": "bytes32"
        }
      ],
      "payable": false,
      "stateMutability": "view",
      "type": "function"
    },
    {
      "constant": true,
      "inputs": [
        {
          "name": "_actorAddress",
          "type": "address"
        }
      ],
      "name": "getActor",
      "outputs": [
        {
          "name": "",
          "type": "bytes32"
        },
        {
          "name": "",
          "type": "bytes32"
        },
        {
          "name": "",
          "type": "bytes32"
        },
        {
          "name": "",
          "type": "bytes32"
        },
        {
          "name": "",
          "type": "bytes32"
        }
      ],
      "payable": false,
      "stateMutability": "view",
      "type": "function"
    },
    {
      "constant": false,
      "inputs": [
        {
          "name": "_name",
          "type": "bytes32"
        },
        {
          "name": "_typeOfActor",
          "type": "bytes32"
        },
        {
          "name": "_country",
          "type": "bytes32"
        },
        {
          "name": "_region",
          "type": "bytes32"
        },
        {
          "name": "_email",
          "type": "bytes32"
        }
      ],
      "name": "addActor",
      "outputs": [],
      "payable": false,
      "stateMutability": "nonpayable",
      "type": "function"
    },
    {
      "constant": false,
      "inputs": [
        {
          "name": "_name",
          "type": "bytes32"
        },
        {
          "name": "_typeOfActor",
          "type": "bytes32"
        },
        {
          "name": "_country",
          "type": "bytes32"
        },
        {
          "name": "_region",
          "type": "bytes32"
        },
        {
          "name": "_email",
          "type": "bytes32"
        }
      ],
      "name": "updateActor",
      "outputs": [],
      "payable": false,
      "stateMutability": "nonpayable",
      "type": "function"
    },
    {
      "constant": false,
      "inputs": [
        {
          "name": "_spender",
          "type": "address"
        },
        {
          "name": "_value",
          "type": "bool"
        }
      ],
      "name": "approve",
      "outputs": [
        {
          "name": "",
          "type": "bool"
        }
      ],
      "payable": false,
      "stateMutability": "nonpayable",
      "type": "function"
    }
  ],
  "bytecode": "0x608060405234801561001057600080fd5b50610e5e806100206000396000f3006080604052600436106100a4576000357c0100000000000000000000000000000000000000000000000000000000900463ffffffff1680633d140d21146100a95780634138d167146101105780636e2062b2146101ab5780636f753dbe146101d65780638876a6381461023f57806394a927fe146102a8578063a165437914610317578063a19bb40814610392578063ae203146146103ff578063b905fe501461045e575b600080fd5b3480156100b557600080fd5b506100f6600480360381019080803573ffffffffffffffffffffffffffffffffffffffff1690602001909291908035151590602001909291905050506104f9565b604051808215151515815260200191505060405180910390f35b34801561011c57600080fd5b50610151600480360381019080803573ffffffffffffffffffffffffffffffffffffffff169060200190929190505050610602565b60405180866000191660001916815260200185600019166000191681526020018460001916600019168152602001836000191660001916815260200182600019166000191681526020019550505050505060405180910390f35b3480156101b757600080fd5b506101c06106e5565b6040518082815260200191505060405180910390f35b3480156101e257600080fd5b5061023d600480360381019080803560001916906020019092919080356000191690602001909291908035600019169060200190929190803560001916906020019092919080356000191690602001909291905050506106f2565b005b34801561024b57600080fd5b506102a660048036038101908080356000191690602001909291908035600019169060200190929190803560001916906020019092919080356000191690602001909291908035600019169060200190929190505050610925565b005b3480156102b457600080fd5b506102bd610bbf565b60405180866000191660001916815260200185600019166000191681526020018460001916600019168152602001836000191660001916815260200182600019166000191681526020019550505050505060405180910390f35b34801561032357600080fd5b50610378600480360381019080803573ffffffffffffffffffffffffffffffffffffffff169060200190929190803573ffffffffffffffffffffffffffffffffffffffff169060200190929190505050610ca0565b604051808215151515815260200191505060405180910390f35b34801561039e57600080fd5b506103bd60048036038101908080359060200190929190505050610d34565b604051808273ffffffffffffffffffffffffffffffffffffffff1673ffffffffffffffffffffffffffffffffffffffff16815260200191505060405180910390f35b34801561040b57600080fd5b50610440600480360381019080803573ffffffffffffffffffffffffffffffffffffffff169060200190929190505050610d72565b60405180826000191660001916815260200191505060405180910390f35b34801561046a57600080fd5b5061049f600480360381019080803573ffffffffffffffffffffffffffffffffffffffff169060200190929190505050610dbd565b60405180866000191660001916815260200185600019166000191681526020018460001916600019168152602001836000191660001916815260200182600019166000191681526020019550505050505060405180910390f35b600081600260003373ffffffffffffffffffffffffffffffffffffffff1673ffffffffffffffffffffffffffffffffffffffff16815260200190815260200160002060008573ffffffffffffffffffffffffffffffffffffffff1673ffffffffffffffffffffffffffffffffffffffff16815260200190815260200160002060006101000a81548160ff0219169083151502179055508273ffffffffffffffffffffffffffffffffffffffff163373ffffffffffffffffffffffffffffffffffffffff167f6cc438beee050a8338ac87dc4353c517532095b48b678a7e50f680da7e6c789184604051808215151515815260200191505060405180910390a36001905092915050565b6000806000806000610612610df3565b6000808873ffffffffffffffffffffffffffffffffffffffff1673ffffffffffffffffffffffffffffffffffffffff16815260200190815260200160002060a060405190810160405290816000820154600019166000191681526020016001820154600019166000191681526020016002820154600019166000191681526020016003820154600019166000191681526020016004820154600019166000191681525050905080600001518160200151826040015183606001518460800151955095509550955095505091939590929450565b6000600180549050905090565b6106fa610df3565b60006001026000803373ffffffffffffffffffffffffffffffffffffffff1673ffffffffffffffffffffffffffffffffffffffff168152602001908152602001600020600001546000191614151561075157600080fd5b60a0604051908101604052808760001916815260200186600019168152602001856000191681526020018460001916815260200183600019168152509050806000803373ffffffffffffffffffffffffffffffffffffffff1673ffffffffffffffffffffffffffffffffffffffff168152602001908152602001600020600082015181600001906000191690556020820151816001019060001916905560408201518160020190600019169055606082015181600301906000191690556080820151816004019060001916905590505060013390806001815401808255809150509060018203906000526020600020016000909192909190916101000a81548173ffffffffffffffffffffffffffffffffffffffff021916908373ffffffffffffffffffffffffffffffffffffffff160217905550503373ffffffffffffffffffffffffffffffffffffffff167f5eaca636502e7a909c70644d06f7b7b6c991a69033a95d1e5be6c270e42e9439878787878760405180866000191660001916815260200185600019166000191681526020018460001916600019168152602001836000191660001916815260200182600019166000191681526020019550505050505060405180910390a2505050505050565b61092d610df3565b60006001026000803373ffffffffffffffffffffffffffffffffffffffff1673ffffffffffffffffffffffffffffffffffffffff16815260200190815260200160002060000154600019161415151561098557600080fd5b6000803373ffffffffffffffffffffffffffffffffffffffff1673ffffffffffffffffffffffffffffffffffffffff16815260200190815260200160002060a060405190810160405290816000820154600019166000191681526020016001820154600019166000191681526020016002820154600019166000191681526020016003820154600019166000191681526020016004820154600019166000191681525050905085816000019060001916908160001916815250508481602001906000191690816000191681525050838160400190600019169081600019168152505082816060019060001916908160001916815250508181608001906000191690816000191681525050806000803373ffffffffffffffffffffffffffffffffffffffff1673ffffffffffffffffffffffffffffffffffffffff16815260200190815260200160002060008201518160000190600019169055602082015181600101906000191690556040820151816002019060001916905560608201518160030190600019169055608082015181600401906000191690559050503373ffffffffffffffffffffffffffffffffffffffff167fdb5a0e93d1fe84dc79f3fe971bea44038bfebececfb7699c6f1c1588ed841855878787878760405180866000191660001916815260200185600019166000191681526020018460001916600019168152602001836000191660001916815260200182600019166000191681526020019550505050505060405180910390a2505050505050565b6000806000806000610bcf610df3565b6000803373ffffffffffffffffffffffffffffffffffffffff1673ffffffffffffffffffffffffffffffffffffffff16815260200190815260200160002060a06040519081016040529081600082015460001916600019168152602001600182015460001916600019168152602001600282015460001916600019168152602001600382015460001916600019168152602001600482015460001916600019168152505090508060000151816020015182604001518360600151846080015195509550955095509550509091929394565b6000600260008473ffffffffffffffffffffffffffffffffffffffff1673ffffffffffffffffffffffffffffffffffffffff16815260200190815260200160002060008373ffffffffffffffffffffffffffffffffffffffff1673ffffffffffffffffffffffffffffffffffffffff16815260200190815260200160002060009054906101000a900460ff16905092915050565b600181815481101515610d4357fe5b906000526020600020016000915054906101000a900473ffffffffffffffffffffffffffffffffffffffff1681565b60008060008373ffffffffffffffffffffffffffffffffffffffff1673ffffffffffffffffffffffffffffffffffffffff168152602001908152602001600020600101549050919050565b60006020528060005260406000206000915090508060000154908060010154908060020154908060030154908060040154905085565b60a060405190810160405280600080191681526020016000801916815260200160008019168152602001600080191681526020016000801916815250905600a165627a7a72305820d47316b6185225852fa3d060ebe9c022bd09afadb5efc629b484ef5ab982d7010029",
  "source": "pragma solidity ^0.4.23;\n\nimport \"./Utils.sol\";\n//TODO: use Id instead of address\ncontract ActorFactory is Utils {\n\n    event LogAddActor(\n        address indexed _id,\n        bytes32 _name,\n        bytes32 _typeOfActor, \n        bytes32 _country, \n        bytes32 _region,\n        bytes32 _email\n    );\n\n    event LogUpdateActor(\n        address indexed _id,\n        bytes32 _name,\n        bytes32 _typeOfActor, \n        bytes32 _country, \n        bytes32 _region,\n        bytes32 _email\n    );\n\n    event LogApproval(\n        address indexed _owner,\n        address indexed _allowed,\n        bool _value\n    );\n\n    struct Actor {\n        bytes32 name;\n        bytes32 typeOfActor; \n        bytes32 country; \n        bytes32 region;\n        bytes32 email;   \n    }\n\n    mapping(address => Actor) public addressToActor;\n    address[] public actorsIds;  \n    mapping (address => mapping (address => bool)) private allowed_;  \n\n    function getActorCount() public view returns(uint count){\n        return actorsIds.length;\n    }\n\n    function getAccountType(address _owner) public view returns(bytes32) {\n        return addressToActor[_owner].typeOfActor;\n    }\n\n    function isAllowed(address _owner, address _target) public view returns(bool){\n        return allowed_[_owner][_target];\n    }\n\n    function returnOwner() public view returns(\n        bytes32, \n        bytes32, \n        bytes32, \n        bytes32,\n        bytes32\n    ){\n        Actor memory actor = addressToActor[msg.sender];\n        return(\n            actor.name,\n            actor.typeOfActor,\n            actor.country,\n            actor.region,\n            actor.email\n        );\n    }\n\n    function getActor(address _actorAddress) public view returns(\n        bytes32, \n        bytes32,\n        bytes32, \n        bytes32, \n        bytes32\n    ) {\n        Actor memory actor = addressToActor[_actorAddress];\n        return(\n            actor.name,\n            actor.typeOfActor,\n            actor.country,\n            actor.region,\n            actor.email\n        );\n    }\n\n    function addActor(\n        bytes32 _name, \n        bytes32 _typeOfActor,\n        bytes32 _country, \n        bytes32 _region, \n        bytes32 _email\n    ) public {\n        require(addressToActor[msg.sender].name == 0);\n        Actor memory actor = Actor(_name,_typeOfActor,_country,_region,_email);\n        addressToActor[msg.sender] = actor;\n        actorsIds.push(msg.sender);\n        emit LogAddActor(msg.sender,_name,_typeOfActor,_country,_region,_email);\n    }\n\n    function updateActor(\n        bytes32 _name, \n        bytes32 _typeOfActor,\n        bytes32 _country, \n        bytes32 _region,\n        bytes32 _email \n    ) public {  \n        require(!(addressToActor[msg.sender].name == 0));\n        Actor memory actor = addressToActor[msg.sender];\n        actor.name = _name;\n        actor.typeOfActor = _typeOfActor;\n        actor.country = _country;\n        actor.region = _region;\n        actor.email = _email;\n        addressToActor[msg.sender] = actor;\n        emit LogUpdateActor(msg.sender,_name,_typeOfActor,_country,_region,_email);\n    }     \n\n    function approve(address _spender, bool _value) public returns (bool) {\n        //TODO: user must have account\n        //TODO: User shouldn't give permissions to itself\n        allowed_[msg.sender][_spender] = _value;\n        emit LogApproval(msg.sender, _spender, _value);\n        return true;\n    }   \n}",
  "sourcePath": "/Users/crisgarner/Projects/affogato/affogato-contract/contracts/ActorFactory.sol",
  "compiler": {
    "name": "solc",
    "version": "0.4.24+commit.e67f0147.Emscripten.clang"
  },
  "schemaVersion": "2.0.1",
  "updatedAt": "2018-11-12T02:44:02.281Z"
}