{
  "contractName": "Actor",
  "abi": [
    {
      "constant": true,
      "inputs": [
        {
          "name": "",
          "type": "uint256"
        }
      ],
      "name": "processorIds",
      "outputs": [
        {
          "name": "",
          "type": "address"
        }
      ],
      "payable": false,
      "stateMutability": "view",
      "type": "function"
    },
    {
      "constant": true,
      "inputs": [
        {
          "name": "",
          "type": "uint256"
        }
      ],
      "name": "processorsWithFarm",
      "outputs": [
        {
          "name": "",
          "type": "address"
        }
      ],
      "payable": false,
      "stateMutability": "view",
      "type": "function"
    },
    {
      "constant": true,
      "inputs": [
        {
          "name": "",
          "type": "address"
        }
      ],
      "name": "addressToProcessor",
      "outputs": [
        {
          "name": "processorAddress",
          "type": "address"
        },
        {
          "name": "name",
          "type": "bytes32"
        },
        {
          "name": "typeOfProcessor",
          "type": "bytes32"
        },
        {
          "name": "department",
          "type": "bytes32"
        },
        {
          "name": "country",
          "type": "bytes32"
        },
        {
          "name": "lon",
          "type": "int256"
        },
        {
          "name": "lat",
          "type": "int256"
        },
        {
          "name": "additionalInformation",
          "type": "string"
        }
      ],
      "payable": false,
      "stateMutability": "view",
      "type": "function"
    },
    {
      "constant": true,
      "inputs": [
        {
          "name": "",
          "type": "address"
        },
        {
          "name": "",
          "type": "uint256"
        }
      ],
      "name": "addressToFarms",
      "outputs": [
        {
          "name": "name",
          "type": "bytes32"
        },
        {
          "name": "country",
          "type": "bytes32"
        },
        {
          "name": "department",
          "type": "bytes32"
        },
        {
          "name": "village",
          "type": "bytes32"
        },
        {
          "name": "story",
          "type": "string"
        },
        {
          "name": "additionalInformation",
          "type": "string"
        }
      ],
      "payable": false,
      "stateMutability": "view",
      "type": "function"
    },
    {
      "anonymous": false,
      "inputs": [
        {
          "indexed": true,
          "name": "_id",
          "type": "uint256"
        }
      ],
      "name": "LogAddProcessor",
      "type": "event"
    },
    {
      "anonymous": false,
      "inputs": [
        {
          "indexed": true,
          "name": "_id",
          "type": "uint256"
        }
      ],
      "name": "LogUpdateProcessor",
      "type": "event"
    },
    {
      "anonymous": false,
      "inputs": [
        {
          "indexed": true,
          "name": "_id",
          "type": "uint256"
        }
      ],
      "name": "LogAddFarm",
      "type": "event"
    },
    {
      "constant": true,
      "inputs": [],
      "name": "getCount",
      "outputs": [
        {
          "name": "count",
          "type": "uint256"
        }
      ],
      "payable": false,
      "stateMutability": "view",
      "type": "function"
    },
    {
      "constant": true,
      "inputs": [],
      "name": "isAccountOwner",
      "outputs": [
        {
          "name": "_name",
          "type": "bytes32"
        },
        {
          "name": "_typeOfProcessor",
          "type": "bytes32"
        },
        {
          "name": "_department",
          "type": "bytes32"
        },
        {
          "name": "_country",
          "type": "bytes32"
        },
        {
          "name": "_lon",
          "type": "int256"
        },
        {
          "name": "_lat",
          "type": "int256"
        },
        {
          "name": "_additionalInformation",
          "type": "string"
        }
      ],
      "payable": false,
      "stateMutability": "view",
      "type": "function"
    },
    {
      "constant": true,
      "inputs": [
        {
          "name": "_owner",
          "type": "address"
        },
        {
          "name": "_index",
          "type": "uint256"
        }
      ],
      "name": "getFarm",
      "outputs": [
        {
          "name": "",
          "type": "bytes32"
        },
        {
          "name": "",
          "type": "bytes32"
        },
        {
          "name": "",
          "type": "bytes32"
        },
        {
          "name": "",
          "type": "bytes32"
        },
        {
          "name": "",
          "type": "string"
        },
        {
          "name": "",
          "type": "string"
        }
      ],
      "payable": false,
      "stateMutability": "view",
      "type": "function"
    },
    {
      "constant": false,
      "inputs": [
        {
          "name": "_owner",
          "type": "address"
        },
        {
          "name": "_name",
          "type": "bytes32"
        },
        {
          "name": "_typeOfProcessor",
          "type": "bytes32"
        },
        {
          "name": "_department",
          "type": "bytes32"
        },
        {
          "name": "_country",
          "type": "bytes32"
        },
        {
          "name": "_lon",
          "type": "int256"
        },
        {
          "name": "_lat",
          "type": "int256"
        },
        {
          "name": "_additionalInformation",
          "type": "string"
        }
      ],
      "name": "addProcessor",
      "outputs": [],
      "payable": false,
      "stateMutability": "nonpayable",
      "type": "function"
    },
    {
      "constant": false,
      "inputs": [
        {
          "name": "_owner",
          "type": "address"
        },
        {
          "name": "_name",
          "type": "bytes32"
        },
        {
          "name": "_typeOfProcessor",
          "type": "bytes32"
        },
        {
          "name": "_department",
          "type": "bytes32"
        },
        {
          "name": "_country",
          "type": "bytes32"
        },
        {
          "name": "_lon",
          "type": "int256"
        },
        {
          "name": "_lat",
          "type": "int256"
        },
        {
          "name": "_additionalInformation",
          "type": "string"
        }
      ],
      "name": "updateProcessor",
      "outputs": [],
      "payable": false,
      "stateMutability": "nonpayable",
      "type": "function"
    },
    {
      "constant": false,
      "inputs": [
        {
          "name": "_name",
          "type": "bytes32"
        },
        {
          "name": "_country",
          "type": "bytes32"
        },
        {
          "name": "_department",
          "type": "bytes32"
        },
        {
          "name": "_village",
          "type": "bytes32"
        },
        {
          "name": "_story",
          "type": "string"
        },
        {
          "name": "_additionalInformation",
          "type": "string"
        }
      ],
      "name": "addFarm",
      "outputs": [],
      "payable": false,
      "stateMutability": "nonpayable",
      "type": "function"
    }
  ],
  "bytecode": "0x608060405234801561001057600080fd5b506119de806100206000396000f3006080604052600436106100a4576000357c0100000000000000000000000000000000000000000000000000000000900463ffffffff1680631ef5cf67146100a95780634e1a47d314610183578063554b2ca0146101f0578063a2fdc6f91461025d578063a386386e146103cb578063a6dbe0f414610504578063a87d942c146105d9578063d60764f914610604578063deafda1714610772578063fab1a4a514610847575b600080fd5b3480156100b557600080fd5b506100be61092e565b60405180886000191660001916815260200187600019166000191681526020018660001916600019168152602001856000191660001916815260200184815260200183815260200180602001828103825283818151815260200191508051906020019080838360005b83811015610142578082015181840152602081019050610127565b50505050905090810190601f16801561016f5780820380516001836020036101000a031916815260200191505b509850505050505050505060405180910390f35b34801561018f57600080fd5b506101ae60048036038101908080359060200190929190505050610ba7565b604051808273ffffffffffffffffffffffffffffffffffffffff1673ffffffffffffffffffffffffffffffffffffffff16815260200191505060405180910390f35b3480156101fc57600080fd5b5061021b60048036038101908080359060200190929190505050610be5565b604051808273ffffffffffffffffffffffffffffffffffffffff1673ffffffffffffffffffffffffffffffffffffffff16815260200191505060405180910390f35b34801561026957600080fd5b506102a8600480360381019080803573ffffffffffffffffffffffffffffffffffffffff16906020019092919080359060200190929190505050610c23565b6040518087600019166000191681526020018660001916600019168152602001856000191660001916815260200184600019166000191681526020018060200180602001838103835285818151815260200191508051906020019080838360005b83811015610324578082015181840152602081019050610309565b50505050905090810190601f1680156103515780820380516001836020036101000a031916815260200191505b50838103825284818151815260200191508051906020019080838360005b8381101561038a57808201518184015260208101905061036f565b50505050905090810190601f1680156103b75780820380516001836020036101000a031916815260200191505b509850505050505050505060405180910390f35b3480156103d757600080fd5b5061040c600480360381019080803573ffffffffffffffffffffffffffffffffffffffff169060200190929190505050610e63565b604051808973ffffffffffffffffffffffffffffffffffffffff1673ffffffffffffffffffffffffffffffffffffffff168152602001886000191660001916815260200187600019166000191681526020018660001916600019168152602001856000191660001916815260200184815260200183815260200180602001828103825283818151815260200191508051906020019080838360005b838110156104c25780820151818401526020810190506104a7565b50505050905090810190601f1680156104ef5780820380516001836020036101000a031916815260200191505b50995050505050505050505060405180910390f35b34801561051057600080fd5b506105d7600480360381019080803573ffffffffffffffffffffffffffffffffffffffff16906020019092919080356000191690602001909291908035600019169060200190929190803560001916906020019092919080356000191690602001909291908035906020019092919080359060200190929190803590602001908201803590602001908080601f0160208091040260200160405190810160405280939291908181526020018383808284378201915050505050509192919290505050610f63565b005b3480156105e557600080fd5b506105ee6112b2565b6040518082815260200191505060405180910390f35b34801561061057600080fd5b5061064f600480360381019080803573ffffffffffffffffffffffffffffffffffffffff169060200190929190803590602001909291905050506112bf565b6040518087600019166000191681526020018660001916600019168152602001856000191660001916815260200184600019166000191681526020018060200180602001838103835285818151815260200191508051906020019080838360005b838110156106cb5780820151818401526020810190506106b0565b50505050905090810190601f1680156106f85780820380516001836020036101000a031916815260200191505b50838103825284818151815260200191508051906020019080838360005b83811015610731578082015181840152602081019050610716565b50505050905090810190601f16801561075e5780820380516001836020036101000a031916815260200191505b509850505050505050505060405180910390f35b34801561077e57600080fd5b50610845600480360381019080803573ffffffffffffffffffffffffffffffffffffffff16906020019092919080356000191690602001909291908035600019169060200190929190803560001916906020019092919080356000191690602001909291908035906020019092919080359060200190929190803590602001908201803590602001908080601f0160208091040260200160405190810160405280939291908181526020018383808284378201915050505050509192919290505050611447565b005b34801561085357600080fd5b5061092c6004803603810190808035600019169060200190929190803560001916906020019092919080356000191690602001909291908035600019169060200190929190803590602001908201803590602001908080601f0160208091040260200160405190810160405280939291908181526020018383808284378201915050505050509192919290803590602001908201803590602001908080601f0160208091040260200160405190810160405280939291908181526020018383808284378201915050505050509192919290505050611651565b005b6000806000806000806060610941611862565b60008060003373ffffffffffffffffffffffffffffffffffffffff1673ffffffffffffffffffffffffffffffffffffffff16815260200190815260200160002060000160009054906101000a900473ffffffffffffffffffffffffffffffffffffffff1673ffffffffffffffffffffffffffffffffffffffff16141515156109c857600080fd5b6000803373ffffffffffffffffffffffffffffffffffffffff1673ffffffffffffffffffffffffffffffffffffffff16815260200190815260200160002061010060405190810160405290816000820160009054906101000a900473ffffffffffffffffffffffffffffffffffffffff1673ffffffffffffffffffffffffffffffffffffffff1673ffffffffffffffffffffffffffffffffffffffff1681526020016001820154600019166000191681526020016002820154600019166000191681526020016003820154600019166000191681526020016004820154600019166000191681526020016005820154815260200160068201548152602001600782018054600181600116156101000203166002900480601f016020809104026020016040519081016040528092919081815260200182805460018160011615610100020316600290048015610b5e5780601f10610b3357610100808354040283529160200191610b5e565b820191906000526020600020905b815481529060010190602001808311610b4157829003601f168201915b505050505081525050905080602001518160400151826060015183608001518460a001518560c001518660e0015180905097509750975097509750975097505090919293949596565b600181815481101515610bb657fe5b906000526020600020016000915054906101000a900473ffffffffffffffffffffffffffffffffffffffff1681565b600381815481101515610bf457fe5b906000526020600020016000915054906101000a900473ffffffffffffffffffffffffffffffffffffffff1681565b600080600080606080610c346118ca565b600260008a73ffffffffffffffffffffffffffffffffffffffff1673ffffffffffffffffffffffffffffffffffffffff16815260200190815260200160002088815481101515610c8057fe5b906000526020600020906006020160c06040519081016040529081600082015460001916600019168152602001600182015460001916600019168152602001600282015460001916600019168152602001600382015460001916600019168152602001600482018054600181600116156101000203166002900480601f016020809104026020016040519081016040528092919081815260200182805460018160011615610100020316600290048015610d7b5780601f10610d5057610100808354040283529160200191610d7b565b820191906000526020600020905b815481529060010190602001808311610d5e57829003601f168201915b50505050508152602001600582018054600181600116156101000203166002900480601f016020809104026020016040519081016040528092919081815260200182805460018160011615610100020316600290048015610e1d5780601f10610df257610100808354040283529160200191610e1d565b820191906000526020600020905b815481529060010190602001808311610e0057829003601f168201915b5050505050815250509050806000015181602001518260400151836060015184608001518560a00151819150809050965096509650965096509650509295509295509295565b60006020528060005260406000206000915090508060000160009054906101000a900473ffffffffffffffffffffffffffffffffffffffff1690806001015490806002015490806003015490806004015490806005015490806006015490806007018054600181600116156101000203166002900480601f016020809104026020016040519081016040528092919081815260200182805460018160011615610100020316600290048015610f595780601f10610f2e57610100808354040283529160200191610f59565b820191906000526020600020905b815481529060010190602001808311610f3c57829003601f168201915b5050505050905088565b610f6b611862565b6000808a73ffffffffffffffffffffffffffffffffffffffff1673ffffffffffffffffffffffffffffffffffffffff16815260200190815260200160002061010060405190810160405290816000820160009054906101000a900473ffffffffffffffffffffffffffffffffffffffff1673ffffffffffffffffffffffffffffffffffffffff1673ffffffffffffffffffffffffffffffffffffffff1681526020016001820154600019166000191681526020016002820154600019166000191681526020016003820154600019166000191681526020016004820154600019166000191681526020016005820154815260200160068201548152602001600782018054600181600116156101000203166002900480601f0160208091040260200160405190810160405280929190818152602001828054600181600116156101000203166002900480156111015780601f106110d657610100808354040283529160200191611101565b820191906000526020600020905b8154815290600101906020018083116110e457829003601f168201915b50505050508152505090508781602001906000191690816000191681525050868160400190600019169081600019168152505085816060019060001916908160001916815250508481608001906000191690816000191681525050838160a0018181525050828160c0018181525050818160e00181905250806000808b73ffffffffffffffffffffffffffffffffffffffff1673ffffffffffffffffffffffffffffffffffffffff16815260200190815260200160002060008201518160000160006101000a81548173ffffffffffffffffffffffffffffffffffffffff021916908373ffffffffffffffffffffffffffffffffffffffff1602179055506020820151816001019060001916905560408201518160020190600019169055606082015181600301906000191690556080820151816004019060001916905560a0820151816005015560c0820151816006015560e082015181600701908051906020019061126f92919061190d565b5090505060018080549050037f8ca2de16d9ae62a204903bdc8edf452fc75397221a050374d8ffd040b1dc252660405160405180910390a2505050505050505050565b6000600180549050905090565b6002602052816000526040600020818154811015156112da57fe5b906000526020600020906006020160009150915050806000015490806001015490806002015490806003015490806004018054600181600116156101000203166002900480601f01602080910402602001604051908101604052809291908181526020018280546001816001161561010002031660029004801561139f5780601f106113745761010080835404028352916020019161139f565b820191906000526020600020905b81548152906001019060200180831161138257829003601f168201915b505050505090806005018054600181600116156101000203166002900480601f01602080910402602001604051908101604052809291908181526020018280546001816001161561010002031660029004801561143d5780601f106114125761010080835404028352916020019161143d565b820191906000526020600020905b81548152906001019060200180831161142057829003601f168201915b5050505050905086565b61144f611862565b610100604051908101604052808a73ffffffffffffffffffffffffffffffffffffffff16815260200189600019168152602001886000191681526020018760001916815260200186600019168152602001858152602001848152602001838152509050806000808b73ffffffffffffffffffffffffffffffffffffffff1673ffffffffffffffffffffffffffffffffffffffff16815260200190815260200160002060008201518160000160006101000a81548173ffffffffffffffffffffffffffffffffffffffff021916908373ffffffffffffffffffffffffffffffffffffffff1602179055506020820151816001019060001916905560408201518160020190600019169055606082015181600301906000191690556080820151816004019060001916905560a0820151816005015560c0820151816006015560e08201518160070190805190602001906115a892919061190d565b5090505060018990806001815401808255809150509060018203906000526020600020016000909192909190916101000a81548173ffffffffffffffffffffffffffffffffffffffff021916908373ffffffffffffffffffffffffffffffffffffffff1602179055505060018080549050037f58097dca66a4dd3e32f2a3a7035945d25b80b192c4b364c8701e6929d47b87d360405160405180910390a2505050505050505050565b6116596118ca565b60c06040519081016040528088600019168152602001876000191681526020018660001916815260200185600019168152602001848152602001838152509050600260003373ffffffffffffffffffffffffffffffffffffffff1673ffffffffffffffffffffffffffffffffffffffff168152602001908152602001600020819080600181540180825580915050906001820390600052602060002090600602016000909192909190915060008201518160000190600019169055602082015181600101906000191690556040820151816002019060001916905560608201518160030190600019169055608082015181600401908051906020019061176092919061190d565b5060a082015181600501908051906020019061177d92919061190d565b5050505060033390806001815401808255809150509060018203906000526020600020016000909192909190916101000a81548173ffffffffffffffffffffffffffffffffffffffff021916908373ffffffffffffffffffffffffffffffffffffffff160217905550506001600260003373ffffffffffffffffffffffffffffffffffffffff1673ffffffffffffffffffffffffffffffffffffffff16815260200190815260200160002080549050037ffbf8aec029f83906e4d02ed7bd49ce43507e8641fe6ae12b32ebd9000598572560405160405180910390a250505050505050565b61010060405190810160405280600073ffffffffffffffffffffffffffffffffffffffff168152602001600080191681526020016000801916815260200160008019168152602001600080191681526020016000815260200160008152602001606081525090565b60c0604051908101604052806000801916815260200160008019168152602001600080191681526020016000801916815260200160608152602001606081525090565b828054600181600116156101000203166002900490600052602060002090601f016020900481019282601f1061194e57805160ff191683800117855561197c565b8280016001018555821561197c579182015b8281111561197b578251825591602001919060010190611960565b5b509050611989919061198d565b5090565b6119af91905b808211156119ab576000816000905550600101611993565b5090565b905600a165627a7a72305820345345fced8621b936eedf97ed983b4ec242b3b66ae1a0fa324254569ba96d460029",
  "source": "pragma solidity ^0.4.23;\n\nimport \"./AffogatoNetwork.sol\";\n\ncontract Actor is AffogatoNetwork {\n\n    event LogAddProcessor(uint256 indexed _id);\n    event LogUpdateProcessor(uint256 indexed _id);\n    event LogAddFarm(uint256 indexed _id);\n\n    struct Processor {\n        address processorAddress;\n        // @dev indicates the name of a Handler.\n        bytes32 name;\n        // @dev indicates the type of processor: Beneficio, Cooperative, Farm, Exporter, Taster\n        bytes32 typeOfProcessor; \n        bytes32 department;\n        bytes32 country; \n        // @dev Longitude x10^10 where the Action is done.\n        int lon;\n        // @dev Latitude x10^10 where the Action is done.\n        int lat;   \n        // @dev Additional information about the Processor, generally as a JSON object\n        string additionalInformation; //story, owner, village, municipality, experience    \n    }\n\n    struct Farm{\n        bytes32 name;\n        bytes32 country;\n        bytes32 department;\n        bytes32 village; \n        string story;\n        string additionalInformation; //lat, lon\n    }\n\n    mapping(address => Processor) public addressToProcessor;\n    address[] public processorIds;\n\n    mapping(address => Farm[]) public addressToFarms;\n    address[] public processorsWithFarm;\n\n    function getCount() public view returns(uint count) {\n        return processorIds.length;\n    }\n    \n\n    function isAccountOwner() public view returns(\n        bytes32 _name, \n        bytes32 _typeOfProcessor, \n        bytes32 _department, \n        bytes32 _country, \n        int _lon, \n        int _lat, \n        string _additionalInformation\n    ){\n        require(addressToProcessor[msg.sender].processorAddress != 0);\n        Processor memory processor = addressToProcessor[msg.sender];\n        return (\n            processor.name,\n            processor.typeOfProcessor,\n            processor.department,\n            processor.country,\n            processor.lon,\n            processor.lat,\n            processor.additionalInformation\n        );\n    }\n\n//TODO: Require isn't greater than count\n    function getFarm(address _owner, uint _index) public view returns(\n        bytes32, \n        bytes32, \n        bytes32, \n        bytes32, \n        string,\n        string\n        ){\n        Farm memory farm = addressToFarms[_owner][_index];\n        return(\n            farm.name,\n            farm.country,\n            farm.department,\n            farm.village,\n            farm.story,\n            farm.additionalInformation\n        );\n    }\n\n    function addProcessor(\n        address _owner,\n        bytes32 _name, \n        bytes32 _typeOfProcessor, \n        bytes32 _department, \n        bytes32 _country, \n        int _lon, \n        int _lat, \n        string _additionalInformation\n    ) public {\n        Processor memory processor = Processor(_owner,_name,_typeOfProcessor,_department,_country,_lon,_lat,_additionalInformation);\n        addressToProcessor[_owner] = processor;\n        processorIds.push(_owner);\n        emit LogAddProcessor(processorIds.length - 1);\n    }\n    // Logear updates para que siempre se mantengan los datos (puede ser viendo bloques pasados)\n    function updateProcessor(\n        address _owner,\n        bytes32 _name, \n        bytes32 _typeOfProcessor, \n        bytes32 _department, \n        bytes32 _country, \n        int _lon, \n        int _lat, \n        string _additionalInformation\n    ) public {\n        Processor memory processor = addressToProcessor[_owner];\n        processor.name = _name;\n        processor.typeOfProcessor = _typeOfProcessor;\n        processor.department = _department;\n        processor.country = _country;\n        processor.lon = _lon;\n        processor.lat = _lat;\n        processor.additionalInformation = _additionalInformation;\n        addressToProcessor[_owner] = processor;\n        emit LogUpdateProcessor(processorIds.length - 1);\n    }\n\n    function addFarm(\n        bytes32 _name, \n        bytes32 _country, \n        bytes32 _department, \n        bytes32 _village, \n        string _story,\n        string _additionalInformation\n    ) public {\n        Farm memory farm = Farm(_name,_country,_department,_village,_story,_additionalInformation);\n        addressToFarms[msg.sender].push(farm);\n        processorsWithFarm.push(msg.sender);\n        emit LogAddFarm(addressToFarms[msg.sender].length - 1);\n    }\n\n    \n}",
  "sourcePath": "/Users/crisgarner/Projects/affogato/contracts/Actor.sol",
  "compiler": {
    "name": "solc",
    "version": "0.4.24+commit.e67f0147.Emscripten.clang"
  },
  "schemaVersion": "2.0.1",
  "updatedAt": "2018-08-05T04:02:47.552Z"
}