{
  "contractName": "ActorFactory",
  "abi": [
    {
      "constant": true,
      "inputs": [
        {
          "name": "",
          "type": "uint256"
        }
      ],
      "name": "actorsIds",
      "outputs": [
        {
          "name": "",
          "type": "address"
        }
      ],
      "payable": false,
      "stateMutability": "view",
      "type": "function"
    },
    {
      "constant": true,
      "inputs": [
        {
          "name": "",
          "type": "address"
        }
      ],
      "name": "addressToActor",
      "outputs": [
        {
          "name": "name",
          "type": "bytes32"
        },
        {
          "name": "typeOfActor",
          "type": "bytes32"
        },
        {
          "name": "country",
          "type": "bytes32"
        },
        {
          "name": "region",
          "type": "bytes32"
        },
        {
          "name": "email",
          "type": "bytes32"
        }
      ],
      "payable": false,
      "stateMutability": "view",
      "type": "function"
    },
    {
      "anonymous": false,
      "inputs": [
        {
          "indexed": true,
          "name": "_id",
          "type": "address"
        }
      ],
      "name": "LogAddActor",
      "type": "event"
    },
    {
      "anonymous": false,
      "inputs": [
        {
          "indexed": true,
          "name": "_id",
          "type": "address"
        }
      ],
      "name": "LogUpdateActor",
      "type": "event"
    },
    {
      "constant": true,
      "inputs": [],
      "name": "getActorCount",
      "outputs": [
        {
          "name": "count",
          "type": "uint256"
        }
      ],
      "payable": false,
      "stateMutability": "view",
      "type": "function"
    },
    {
      "constant": true,
      "inputs": [
        {
          "name": "_owner",
          "type": "address"
        }
      ],
      "name": "getAccountType",
      "outputs": [
        {
          "name": "",
          "type": "bytes32"
        }
      ],
      "payable": false,
      "stateMutability": "view",
      "type": "function"
    },
    {
      "constant": true,
      "inputs": [],
      "name": "returnOwner",
      "outputs": [
        {
          "name": "",
          "type": "bytes32"
        },
        {
          "name": "",
          "type": "bytes32"
        },
        {
          "name": "",
          "type": "bytes32"
        },
        {
          "name": "",
          "type": "bytes32"
        },
        {
          "name": "",
          "type": "bytes32"
        }
      ],
      "payable": false,
      "stateMutability": "view",
      "type": "function"
    },
    {
      "constant": true,
      "inputs": [
        {
          "name": "_actorAddress",
          "type": "address"
        }
      ],
      "name": "getActor",
      "outputs": [
        {
          "name": "",
          "type": "bytes32"
        },
        {
          "name": "",
          "type": "bytes32"
        },
        {
          "name": "",
          "type": "bytes32"
        },
        {
          "name": "",
          "type": "bytes32"
        },
        {
          "name": "",
          "type": "bytes32"
        }
      ],
      "payable": false,
      "stateMutability": "view",
      "type": "function"
    },
    {
      "constant": false,
      "inputs": [
        {
          "name": "_name",
          "type": "bytes32"
        },
        {
          "name": "_typeOfActor",
          "type": "bytes32"
        },
        {
          "name": "_country",
          "type": "bytes32"
        },
        {
          "name": "_region",
          "type": "bytes32"
        },
        {
          "name": "_email",
          "type": "bytes32"
        }
      ],
      "name": "addActor",
      "outputs": [],
      "payable": false,
      "stateMutability": "nonpayable",
      "type": "function"
    },
    {
      "constant": false,
      "inputs": [
        {
          "name": "_name",
          "type": "bytes32"
        },
        {
          "name": "_typeOfActor",
          "type": "bytes32"
        },
        {
          "name": "_country",
          "type": "bytes32"
        },
        {
          "name": "_region",
          "type": "bytes32"
        },
        {
          "name": "_email",
          "type": "bytes32"
        }
      ],
      "name": "updateActor",
      "outputs": [],
      "payable": false,
      "stateMutability": "nonpayable",
      "type": "function"
    }
  ],
  "bytecode": "0x608060405234801561001057600080fd5b50610b23806100206000396000f30060806040526004361061008e576000357c0100000000000000000000000000000000000000000000000000000000900463ffffffff1680634138d167146100935780636e2062b21461012e5780636f753dbe146101595780638876a638146101c257806394a927fe1461022b578063a19bb4081461029a578063ae20314614610307578063b905fe5014610366575b600080fd5b34801561009f57600080fd5b506100d4600480360381019080803573ffffffffffffffffffffffffffffffffffffffff169060200190929190505050610401565b60405180866000191660001916815260200185600019166000191681526020018460001916600019168152602001836000191660001916815260200182600019166000191681526020019550505050505060405180910390f35b34801561013a57600080fd5b506101436104e4565b6040518082815260200191505060405180910390f35b34801561016557600080fd5b506101c0600480360381019080803560001916906020019092919080356000191690602001909291908035600019169060200190929190803560001916906020019092919080356000191690602001909291905050506104f1565b005b3480156101ce57600080fd5b50610229600480360381019080803560001916906020019092919080356000191690602001909291908035600019169060200190929190803560001916906020019092919080356000191690602001909291905050506106d1565b005b34801561023757600080fd5b50610240610918565b60405180866000191660001916815260200185600019166000191681526020018460001916600019168152602001836000191660001916815260200182600019166000191681526020019550505050505060405180910390f35b3480156102a657600080fd5b506102c5600480360381019080803590602001909291905050506109f9565b604051808273ffffffffffffffffffffffffffffffffffffffff1673ffffffffffffffffffffffffffffffffffffffff16815260200191505060405180910390f35b34801561031357600080fd5b50610348600480360381019080803573ffffffffffffffffffffffffffffffffffffffff169060200190929190505050610a37565b60405180826000191660001916815260200191505060405180910390f35b34801561037257600080fd5b506103a7600480360381019080803573ffffffffffffffffffffffffffffffffffffffff169060200190929190505050610a82565b60405180866000191660001916815260200185600019166000191681526020018460001916600019168152602001836000191660001916815260200182600019166000191681526020019550505050505060405180910390f35b6000806000806000610411610ab8565b6000808873ffffffffffffffffffffffffffffffffffffffff1673ffffffffffffffffffffffffffffffffffffffff16815260200190815260200160002060a060405190810160405290816000820154600019166000191681526020016001820154600019166000191681526020016002820154600019166000191681526020016003820154600019166000191681526020016004820154600019166000191681525050905080600001518160200151826040015183606001518460800151955095509550955095505091939590929450565b6000600180549050905090565b6104f9610ab8565b60006001026000803373ffffffffffffffffffffffffffffffffffffffff1673ffffffffffffffffffffffffffffffffffffffff168152602001908152602001600020600001546000191614151561055057600080fd5b60a0604051908101604052808760001916815260200186600019168152602001856000191681526020018460001916815260200183600019168152509050806000803373ffffffffffffffffffffffffffffffffffffffff1673ffffffffffffffffffffffffffffffffffffffff168152602001908152602001600020600082015181600001906000191690556020820151816001019060001916905560408201518160020190600019169055606082015181600301906000191690556080820151816004019060001916905590505060013390806001815401808255809150509060018203906000526020600020016000909192909190916101000a81548173ffffffffffffffffffffffffffffffffffffffff021916908373ffffffffffffffffffffffffffffffffffffffff160217905550503373ffffffffffffffffffffffffffffffffffffffff167f091d600a9bd4e0c61c19bf4b18a9352d51fde5471e24a97d00c2cfe3115b18ca60405160405180910390a2505050505050565b6106d9610ab8565b60006001026000803373ffffffffffffffffffffffffffffffffffffffff1673ffffffffffffffffffffffffffffffffffffffff16815260200190815260200160002060000154600019161415151561073157600080fd5b6000803373ffffffffffffffffffffffffffffffffffffffff1673ffffffffffffffffffffffffffffffffffffffff16815260200190815260200160002060a060405190810160405290816000820154600019166000191681526020016001820154600019166000191681526020016002820154600019166000191681526020016003820154600019166000191681526020016004820154600019166000191681525050905085816000019060001916908160001916815250508481602001906000191690816000191681525050838160400190600019169081600019168152505082816060019060001916908160001916815250508181608001906000191690816000191681525050806000803373ffffffffffffffffffffffffffffffffffffffff1673ffffffffffffffffffffffffffffffffffffffff16815260200190815260200160002060008201518160000190600019169055602082015181600101906000191690556040820151816002019060001916905560608201518160030190600019169055608082015181600401906000191690559050503373ffffffffffffffffffffffffffffffffffffffff167f40fe80ed1009d34c733aef0c934c33f019edecf0ce21e711c81acf37e7c3ed7a60405160405180910390a2505050505050565b6000806000806000610928610ab8565b6000803373ffffffffffffffffffffffffffffffffffffffff1673ffffffffffffffffffffffffffffffffffffffff16815260200190815260200160002060a06040519081016040529081600082015460001916600019168152602001600182015460001916600019168152602001600282015460001916600019168152602001600382015460001916600019168152602001600482015460001916600019168152505090508060000151816020015182604001518360600151846080015195509550955095509550509091929394565b600181815481101515610a0857fe5b906000526020600020016000915054906101000a900473ffffffffffffffffffffffffffffffffffffffff1681565b60008060008373ffffffffffffffffffffffffffffffffffffffff1673ffffffffffffffffffffffffffffffffffffffff168152602001908152602001600020600101549050919050565b60006020528060005260406000206000915090508060000154908060010154908060020154908060030154908060040154905085565b60a060405190810160405280600080191681526020016000801916815260200160008019168152602001600080191681526020016000801916815250905600a165627a7a7230582077316c4ca7641a4f448de46078d7ca132a599be49115ae92dfad0b343110848b0029",
  "source": "pragma solidity ^0.4.23;\n\nimport \"./Utils.sol\";\n\ncontract ActorFactory is Utils {\n\n    event LogAddActor(address indexed _id);\n    event LogUpdateActor(address indexed _id);\n\n     //Farmer\n    struct Actor {\n        bytes32 name;\n        bytes32 typeOfActor; \n        bytes32 country; \n        bytes32 region;\n        bytes32 email;   \n    }\n\n    mapping(address => Actor) public addressToActor;\n    address[] public actorsIds;    \n\n    function getActorCount() public view returns(uint count){\n        return actorsIds.length;\n    }\n\n    function getAccountType(address _owner) public view returns(bytes32) {\n        return addressToActor[_owner].typeOfActor;\n    }\n\n    function returnOwner() public view returns(\n        bytes32, \n        bytes32, \n        bytes32, \n        bytes32,\n        bytes32\n    ){\n        Actor memory actor = addressToActor[msg.sender];\n        return(\n            actor.name,\n            actor.typeOfActor,\n            actor.country,\n            actor.region,\n            actor.email\n        );\n    }\n\n    function getActor(address _actorAddress) public view returns(\n        bytes32, \n        bytes32,\n        bytes32, \n        bytes32, \n        bytes32\n    ) {\n        Actor memory actor = addressToActor[_actorAddress];\n        return(\n            actor.name,\n            actor.typeOfActor,\n            actor.country,\n            actor.region,\n            actor.email\n        );\n    }\n\n    function addActor(\n        bytes32 _name, \n        bytes32 _typeOfActor,\n        bytes32 _country, \n        bytes32 _region, \n        bytes32 _email\n    ) public {\n        require(addressToActor[msg.sender].name == 0);\n        Actor memory actor = Actor(_name,_typeOfActor,_country,_region,_email);\n        addressToActor[msg.sender] = actor;\n        actorsIds.push(msg.sender);\n        emit LogAddActor(msg.sender);\n    }\n\n    function updateActor(\n        bytes32 _name, \n        bytes32 _typeOfActor,\n        bytes32 _country, \n        bytes32 _region,\n        bytes32 _email \n    ) public {\n        require(!(addressToActor[msg.sender].name == 0));\n        Actor memory actor = addressToActor[msg.sender];\n        actor.name = _name;\n        actor.typeOfActor = _typeOfActor;\n        actor.country = _country;\n        actor.region = _region;\n        actor.email = _email;\n        addressToActor[msg.sender] = actor;\n        emit LogUpdateActor(msg.sender);\n    }        \n}",
  "sourcePath": "/Users/crisgarner/Projects/affogato/contracts/ActorFactory.sol",
  "compiler": {
    "name": "solc",
    "version": "0.4.24+commit.e67f0147.Emscripten.clang"
  },
  "schemaVersion": "2.0.1",
  "updatedAt": "2018-08-30T23:04:48.256Z"
}