{
  "contractName": "Actor",
  "abi": [
    {
      "constant": true,
      "inputs": [
        {
          "name": "",
          "type": "uint256"
        }
      ],
      "name": "processorIds",
      "outputs": [
        {
          "name": "",
          "type": "address"
        }
      ],
      "payable": false,
      "stateMutability": "view",
      "type": "function"
    },
    {
      "constant": true,
      "inputs": [
        {
          "name": "",
          "type": "address"
        }
      ],
      "name": "addressToProcessor",
      "outputs": [
        {
          "name": "processorAddress",
          "type": "address"
        },
        {
          "name": "name",
          "type": "bytes32"
        },
        {
          "name": "typeOfProcessor",
          "type": "bytes32"
        },
        {
          "name": "department",
          "type": "bytes32"
        },
        {
          "name": "country",
          "type": "bytes32"
        },
        {
          "name": "lon",
          "type": "int256"
        },
        {
          "name": "lat",
          "type": "int256"
        },
        {
          "name": "additionalInformation",
          "type": "string"
        }
      ],
      "payable": false,
      "stateMutability": "view",
      "type": "function"
    },
    {
      "anonymous": false,
      "inputs": [
        {
          "indexed": true,
          "name": "_id",
          "type": "uint256"
        }
      ],
      "name": "LogAddProcessor",
      "type": "event"
    },
    {
      "anonymous": false,
      "inputs": [
        {
          "indexed": true,
          "name": "_id",
          "type": "uint256"
        }
      ],
      "name": "LogUpdateProcessor",
      "type": "event"
    },
    {
      "constant": true,
      "inputs": [],
      "name": "getCount",
      "outputs": [
        {
          "name": "count",
          "type": "uint256"
        }
      ],
      "payable": false,
      "stateMutability": "view",
      "type": "function"
    },
    {
      "constant": false,
      "inputs": [
        {
          "name": "_owner",
          "type": "address"
        },
        {
          "name": "_name",
          "type": "bytes32"
        },
        {
          "name": "_typeOfProcessor",
          "type": "bytes32"
        },
        {
          "name": "_department",
          "type": "bytes32"
        },
        {
          "name": "_country",
          "type": "bytes32"
        },
        {
          "name": "_lon",
          "type": "int256"
        },
        {
          "name": "_lat",
          "type": "int256"
        },
        {
          "name": "_additionalInformation",
          "type": "string"
        }
      ],
      "name": "addProcessor",
      "outputs": [],
      "payable": false,
      "stateMutability": "nonpayable",
      "type": "function"
    },
    {
      "constant": false,
      "inputs": [
        {
          "name": "_owner",
          "type": "address"
        },
        {
          "name": "_name",
          "type": "bytes32"
        },
        {
          "name": "_typeOfProcessor",
          "type": "bytes32"
        },
        {
          "name": "_department",
          "type": "bytes32"
        },
        {
          "name": "_country",
          "type": "bytes32"
        },
        {
          "name": "_lon",
          "type": "int256"
        },
        {
          "name": "_lat",
          "type": "int256"
        },
        {
          "name": "_additionalInformation",
          "type": "string"
        }
      ],
      "name": "updateProcessor",
      "outputs": [],
      "payable": false,
      "stateMutability": "nonpayable",
      "type": "function"
    }
  ],
  "bytecode": "0x608060405234801561001057600080fd5b50610bca806100206000396000f30060806040526004361061006d576000357c0100000000000000000000000000000000000000000000000000000000900463ffffffff1680634e1a47d314610072578063a386386e146100df578063a6dbe0f414610218578063a87d942c146102ed578063deafda1714610318575b600080fd5b34801561007e57600080fd5b5061009d600480360381019080803590602001909291905050506103ed565b604051808273ffffffffffffffffffffffffffffffffffffffff1673ffffffffffffffffffffffffffffffffffffffff16815260200191505060405180910390f35b3480156100eb57600080fd5b50610120600480360381019080803573ffffffffffffffffffffffffffffffffffffffff16906020019092919050505061042b565b604051808973ffffffffffffffffffffffffffffffffffffffff1673ffffffffffffffffffffffffffffffffffffffff168152602001886000191660001916815260200187600019166000191681526020018660001916600019168152602001856000191660001916815260200184815260200183815260200180602001828103825283818151815260200191508051906020019080838360005b838110156101d65780820151818401526020810190506101bb565b50505050905090810190601f1680156102035780820380516001836020036101000a031916815260200191505b50995050505050505050505060405180910390f35b34801561022457600080fd5b506102eb600480360381019080803573ffffffffffffffffffffffffffffffffffffffff16906020019092919080356000191690602001909291908035600019169060200190929190803560001916906020019092919080356000191690602001909291908035906020019092919080359060200190929190803590602001908201803590602001908080601f016020809104026020016040519081016040528093929190818152602001838380828437820191505050505050919291929050505061052b565b005b3480156102f957600080fd5b5061030261087a565b6040518082815260200191505060405180910390f35b34801561032457600080fd5b506103eb600480360381019080803573ffffffffffffffffffffffffffffffffffffffff16906020019092919080356000191690602001909291908035600019169060200190929190803560001916906020019092919080356000191690602001909291908035906020019092919080359060200190929190803590602001908201803590602001908080601f0160208091040260200160405190810160405280939291908181526020018383808284378201915050505050509192919290505050610887565b005b6001818154811015156103fc57fe5b906000526020600020016000915054906101000a900473ffffffffffffffffffffffffffffffffffffffff1681565b60006020528060005260406000206000915090508060000160009054906101000a900473ffffffffffffffffffffffffffffffffffffffff1690806001015490806002015490806003015490806004015490806005015490806006015490806007018054600181600116156101000203166002900480601f0160208091040260200160405190810160405280929190818152602001828054600181600116156101000203166002900480156105215780601f106104f657610100808354040283529160200191610521565b820191906000526020600020905b81548152906001019060200180831161050457829003601f168201915b5050505050905088565b610533610a91565b6000808a73ffffffffffffffffffffffffffffffffffffffff1673ffffffffffffffffffffffffffffffffffffffff16815260200190815260200160002061010060405190810160405290816000820160009054906101000a900473ffffffffffffffffffffffffffffffffffffffff1673ffffffffffffffffffffffffffffffffffffffff1673ffffffffffffffffffffffffffffffffffffffff1681526020016001820154600019166000191681526020016002820154600019166000191681526020016003820154600019166000191681526020016004820154600019166000191681526020016005820154815260200160068201548152602001600782018054600181600116156101000203166002900480601f0160208091040260200160405190810160405280929190818152602001828054600181600116156101000203166002900480156106c95780601f1061069e576101008083540402835291602001916106c9565b820191906000526020600020905b8154815290600101906020018083116106ac57829003601f168201915b50505050508152505090508781602001906000191690816000191681525050868160400190600019169081600019168152505085816060019060001916908160001916815250508481608001906000191690816000191681525050838160a0018181525050828160c0018181525050818160e00181905250806000808b73ffffffffffffffffffffffffffffffffffffffff1673ffffffffffffffffffffffffffffffffffffffff16815260200190815260200160002060008201518160000160006101000a81548173ffffffffffffffffffffffffffffffffffffffff021916908373ffffffffffffffffffffffffffffffffffffffff1602179055506020820151816001019060001916905560408201518160020190600019169055606082015181600301906000191690556080820151816004019060001916905560a0820151816005015560c0820151816006015560e0820151816007019080519060200190610837929190610af9565b5090505060018080549050037f8ca2de16d9ae62a204903bdc8edf452fc75397221a050374d8ffd040b1dc252660405160405180910390a2505050505050505050565b6000600180549050905090565b61088f610a91565b610100604051908101604052808a73ffffffffffffffffffffffffffffffffffffffff16815260200189600019168152602001886000191681526020018760001916815260200186600019168152602001858152602001848152602001838152509050806000808b73ffffffffffffffffffffffffffffffffffffffff1673ffffffffffffffffffffffffffffffffffffffff16815260200190815260200160002060008201518160000160006101000a81548173ffffffffffffffffffffffffffffffffffffffff021916908373ffffffffffffffffffffffffffffffffffffffff1602179055506020820151816001019060001916905560408201518160020190600019169055606082015181600301906000191690556080820151816004019060001916905560a0820151816005015560c0820151816006015560e08201518160070190805190602001906109e8929190610af9565b5090505060018990806001815401808255809150509060018203906000526020600020016000909192909190916101000a81548173ffffffffffffffffffffffffffffffffffffffff021916908373ffffffffffffffffffffffffffffffffffffffff1602179055505060018080549050037f58097dca66a4dd3e32f2a3a7035945d25b80b192c4b364c8701e6929d47b87d360405160405180910390a2505050505050505050565b61010060405190810160405280600073ffffffffffffffffffffffffffffffffffffffff168152602001600080191681526020016000801916815260200160008019168152602001600080191681526020016000815260200160008152602001606081525090565b828054600181600116156101000203166002900490600052602060002090601f016020900481019282601f10610b3a57805160ff1916838001178555610b68565b82800160010185558215610b68579182015b82811115610b67578251825591602001919060010190610b4c565b5b509050610b759190610b79565b5090565b610b9b91905b80821115610b97576000816000905550600101610b7f565b5090565b905600a165627a7a723058203cb58d1e0047675d3fe7df675f5002c29adcd0c6c25faba7da9d5cb20ea4e3d50029",
  "source": "pragma solidity ^0.4.23;\n\nimport \"./AffogatoNetwork.sol\";\n\ncontract Actor is AffogatoNetwork {\n\n    event LogAddProcessor(uint256 indexed _id);\n    event LogUpdateProcessor(uint256 indexed _id);\n\n    struct Processor {\n        address processorAddress;\n        // @dev indicates the name of a Handler.\n        bytes32 name;\n        // @dev indicates the type of processor: Beneficio, Cooperative, Farm, Exporter, Taster\n        bytes32 typeOfProcessor; \n        bytes32 department;\n        bytes32 country; \n        // @dev Longitude x10^10 where the Action is done.\n        int lon;\n        // @dev Latitude x10^10 where the Action is done.\n        int lat;   \n        // @dev Additional information about the Processor, generally as a JSON object\n        string additionalInformation; //story, owner, village, municipality;\n        \n    }\n\n    function getCount() public view returns(uint count) {\n        return processorIds.length;\n    }\n\n    mapping(address => Processor) public addressToProcessor;\n    address[] public processorIds;\n\n    function addProcessor(\n        address _owner,\n        bytes32 _name, \n        bytes32 _typeOfProcessor, \n        bytes32 _department, \n        bytes32 _country, \n        int _lon, \n        int _lat, \n        string _additionalInformation\n    ) public {\n        Processor memory processor = Processor(_owner,_name,_typeOfProcessor,_department,_country,_lon,_lat,_additionalInformation);\n        addressToProcessor[_owner] = processor;\n        processorIds.push(_owner);\n        emit LogAddProcessor(processorIds.length - 1);\n    }\n\n    function updateProcessor(\n        address _owner,\n        bytes32 _name, \n        bytes32 _typeOfProcessor, \n        bytes32 _department, \n        bytes32 _country, \n        int _lon, \n        int _lat, \n        string _additionalInformation\n    ) public {\n        Processor memory processor = addressToProcessor[_owner];\n        processor.name = _name;\n        processor.typeOfProcessor = _typeOfProcessor;\n        processor.department = _department;\n        processor.country = _country;\n        processor.lon = _lon;\n        processor.lat = _lat;\n        processor.additionalInformation = _additionalInformation;\n        addressToProcessor[_owner] = processor;\n        emit LogUpdateProcessor(processorIds.length - 1);\n    }\n    //update Processor\n}",
  "sourcePath": "/Users/crisgarner/Projects/affogato/contracts/Actor.sol",
  "compiler": {
    "name": "solc",
    "version": "0.4.24+commit.e67f0147.Emscripten.clang"
  },
  "schemaVersion": "2.0.0",
  "updatedAt": "2018-06-26T01:47:13.740Z"
}