{
  "contractName": "AffogatoNetwork",
  "abi": [
    {
      "constant": true,
      "inputs": [
        {
          "name": "",
          "type": "uint256"
        }
      ],
      "name": "coffeeBatches",
      "outputs": [
        {
          "name": "id",
          "type": "uint256"
        },
        {
          "name": "auditCode",
          "type": "uint256"
        },
        {
          "name": "cuppingFinalNote",
          "type": "string"
        },
        {
          "name": "batchSize",
          "type": "string"
        },
        {
          "name": "altitude",
          "type": "uint256"
        },
        {
          "name": "process",
          "type": "string"
        },
        {
          "name": "variety",
          "type": "string"
        },
        {
          "name": "farmId",
          "type": "uint256"
        }
      ],
      "payable": false,
      "stateMutability": "view",
      "type": "function"
    },
    {
      "constant": true,
      "inputs": [
        {
          "name": "",
          "type": "uint256"
        }
      ],
      "name": "farms",
      "outputs": [
        {
          "name": "id",
          "type": "uint256"
        },
        {
          "name": "producerName",
          "type": "string"
        },
        {
          "name": "farmName",
          "type": "string"
        },
        {
          "name": "village",
          "type": "string"
        },
        {
          "name": "municipality",
          "type": "string"
        },
        {
          "name": "department",
          "type": "string"
        },
        {
          "name": "country",
          "type": "string"
        }
      ],
      "payable": false,
      "stateMutability": "view",
      "type": "function"
    },
    {
      "inputs": [],
      "payable": false,
      "stateMutability": "nonpayable",
      "type": "constructor"
    },
    {
      "anonymous": false,
      "inputs": [
        {
          "indexed": true,
          "name": "_id",
          "type": "uint256"
        }
      ],
      "name": "AddCoffeeBatch",
      "type": "event"
    },
    {
      "anonymous": false,
      "inputs": [
        {
          "indexed": true,
          "name": "_id",
          "type": "uint256"
        }
      ],
      "name": "AddFarm",
      "type": "event"
    },
    {
      "constant": false,
      "inputs": [
        {
          "name": "_auditCode",
          "type": "uint256"
        },
        {
          "name": "_cuppingFinalNote",
          "type": "string"
        },
        {
          "name": "_batchSize",
          "type": "string"
        },
        {
          "name": "_altitude",
          "type": "uint256"
        },
        {
          "name": "_process",
          "type": "string"
        },
        {
          "name": "_variety",
          "type": "string"
        },
        {
          "name": "_farmId",
          "type": "uint256"
        }
      ],
      "name": "addCoffeeBatch",
      "outputs": [],
      "payable": false,
      "stateMutability": "nonpayable",
      "type": "function"
    },
    {
      "constant": false,
      "inputs": [
        {
          "name": "_producerName",
          "type": "string"
        },
        {
          "name": "_farmName",
          "type": "string"
        },
        {
          "name": "_village",
          "type": "string"
        },
        {
          "name": "_municipality",
          "type": "string"
        },
        {
          "name": "_department",
          "type": "string"
        },
        {
          "name": "_country",
          "type": "string"
        }
      ],
      "name": "addFarm",
      "outputs": [],
      "payable": false,
      "stateMutability": "nonpayable",
      "type": "function"
    },
    {
      "constant": true,
      "inputs": [
        {
          "name": "_index",
          "type": "uint256"
        }
      ],
      "name": "getFarmBatches",
      "outputs": [
        {
          "name": "",
          "type": "uint256[]"
        }
      ],
      "payable": false,
      "stateMutability": "view",
      "type": "function"
    }
  ],
  "bytecode": "0x608060405234801561001057600080fd5b50336000806101000a81548173ffffffffffffffffffffffffffffffffffffffff021916908373ffffffffffffffffffffffffffffffffffffffff160217905550611586806100606000396000f30060806040526004361061006d576000357c0100000000000000000000000000000000000000000000000000000000900463ffffffff168063395209b2146100725780635881bcfd146102785780637da470ea1461043f57806399dc422914610708578063b375418314610861575b600080fd5b34801561007e57600080fd5b5061009d600480360381019080803590602001909291905050506108e3565b604051808981526020018881526020018060200180602001878152602001806020018060200186815260200185810385528b818151815260200191508051906020019080838360005b838110156101015780820151818401526020810190506100e6565b50505050905090810190601f16801561012e5780820380516001836020036101000a031916815260200191505b5085810384528a818151815260200191508051906020019080838360005b8381101561016757808201518184015260208101905061014c565b50505050905090810190601f1680156101945780820380516001836020036101000a031916815260200191505b50858103835288818151815260200191508051906020019080838360005b838110156101cd5780820151818401526020810190506101b2565b50505050905090810190601f1680156101fa5780820380516001836020036101000a031916815260200191505b50858103825287818151815260200191508051906020019080838360005b83811015610233578082015181840152602081019050610218565b50505050905090810190601f1680156102605780820380516001836020036101000a031916815260200191505b509c5050505050505050505050505060405180910390f35b34801561028457600080fd5b5061043d600480360381019080803590602001908201803590602001908080601f0160208091040260200160405190810160405280939291908181526020018383808284378201915050505050509192919290803590602001908201803590602001908080601f0160208091040260200160405190810160405280939291908181526020018383808284378201915050505050509192919290803590602001908201803590602001908080601f0160208091040260200160405190810160405280939291908181526020018383808284378201915050505050509192919290803590602001908201803590602001908080601f0160208091040260200160405190810160405280939291908181526020018383808284378201915050505050509192919290803590602001908201803590602001908080601f0160208091040260200160405190810160405280939291908181526020018383808284378201915050505050509192919290803590602001908201803590602001908080601f0160208091040260200160405190810160405280939291908181526020018383808284378201915050505050509192919290505050610b9a565b005b34801561044b57600080fd5b5061046a60048036038101908080359060200190929190505050610db3565b6040518088815260200180602001806020018060200180602001806020018060200187810387528d818151815260200191508051906020019080838360005b838110156104c45780820151818401526020810190506104a9565b50505050905090810190601f1680156104f15780820380516001836020036101000a031916815260200191505b5087810386528c818151815260200191508051906020019080838360005b8381101561052a57808201518184015260208101905061050f565b50505050905090810190601f1680156105575780820380516001836020036101000a031916815260200191505b5087810385528b818151815260200191508051906020019080838360005b83811015610590578082015181840152602081019050610575565b50505050905090810190601f1680156105bd5780820380516001836020036101000a031916815260200191505b5087810384528a818151815260200191508051906020019080838360005b838110156105f65780820151818401526020810190506105db565b50505050905090810190601f1680156106235780820380516001836020036101000a031916815260200191505b50878103835289818151815260200191508051906020019080838360005b8381101561065c578082015181840152602081019050610641565b50505050905090810190601f1680156106895780820380516001836020036101000a031916815260200191505b50878103825288818151815260200191508051906020019080838360005b838110156106c25780820151818401526020810190506106a7565b50505050905090810190601f1680156106ef5780820380516001836020036101000a031916815260200191505b509d505050505050505050505050505060405180910390f35b34801561071457600080fd5b5061085f60048036038101908080359060200190929190803590602001908201803590602001908080601f0160208091040260200160405190810160405280939291908181526020018383808284378201915050505050509192919290803590602001908201803590602001908080601f016020809104026020016040519081016040528093929190818152602001838380828437820191505050505050919291929080359060200190929190803590602001908201803590602001908080601f0160208091040260200160405190810160405280939291908181526020018383808284378201915050505050509192919290803590602001908201803590602001908080601f016020809104026020016040519081016040528093929190818152602001838380828437820191505050505050919291929080359060200190929190505050611194565b005b34801561086d57600080fd5b5061088c60048036038101908080359060200190929190505050611385565b6040518080602001828103825283818151815260200191508051906020019060200280838360005b838110156108cf5780820151818401526020810190506108b4565b505050509050019250505060405180910390f35b6001818154811015156108f257fe5b9060005260206000209060080201600091509050806000015490806001015490806002018054600181600116156101000203166002900480601f0160208091040260200160405190810160405280929190818152602001828054600181600116156101000203166002900480156109aa5780601f1061097f576101008083540402835291602001916109aa565b820191906000526020600020905b81548152906001019060200180831161098d57829003601f168201915b505050505090806003018054600181600116156101000203166002900480601f016020809104026020016040519081016040528092919081815260200182805460018160011615610100020316600290048015610a485780601f10610a1d57610100808354040283529160200191610a48565b820191906000526020600020905b815481529060010190602001808311610a2b57829003601f168201915b505050505090806004015490806005018054600181600116156101000203166002900480601f016020809104026020016040519081016040528092919081815260200182805460018160011615610100020316600290048015610aec5780601f10610ac157610100808354040283529160200191610aec565b820191906000526020600020905b815481529060010190602001808311610acf57829003601f168201915b505050505090806006018054600181600116156101000203166002900480601f016020809104026020016040519081016040528092919081815260200182805460018160011615610100020316600290048015610b8a5780601f10610b5f57610100808354040283529160200191610b8a565b820191906000526020600020905b815481529060010190602001808311610b6d57829003601f168201915b5050505050908060070154905088565b6000610ba4611422565b610bad886113fd565b158015610bc05750610bbe876113fd565b155b8015610bd25750610bd0866113fd565b155b8015610be45750610be2856113fd565b155b8015610bf65750610bf4836113fd565b155b1515610c0157600080fd5b6002805490509150610100604051908101604052808381526020018981526020018881526020018781526020018681526020018581526020018481526020016000604051908082528060200260200182016040528015610c705781602001602082028038833980820191505090505b50815250905060028190806001815401808255809150509060018203906000526020600020906008020160009091929091909150600082015181600001556020820151816001019080519060200190610cca929190611468565b506040820151816002019080519060200190610ce7929190611468565b506060820151816003019080519060200190610d04929190611468565b506080820151816004019080519060200190610d21929190611468565b5060a0820151816005019080519060200190610d3e929190611468565b5060c0820151816006019080519060200190610d5b929190611468565b5060e0820151816007019080519060200190610d789291906114e8565b50505050817fa7519119fc78e3a0264b7b028dd33232b5408d7f0ace427e1117397dfa1dbe1860405160405180910390a25050505050505050565b600281815481101515610dc257fe5b9060005260206000209060080201600091509050806000015490806001018054600181600116156101000203166002900480601f016020809104026020016040519081016040528092919081815260200182805460018160011615610100020316600290048015610e745780601f10610e4957610100808354040283529160200191610e74565b820191906000526020600020905b815481529060010190602001808311610e5757829003601f168201915b505050505090806002018054600181600116156101000203166002900480601f016020809104026020016040519081016040528092919081815260200182805460018160011615610100020316600290048015610f125780601f10610ee757610100808354040283529160200191610f12565b820191906000526020600020905b815481529060010190602001808311610ef557829003601f168201915b505050505090806003018054600181600116156101000203166002900480601f016020809104026020016040519081016040528092919081815260200182805460018160011615610100020316600290048015610fb05780601f10610f8557610100808354040283529160200191610fb0565b820191906000526020600020905b815481529060010190602001808311610f9357829003601f168201915b505050505090806004018054600181600116156101000203166002900480601f01602080910402602001604051908101604052809291908181526020018280546001816001161561010002031660029004801561104e5780601f106110235761010080835404028352916020019161104e565b820191906000526020600020905b81548152906001019060200180831161103157829003601f168201915b505050505090806005018054600181600116156101000203166002900480601f0160208091040260200160405190810160405280929190818152602001828054600181600116156101000203166002900480156110ec5780601f106110c1576101008083540402835291602001916110ec565b820191906000526020600020905b8154815290600101906020018083116110cf57829003601f168201915b505050505090806006018054600181600116156101000203166002900480601f01602080910402602001604051908101604052809291908181526020018280546001816001161561010002031660029004801561118a5780601f1061115f5761010080835404028352916020019161118a565b820191906000526020600020905b81548152906001019060200180831161116d57829003601f168201915b5050505050905087565b600081600280549050101515156111aa57600080fd5b6111b3876113fd565b1580156111c657506111c4866113fd565b155b80156111d857506111d6846113fd565b155b80156111ea57506111e8836113fd565b155b15156111f557600080fd5b60018054905090506001610100604051908101604052808381526020018a8152602001898152602001888152602001878152602001868152602001858152602001848152509080600181540180825580915050906001820390600052602060002090600802016000909192909190915060008201518160000155602082015181600101556040820151816002019080519060200190611295929190611468565b5060608201518160030190805190602001906112b2929190611468565b506080820151816004015560a08201518160050190805190602001906112d9929190611468565b5060c08201518160060190805190602001906112f6929190611468565b5060e0820151816007015550505060028281548110151561131357fe5b9060005260206000209060080201600701819080600181540180825580915050906001820390600052602060002001600090919290919091505550807f825ed299415b0eed10996b6a8df0c8c33b9a5ab4f5cad6b8369077e4c80fb94f60405160405180910390a25050505050505050565b606060028281548110151561139657fe5b90600052602060002090600802016007018054806020026020016040519081016040528092919081815260200182805480156113f157602002820191906000526020600020905b8154815260200190600101908083116113dd575b50505050509050919050565b60006060829050600081511415611417576001915061141c565b600091505b50919050565b6101006040519081016040528060008152602001606081526020016060815260200160608152602001606081526020016060815260200160608152602001606081525090565b828054600181600116156101000203166002900490600052602060002090601f016020900481019282601f106114a957805160ff19168380011785556114d7565b828001600101855582156114d7579182015b828111156114d65782518255916020019190600101906114bb565b5b5090506114e49190611535565b5090565b828054828255906000526020600020908101928215611524579160200282015b82811115611523578251825591602001919060010190611508565b5b5090506115319190611535565b5090565b61155791905b8082111561155357600081600090555060010161153b565b5090565b905600a165627a7a723058201e29dc8b223332898315c7b4777888de4c9de14b9cf996a4b9200ab42c378dd60029",
  "source": "pragma solidity ^0.4.23;\n\ncontract AffogatoNetwork {\n  //Initialice the contract\n\n  address admin;\n\n  struct CoffeeBatch {\n    uint256 id;\n    uint256 auditCode;\n    string cuppingFinalNote;\n    string batchSize;\n    uint256 altitude;\n    string process;\n    string variety;\n    uint256 farmId;\n  }\n\n  struct Farm{\n    uint256 id;\n    string producerName;\n    string farmName;\n    string village;\n    string municipality;\n    string department;\n    string country;\n    uint256[] coffeeBatchesIds;\n  }\n\n  CoffeeBatch[] public coffeeBatches;\n  Farm[] public farms;\n\n  //Event Definition\n  event AddCoffeeBatch(uint256 indexed _id);\n  event AddFarm(uint256 indexed _id);\n\n  //Constructor, initialices the values\n  constructor() public{\n    admin = msg.sender;\n  }\n\n  //Inserts Batch of coffee, updates farm batches and emits AddCoffeeBatch event\n  function addCoffeeBatch(\n    uint256 _auditCode,\n    string _cuppingFinalNote,\n    string _batchSize,\n    uint256 _altitude,\n    string _process,\n    string _variety,\n    uint256 _farmId\n  ) public {\n    require(farms.length >= _farmId);\n    require(!isEmpty(_cuppingFinalNote) && !isEmpty(_batchSize) && !isEmpty(_process) && !isEmpty(_variety));\n    uint currentId = coffeeBatches.length;\n    coffeeBatches.push(CoffeeBatch(currentId, _auditCode, _cuppingFinalNote, _batchSize, _altitude, _process, _variety, _farmId));\n    farms[_farmId].coffeeBatchesIds.push(currentId);\n    emit AddCoffeeBatch(currentId);\n  }\n\n  //Inserts Farm and emits AddFarm event\n  function addFarm(\n    string _producerName,\n    string _farmName,\n    string _village,\n    string _municipality,\n    string _department,\n    string _country\n  ) public {\n    require(!isEmpty(_producerName) && !isEmpty(_farmName) && !isEmpty(_village) && !isEmpty(_municipality) && !isEmpty(_country));\n    uint currentId = farms.length;\n    Farm memory farm = Farm(currentId, _producerName, _farmName, _village, _municipality, _department, _country, new uint[](0)); \n    farms.push(farm);  \n    emit AddFarm(currentId);\n  }\n\n  //Gets farm batches\n  function getFarmBatches(uint256 _index) public view returns (uint256[]) {\n      return farms[_index].coffeeBatchesIds;\n  }\n\n\n  function isEmpty(string _empty) internal pure returns (bool){\n    bytes memory tempEmptyString = bytes(_empty); // Uses memory\n    if (tempEmptyString.length == 0) {\n        return true;\n    } else {\n        return false;\n    }\n  }\n\n}\n",
  "sourcePath": "/home/namelessghoul/Descargas/affogato/contracts/AffogatoNetwork.sol",
  "compiler": {
    "name": "solc",
    "version": "0.4.24+commit.e67f0147.Emscripten.clang"
  },
  "schemaVersion": "2.0.0",
  "updatedAt": "2018-06-07T13:51:42.255Z"
}