{
  "contractName": "AffogatoNetwork",
  "abi": [
    {
      "constant": true,
      "inputs": [],
      "name": "count",
      "outputs": [
        {
          "name": "",
          "type": "uint256"
        }
      ],
      "payable": false,
      "stateMutability": "view",
      "type": "function"
    },
    {
      "inputs": [],
      "payable": false,
      "stateMutability": "nonpayable",
      "type": "constructor"
    },
    {
      "constant": false,
      "inputs": [
        {
          "name": "_auditCode",
          "type": "uint256"
        },
        {
          "name": "_cuppingFinalNote",
          "type": "string"
        },
        {
          "name": "_producerName",
          "type": "string"
        },
        {
          "name": "_farmName",
          "type": "string"
        },
        {
          "name": "_village",
          "type": "string"
        },
        {
          "name": "_municipality",
          "type": "string"
        },
        {
          "name": "_department",
          "type": "string"
        },
        {
          "name": "_country",
          "type": "string"
        },
        {
          "name": "_batchSize",
          "type": "string"
        },
        {
          "name": "_altitude",
          "type": "uint256"
        },
        {
          "name": "_process",
          "type": "string"
        },
        {
          "name": "_variety",
          "type": "string"
        }
      ],
      "name": "addCoffeeBatch",
      "outputs": [
        {
          "name": "id",
          "type": "uint256"
        }
      ],
      "payable": false,
      "stateMutability": "nonpayable",
      "type": "function"
    }
  ],
  "bytecode": "0x608060405234801561001057600080fd5b50336000806101000a81548173ffffffffffffffffffffffffffffffffffffffff021916908373ffffffffffffffffffffffffffffffffffffffff160217905550600060018190555061063a806100686000396000f30060806040526004361061004c576000357c0100000000000000000000000000000000000000000000000000000000900463ffffffff16806306661abd1461005157806326eae29d1461007c575b600080fd5b34801561005d57600080fd5b50610066610383565b6040518082815260200191505060405180910390f35b34801561008857600080fd5b5061036d60048036038101908080359060200190929190803590602001908201803590602001908080601f0160208091040260200160405190810160405280939291908181526020018383808284378201915050505050509192919290803590602001908201803590602001908080601f0160208091040260200160405190810160405280939291908181526020018383808284378201915050505050509192919290803590602001908201803590602001908080601f0160208091040260200160405190810160405280939291908181526020018383808284378201915050505050509192919290803590602001908201803590602001908080601f0160208091040260200160405190810160405280939291908181526020018383808284378201915050505050509192919290803590602001908201803590602001908080601f0160208091040260200160405190810160405280939291908181526020018383808284378201915050505050509192919290803590602001908201803590602001908080601f0160208091040260200160405190810160405280939291908181526020018383808284378201915050505050509192919290803590602001908201803590602001908080601f0160208091040260200160405190810160405280939291908181526020018383808284378201915050505050509192919290803590602001908201803590602001908080601f016020809104026020016040519081016040528093929190818152602001838380828437820191505050505050919291929080359060200190929190803590602001908201803590602001908080601f0160208091040260200160405190810160405280939291908181526020018383808284378201915050505050509192919290803590602001908201803590602001908080601f0160208091040260200160405190810160405280939291908181526020018383808284378201915050505050509192919290505050610389565b6040518082815260200191505060405180910390f35b60015481565b600060015490506101a0604051908101604052808281526020018e81526020018d81526020018c81526020018b81526020018a815260200189815260200188815260200187815260200186815260200185815260200184815260200183815250600260008381526020019081526020016000206000820151816000015560208201518160010155604082015181600201908051906020019061042c929190610569565b506060820151816003019080519060200190610449929190610569565b506080820151816004019080519060200190610466929190610569565b5060a0820151816005019080519060200190610483929190610569565b5060c08201518160060190805190602001906104a0929190610569565b5060e08201518160070190805190602001906104bd929190610569565b506101008201518160080190805190602001906104db929190610569565b506101208201518160090190805190602001906104f9929190610569565b5061014082015181600a015561016082015181600b019080519060200190610522929190610569565b5061018082015181600c019080519060200190610540929190610569565b509050506001600081548092919060010191905055508090509c9b505050505050505050505050565b828054600181600116156101000203166002900490600052602060002090601f016020900481019282601f106105aa57805160ff19168380011785556105d8565b828001600101855582156105d8579182015b828111156105d75782518255916020019190600101906105bc565b5b5090506105e591906105e9565b5090565b61060b91905b808211156106075760008160009055506001016105ef565b5090565b905600a165627a7a72305820563df577c98b63d9439312162af952258f0c5e6e54c481cfb2bbb43f85b4f8910029",
  "source": "pragma solidity ^0.4.23;\n\ncontract AffogatoNetwork {\n  //Initialice the contract\n\n  address admin;\n  uint public count;\n\n  struct CoffeeBatch {\n    uint id;\n    uint auditCode;\n    string cuppingFinalNote;\n    string producerName;\n    string farmName;\n    string village;\n    string municipality;\n    string department;\n    string country;\n    string batchSize;\n    uint altitude;\n    string process;\n    string variety;\n  }\n\n  //removed public because struct is to big, \"Stack too deep, try using less variables.\"\"\n  mapping(uint256 => CoffeeBatch) coffeeBatches;\n\n  constructor() public{\n    admin = msg.sender;\n    count = 0;\n  }\n\n  function addCoffeeBatch(\n    uint _auditCode,\n    string _cuppingFinalNote,\n    string _producerName,\n    string _farmName,\n    string _village,\n    string _municipality,\n    string _department,\n    string _country,\n    string _batchSize,\n    uint _altitude,\n    string _process,\n    string _variety\n  ) public returns (uint id){  \n    id = count;\n    coffeeBatches[id] = CoffeeBatch(id, _auditCode, _cuppingFinalNote, _producerName, _farmName, _village, _municipality, _department, _country, _batchSize, _altitude, _process, _variety);\n    count++;\n    return id;\n  }\n\n //Mapping of objects \n\n\n //Save objects on blockchain\n //get objects by id\n //only people witch access can write\n //set admin \n //set permissions\n //create events\n //update count\n\n}\n",
  "sourcePath": "/Users/crisgarner/Projects/affogato/contracts/AffogatoNetwork.sol",
  "compiler": {
    "name": "solc",
    "version": "0.4.23+commit.124ca40d.Emscripten.clang"
  },
  "schemaVersion": "2.0.0",
  "updatedAt": "2018-06-02T21:24:09.949Z"
}