{
  "contractName": "AffogatoNetwork",
  "abi": [
    {
      "constant": true,
      "inputs": [
        {
          "name": "",
          "type": "uint256"
        }
      ],
      "name": "coffeeBatches",
      "outputs": [
        {
          "name": "id",
          "type": "uint256"
        },
        {
          "name": "farmId",
          "type": "uint256"
        },
        {
          "name": "altitude",
          "type": "uint256"
        },
        {
          "name": "process",
          "type": "string"
        },
        {
          "name": "variety",
          "type": "string"
        },
        {
          "components": [
            {
              "name": "finalBatchSize",
              "type": "uint256"
            },
            {
              "name": "isProcessComplete",
              "type": "bool"
            }
          ],
          "name": "cut",
          "type": "tuple"
        },
        {
          "components": [
            {
              "name": "processorId",
              "type": "uint256"
            },
            {
              "name": "finalBatchSize",
              "type": "uint256"
            },
            {
              "name": "isProcessedByFarm",
              "type": "bool"
            },
            {
              "name": "isProcessComplete",
              "type": "bool"
            }
          ],
          "name": "depulped",
          "type": "tuple"
        },
        {
          "components": [
            {
              "name": "processorId",
              "type": "uint256"
            },
            {
              "name": "finalBatchSize",
              "type": "uint256"
            },
            {
              "name": "isProcessedByFarm",
              "type": "bool"
            },
            {
              "name": "typeOfFermented",
              "type": "string"
            },
            {
              "name": "isProcessComplete",
              "type": "bool"
            }
          ],
          "name": "fermented",
          "type": "tuple"
        },
        {
          "components": [
            {
              "name": "processorId",
              "type": "uint256"
            },
            {
              "name": "finalBatchSize",
              "type": "uint256"
            },
            {
              "name": "isProcessedByFarm",
              "type": "bool"
            },
            {
              "name": "isProcessComplete",
              "type": "bool"
            }
          ],
          "name": "washed",
          "type": "tuple"
        },
        {
          "components": [
            {
              "name": "processorId",
              "type": "uint256"
            },
            {
              "name": "finalBatchSize",
              "type": "uint256"
            },
            {
              "name": "isProcessedByFarm",
              "type": "bool"
            },
            {
              "name": "typeOfDrying",
              "type": "string"
            },
            {
              "name": "isProcessComplete",
              "type": "bool"
            }
          ],
          "name": "drying",
          "type": "tuple"
        },
        {
          "components": [
            {
              "name": "processorId",
              "type": "uint256"
            },
            {
              "name": "finalBatchSize",
              "type": "uint256"
            },
            {
              "name": "isProcessedByFarm",
              "type": "bool"
            },
            {
              "name": "isProcessComplete",
              "type": "bool"
            }
          ],
          "name": "trite",
          "type": "tuple"
        },
        {
          "components": [
            {
              "name": "frangance",
              "type": "string"
            },
            {
              "name": "flavor",
              "type": "string"
            },
            {
              "name": "acidity",
              "type": "string"
            },
            {
              "name": "body",
              "type": "string"
            },
            {
              "name": "cuppingNote",
              "type": "string"
            },
            {
              "name": "defects",
              "type": "string"
            },
            {
              "name": "grainSize",
              "type": "string"
            }
          ],
          "name": "cupProfile",
          "type": "tuple"
        }
      ],
      "payable": false,
      "stateMutability": "view",
      "type": "function"
    },
    {
      "constant": true,
      "inputs": [
        {
          "name": "",
          "type": "uint256"
        }
      ],
      "name": "farms",
      "outputs": [
        {
          "name": "id",
          "type": "uint256"
        },
        {
          "name": "producerId",
          "type": "uint256"
        },
        {
          "name": "farmName",
          "type": "string"
        },
        {
          "name": "village",
          "type": "string"
        },
        {
          "name": "municipality",
          "type": "string"
        },
        {
          "name": "department",
          "type": "string"
        },
        {
          "name": "country",
          "type": "string"
        }
      ],
      "payable": false,
      "stateMutability": "view",
      "type": "function"
    },
    {
      "constant": true,
      "inputs": [
        {
          "name": "",
          "type": "uint256"
        }
      ],
      "name": "producers",
      "outputs": [
        {
          "name": "id",
          "type": "uint256"
        },
        {
          "name": "producerName",
          "type": "string"
        },
        {
          "name": "history",
          "type": "string"
        }
      ],
      "payable": false,
      "stateMutability": "view",
      "type": "function"
    },
    {
      "constant": true,
      "inputs": [
        {
          "name": "",
          "type": "uint256"
        }
      ],
      "name": "processors",
      "outputs": [
        {
          "name": "id",
          "type": "uint256"
        },
        {
          "name": "name",
          "type": "string"
        },
        {
          "name": "typeOfProcessor",
          "type": "string"
        },
        {
          "name": "village",
          "type": "string"
        },
        {
          "name": "municipality",
          "type": "string"
        },
        {
          "name": "department",
          "type": "string"
        },
        {
          "name": "country",
          "type": "string"
        }
      ],
      "payable": false,
      "stateMutability": "view",
      "type": "function"
    },
    {
      "inputs": [],
      "payable": false,
      "stateMutability": "nonpayable",
      "type": "constructor"
    },
    {
      "anonymous": false,
      "inputs": [
        {
          "indexed": true,
          "name": "_id",
          "type": "uint256"
        }
      ],
      "name": "AddProducer",
      "type": "event"
    },
    {
      "anonymous": false,
      "inputs": [
        {
          "indexed": true,
          "name": "_id",
          "type": "uint256"
        }
      ],
      "name": "AddFarm",
      "type": "event"
    },
    {
      "anonymous": false,
      "inputs": [
        {
          "indexed": true,
          "name": "_id",
          "type": "uint256"
        }
      ],
      "name": "AddCoffeeBatch",
      "type": "event"
    },
    {
      "anonymous": false,
      "inputs": [
        {
          "indexed": true,
          "name": "_id",
          "type": "uint256"
        }
      ],
      "name": "AddProcessor",
      "type": "event"
    },
    {
      "constant": false,
      "inputs": [
        {
          "name": "_producerName",
          "type": "string"
        },
        {
          "name": "_history",
          "type": "string"
        }
      ],
      "name": "addProducer",
      "outputs": [],
      "payable": false,
      "stateMutability": "nonpayable",
      "type": "function"
    },
    {
      "constant": false,
      "inputs": [
        {
          "name": "_name",
          "type": "string"
        },
        {
          "name": "_typeOfProcessor",
          "type": "string"
        },
        {
          "name": "_village",
          "type": "string"
        },
        {
          "name": "_municipality",
          "type": "string"
        },
        {
          "name": "_department",
          "type": "string"
        },
        {
          "name": "_country",
          "type": "string"
        }
      ],
      "name": "addProcessor",
      "outputs": [],
      "payable": false,
      "stateMutability": "nonpayable",
      "type": "function"
    },
    {
      "constant": false,
      "inputs": [
        {
          "name": "_farmId",
          "type": "uint256"
        },
        {
          "name": "_altitude",
          "type": "uint256"
        },
        {
          "name": "_process",
          "type": "string"
        },
        {
          "name": "_variety",
          "type": "string"
        }
      ],
      "name": "addCoffeeBatch",
      "outputs": [],
      "payable": false,
      "stateMutability": "nonpayable",
      "type": "function"
    },
    {
      "constant": true,
      "inputs": [
        {
          "name": "_index",
          "type": "uint256"
        }
      ],
      "name": "getCoffeeBatchInfo",
      "outputs": [
        {
          "name": "",
          "type": "uint256"
        },
        {
          "name": "",
          "type": "uint256"
        },
        {
          "name": "",
          "type": "uint256"
        },
        {
          "name": "",
          "type": "string"
        },
        {
          "name": "",
          "type": "string"
        }
      ],
      "payable": false,
      "stateMutability": "view",
      "type": "function"
    },
    {
      "constant": true,
      "inputs": [
        {
          "name": "_index",
          "type": "uint256"
        }
      ],
      "name": "getCoffeeBatchCut",
      "outputs": [
        {
          "name": "",
          "type": "uint256"
        },
        {
          "name": "",
          "type": "bool"
        }
      ],
      "payable": false,
      "stateMutability": "view",
      "type": "function"
    },
    {
      "constant": true,
      "inputs": [
        {
          "name": "_index",
          "type": "uint256"
        }
      ],
      "name": "getCoffeeBatchDepulped",
      "outputs": [
        {
          "name": "",
          "type": "uint256"
        },
        {
          "name": "",
          "type": "uint256"
        },
        {
          "name": "",
          "type": "bool"
        },
        {
          "name": "",
          "type": "bool"
        }
      ],
      "payable": false,
      "stateMutability": "view",
      "type": "function"
    },
    {
      "constant": true,
      "inputs": [
        {
          "name": "_index",
          "type": "uint256"
        }
      ],
      "name": "getCoffeeBatchFermented",
      "outputs": [
        {
          "name": "",
          "type": "uint256"
        },
        {
          "name": "",
          "type": "uint256"
        },
        {
          "name": "",
          "type": "bool"
        },
        {
          "name": "",
          "type": "string"
        },
        {
          "name": "",
          "type": "bool"
        }
      ],
      "payable": false,
      "stateMutability": "view",
      "type": "function"
    },
    {
      "constant": true,
      "inputs": [
        {
          "name": "_index",
          "type": "uint256"
        }
      ],
      "name": "getCoffeeBatchWashed",
      "outputs": [
        {
          "name": "",
          "type": "uint256"
        },
        {
          "name": "",
          "type": "uint256"
        },
        {
          "name": "",
          "type": "bool"
        },
        {
          "name": "",
          "type": "bool"
        }
      ],
      "payable": false,
      "stateMutability": "view",
      "type": "function"
    },
    {
      "constant": true,
      "inputs": [
        {
          "name": "_index",
          "type": "uint256"
        }
      ],
      "name": "getCoffeeBatchDrying",
      "outputs": [
        {
          "name": "",
          "type": "uint256"
        },
        {
          "name": "",
          "type": "uint256"
        },
        {
          "name": "",
          "type": "bool"
        },
        {
          "name": "",
          "type": "string"
        },
        {
          "name": "",
          "type": "bool"
        }
      ],
      "payable": false,
      "stateMutability": "view",
      "type": "function"
    },
    {
      "constant": true,
      "inputs": [
        {
          "name": "_index",
          "type": "uint256"
        }
      ],
      "name": "getCoffeeBatchTrite",
      "outputs": [
        {
          "name": "",
          "type": "uint256"
        },
        {
          "name": "",
          "type": "uint256"
        },
        {
          "name": "",
          "type": "bool"
        },
        {
          "name": "",
          "type": "bool"
        }
      ],
      "payable": false,
      "stateMutability": "view",
      "type": "function"
    },
    {
      "constant": true,
      "inputs": [
        {
          "name": "_index",
          "type": "uint256"
        }
      ],
      "name": "getCupProfile",
      "outputs": [
        {
          "name": "",
          "type": "string"
        },
        {
          "name": "",
          "type": "string"
        },
        {
          "name": "",
          "type": "string"
        },
        {
          "name": "",
          "type": "string"
        },
        {
          "name": "",
          "type": "string"
        },
        {
          "name": "",
          "type": "string"
        },
        {
          "name": "",
          "type": "string"
        }
      ],
      "payable": false,
      "stateMutability": "view",
      "type": "function"
    },
    {
      "constant": false,
      "inputs": [
        {
          "name": "_producerId",
          "type": "uint256"
        },
        {
          "name": "_farmName",
          "type": "string"
        },
        {
          "name": "_village",
          "type": "string"
        },
        {
          "name": "_municipality",
          "type": "string"
        },
        {
          "name": "_department",
          "type": "string"
        },
        {
          "name": "_country",
          "type": "string"
        }
      ],
      "name": "addFarm",
      "outputs": [],
      "payable": false,
      "stateMutability": "nonpayable",
      "type": "function"
    },
    {
      "constant": true,
      "inputs": [
        {
          "name": "_index",
          "type": "uint256"
        }
      ],
      "name": "getProducerFarms",
      "outputs": [
        {
          "name": "",
          "type": "uint256[]"
        }
      ],
      "payable": false,
      "stateMutability": "view",
      "type": "function"
    },
    {
      "constant": true,
      "inputs": [
        {
          "name": "_index",
          "type": "uint256"
        }
      ],
      "name": "getFarmBatches",
      "outputs": [
        {
          "name": "",
          "type": "uint256[]"
        }
      ],
      "payable": false,
      "stateMutability": "view",
      "type": "function"
    }
  ],
  "bytecode": "0x608060405234801561001057600080fd5b50336000806101000a81548173ffffffffffffffffffffffffffffffffffffffff021916908373ffffffffffffffffffffffffffffffffffffffff160217905550614d9e806100606000396000f3006080604052600436106100fc576000357c0100000000000000000000000000000000000000000000000000000000900463ffffffff16806301f82277146101015780631197e7341461015f5780631b41b7d71461020e578063297620ca1461026c578063395209b21461032f578063415eb9d8146104875780637da470ea146104d35780639b68ade714610737578063a91d818b14610850578063b0eb6b50146109db578063b34b5f5e14610a39578063b375418314610b03578063bbfb881214610b85578063d554b18114610c07578063e943d5f814610dce578063f5f06d9414610ef5578063fe7c58e914610fbf578063ffd87fcc14611288575b600080fd5b34801561010d57600080fd5b5061012c600480360381019080803590602001909291905050506115b6565b60405180858152602001848152602001831515151581526020018215151515815260200194505050505060405180910390f35b34801561016b57600080fd5b5061020c600480360381019080803590602001908201803590602001908080601f0160208091040260200160405190810160405280939291908181526020018383808284378201915050505050509192919290803590602001908201803590602001908080601f0160208091040260200160405190810160405280939291908181526020018383808284378201915050505050509192919290505050611660565b005b34801561021a57600080fd5b50610239600480360381019080803590602001909291905050506117b2565b60405180858152602001848152602001831515151581526020018215151515815260200194505050505060405180910390f35b34801561027857600080fd5b5061032d6004803603810190808035906020019092919080359060200190929190803590602001908201803590602001908080601f0160208091040260200160405190810160405280939291908181526020018383808284378201915050505050509192919290803590602001908201803590602001908080601f016020809104026020016040519081016040528093929190818152602001838380828437820191505050505050919291929050505061185c565b005b34801561033b57600080fd5b5061035a60048036038101908080359060200190929190505050611f32565b604051808d81526020018c81526020018b815260200180602001806020018a815260200189815260200188815260200187815260200186815260200185815260200184815260200183810383528c818151815260200191508051906020019080838360005b838110156103da5780820151818401526020810190506103bf565b50505050905090810190601f1680156104075780820380516001836020036101000a031916815260200191505b5083810382528b818151815260200191508051906020019080838360005b83811015610440578082015181840152602081019050610425565b50505050905090810190601f16801561046d5780820380516001836020036101000a031916815260200191505b509e50505050505050505050505050505060405180910390f35b34801561049357600080fd5b506104b260048036038101908080359060200190929190505050612866565b60405180838152602001821515151581526020019250505060405180910390f35b3480156104df57600080fd5b506104fe600480360381019080803590602001909291905050506128d7565b60405180888152602001878152602001806020018060200180602001806020018060200186810386528b818151815260200191508051906020019080838360005b8381101561055a57808201518184015260208101905061053f565b50505050905090810190601f1680156105875780820380516001836020036101000a031916815260200191505b5086810385528a818151815260200191508051906020019080838360005b838110156105c05780820151818401526020810190506105a5565b50505050905090810190601f1680156105ed5780820380516001836020036101000a031916815260200191505b50868103845289818151815260200191508051906020019080838360005b8381101561062657808201518184015260208101905061060b565b50505050905090810190601f1680156106535780820380516001836020036101000a031916815260200191505b50868103835288818151815260200191508051906020019080838360005b8381101561068c578082015181840152602081019050610671565b50505050905090810190601f1680156106b95780820380516001836020036101000a031916815260200191505b50868103825287818151815260200191508051906020019080838360005b838110156106f25780820151818401526020810190506106d7565b50505050905090810190601f16801561071f5780820380516001836020036101000a031916815260200191505b509c5050505050505050505050505060405180910390f35b34801561074357600080fd5b5061076260048036038101908080359060200190929190505050612c20565b604051808481526020018060200180602001838103835285818151815260200191508051906020019080838360005b838110156107ac578082015181840152602081019050610791565b50505050905090810190601f1680156107d95780820380516001836020036101000a031916815260200191505b50838103825284818151815260200191508051906020019080838360005b838110156108125780820151818401526020810190506107f7565b50505050905090810190601f16801561083f5780820380516001836020036101000a031916815260200191505b509550505050505060405180910390f35b34801561085c57600080fd5b506109d960048036038101908080359060200190929190803590602001908201803590602001908080601f0160208091040260200160405190810160405280939291908181526020018383808284378201915050505050509192919290803590602001908201803590602001908080601f0160208091040260200160405190810160405280939291908181526020018383808284378201915050505050509192919290803590602001908201803590602001908080601f0160208091040260200160405190810160405280939291908181526020018383808284378201915050505050509192919290803590602001908201803590602001908080601f0160208091040260200160405190810160405280939291908181526020018383808284378201915050505050509192919290803590602001908201803590602001908080601f0160208091040260200160405190810160405280939291908181526020018383808284378201915050505050509192919290505050612d89565b005b3480156109e757600080fd5b50610a0660048036038101908080359060200190929190505050612fdb565b60405180858152602001848152602001831515151581526020018215151515815260200194505050505060405180910390f35b348015610a4557600080fd5b50610a6460048036038101908080359060200190929190505050613085565b60405180868152602001858152602001841515151581526020018060200183151515158152602001828103825284818151815260200191508051906020019080838360005b83811015610ac4578082015181840152602081019050610aa9565b50505050905090810190601f168015610af15780820380516001836020036101000a031916815260200191505b50965050505050505060405180910390f35b348015610b0f57600080fd5b50610b2e600480360381019080803590602001909291905050506131e0565b6040518080602001828103825283818151815260200191508051906020019060200280838360005b83811015610b71578082015181840152602081019050610b56565b505050509050019250505060405180910390f35b348015610b9157600080fd5b50610bb060048036038101908080359060200190929190505050613258565b6040518080602001828103825283818151815260200191508051906020019060200280838360005b83811015610bf3578082015181840152602081019050610bd8565b505050509050019250505060405180910390f35b348015610c1357600080fd5b50610dcc600480360381019080803590602001908201803590602001908080601f0160208091040260200160405190810160405280939291908181526020018383808284378201915050505050509192919290803590602001908201803590602001908080601f0160208091040260200160405190810160405280939291908181526020018383808284378201915050505050509192919290803590602001908201803590602001908080601f0160208091040260200160405190810160405280939291908181526020018383808284378201915050505050509192919290803590602001908201803590602001908080601f0160208091040260200160405190810160405280939291908181526020018383808284378201915050505050509192919290803590602001908201803590602001908080601f0160208091040260200160405190810160405280939291908181526020018383808284378201915050505050509192919290803590602001908201803590602001908080601f01602080910402602001604051908101604052809392919081815260200183838082843782019150505050505091929192905050506132d0565b005b348015610dda57600080fd5b50610df9600480360381019080803590602001909291905050506134a7565b604051808681526020018581526020018481526020018060200180602001838103835285818151815260200191508051906020019080838360005b83811015610e4f578082015181840152602081019050610e34565b50505050905090810190601f168015610e7c5780820380516001836020036101000a031916815260200191505b50838103825284818151815260200191508051906020019080838360005b83811015610eb5578082015181840152602081019050610e9a565b50505050905090810190601f168015610ee25780820380516001836020036101000a031916815260200191505b5097505050505050505060405180910390f35b348015610f0157600080fd5b50610f2060048036038101908080359060200190929190505050613e53565b60405180868152602001858152602001841515151581526020018060200183151515158152602001828103825284818151815260200191508051906020019080838360005b83811015610f80578082015181840152602081019050610f65565b50505050905090810190601f168015610fad5780820380516001836020036101000a031916815260200191505b50965050505050505060405180910390f35b348015610fcb57600080fd5b50610fea60048036038101908080359060200190929190505050613fae565b6040518088815260200180602001806020018060200180602001806020018060200187810387528d818151815260200191508051906020019080838360005b83811015611044578082015181840152602081019050611029565b50505050905090810190601f1680156110715780820380516001836020036101000a031916815260200191505b5087810386528c818151815260200191508051906020019080838360005b838110156110aa57808201518184015260208101905061108f565b50505050905090810190601f1680156110d75780820380516001836020036101000a031916815260200191505b5087810385528b818151815260200191508051906020019080838360005b838110156111105780820151818401526020810190506110f5565b50505050905090810190601f16801561113d5780820380516001836020036101000a031916815260200191505b5087810384528a818151815260200191508051906020019080838360005b8381101561117657808201518184015260208101905061115b565b50505050905090810190601f1680156111a35780820380516001836020036101000a031916815260200191505b50878103835289818151815260200191508051906020019080838360005b838110156111dc5780820151818401526020810190506111c1565b50505050905090810190601f1680156112095780820380516001836020036101000a031916815260200191505b50878103825288818151815260200191508051906020019080838360005b83811015611242578082015181840152602081019050611227565b50505050905090810190601f16801561126f5780820380516001836020036101000a031916815260200191505b509d505050505050505050505050505060405180910390f35b34801561129457600080fd5b506112b36004803603810190808035906020019092919050505061438f565b604051808060200180602001806020018060200180602001806020018060200188810388528f818151815260200191508051906020019080838360005b8381101561130b5780820151818401526020810190506112f0565b50505050905090810190601f1680156113385780820380516001836020036101000a031916815260200191505b5088810387528e818151815260200191508051906020019080838360005b83811015611371578082015181840152602081019050611356565b50505050905090810190601f16801561139e5780820380516001836020036101000a031916815260200191505b5088810386528d818151815260200191508051906020019080838360005b838110156113d75780820151818401526020810190506113bc565b50505050905090810190601f1680156114045780820380516001836020036101000a031916815260200191505b5088810385528c818151815260200191508051906020019080838360005b8381101561143d578082015181840152602081019050611422565b50505050905090810190601f16801561146a5780820380516001836020036101000a031916815260200191505b5088810384528b818151815260200191508051906020019080838360005b838110156114a3578082015181840152602081019050611488565b50505050905090810190601f1680156114d05780820380516001836020036101000a031916815260200191505b5088810383528a818151815260200191508051906020019080838360005b838110156115095780820151818401526020810190506114ee565b50505050905090810190601f1680156115365780820380516001836020036101000a031916815260200191505b50888103825289818151815260200191508051906020019080838360005b8381101561156f578082015181840152602081019050611554565b50505050905090810190601f16801561159c5780820380516001836020036101000a031916815260200191505b509e50505050505050505050505050505060405180910390f35b6000806000806115c46148b5565b6004868154811015156115d357fe5b90600052602060002090602102016017016080604051908101604052908160008201548152602001600182015481526020016002820160009054906101000a900460ff161515151581526020016002820160019054906101000a900460ff161515151581525050905080600001518160200151826040015183606001519450945094509450509193509193565b600061166a6148e2565b61167384614890565b158015611686575061168483614890565b155b151561169157600080fd5b600180549050915060806040519081016040528083815260200185815260200184815260200160006040519080825280602002602001820160405280156116e75781602001602082028038833980820191505090505b5081525090506001819080600181540180825580915050906001820390600052602060002090600402016000909192909190915060008201518160000155602082015181600101908051906020019061174192919061490b565b50604082015181600201908051906020019061175e92919061490b565b50606082015181600301908051906020019061177b92919061498b565b50505050817f1074041b1f3c44b82090a7939c5401d6358a76d18ebeef0776bcf2c11eb7080660405160405180910390a250505050565b6000806000806117c06149d8565b6004868154811015156117cf57fe5b9060005260206000209060210201600f016080604051908101604052908160008201548152602001600182015481526020016002820160009054906101000a900460ff161515151581526020016002820160019054906101000a900460ff161515151581525050905080600001518160200151826040015183606001519450945094509450509193509193565b6000611866614a05565b61186e614a21565b611876614a4e565b61187e6149d8565b611886614a82565b61188e6148b5565b611896614ab6565b61189e614af4565b8c600280549050101515156118b257600080fd5b6118bb8b614890565b1580156118ce57506118cc8a614890565b155b15156118d957600080fd5b6004805490509850604080519081016040528060008152602001600015158152509750608060405190810160405280600081526020016000815260200160001515815260200160001515815250965060a060405190810160405280600081526020016000815260200160001515815260200160206040519081016040528060008152508152602001600015158152509550608060405190810160405280600081526020016000815260200160001515815260200160001515815250945060a060405190810160405280600081526020016000815260200160001515815260200160206040519081016040528060008152508152602001600015158152509350608060405190810160405280600081526020016000815260200160001515815260200160001515815250925060e06040519081016040528060206040519081016040528060008152508152602001602060405190810160405280600081525081526020016020604051908101604052806000815250815260200160206040519081016040528060008152508152602001602060405190810160405280600081525081526020016020604051908101604052806000815250815260200160206040519081016040528060008152508152509150610180604051908101604052808a81526020018e81526020018d81526020018c81526020018b8152602001898152602001888152602001878152602001868152602001858152602001848152602001838152509050600481908060018154018082558091505090600182039060005260206000209060210201600090919290919091506000820151816000015560208201518160010155604082015181600201556060820151816003019080519060200190611b6792919061490b565b506080820151816004019080519060200190611b8492919061490b565b5060a0820151816005016000820151816000015560208201518160010160006101000a81548160ff021916908315150217905550505060c082015181600701600082015181600001556020820151816001015560408201518160020160006101000a81548160ff02191690831515021790555060608201518160020160016101000a81548160ff021916908315150217905550505060e082015181600a01600082015181600001556020820151816001015560408201518160020160006101000a81548160ff0219169083151502179055506060820151816003019080519060200190611c7292919061490b565b5060808201518160040160006101000a81548160ff021916908315150217905550505061010082015181600f01600082015181600001556020820151816001015560408201518160020160006101000a81548160ff02191690831515021790555060608201518160020160016101000a81548160ff021916908315150217905550505061012082015181601201600082015181600001556020820151816001015560408201518160020160006101000a81548160ff0219169083151502179055506060820151816003019080519060200190611d4f92919061490b565b5060808201518160040160006101000a81548160ff021916908315150217905550505061014082015181601701600082015181600001556020820151816001015560408201518160020160006101000a81548160ff02191690831515021790555060608201518160020160016101000a81548160ff021916908315150217905550505061016082015181601a016000820151816000019080519060200190611df892919061490b565b506020820151816001019080519060200190611e1592919061490b565b506040820151816002019080519060200190611e3292919061490b565b506060820151816003019080519060200190611e4f92919061490b565b506080820151816004019080519060200190611e6c92919061490b565b5060a0820151816005019080519060200190611e8992919061490b565b5060c0820151816006019080519060200190611ea692919061490b565b50505050505060028d815481101515611ebb57fe5b9060005260206000209060080201600701899080600181540180825580915050906001820390600052602060002001600090919290919091505550887f825ed299415b0eed10996b6a8df0c8c33b9a5ab4f5cad6b8369077e4c80fb94f60405160405180910390a250505050505050505050505050565b600481815481101515611f4157fe5b9060005260206000209060210201600091509050806000015490806001015490806002015490806003018054600181600116156101000203166002900480601f016020809104026020016040519081016040528092919081815260200182805460018160011615610100020316600290048015611fff5780601f10611fd457610100808354040283529160200191611fff565b820191906000526020600020905b815481529060010190602001808311611fe257829003601f168201915b505050505090806004018054600181600116156101000203166002900480601f01602080910402602001604051908101604052809291908181526020018280546001816001161561010002031660029004801561209d5780601f106120725761010080835404028352916020019161209d565b820191906000526020600020905b81548152906001019060200180831161208057829003601f168201915b50505050509080600501604080519081016040529081600082015481526020016001820160009054906101000a900460ff16151515158152505090806007016080604051908101604052908160008201548152602001600182015481526020016002820160009054906101000a900460ff161515151581526020016002820160019054906101000a900460ff1615151515815250509080600a0160a0604051908101604052908160008201548152602001600182015481526020016002820160009054906101000a900460ff16151515158152602001600382018054600181600116156101000203166002900480601f01602080910402602001604051908101604052809291908181526020018280546001816001161561010002031660029004801561220b5780601f106121e05761010080835404028352916020019161220b565b820191906000526020600020905b8154815290600101906020018083116121ee57829003601f168201915b505050505081526020016004820160009054906101000a900460ff1615151515815250509080600f016080604051908101604052908160008201548152602001600182015481526020016002820160009054906101000a900460ff161515151581526020016002820160019054906101000a900460ff161515151581525050908060120160a0604051908101604052908160008201548152602001600182015481526020016002820160009054906101000a900460ff16151515158152602001600382018054600181600116156101000203166002900480601f0160208091040260200160405190810160405280929190818152602001828054600181600116156101000203166002900480156123635780601f1061233857610100808354040283529160200191612363565b820191906000526020600020905b81548152906001019060200180831161234657829003601f168201915b505050505081526020016004820160009054906101000a900460ff16151515158152505090806017016080604051908101604052908160008201548152602001600182015481526020016002820160009054906101000a900460ff161515151581526020016002820160019054906101000a900460ff1615151515815250509080601a0160e06040519081016040529081600082018054600181600116156101000203166002900480601f01602080910402602001604051908101604052809291908181526020018280546001816001161561010002031660029004801561248c5780601f106124615761010080835404028352916020019161248c565b820191906000526020600020905b81548152906001019060200180831161246f57829003601f168201915b50505050508152602001600182018054600181600116156101000203166002900480601f01602080910402602001604051908101604052809291908181526020018280546001816001161561010002031660029004801561252e5780601f106125035761010080835404028352916020019161252e565b820191906000526020600020905b81548152906001019060200180831161251157829003601f168201915b50505050508152602001600282018054600181600116156101000203166002900480601f0160208091040260200160405190810160405280929190818152602001828054600181600116156101000203166002900480156125d05780601f106125a5576101008083540402835291602001916125d0565b820191906000526020600020905b8154815290600101906020018083116125b357829003601f168201915b50505050508152602001600382018054600181600116156101000203166002900480601f0160208091040260200160405190810160405280929190818152602001828054600181600116156101000203166002900480156126725780601f1061264757610100808354040283529160200191612672565b820191906000526020600020905b81548152906001019060200180831161265557829003601f168201915b50505050508152602001600482018054600181600116156101000203166002900480601f0160208091040260200160405190810160405280929190818152602001828054600181600116156101000203166002900480156127145780601f106126e957610100808354040283529160200191612714565b820191906000526020600020905b8154815290600101906020018083116126f757829003601f168201915b50505050508152602001600582018054600181600116156101000203166002900480601f0160208091040260200160405190810160405280929190818152602001828054600181600116156101000203166002900480156127b65780601f1061278b576101008083540402835291602001916127b6565b820191906000526020600020905b81548152906001019060200180831161279957829003601f168201915b50505050508152602001600682018054600181600116156101000203166002900480601f0160208091040260200160405190810160405280929190818152602001828054600181600116156101000203166002900480156128585780601f1061282d57610100808354040283529160200191612858565b820191906000526020600020905b81548152906001019060200180831161283b57829003601f168201915b50505050508152505090508c565b600080612871614a05565b60048481548110151561288057fe5b9060005260206000209060210201600501604080519081016040529081600082015481526020016001820160009054906101000a900460ff1615151515815250509050806000015181602001519250925050915091565b6002818154811015156128e657fe5b9060005260206000209060080201600091509050806000015490806001015490806002018054600181600116156101000203166002900480601f01602080910402602001604051908101604052809291908181526020018280546001816001161561010002031660029004801561299e5780601f106129735761010080835404028352916020019161299e565b820191906000526020600020905b81548152906001019060200180831161298157829003601f168201915b505050505090806003018054600181600116156101000203166002900480601f016020809104026020016040519081016040528092919081815260200182805460018160011615610100020316600290048015612a3c5780601f10612a1157610100808354040283529160200191612a3c565b820191906000526020600020905b815481529060010190602001808311612a1f57829003601f168201915b505050505090806004018054600181600116156101000203166002900480601f016020809104026020016040519081016040528092919081815260200182805460018160011615610100020316600290048015612ada5780601f10612aaf57610100808354040283529160200191612ada565b820191906000526020600020905b815481529060010190602001808311612abd57829003601f168201915b505050505090806005018054600181600116156101000203166002900480601f016020809104026020016040519081016040528092919081815260200182805460018160011615610100020316600290048015612b785780601f10612b4d57610100808354040283529160200191612b78565b820191906000526020600020905b815481529060010190602001808311612b5b57829003601f168201915b505050505090806006018054600181600116156101000203166002900480601f016020809104026020016040519081016040528092919081815260200182805460018160011615610100020316600290048015612c165780601f10612beb57610100808354040283529160200191612c16565b820191906000526020600020905b815481529060010190602001808311612bf957829003601f168201915b5050505050905087565b600181815481101515612c2f57fe5b9060005260206000209060040201600091509050806000015490806001018054600181600116156101000203166002900480601f016020809104026020016040519081016040528092919081815260200182805460018160011615610100020316600290048015612ce15780601f10612cb657610100808354040283529160200191612ce1565b820191906000526020600020905b815481529060010190602001808311612cc457829003601f168201915b505050505090806002018054600181600116156101000203166002900480601f016020809104026020016040519081016040528092919081815260200182805460018160011615610100020316600290048015612d7f5780601f10612d5457610100808354040283529160200191612d7f565b820191906000526020600020905b815481529060010190602001808311612d6257829003601f168201915b5050505050905083565b6000612d93614b80565b8760018054905010151515612da757600080fd5b612db087614890565b158015612dc35750612dc186614890565b155b8015612dd55750612dd385614890565b155b8015612de75750612de583614890565b155b1515612df257600080fd5b6002805490509150610100604051908101604052808381526020018981526020018881526020018781526020018681526020018581526020018481526020016000604051908082528060200260200182016040528015612e615781602001602082028038833980820191505090505b5081525090506002819080600181540180825580915050906001820390600052602060002090600802016000909192909190915060008201518160000155602082015181600101556040820151816002019080519060200190612ec592919061490b565b506060820151816003019080519060200190612ee292919061490b565b506080820151816004019080519060200190612eff92919061490b565b5060a0820151816005019080519060200190612f1c92919061490b565b5060c0820151816006019080519060200190612f3992919061490b565b5060e0820151816007019080519060200190612f5692919061498b565b50505050600188815481101515612f6957fe5b9060005260206000209060040201600301829080600181540180825580915050906001820390600052602060002001600090919290919091505550817fa7519119fc78e3a0264b7b028dd33232b5408d7f0ace427e1117397dfa1dbe1860405160405180910390a25050505050505050565b600080600080612fe9614a21565b600486815481101515612ff857fe5b90600052602060002090602102016007016080604051908101604052908160008201548152602001600182015481526020016002820160009054906101000a900460ff161515151581526020016002820160019054906101000a900460ff161515151581525050905080600001518160200151826040015183606001519450945094509450509193509193565b600080600060606000613096614a4e565b6004878154811015156130a557fe5b9060005260206000209060210201600a0160a0604051908101604052908160008201548152602001600182015481526020016002820160009054906101000a900460ff16151515158152602001600382018054600181600116156101000203166002900480601f01602080910402602001604051908101604052809291908181526020018280546001816001161561010002031660029004801561318a5780601f1061315f5761010080835404028352916020019161318a565b820191906000526020600020905b81548152906001019060200180831161316d57829003601f168201915b505050505081526020016004820160009054906101000a900460ff161515151581525050905080600001518160200151826040015183606001518460800151819150955095509550955095505091939590929450565b60606002828154811015156131f157fe5b906000526020600020906008020160070180548060200260200160405190810160405280929190818152602001828054801561324c57602002820191906000526020600020905b815481526020019060010190808311613238575b50505050509050919050565b606060018281548110151561326957fe5b90600052602060002090600402016003018054806020026020016040519081016040528092919081815260200182805480156132c457602002820191906000526020600020905b8154815260200190600101908083116132b0575b50505050509050919050565b60006132da614bc6565b6132e387614890565b1580156132f657506132f488614890565b155b8015613308575061330686614890565b155b801561331a575061331885614890565b155b801561332c575061332a84614890565b155b801561333e575061333c83614890565b155b151561334957600080fd5b600380549050915060e060405190810160405280838152602001898152602001888152602001878152602001868152602001858152602001848152509050600381908060018154018082558091505090600182039060005260206000209060070201600090919290919091506000820151816000015560208201518160010190805190602001906133db92919061490b565b5060408201518160020190805190602001906133f892919061490b565b50606082015181600301908051906020019061341592919061490b565b50608082015181600401908051906020019061343292919061490b565b5060a082015181600501908051906020019061344f92919061490b565b5060c082015181600601908051906020019061346c92919061490b565b50505050817f2d097a86d6a8c65f42bce20487ddbd77f36f93eda3d9ed0fed92928b32c72e4b60405160405180910390a25050505050505050565b60008060006060806134b7614af4565b6004878154811015156134c657fe5b90600052602060002090602102016101806040519081016040529081600082015481526020016001820154815260200160028201548152602001600382018054600181600116156101000203166002900480601f0160208091040260200160405190810160405280929190818152602001828054600181600116156101000203166002900480156135985780601f1061356d57610100808354040283529160200191613598565b820191906000526020600020905b81548152906001019060200180831161357b57829003601f168201915b50505050508152602001600482018054600181600116156101000203166002900480601f01602080910402602001604051908101604052809291908181526020018280546001816001161561010002031660029004801561363a5780601f1061360f5761010080835404028352916020019161363a565b820191906000526020600020905b81548152906001019060200180831161361d57829003601f168201915b5050505050815260200160058201604080519081016040529081600082015481526020016001820160009054906101000a900460ff1615151515815250508152602001600782016080604051908101604052908160008201548152602001600182015481526020016002820160009054906101000a900460ff161515151581526020016002820160019054906101000a900460ff1615151515815250508152602001600a820160a0604051908101604052908160008201548152602001600182015481526020016002820160009054906101000a900460ff16151515158152602001600382018054600181600116156101000203166002900480601f0160208091040260200160405190810160405280929190818152602001828054600181600116156101000203166002900480156137b45780601f10613789576101008083540402835291602001916137b4565b820191906000526020600020905b81548152906001019060200180831161379757829003601f168201915b505050505081526020016004820160009054906101000a900460ff1615151515815250508152602001600f82016080604051908101604052908160008201548152602001600182015481526020016002820160009054906101000a900460ff161515151581526020016002820160019054906101000a900460ff16151515158152505081526020016012820160a0604051908101604052908160008201548152602001600182015481526020016002820160009054906101000a900460ff16151515158152602001600382018054600181600116156101000203166002900480601f0160208091040260200160405190810160405280929190818152602001828054600181600116156101000203166002900480156139145780601f106138e957610100808354040283529160200191613914565b820191906000526020600020905b8154815290600101906020018083116138f757829003601f168201915b505050505081526020016004820160009054906101000a900460ff1615151515815250508152602001601782016080604051908101604052908160008201548152602001600182015481526020016002820160009054906101000a900460ff161515151581526020016002820160019054906101000a900460ff1615151515815250508152602001601a820160e06040519081016040529081600082018054600181600116156101000203166002900480601f016020809104026020016040519081016040528092919081815260200182805460018160011615610100020316600290048015613a455780601f10613a1a57610100808354040283529160200191613a45565b820191906000526020600020905b815481529060010190602001808311613a2857829003601f168201915b50505050508152602001600182018054600181600116156101000203166002900480601f016020809104026020016040519081016040528092919081815260200182805460018160011615610100020316600290048015613ae75780601f10613abc57610100808354040283529160200191613ae7565b820191906000526020600020905b815481529060010190602001808311613aca57829003601f168201915b50505050508152602001600282018054600181600116156101000203166002900480601f016020809104026020016040519081016040528092919081815260200182805460018160011615610100020316600290048015613b895780601f10613b5e57610100808354040283529160200191613b89565b820191906000526020600020905b815481529060010190602001808311613b6c57829003601f168201915b50505050508152602001600382018054600181600116156101000203166002900480601f016020809104026020016040519081016040528092919081815260200182805460018160011615610100020316600290048015613c2b5780601f10613c0057610100808354040283529160200191613c2b565b820191906000526020600020905b815481529060010190602001808311613c0e57829003601f168201915b50505050508152602001600482018054600181600116156101000203166002900480601f016020809104026020016040519081016040528092919081815260200182805460018160011615610100020316600290048015613ccd5780601f10613ca257610100808354040283529160200191613ccd565b820191906000526020600020905b815481529060010190602001808311613cb057829003601f168201915b50505050508152602001600582018054600181600116156101000203166002900480601f016020809104026020016040519081016040528092919081815260200182805460018160011615610100020316600290048015613d6f5780601f10613d4457610100808354040283529160200191613d6f565b820191906000526020600020905b815481529060010190602001808311613d5257829003601f168201915b50505050508152602001600682018054600181600116156101000203166002900480601f016020809104026020016040519081016040528092919081815260200182805460018160011615610100020316600290048015613e115780601f10613de657610100808354040283529160200191613e11565b820191906000526020600020905b815481529060010190602001808311613df457829003601f168201915b50505050508152505081525050905080600001518160200151826040015183606001518460800151819150809050955095509550955095505091939590929450565b600080600060606000613e64614a82565b600487815481101515613e7357fe5b906000526020600020906021020160120160a0604051908101604052908160008201548152602001600182015481526020016002820160009054906101000a900460ff16151515158152602001600382018054600181600116156101000203166002900480601f016020809104026020016040519081016040528092919081815260200182805460018160011615610100020316600290048015613f585780601f10613f2d57610100808354040283529160200191613f58565b820191906000526020600020905b815481529060010190602001808311613f3b57829003601f168201915b505050505081526020016004820160009054906101000a900460ff161515151581525050905080600001518160200151826040015183606001518460800151819150955095509550955095505091939590929450565b600381815481101515613fbd57fe5b9060005260206000209060070201600091509050806000015490806001018054600181600116156101000203166002900480601f01602080910402602001604051908101604052809291908181526020018280546001816001161561010002031660029004801561406f5780601f106140445761010080835404028352916020019161406f565b820191906000526020600020905b81548152906001019060200180831161405257829003601f168201915b505050505090806002018054600181600116156101000203166002900480601f01602080910402602001604051908101604052809291908181526020018280546001816001161561010002031660029004801561410d5780601f106140e25761010080835404028352916020019161410d565b820191906000526020600020905b8154815290600101906020018083116140f057829003601f168201915b505050505090806003018054600181600116156101000203166002900480601f0160208091040260200160405190810160405280929190818152602001828054600181600116156101000203166002900480156141ab5780601f10614180576101008083540402835291602001916141ab565b820191906000526020600020905b81548152906001019060200180831161418e57829003601f168201915b505050505090806004018054600181600116156101000203166002900480601f0160208091040260200160405190810160405280929190818152602001828054600181600116156101000203166002900480156142495780601f1061421e57610100808354040283529160200191614249565b820191906000526020600020905b81548152906001019060200180831161422c57829003601f168201915b505050505090806005018054600181600116156101000203166002900480601f0160208091040260200160405190810160405280929190818152602001828054600181600116156101000203166002900480156142e75780601f106142bc576101008083540402835291602001916142e7565b820191906000526020600020905b8154815290600101906020018083116142ca57829003601f168201915b505050505090806006018054600181600116156101000203166002900480601f0160208091040260200160405190810160405280929190818152602001828054600181600116156101000203166002900480156143855780601f1061435a57610100808354040283529160200191614385565b820191906000526020600020905b81548152906001019060200180831161436857829003601f168201915b5050505050905087565b60608060608060608060606143a2614ab6565b6004898154811015156143b157fe5b9060005260206000209060210201601a0160e06040519081016040529081600082018054600181600116156101000203166002900480601f0160208091040260200160405190810160405280929190818152602001828054600181600116156101000203166002900480156144675780601f1061443c57610100808354040283529160200191614467565b820191906000526020600020905b81548152906001019060200180831161444a57829003601f168201915b50505050508152602001600182018054600181600116156101000203166002900480601f0160208091040260200160405190810160405280929190818152602001828054600181600116156101000203166002900480156145095780601f106144de57610100808354040283529160200191614509565b820191906000526020600020905b8154815290600101906020018083116144ec57829003601f168201915b50505050508152602001600282018054600181600116156101000203166002900480601f0160208091040260200160405190810160405280929190818152602001828054600181600116156101000203166002900480156145ab5780601f10614580576101008083540402835291602001916145ab565b820191906000526020600020905b81548152906001019060200180831161458e57829003601f168201915b50505050508152602001600382018054600181600116156101000203166002900480601f01602080910402602001604051908101604052809291908181526020018280546001816001161561010002031660029004801561464d5780601f106146225761010080835404028352916020019161464d565b820191906000526020600020905b81548152906001019060200180831161463057829003601f168201915b50505050508152602001600482018054600181600116156101000203166002900480601f0160208091040260200160405190810160405280929190818152602001828054600181600116156101000203166002900480156146ef5780601f106146c4576101008083540402835291602001916146ef565b820191906000526020600020905b8154815290600101906020018083116146d257829003601f168201915b50505050508152602001600582018054600181600116156101000203166002900480601f0160208091040260200160405190810160405280929190818152602001828054600181600116156101000203166002900480156147915780601f1061476657610100808354040283529160200191614791565b820191906000526020600020905b81548152906001019060200180831161477457829003601f168201915b50505050508152602001600682018054600181600116156101000203166002900480601f0160208091040260200160405190810160405280929190818152602001828054600181600116156101000203166002900480156148335780601f1061480857610100808354040283529160200191614833565b820191906000526020600020905b81548152906001019060200180831161481657829003601f168201915b5050505050815250509050806000015181602001518260400151836060015184608001518560a001518660c00151869650859550849450839350829250819150809050975097509750975097509750975050919395979092949650565b600060608290506000815114156148aa57600191506148af565b600091505b50919050565b60806040519081016040528060008152602001600081526020016000151581526020016000151581525090565b608060405190810160405280600081526020016060815260200160608152602001606081525090565b828054600181600116156101000203166002900490600052602060002090601f016020900481019282601f1061494c57805160ff191683800117855561497a565b8280016001018555821561497a579182015b8281111561497957825182559160200191906001019061495e565b5b5090506149879190614c04565b5090565b8280548282559060005260206000209081019282156149c7579160200282015b828111156149c65782518255916020019190600101906149ab565b5b5090506149d49190614c04565b5090565b60806040519081016040528060008152602001600081526020016000151581526020016000151581525090565b6040805190810160405280600081526020016000151581525090565b60806040519081016040528060008152602001600081526020016000151581526020016000151581525090565b60a0604051908101604052806000815260200160008152602001600015158152602001606081526020016000151581525090565b60a0604051908101604052806000815260200160008152602001600015158152602001606081526020016000151581525090565b60e060405190810160405280606081526020016060815260200160608152602001606081526020016060815260200160608152602001606081525090565b610480604051908101604052806000815260200160008152602001600081526020016060815260200160608152602001614b2c614c29565b8152602001614b39614c45565b8152602001614b46614c72565b8152602001614b53614ca6565b8152602001614b60614cd3565b8152602001614b6d614d07565b8152602001614b7a614d34565b81525090565b6101006040519081016040528060008152602001600081526020016060815260200160608152602001606081526020016060815260200160608152602001606081525090565b60e060405190810160405280600081526020016060815260200160608152602001606081526020016060815260200160608152602001606081525090565b614c2691905b80821115614c22576000816000905550600101614c0a565b5090565b90565b6040805190810160405280600081526020016000151581525090565b60806040519081016040528060008152602001600081526020016000151581526020016000151581525090565b60a0604051908101604052806000815260200160008152602001600015158152602001606081526020016000151581525090565b60806040519081016040528060008152602001600081526020016000151581526020016000151581525090565b60a0604051908101604052806000815260200160008152602001600015158152602001606081526020016000151581525090565b60806040519081016040528060008152602001600081526020016000151581526020016000151581525090565b60e0604051908101604052806060815260200160608152602001606081526020016060815260200160608152602001606081526020016060815250905600a165627a7a72305820caed1b96c2d19bc23d3d40faac08c2e4141dfa41babef309c9007d67648a89870029",
  "source": "pragma solidity ^0.4.23;\n\ncontract AffogatoNetwork {\n  //Initialice the contract\n\n  address admin;\n\n  //Actors, Owners\n  struct Producer{\n    uint256 id;\n    string producerName;\n    string history;\n    uint256[] farms; //IDs of ownerd farms\n  }\n\n  struct Processor{\n    uint256 id;\n    string name;\n    string typeOfProcessor; //Beneficio, Cooperativa, Finca\n    string village;\n    string municipality;\n    string department;\n    string country;\n  }\n\n  struct Farm{\n    uint256 id;\n    uint256 producerId;\n    string farmName;\n    string village;\n    string municipality;\n    string department;\n    string country;\n    uint256[] coffeeBatches; //IDs of Coffee Batches\n  }\n\n  //Coffee Process\n  struct Cut{\n    uint256 finalBatchSize; \n    bool isProcessComplete;\n  }\n\n  struct Depulped{\n    uint256 processorId;\n    uint256 finalBatchSize;\n    bool isProcessedByFarm; \n    bool isProcessComplete;\n  }\n\n  struct Fermented{\n    uint256 processorId;\n    uint256 finalBatchSize;\n    bool isProcessedByFarm;\n    string typeOfFermented;\n    bool isProcessComplete;\n  }\n\n  struct Washed{\n    uint256 processorId;\n    uint256 finalBatchSize;\n    bool isProcessedByFarm;\n    bool isProcessComplete;\n  }\n\n  struct Drying{\n    uint256 processorId;\n    uint256 finalBatchSize;\n    bool isProcessedByFarm;\n    string typeOfDrying;\n    bool isProcessComplete;\n  }\n\n  struct Trite{\n    uint256 processorId;\n    uint256 finalBatchSize;\n    bool isProcessedByFarm;\n    bool isProcessComplete;\n  }\n\n  struct CupProfile{\n    string frangance;\n    string flavor;\n    string acidity;\n    string body;\n    string cuppingNote;\n    string defects;\n    string grainSize;\n  }\n\n  // End of Coffee Process\n\n  struct CoffeeBatch {\n    uint256 id;\n    uint256 farmId;\n    uint256 altitude;\n    string process;\n    string variety;\n    Cut cut;\n    Depulped depulped;\n    Fermented fermented;\n    Washed washed;\n    Drying drying;\n    Trite trite;\n    CupProfile cupProfile;\n  }\n\n  Producer[] public producers;\n  Farm[] public farms;\n  Processor[] public processors;\n  CoffeeBatch[] public coffeeBatches;\n \n\n  //Event Definition\n  event AddProducer(uint256 indexed _id);\n  event AddFarm(uint256 indexed _id);\n  event AddCoffeeBatch(uint256 indexed _id);\n  event AddProcessor(uint256 indexed _id);\n\n  //Constructor, initialices the values\n  constructor() public{\n    admin = msg.sender;\n  }\n\n  //Inserts Producer and emits AddProducer event\n  function addProducer(string _producerName, string _history) public {\n    require(!isEmpty(_producerName) && !isEmpty(_history));\n    uint currentId = producers.length;\n    Producer memory producer = Producer(currentId, _producerName,_history, new uint[](0)); \n    producers.push(producer);  \n    emit AddProducer(currentId);\n  }\n\n  //Inserts Farm and emits AddFarm event\n  function addProcessor(\n    string _name,\n    string _typeOfProcessor,\n    string _village,\n    string _municipality,\n    string _department,\n    string _country\n  ) public {\n    require(!isEmpty(_typeOfProcessor) && !isEmpty(_name) && !isEmpty(_village) && !isEmpty(_municipality) && !isEmpty(_department) && !isEmpty(_country));\n    uint currentId = processors.length;\n    Processor memory processor = Processor(currentId, _name, _typeOfProcessor, _village, _municipality, _department, _country); \n    processors.push(processor);  \n    emit AddProcessor(currentId);\n  }\n\n  //Inserts Batch of coffee, updates farm batches and emits AddCoffeeBatch event\n  function addCoffeeBatch(\n    uint256 _farmId,\n    uint256 _altitude,\n    string _process,\n    string _variety\n  ) public {\n\n    require(farms.length >= _farmId);\n    require(!isEmpty(_process) && !isEmpty(_variety));\n\n    uint currentId = coffeeBatches.length;\n    \n    //initialices empty structs\n    Cut memory cut = Cut(0,false);\n    Depulped memory depulped = Depulped(0,0,false,false);\n    Fermented memory fermented = Fermented(0,0,false,\"\",false);\n    Washed memory washed = Washed(0,0,false,false);\n    Drying memory drying = Drying(0,0,false,\"\",false);\n    Trite memory trite = Trite(0,0,false,false);\n    CupProfile memory cupProfile = CupProfile(\"\",\"\",\"\",\"\",\"\",\"\",\"\");\n    CoffeeBatch memory coffeeBatch = CoffeeBatch(currentId, _farmId, _altitude, _process, _variety, cut, depulped, fermented, washed, drying,trite,cupProfile);\n    coffeeBatches.push(coffeeBatch);\n    farms[_farmId].coffeeBatches.push(currentId);\n    emit AddCoffeeBatch(currentId);\n  }\n\n  function getCoffeeBatchInfo(uint _index) public constant \n  returns(uint256,uint256,uint256,string,string) {\n      CoffeeBatch memory coffeeBatch = coffeeBatches[_index];\n      return( coffeeBatch.id,\n              coffeeBatch.farmId, \n              coffeeBatch.altitude, \n              coffeeBatch.process, \n              coffeeBatch.variety\n      );\n  }\n\n  function getCoffeeBatchCut(uint _index) public constant \n  returns(uint256,bool) {\n      Cut memory cut = coffeeBatches[_index].cut;\n      return( cut.finalBatchSize, \n              cut.isProcessComplete\n      );\n  }\n\n  function getCoffeeBatchDepulped(uint _index) public constant \n  returns(uint256,uint256,bool,bool) {\n      Depulped memory depulped = coffeeBatches[_index].depulped;\n      return( depulped.processorId, \n              depulped.finalBatchSize, \n              depulped.isProcessedByFarm, \n              depulped.isProcessComplete\n      );\n  }\n\n  function getCoffeeBatchFermented(uint _index) public constant \n  returns(uint256,uint256,bool,string,bool) {\n      Fermented memory fermented = coffeeBatches[_index].fermented;\n      return( fermented.processorId, \n              fermented.finalBatchSize, \n              fermented.isProcessedByFarm, \n              fermented.typeOfFermented,\n              fermented.isProcessComplete\n      );\n  }\n\n  function getCoffeeBatchWashed(uint _index) public constant \n  returns(uint256,uint256,bool,bool) {\n      Washed memory washed = coffeeBatches[_index].washed;\n      return( washed.processorId, \n              washed.finalBatchSize, \n              washed.isProcessedByFarm, \n              washed.isProcessComplete\n      );\n  }\n\n  function getCoffeeBatchDrying(uint _index) public constant \n  returns(uint256,uint256,bool,string,bool) {\n      Drying memory drying = coffeeBatches[_index].drying;\n      return( drying.processorId, \n              drying.finalBatchSize, \n              drying.isProcessedByFarm, \n              drying.typeOfDrying,\n              drying.isProcessComplete\n      );\n  }\n\n  function getCoffeeBatchTrite(uint _index) public constant \n  returns(uint256,uint256,bool,bool) {\n      Trite memory trite = coffeeBatches[_index].trite;\n      return( trite.processorId, \n              trite.finalBatchSize, \n              trite.isProcessedByFarm, \n              trite.isProcessComplete\n      );\n  }\n\n  function getCupProfile(uint _index) public constant \n  returns(string,string,string,string,string,string,string) {\n      CupProfile memory cupProfile = coffeeBatches[_index].cupProfile;\n      return (cupProfile.frangance,\n              cupProfile.flavor,\n              cupProfile.acidity,\n              cupProfile.body,\n              cupProfile.cuppingNote,\n              cupProfile.defects,\n              cupProfile.grainSize\n      );\n  }\n\n  //Inserts Farm and emits AddFarm event\n  function addFarm(\n    uint _producerId,\n    string _farmName,\n    string _village,\n    string _municipality,\n    string _department,\n    string _country\n  ) public {\n    require(producers.length >= _producerId);\n    require(!isEmpty(_farmName) && !isEmpty(_village) && !isEmpty(_municipality) && !isEmpty(_country));\n    uint currentId = farms.length;\n    Farm memory farm = Farm(currentId, _producerId, _farmName, _village, _municipality, _department, _country, new uint[](0)); \n    farms.push(farm);  \n    producers[_producerId].farms.push(currentId);\n    emit AddFarm(currentId);\n  }\n\n  //Gets Producer Farms \n  function getProducerFarms(uint256 _index) public view returns (uint256[]) {\n      return producers[_index].farms;\n  }\n\n  //Gets farm batches\n  function getFarmBatches(uint256 _index) public view returns (uint256[]) {\n      return farms[_index].coffeeBatches;\n  }\n\n\n  function isEmpty(string _empty) internal pure returns (bool){\n    bytes memory tempEmptyString = bytes(_empty); // Uses memory\n    if (tempEmptyString.length == 0) {\n        return true;\n    } else {\n        return false;\n    }\n  }\n}",
  "sourcePath": "/Users/crisgarner/Projects/affogato/contracts/AffogatoNetwork.sol",
  "compiler": {
    "name": "solc",
    "version": "0.4.23+commit.124ca40d.Emscripten.clang"
  },
  "schemaVersion": "2.0.0",
  "updatedAt": "2018-06-12T14:40:08.572Z"
}