{
  "contractName": "AffogatoNetwork",
  "abi": [
    {
      "constant": true,
      "inputs": [],
      "name": "count",
      "outputs": [
        {
          "name": "",
          "type": "uint256"
        }
      ],
      "payable": false,
      "stateMutability": "view",
      "type": "function"
    },
    {
      "constant": true,
      "inputs": [
        {
          "name": "",
          "type": "uint256"
        }
      ],
      "name": "coffeeBatches",
      "outputs": [
        {
          "name": "id",
          "type": "uint256"
        },
        {
          "name": "auditCode",
          "type": "uint256"
        },
        {
          "name": "cuppingFinalNote",
          "type": "string"
        },
        {
          "name": "batchSize",
          "type": "string"
        },
        {
          "name": "altitude",
          "type": "uint256"
        },
        {
          "name": "process",
          "type": "string"
        },
        {
          "name": "variety",
          "type": "string"
        },
        {
          "name": "farmId",
          "type": "uint256"
        }
      ],
      "payable": false,
      "stateMutability": "view",
      "type": "function"
    },
    {
      "constant": true,
      "inputs": [
        {
          "name": "",
          "type": "uint256"
        }
      ],
      "name": "farms",
      "outputs": [
        {
          "name": "id",
          "type": "uint256"
        },
        {
          "name": "producerName",
          "type": "string"
        },
        {
          "name": "farmName",
          "type": "string"
        },
        {
          "name": "village",
          "type": "string"
        },
        {
          "name": "municipality",
          "type": "string"
        },
        {
          "name": "department",
          "type": "string"
        },
        {
          "name": "country",
          "type": "string"
        }
      ],
      "payable": false,
      "stateMutability": "view",
      "type": "function"
    },
    {
      "inputs": [],
      "payable": false,
      "stateMutability": "nonpayable",
      "type": "constructor"
    },
    {
      "anonymous": false,
      "inputs": [
        {
          "indexed": true,
          "name": "_id",
          "type": "uint256"
        }
      ],
      "name": "AddCoffeeBatch",
      "type": "event"
    },
    {
      "anonymous": false,
      "inputs": [
        {
          "indexed": true,
          "name": "_id",
          "type": "uint256"
        }
      ],
      "name": "AddFarm",
      "type": "event"
    },
    {
      "constant": false,
      "inputs": [
        {
          "name": "_auditCode",
          "type": "uint256"
        },
        {
          "name": "_cuppingFinalNote",
          "type": "string"
        },
        {
          "name": "_batchSize",
          "type": "string"
        },
        {
          "name": "_altitude",
          "type": "uint256"
        },
        {
          "name": "_process",
          "type": "string"
        },
        {
          "name": "_variety",
          "type": "string"
        },
        {
          "name": "_farmId",
          "type": "uint256"
        }
      ],
      "name": "addCoffeeBatch",
      "outputs": [],
      "payable": false,
      "stateMutability": "nonpayable",
      "type": "function"
    },
    {
      "constant": false,
      "inputs": [
        {
          "name": "_producerName",
          "type": "string"
        },
        {
          "name": "_farmName",
          "type": "string"
        },
        {
          "name": "_village",
          "type": "string"
        },
        {
          "name": "_municipality",
          "type": "string"
        },
        {
          "name": "_department",
          "type": "string"
        },
        {
          "name": "_country",
          "type": "string"
        }
      ],
      "name": "addFarm",
      "outputs": [],
      "payable": false,
      "stateMutability": "nonpayable",
      "type": "function"
    },
    {
      "constant": false,
      "inputs": [
        {
          "name": "_index",
          "type": "uint256"
        }
      ],
      "name": "getFarmBatches",
      "outputs": [
        {
          "name": "",
          "type": "uint256[]"
        }
      ],
      "payable": false,
      "stateMutability": "nonpayable",
      "type": "function"
    }
  ],
  "bytecode": "0x608060405234801561001057600080fd5b50336000806101000a81548173ffffffffffffffffffffffffffffffffffffffff021916908373ffffffffffffffffffffffffffffffffffffffff1602179055506000600181905550611495806100686000396000f300608060405260043610610078576000357c0100000000000000000000000000000000000000000000000000000000900463ffffffff16806306661abd1461007d578063395209b2146100a85780635881bcfd146102ae5780637da470ea1461047557806399dc42291461073e578063b375418314610897575b600080fd5b34801561008957600080fd5b50610092610919565b6040518082815260200191505060405180910390f35b3480156100b457600080fd5b506100d36004803603810190808035906020019092919050505061091f565b604051808981526020018881526020018060200180602001878152602001806020018060200186815260200185810385528b818151815260200191508051906020019080838360005b8381101561013757808201518184015260208101905061011c565b50505050905090810190601f1680156101645780820380516001836020036101000a031916815260200191505b5085810384528a818151815260200191508051906020019080838360005b8381101561019d578082015181840152602081019050610182565b50505050905090810190601f1680156101ca5780820380516001836020036101000a031916815260200191505b50858103835288818151815260200191508051906020019080838360005b838110156102035780820151818401526020810190506101e8565b50505050905090810190601f1680156102305780820380516001836020036101000a031916815260200191505b50858103825287818151815260200191508051906020019080838360005b8381101561026957808201518184015260208101905061024e565b50505050905090810190601f1680156102965780820380516001836020036101000a031916815260200191505b509c5050505050505050505050505060405180910390f35b3480156102ba57600080fd5b50610473600480360381019080803590602001908201803590602001908080601f0160208091040260200160405190810160405280939291908181526020018383808284378201915050505050509192919290803590602001908201803590602001908080601f0160208091040260200160405190810160405280939291908181526020018383808284378201915050505050509192919290803590602001908201803590602001908080601f0160208091040260200160405190810160405280939291908181526020018383808284378201915050505050509192919290803590602001908201803590602001908080601f0160208091040260200160405190810160405280939291908181526020018383808284378201915050505050509192919290803590602001908201803590602001908080601f0160208091040260200160405190810160405280939291908181526020018383808284378201915050505050509192919290803590602001908201803590602001908080601f0160208091040260200160405190810160405280939291908181526020018383808284378201915050505050509192919290505050610bd6565b005b34801561048157600080fd5b506104a060048036038101908080359060200190929190505050610d91565b6040518088815260200180602001806020018060200180602001806020018060200187810387528d818151815260200191508051906020019080838360005b838110156104fa5780820151818401526020810190506104df565b50505050905090810190601f1680156105275780820380516001836020036101000a031916815260200191505b5087810386528c818151815260200191508051906020019080838360005b83811015610560578082015181840152602081019050610545565b50505050905090810190601f16801561058d5780820380516001836020036101000a031916815260200191505b5087810385528b818151815260200191508051906020019080838360005b838110156105c65780820151818401526020810190506105ab565b50505050905090810190601f1680156105f35780820380516001836020036101000a031916815260200191505b5087810384528a818151815260200191508051906020019080838360005b8381101561062c578082015181840152602081019050610611565b50505050905090810190601f1680156106595780820380516001836020036101000a031916815260200191505b50878103835289818151815260200191508051906020019080838360005b83811015610692578082015181840152602081019050610677565b50505050905090810190601f1680156106bf5780820380516001836020036101000a031916815260200191505b50878103825288818151815260200191508051906020019080838360005b838110156106f85780820151818401526020810190506106dd565b50505050905090810190601f1680156107255780820380516001836020036101000a031916815260200191505b509d505050505050505050505050505060405180910390f35b34801561074a57600080fd5b5061089560048036038101908080359060200190929190803590602001908201803590602001908080601f0160208091040260200160405190810160405280939291908181526020018383808284378201915050505050509192919290803590602001908201803590602001908080601f016020809104026020016040519081016040528093929190818152602001838380828437820191505050505050919291929080359060200190929190803590602001908201803590602001908080601f0160208091040260200160405190810160405280939291908181526020018383808284378201915050505050509192919290803590602001908201803590602001908080601f016020809104026020016040519081016040528093929190818152602001838380828437820191505050505050919291929080359060200190929190505050611172565b005b3480156108a357600080fd5b506108c2600480360381019080803590602001909291905050506112b9565b6040518080602001828103825283818151815260200191508051906020019060200280838360005b838110156109055780820151818401526020810190506108ea565b505050509050019250505060405180910390f35b60015481565b60028181548110151561092e57fe5b9060005260206000209060080201600091509050806000015490806001015490806002018054600181600116156101000203166002900480601f0160208091040260200160405190810160405280929190818152602001828054600181600116156101000203166002900480156109e65780601f106109bb576101008083540402835291602001916109e6565b820191906000526020600020905b8154815290600101906020018083116109c957829003601f168201915b505050505090806003018054600181600116156101000203166002900480601f016020809104026020016040519081016040528092919081815260200182805460018160011615610100020316600290048015610a845780601f10610a5957610100808354040283529160200191610a84565b820191906000526020600020905b815481529060010190602001808311610a6757829003601f168201915b505050505090806004015490806005018054600181600116156101000203166002900480601f016020809104026020016040519081016040528092919081815260200182805460018160011615610100020316600290048015610b285780601f10610afd57610100808354040283529160200191610b28565b820191906000526020600020905b815481529060010190602001808311610b0b57829003601f168201915b505050505090806006018054600181600116156101000203166002900480601f016020809104026020016040519081016040528092919081815260200182805460018160011615610100020316600290048015610bc65780601f10610b9b57610100808354040283529160200191610bc6565b820191906000526020600020905b815481529060010190602001808311610ba957829003601f168201915b5050505050908060070154905088565b610bde611331565b6101006040519081016040528060038054905081526020018881526020018781526020018681526020018581526020018481526020018381526020016000604051908082528060200260200182016040528015610c4a5781602001602082028038833980820191505090505b50815250905060038190806001815401808255809150509060018203906000526020600020906008020160009091929091909150600082015181600001556020820151816001019080519060200190610ca4929190611377565b506040820151816002019080519060200190610cc1929190611377565b506060820151816003019080519060200190610cde929190611377565b506080820151816004019080519060200190610cfb929190611377565b5060a0820151816005019080519060200190610d18929190611377565b5060c0820151816006019080519060200190610d35929190611377565b5060e0820151816007019080519060200190610d529291906113f7565b505050506003805490507fa7519119fc78e3a0264b7b028dd33232b5408d7f0ace427e1117397dfa1dbe1860405160405180910390a250505050505050565b600381815481101515610da057fe5b9060005260206000209060080201600091509050806000015490806001018054600181600116156101000203166002900480601f016020809104026020016040519081016040528092919081815260200182805460018160011615610100020316600290048015610e525780601f10610e2757610100808354040283529160200191610e52565b820191906000526020600020905b815481529060010190602001808311610e3557829003601f168201915b505050505090806002018054600181600116156101000203166002900480601f016020809104026020016040519081016040528092919081815260200182805460018160011615610100020316600290048015610ef05780601f10610ec557610100808354040283529160200191610ef0565b820191906000526020600020905b815481529060010190602001808311610ed357829003601f168201915b505050505090806003018054600181600116156101000203166002900480601f016020809104026020016040519081016040528092919081815260200182805460018160011615610100020316600290048015610f8e5780601f10610f6357610100808354040283529160200191610f8e565b820191906000526020600020905b815481529060010190602001808311610f7157829003601f168201915b505050505090806004018054600181600116156101000203166002900480601f01602080910402602001604051908101604052809291908181526020018280546001816001161561010002031660029004801561102c5780601f106110015761010080835404028352916020019161102c565b820191906000526020600020905b81548152906001019060200180831161100f57829003601f168201915b505050505090806005018054600181600116156101000203166002900480601f0160208091040260200160405190810160405280929190818152602001828054600181600116156101000203166002900480156110ca5780601f1061109f576101008083540402835291602001916110ca565b820191906000526020600020905b8154815290600101906020018083116110ad57829003601f168201915b505050505090806006018054600181600116156101000203166002900480601f0160208091040260200160405190810160405280929190818152602001828054600181600116156101000203166002900480156111685780601f1061113d57610100808354040283529160200191611168565b820191906000526020600020905b81548152906001019060200180831161114b57829003601f168201915b5050505050905087565b600261010060405190810160405280600280549050815260200189815260200188815260200187815260200186815260200185815260200184815260200183815250908060018154018082558091505090600182039060005260206000209060080201600090919290919091506000820151816000015560208201518160010155604082015181600201908051906020019061120f929190611377565b50606082015181600301908051906020019061122c929190611377565b506080820151816004015560a0820151816005019080519060200190611253929190611377565b5060c0820151816006019080519060200190611270929190611377565b5060e082015181600701555050506002805490507f825ed299415b0eed10996b6a8df0c8c33b9a5ab4f5cad6b8369077e4c80fb94f60405160405180910390a250505050505050565b60606003828154811015156112ca57fe5b906000526020600020906008020160070180548060200260200160405190810160405280929190818152602001828054801561132557602002820191906000526020600020905b815481526020019060010190808311611311575b50505050509050919050565b6101006040519081016040528060008152602001606081526020016060815260200160608152602001606081526020016060815260200160608152602001606081525090565b828054600181600116156101000203166002900490600052602060002090601f016020900481019282601f106113b857805160ff19168380011785556113e6565b828001600101855582156113e6579182015b828111156113e55782518255916020019190600101906113ca565b5b5090506113f39190611444565b5090565b828054828255906000526020600020908101928215611433579160200282015b82811115611432578251825591602001919060010190611417565b5b5090506114409190611444565b5090565b61146691905b8082111561146257600081600090555060010161144a565b5090565b905600a165627a7a7230582004f18cdce0213e4d34cae8bcf7f3546520c360a7fa95be4667206c04f700bcbb0029",
  "source": "pragma solidity ^0.4.23;\n\ncontract AffogatoNetwork {\n  //Initialice the contract\n\n  address admin;\n  uint256 public count;\n\n  struct CoffeeBatch {\n    uint256 id;\n    uint256 auditCode;\n    string cuppingFinalNote;\n    string batchSize;\n    uint256 altitude;\n    string process;\n    string variety;\n    uint256 farmId;\n  }\n\n  struct Farm{\n    uint256 id;\n    string producerName;\n    string farmName;\n    string village;\n    string municipality;\n    string department;\n    string country;\n    uint256[] coffeeBatchesIds;\n  }\n\n  CoffeeBatch[] public coffeeBatches;\n  Farm[] public farms;\n\n  //Event Definition\n  event AddCoffeeBatch(uint256 indexed _id);\n  event AddFarm(uint256 indexed _id);\n\n  //Constructor, initialices the values\n  constructor() public{\n    admin = msg.sender;\n    count = 0;\n  }\n\n  //Inserts Batch of coffee, updates farm batches and emits AddCoffeeBatch event\n  function addCoffeeBatch(\n    uint256 _auditCode,\n    string _cuppingFinalNote,\n    string _batchSize,\n    uint256 _altitude,\n    string _process,\n    string _variety,\n    uint256 _farmId\n  ) public {    \n   //TODO: Farm must exists\n    coffeeBatches.push(CoffeeBatch(coffeeBatches.length, _auditCode, _cuppingFinalNote, _batchSize, _altitude, _process, _variety, _farmId));\n    emit AddCoffeeBatch(coffeeBatches.length);\n  }\n\n  //Inserts Farm and emits AddFarm event\n  function addFarm(\n    string _producerName,\n    string _farmName,\n    string _village,\n    string _municipality,\n    string _department,\n    string _country\n  ) public {\n    Farm memory farm = Farm(farms.length, _producerName, _farmName, _village, _municipality, _department, _country, new uint[](0)); \n    farms.push(farm);  \n    emit AddFarm(farms.length);\n  }\n\n  function getFarmBatches(uint256 _index) public returns (uint256[]) {\n      return farms[_index].coffeeBatchesIds;\n  }\n\n/*\n  function getCoffeeBatch( uint256 _id) public returns\n  (\n    uint256 _auditCode,\n    string _cuppingFinalNote,\n    string _producerName,\n    string _farmName,\n    string _village,\n    string _municipality,\n    string _department,\n    string _country,\n    string _batchSize,\n    uint256 _altitude,\n    string _process,\n    string _variety\n  ){  \n //   return coffeeBatches[id];\n//    emit AddCoffeeBatch(id);\n  }\n*/\n\n\n //get objects by id\n //only people witch access can write\n //set permissions\n //create events\n\n /*\n  contract SalaryInfo {\n    struct User {\n        uint salaryId;\n        string name;\n        string userAddress;\n        uint salary;\n    }\n    User[] public users;\n\n    function addUser(uint _salaryId, string _name, string _userAddress, uint _salary) public returns(uint) {\n        users.length++;\n        users[users.length-1].salaryId = _salaryId;\n        users[users.length-1].name = _name;\n        users[users.length-1].userAddress = _userAddress;\n        users[users.length-1].salary = _salary;\n        return users.length;\n    }\n\n    function getUsersCount() public constant returns(uint) {\n        return users.length;\n    }\n\n    function getUser(uint index) public constant returns(uint, string, string, uint) {\n        return (users[index].salaryId, users[index].name, users[index].userAddress, users[index].salary);\n    }\n}\n */\n\n}\n",
  "sourcePath": "/Users/crisgarner/Projects/affogato/contracts/AffogatoNetwork.sol",
  "compiler": {
    "name": "solc",
    "version": "0.4.23+commit.124ca40d.Emscripten.clang"
  },
  "schemaVersion": "2.0.0",
  "updatedAt": "2018-06-04T04:36:50.677Z"
}