{
  "contractName": "AffogatoNetwork",
  "abi": [
    {
      "constant": true,
      "inputs": [
        {
          "name": "",
          "type": "uint256"
        }
      ],
      "name": "coffeeBatches",
      "outputs": [
        {
          "name": "id",
          "type": "uint256"
        },
        {
          "name": "farmId",
          "type": "uint256"
        },
        {
          "name": "altitude",
          "type": "uint256"
        },
        {
          "name": "process",
          "type": "string"
        },
        {
          "name": "variety",
          "type": "string"
        },
        {
          "components": [
            {
              "name": "finalBatchSize",
              "type": "uint256"
            },
            {
              "name": "isProcessComplete",
              "type": "bool"
            }
          ],
          "name": "cut",
          "type": "tuple"
        },
        {
          "components": [
            {
              "name": "finalBatchSize",
              "type": "uint256"
            },
            {
              "name": "isProcessedByFarm",
              "type": "bool"
            },
            {
              "name": "processorId",
              "type": "string"
            },
            {
              "name": "isProcessComplete",
              "type": "bool"
            }
          ],
          "name": "depulped",
          "type": "tuple"
        },
        {
          "components": [
            {
              "name": "finalBatchSize",
              "type": "uint256"
            },
            {
              "name": "isProcessedByFarm",
              "type": "bool"
            },
            {
              "name": "processorId",
              "type": "string"
            },
            {
              "name": "typeOfFermented",
              "type": "string"
            },
            {
              "name": "isProcessComplete",
              "type": "bool"
            }
          ],
          "name": "fermented",
          "type": "tuple"
        },
        {
          "components": [
            {
              "name": "finalBatchSize",
              "type": "uint256"
            },
            {
              "name": "isProcessedByFarm",
              "type": "bool"
            },
            {
              "name": "processorId",
              "type": "string"
            },
            {
              "name": "isProcessComplete",
              "type": "bool"
            }
          ],
          "name": "washed",
          "type": "tuple"
        },
        {
          "components": [
            {
              "name": "finalBatchSize",
              "type": "uint256"
            },
            {
              "name": "typeOfDrying",
              "type": "string"
            },
            {
              "name": "isProcessedByFarm",
              "type": "bool"
            },
            {
              "name": "processorId",
              "type": "string"
            },
            {
              "name": "isProcessComplete",
              "type": "bool"
            }
          ],
          "name": "drying",
          "type": "tuple"
        },
        {
          "components": [
            {
              "name": "finalBatchSize",
              "type": "uint256"
            },
            {
              "name": "isProcessedByFarm",
              "type": "bool"
            },
            {
              "name": "processorId",
              "type": "string"
            },
            {
              "name": "isProcessComplete",
              "type": "bool"
            }
          ],
          "name": "trite",
          "type": "tuple"
        },
        {
          "components": [
            {
              "name": "frangance",
              "type": "string"
            },
            {
              "name": "flavor",
              "type": "string"
            },
            {
              "name": "acidity",
              "type": "string"
            },
            {
              "name": "body",
              "type": "string"
            },
            {
              "name": "sweetness",
              "type": "string"
            },
            {
              "name": "cuppingNote",
              "type": "string"
            },
            {
              "name": "defects",
              "type": "string"
            },
            {
              "name": "grainSize",
              "type": "string"
            }
          ],
          "name": "cupProfile",
          "type": "tuple"
        }
      ],
      "payable": false,
      "stateMutability": "view",
      "type": "function"
    },
    {
      "constant": true,
      "inputs": [
        {
          "name": "",
          "type": "uint256"
        }
      ],
      "name": "farms",
      "outputs": [
        {
          "name": "id",
          "type": "uint256"
        },
        {
          "name": "producerId",
          "type": "uint256"
        },
        {
          "name": "farmName",
          "type": "string"
        },
        {
          "name": "village",
          "type": "string"
        },
        {
          "name": "municipality",
          "type": "string"
        },
        {
          "name": "department",
          "type": "string"
        },
        {
          "name": "country",
          "type": "string"
        }
      ],
      "payable": false,
      "stateMutability": "view",
      "type": "function"
    },
    {
      "constant": true,
      "inputs": [
        {
          "name": "",
          "type": "uint256"
        }
      ],
      "name": "producers",
      "outputs": [
        {
          "name": "id",
          "type": "uint256"
        },
        {
          "name": "producerName",
          "type": "string"
        },
        {
          "name": "history",
          "type": "string"
        }
      ],
      "payable": false,
      "stateMutability": "view",
      "type": "function"
    },
    {
      "constant": true,
      "inputs": [
        {
          "name": "",
          "type": "uint256"
        }
      ],
      "name": "processors",
      "outputs": [
        {
          "name": "id",
          "type": "uint256"
        },
        {
          "name": "name",
          "type": "string"
        },
        {
          "name": "typeOfProcessor",
          "type": "string"
        },
        {
          "name": "village",
          "type": "string"
        },
        {
          "name": "municipality",
          "type": "string"
        },
        {
          "name": "department",
          "type": "string"
        },
        {
          "name": "country",
          "type": "string"
        }
      ],
      "payable": false,
      "stateMutability": "view",
      "type": "function"
    },
    {
      "inputs": [],
      "payable": false,
      "stateMutability": "nonpayable",
      "type": "constructor"
    },
    {
      "anonymous": false,
      "inputs": [
        {
          "indexed": true,
          "name": "_id",
          "type": "uint256"
        }
      ],
      "name": "AddProducer",
      "type": "event"
    },
    {
      "anonymous": false,
      "inputs": [
        {
          "indexed": true,
          "name": "_id",
          "type": "uint256"
        }
      ],
      "name": "AddFarm",
      "type": "event"
    },
    {
      "anonymous": false,
      "inputs": [
        {
          "indexed": true,
          "name": "_id",
          "type": "uint256"
        }
      ],
      "name": "AddCoffeeBatch",
      "type": "event"
    },
    {
      "anonymous": false,
      "inputs": [
        {
          "indexed": true,
          "name": "_id",
          "type": "uint256"
        }
      ],
      "name": "AddProcessor",
      "type": "event"
    },
    {
      "constant": false,
      "inputs": [
        {
          "name": "_producerName",
          "type": "string"
        },
        {
          "name": "_history",
          "type": "string"
        }
      ],
      "name": "addProducer",
      "outputs": [],
      "payable": false,
      "stateMutability": "nonpayable",
      "type": "function"
    },
    {
      "constant": false,
      "inputs": [
        {
          "name": "_name",
          "type": "string"
        },
        {
          "name": "_typeOfProcessor",
          "type": "string"
        },
        {
          "name": "_village",
          "type": "string"
        },
        {
          "name": "_municipality",
          "type": "string"
        },
        {
          "name": "_department",
          "type": "string"
        },
        {
          "name": "_country",
          "type": "string"
        }
      ],
      "name": "addProcessor",
      "outputs": [],
      "payable": false,
      "stateMutability": "nonpayable",
      "type": "function"
    },
    {
      "constant": false,
      "inputs": [
        {
          "name": "_farmId",
          "type": "uint256"
        },
        {
          "name": "_altitude",
          "type": "uint256"
        },
        {
          "name": "_process",
          "type": "string"
        },
        {
          "name": "_variety",
          "type": "string"
        }
      ],
      "name": "addCoffeeBatch",
      "outputs": [],
      "payable": false,
      "stateMutability": "nonpayable",
      "type": "function"
    },
    {
      "constant": false,
      "inputs": [
        {
          "name": "_producerId",
          "type": "uint256"
        },
        {
          "name": "_farmName",
          "type": "string"
        },
        {
          "name": "_village",
          "type": "string"
        },
        {
          "name": "_municipality",
          "type": "string"
        },
        {
          "name": "_department",
          "type": "string"
        },
        {
          "name": "_country",
          "type": "string"
        }
      ],
      "name": "addFarm",
      "outputs": [],
      "payable": false,
      "stateMutability": "nonpayable",
      "type": "function"
    },
    {
      "constant": true,
      "inputs": [
        {
          "name": "_index",
          "type": "uint256"
        }
      ],
      "name": "getProducerFarms",
      "outputs": [
        {
          "name": "",
          "type": "uint256[]"
        }
      ],
      "payable": false,
      "stateMutability": "view",
      "type": "function"
    },
    {
      "constant": true,
      "inputs": [
        {
          "name": "_index",
          "type": "uint256"
        }
      ],
      "name": "getFarmBatches",
      "outputs": [
        {
          "name": "",
          "type": "uint256[]"
        }
      ],
      "payable": false,
      "stateMutability": "view",
      "type": "function"
    }
  ],
  "bytecode": "0x608060405234801561001057600080fd5b50336000806101000a81548173ffffffffffffffffffffffffffffffffffffffff021916908373ffffffffffffffffffffffffffffffffffffffff1602179055506134c5806100606000396000f3006080604052600436106100a4576000357c0100000000000000000000000000000000000000000000000000000000900463ffffffff1680631197e734146100a9578063297620ca14610158578063395209b21461021b5780637da470ea146103735780639b68ade7146105d7578063a91d818b146106f0578063b37541831461087b578063bbfb8812146108fd578063d554b1811461097f578063fe7c58e914610b46575b600080fd5b3480156100b557600080fd5b50610156600480360381019080803590602001908201803590602001908080601f0160208091040260200160405190810160405280939291908181526020018383808284378201915050505050509192919290803590602001908201803590602001908080601f0160208091040260200160405190810160405280939291908181526020018383808284378201915050505050509192919290505050610e0f565b005b34801561016457600080fd5b506102196004803603810190808035906020019092919080359060200190929190803590602001908201803590602001908080601f0160208091040260200160405190810160405280939291908181526020018383808284378201915050505050509192919290803590602001908201803590602001908080601f0160208091040260200160405190810160405280939291908181526020018383808284378201915050505050509192919290505050610f61565b005b34801561022757600080fd5b5061024660048036038101908080359060200190929190505050611709565b604051808d81526020018c81526020018b815260200180602001806020018a815260200189815260200188815260200187815260200186815260200185815260200184815260200183810383528c818151815260200191508051906020019080838360005b838110156102c65780820151818401526020810190506102ab565b50505050905090810190601f1680156102f35780820380516001836020036101000a031916815260200191505b5083810382528b818151815260200191508051906020019080838360005b8381101561032c578082015181840152602081019050610311565b50505050905090810190601f1680156103595780820380516001836020036101000a031916815260200191505b509e50505050505050505050505050505060405180910390f35b34801561037f57600080fd5b5061039e600480360381019080803590602001909291905050506123d8565b60405180888152602001878152602001806020018060200180602001806020018060200186810386528b818151815260200191508051906020019080838360005b838110156103fa5780820151818401526020810190506103df565b50505050905090810190601f1680156104275780820380516001836020036101000a031916815260200191505b5086810385528a818151815260200191508051906020019080838360005b83811015610460578082015181840152602081019050610445565b50505050905090810190601f16801561048d5780820380516001836020036101000a031916815260200191505b50868103845289818151815260200191508051906020019080838360005b838110156104c65780820151818401526020810190506104ab565b50505050905090810190601f1680156104f35780820380516001836020036101000a031916815260200191505b50868103835288818151815260200191508051906020019080838360005b8381101561052c578082015181840152602081019050610511565b50505050905090810190601f1680156105595780820380516001836020036101000a031916815260200191505b50868103825287818151815260200191508051906020019080838360005b83811015610592578082015181840152602081019050610577565b50505050905090810190601f1680156105bf5780820380516001836020036101000a031916815260200191505b509c5050505050505050505050505060405180910390f35b3480156105e357600080fd5b5061060260048036038101908080359060200190929190505050612721565b604051808481526020018060200180602001838103835285818151815260200191508051906020019080838360005b8381101561064c578082015181840152602081019050610631565b50505050905090810190601f1680156106795780820380516001836020036101000a031916815260200191505b50838103825284818151815260200191508051906020019080838360005b838110156106b2578082015181840152602081019050610697565b50505050905090810190601f1680156106df5780820380516001836020036101000a031916815260200191505b509550505050505060405180910390f35b3480156106fc57600080fd5b5061087960048036038101908080359060200190929190803590602001908201803590602001908080601f0160208091040260200160405190810160405280939291908181526020018383808284378201915050505050509192919290803590602001908201803590602001908080601f0160208091040260200160405190810160405280939291908181526020018383808284378201915050505050509192919290803590602001908201803590602001908080601f0160208091040260200160405190810160405280939291908181526020018383808284378201915050505050509192919290803590602001908201803590602001908080601f0160208091040260200160405190810160405280939291908181526020018383808284378201915050505050509192919290803590602001908201803590602001908080601f016020809104026020016040519081016040528093929190818152602001838380828437820191505050505050919291929050505061288a565b005b34801561088757600080fd5b506108a660048036038101908080359060200190929190505050612adc565b6040518080602001828103825283818151815260200191508051906020019060200280838360005b838110156108e95780820151818401526020810190506108ce565b505050509050019250505060405180910390f35b34801561090957600080fd5b5061092860048036038101908080359060200190929190505050612b54565b6040518080602001828103825283818151815260200191508051906020019060200280838360005b8381101561096b578082015181840152602081019050610950565b505050509050019250505060405180910390f35b34801561098b57600080fd5b50610b44600480360381019080803590602001908201803590602001908080601f0160208091040260200160405190810160405280939291908181526020018383808284378201915050505050509192919290803590602001908201803590602001908080601f0160208091040260200160405190810160405280939291908181526020018383808284378201915050505050509192919290803590602001908201803590602001908080601f0160208091040260200160405190810160405280939291908181526020018383808284378201915050505050509192919290803590602001908201803590602001908080601f0160208091040260200160405190810160405280939291908181526020018383808284378201915050505050509192919290803590602001908201803590602001908080601f0160208091040260200160405190810160405280939291908181526020018383808284378201915050505050509192919290803590602001908201803590602001908080601f0160208091040260200160405190810160405280939291908181526020018383808284378201915050505050509192919290505050612bcc565b005b348015610b5257600080fd5b50610b7160048036038101908080359060200190929190505050612da3565b6040518088815260200180602001806020018060200180602001806020018060200187810387528d818151815260200191508051906020019080838360005b83811015610bcb578082015181840152602081019050610bb0565b50505050905090810190601f168015610bf85780820380516001836020036101000a031916815260200191505b5087810386528c818151815260200191508051906020019080838360005b83811015610c31578082015181840152602081019050610c16565b50505050905090810190601f168015610c5e5780820380516001836020036101000a031916815260200191505b5087810385528b818151815260200191508051906020019080838360005b83811015610c97578082015181840152602081019050610c7c565b50505050905090810190601f168015610cc45780820380516001836020036101000a031916815260200191505b5087810384528a818151815260200191508051906020019080838360005b83811015610cfd578082015181840152602081019050610ce2565b50505050905090810190601f168015610d2a5780820380516001836020036101000a031916815260200191505b50878103835289818151815260200191508051906020019080838360005b83811015610d63578082015181840152602081019050610d48565b50505050905090810190601f168015610d905780820380516001836020036101000a031916815260200191505b50878103825288818151815260200191508051906020019080838360005b83811015610dc9578082015181840152602081019050610dae565b50505050905090810190601f168015610df65780820380516001836020036101000a031916815260200191505b509d505050505050505050505050505060405180910390f35b6000610e196131a9565b610e2284613184565b158015610e355750610e3383613184565b155b1515610e4057600080fd5b60018054905091506080604051908101604052808381526020018581526020018481526020016000604051908082528060200260200182016040528015610e965781602001602082028038833980820191505090505b50815250905060018190806001815401808255809150509060018203906000526020600020906004020160009091929091909150600082015181600001556020820151816001019080519060200190610ef09291906131d2565b506040820151816002019080519060200190610f0d9291906131d2565b506060820151816003019080519060200190610f2a929190613252565b50505050817f1074041b1f3c44b82090a7939c5401d6358a76d18ebeef0776bcf2c11eb7080660405160405180910390a250505050565b6000610f6b61329f565b610f736132bb565b610f7b6132e8565b610f8361331c565b610f8b613349565b610f9361337d565b610f9b6133aa565b8b60028054905010151515610faf57600080fd5b610fb88a613184565b158015610fcb5750610fc989613184565b155b1515610fd657600080fd5b6004805490509750604080519081016040528060008152602001600015158152509650608060405190810160405280600081526020016000151581526020016020604051908101604052806000815250815260200160001515815250955060a060405190810160405280600081526020016000151581526020016020604051908101604052806000815250815260200160206040519081016040528060008152508152602001600015158152509450608060405190810160405280600081526020016000151581526020016020604051908101604052806000815250815260200160001515815250935060a06040519081016040528060008152602001602060405190810160405280600081525081526020016000151581526020016020604051908101604052806000815250815260200160001515815250925060806040519081016040528060008152602001600015158152602001602060405190810160405280600081525081526020016000151581525091506101006040519081016040528060206040519081016040528060008152508152602001602060405190810160405280600081525081526020016020604051908101604052806000815250815260200160206040519081016040528060008152508152602001602060405190810160405280600081525081526020016020604051908101604052806000815250815260200160206040519081016040528060008152508152602001602060405190810160405280600081525081525090506004610180604051908101604052808a81526020018e81526020018d81526020018c81526020018b8152602001898152602001888152602001878152602001868152602001858152602001848152602001838152509080600181540180825580915050906001820390600052602060002090602502016000909192909190915060008201518160000155602082015181600101556040820151816002015560608201518160030190805190602001906112c39291906131d2565b5060808201518160040190805190602001906112e09291906131d2565b5060a0820151816005016000820151816000015560208201518160010160006101000a81548160ff021916908315150217905550505060c0820151816007016000820151816000015560208201518160010160006101000a81548160ff02191690831515021790555060408201518160020190805190602001906113659291906131d2565b5060608201518160030160006101000a81548160ff021916908315150217905550505060e082015181600b016000820151816000015560208201518160010160006101000a81548160ff02191690831515021790555060408201518160020190805190602001906113d79291906131d2565b5060608201518160030190805190602001906113f49291906131d2565b5060808201518160040160006101000a81548160ff0219169083151502179055505050610100820151816010016000820151816000015560208201518160010160006101000a81548160ff02191690831515021790555060408201518160020190805190602001906114679291906131d2565b5060608201518160030160006101000a81548160ff0219169083151502179055505050610120820151816014016000820151816000015560208201518160010190805190602001906114ba9291906131d2565b5060408201518160020160006101000a81548160ff02191690831515021790555060608201518160030190805190602001906114f79291906131d2565b5060808201518160040160006101000a81548160ff0219169083151502179055505050610140820151816019016000820151816000015560208201518160010160006101000a81548160ff021916908315150217905550604082015181600201908051906020019061156a9291906131d2565b5060608201518160030160006101000a81548160ff021916908315150217905550505061016082015181601d0160008201518160000190805190602001906115b39291906131d2565b5060208201518160010190805190602001906115d09291906131d2565b5060408201518160020190805190602001906115ed9291906131d2565b50606082015181600301908051906020019061160a9291906131d2565b5060808201518160040190805190602001906116279291906131d2565b5060a08201518160050190805190602001906116449291906131d2565b5060c08201518160060190805190602001906116619291906131d2565b5060e082015181600701908051906020019061167e9291906131d2565b50505050505060028c81548110151561169357fe5b9060005260206000209060080201600701889080600181540180825580915050906001820390600052602060002001600090919290919091505550877f825ed299415b0eed10996b6a8df0c8c33b9a5ab4f5cad6b8369077e4c80fb94f60405160405180910390a2505050505050505050505050565b60048181548110151561171857fe5b9060005260206000209060250201600091509050806000015490806001015490806002015490806003018054600181600116156101000203166002900480601f0160208091040260200160405190810160405280929190818152602001828054600181600116156101000203166002900480156117d65780601f106117ab576101008083540402835291602001916117d6565b820191906000526020600020905b8154815290600101906020018083116117b957829003601f168201915b505050505090806004018054600181600116156101000203166002900480601f0160208091040260200160405190810160405280929190818152602001828054600181600116156101000203166002900480156118745780601f1061184957610100808354040283529160200191611874565b820191906000526020600020905b81548152906001019060200180831161185757829003601f168201915b50505050509080600501604080519081016040529081600082015481526020016001820160009054906101000a900460ff161515151581525050908060070160806040519081016040529081600082015481526020016001820160009054906101000a900460ff16151515158152602001600282018054600181600116156101000203166002900480601f01602080910402602001604051908101604052809291908181526020018280546001816001161561010002031660029004801561197d5780601f106119525761010080835404028352916020019161197d565b820191906000526020600020905b81548152906001019060200180831161196057829003601f168201915b505050505081526020016003820160009054906101000a900460ff1615151515815250509080600b0160a06040519081016040529081600082015481526020016001820160009054906101000a900460ff16151515158152602001600282018054600181600116156101000203166002900480601f016020809104026020016040519081016040528092919081815260200182805460018160011615610100020316600290048015611a705780601f10611a4557610100808354040283529160200191611a70565b820191906000526020600020905b815481529060010190602001808311611a5357829003601f168201915b50505050508152602001600382018054600181600116156101000203166002900480601f016020809104026020016040519081016040528092919081815260200182805460018160011615610100020316600290048015611b125780601f10611ae757610100808354040283529160200191611b12565b820191906000526020600020905b815481529060010190602001808311611af557829003601f168201915b505050505081526020016004820160009054906101000a900460ff161515151581525050908060100160806040519081016040529081600082015481526020016001820160009054906101000a900460ff16151515158152602001600282018054600181600116156101000203166002900480601f016020809104026020016040519081016040528092919081815260200182805460018160011615610100020316600290048015611c055780601f10611bda57610100808354040283529160200191611c05565b820191906000526020600020905b815481529060010190602001808311611be857829003601f168201915b505050505081526020016003820160009054906101000a900460ff161515151581525050908060140160a0604051908101604052908160008201548152602001600182018054600181600116156101000203166002900480601f016020809104026020016040519081016040528092919081815260200182805460018160011615610100020316600290048015611cdd5780601f10611cb257610100808354040283529160200191611cdd565b820191906000526020600020905b815481529060010190602001808311611cc057829003601f168201915b505050505081526020016002820160009054906101000a900460ff16151515158152602001600382018054600181600116156101000203166002900480601f016020809104026020016040519081016040528092919081815260200182805460018160011615610100020316600290048015611d9a5780601f10611d6f57610100808354040283529160200191611d9a565b820191906000526020600020905b815481529060010190602001808311611d7d57829003601f168201915b505050505081526020016004820160009054906101000a900460ff161515151581525050908060190160806040519081016040529081600082015481526020016001820160009054906101000a900460ff16151515158152602001600282018054600181600116156101000203166002900480601f016020809104026020016040519081016040528092919081815260200182805460018160011615610100020316600290048015611e8d5780601f10611e6257610100808354040283529160200191611e8d565b820191906000526020600020905b815481529060010190602001808311611e7057829003601f168201915b505050505081526020016003820160009054906101000a900460ff1615151515815250509080601d016101006040519081016040529081600082018054600181600116156101000203166002900480601f016020809104026020016040519081016040528092919081815260200182805460018160011615610100020316600290048015611f5c5780601f10611f3157610100808354040283529160200191611f5c565b820191906000526020600020905b815481529060010190602001808311611f3f57829003601f168201915b50505050508152602001600182018054600181600116156101000203166002900480601f016020809104026020016040519081016040528092919081815260200182805460018160011615610100020316600290048015611ffe5780601f10611fd357610100808354040283529160200191611ffe565b820191906000526020600020905b815481529060010190602001808311611fe157829003601f168201915b50505050508152602001600282018054600181600116156101000203166002900480601f0160208091040260200160405190810160405280929190818152602001828054600181600116156101000203166002900480156120a05780601f10612075576101008083540402835291602001916120a0565b820191906000526020600020905b81548152906001019060200180831161208357829003601f168201915b50505050508152602001600382018054600181600116156101000203166002900480601f0160208091040260200160405190810160405280929190818152602001828054600181600116156101000203166002900480156121425780601f1061211757610100808354040283529160200191612142565b820191906000526020600020905b81548152906001019060200180831161212557829003601f168201915b50505050508152602001600482018054600181600116156101000203166002900480601f0160208091040260200160405190810160405280929190818152602001828054600181600116156101000203166002900480156121e45780601f106121b9576101008083540402835291602001916121e4565b820191906000526020600020905b8154815290600101906020018083116121c757829003601f168201915b50505050508152602001600582018054600181600116156101000203166002900480601f0160208091040260200160405190810160405280929190818152602001828054600181600116156101000203166002900480156122865780601f1061225b57610100808354040283529160200191612286565b820191906000526020600020905b81548152906001019060200180831161226957829003601f168201915b50505050508152602001600682018054600181600116156101000203166002900480601f0160208091040260200160405190810160405280929190818152602001828054600181600116156101000203166002900480156123285780601f106122fd57610100808354040283529160200191612328565b820191906000526020600020905b81548152906001019060200180831161230b57829003601f168201915b50505050508152602001600782018054600181600116156101000203166002900480601f0160208091040260200160405190810160405280929190818152602001828054600181600116156101000203166002900480156123ca5780601f1061239f576101008083540402835291602001916123ca565b820191906000526020600020905b8154815290600101906020018083116123ad57829003601f168201915b50505050508152505090508c565b6002818154811015156123e757fe5b9060005260206000209060080201600091509050806000015490806001015490806002018054600181600116156101000203166002900480601f01602080910402602001604051908101604052809291908181526020018280546001816001161561010002031660029004801561249f5780601f106124745761010080835404028352916020019161249f565b820191906000526020600020905b81548152906001019060200180831161248257829003601f168201915b505050505090806003018054600181600116156101000203166002900480601f01602080910402602001604051908101604052809291908181526020018280546001816001161561010002031660029004801561253d5780601f106125125761010080835404028352916020019161253d565b820191906000526020600020905b81548152906001019060200180831161252057829003601f168201915b505050505090806004018054600181600116156101000203166002900480601f0160208091040260200160405190810160405280929190818152602001828054600181600116156101000203166002900480156125db5780601f106125b0576101008083540402835291602001916125db565b820191906000526020600020905b8154815290600101906020018083116125be57829003601f168201915b505050505090806005018054600181600116156101000203166002900480601f0160208091040260200160405190810160405280929190818152602001828054600181600116156101000203166002900480156126795780601f1061264e57610100808354040283529160200191612679565b820191906000526020600020905b81548152906001019060200180831161265c57829003601f168201915b505050505090806006018054600181600116156101000203166002900480601f0160208091040260200160405190810160405280929190818152602001828054600181600116156101000203166002900480156127175780601f106126ec57610100808354040283529160200191612717565b820191906000526020600020905b8154815290600101906020018083116126fa57829003601f168201915b5050505050905087565b60018181548110151561273057fe5b9060005260206000209060040201600091509050806000015490806001018054600181600116156101000203166002900480601f0160208091040260200160405190810160405280929190818152602001828054600181600116156101000203166002900480156127e25780601f106127b7576101008083540402835291602001916127e2565b820191906000526020600020905b8154815290600101906020018083116127c557829003601f168201915b505050505090806002018054600181600116156101000203166002900480601f0160208091040260200160405190810160405280929190818152602001828054600181600116156101000203166002900480156128805780601f1061285557610100808354040283529160200191612880565b820191906000526020600020905b81548152906001019060200180831161286357829003601f168201915b5050505050905083565b60006128946133f0565b87600180549050101515156128a857600080fd5b6128b187613184565b1580156128c457506128c286613184565b155b80156128d657506128d485613184565b155b80156128e857506128e683613184565b155b15156128f357600080fd5b60028054905091506101006040519081016040528083815260200189815260200188815260200187815260200186815260200185815260200184815260200160006040519080825280602002602001820160405280156129625781602001602082028038833980820191505090505b50815250905060028190806001815401808255809150509060018203906000526020600020906008020160009091929091909150600082015181600001556020820151816001015560408201518160020190805190602001906129c69291906131d2565b5060608201518160030190805190602001906129e39291906131d2565b506080820151816004019080519060200190612a009291906131d2565b5060a0820151816005019080519060200190612a1d9291906131d2565b5060c0820151816006019080519060200190612a3a9291906131d2565b5060e0820151816007019080519060200190612a57929190613252565b50505050600188815481101515612a6a57fe5b9060005260206000209060040201600301829080600181540180825580915050906001820390600052602060002001600090919290919091505550817fa7519119fc78e3a0264b7b028dd33232b5408d7f0ace427e1117397dfa1dbe1860405160405180910390a25050505050505050565b6060600282815481101515612aed57fe5b9060005260206000209060080201600701805480602002602001604051908101604052809291908181526020018280548015612b4857602002820191906000526020600020905b815481526020019060010190808311612b34575b50505050509050919050565b6060600182815481101515612b6557fe5b9060005260206000209060040201600301805480602002602001604051908101604052809291908181526020018280548015612bc057602002820191906000526020600020905b815481526020019060010190808311612bac575b50505050509050919050565b6000612bd6613436565b612bdf87613184565b158015612bf25750612bf088613184565b155b8015612c045750612c0286613184565b155b8015612c165750612c1485613184565b155b8015612c285750612c2684613184565b155b8015612c3a5750612c3883613184565b155b1515612c4557600080fd5b600380549050915060e06040519081016040528083815260200189815260200188815260200187815260200186815260200185815260200184815250905060038190806001815401808255809150509060018203906000526020600020906007020160009091929091909150600082015181600001556020820151816001019080519060200190612cd79291906131d2565b506040820151816002019080519060200190612cf49291906131d2565b506060820151816003019080519060200190612d119291906131d2565b506080820151816004019080519060200190612d2e9291906131d2565b5060a0820151816005019080519060200190612d4b9291906131d2565b5060c0820151816006019080519060200190612d689291906131d2565b50505050817f2d097a86d6a8c65f42bce20487ddbd77f36f93eda3d9ed0fed92928b32c72e4b60405160405180910390a25050505050505050565b600381815481101515612db257fe5b9060005260206000209060070201600091509050806000015490806001018054600181600116156101000203166002900480601f016020809104026020016040519081016040528092919081815260200182805460018160011615610100020316600290048015612e645780601f10612e3957610100808354040283529160200191612e64565b820191906000526020600020905b815481529060010190602001808311612e4757829003601f168201915b505050505090806002018054600181600116156101000203166002900480601f016020809104026020016040519081016040528092919081815260200182805460018160011615610100020316600290048015612f025780601f10612ed757610100808354040283529160200191612f02565b820191906000526020600020905b815481529060010190602001808311612ee557829003601f168201915b505050505090806003018054600181600116156101000203166002900480601f016020809104026020016040519081016040528092919081815260200182805460018160011615610100020316600290048015612fa05780601f10612f7557610100808354040283529160200191612fa0565b820191906000526020600020905b815481529060010190602001808311612f8357829003601f168201915b505050505090806004018054600181600116156101000203166002900480601f01602080910402602001604051908101604052809291908181526020018280546001816001161561010002031660029004801561303e5780601f106130135761010080835404028352916020019161303e565b820191906000526020600020905b81548152906001019060200180831161302157829003601f168201915b505050505090806005018054600181600116156101000203166002900480601f0160208091040260200160405190810160405280929190818152602001828054600181600116156101000203166002900480156130dc5780601f106130b1576101008083540402835291602001916130dc565b820191906000526020600020905b8154815290600101906020018083116130bf57829003601f168201915b505050505090806006018054600181600116156101000203166002900480601f01602080910402602001604051908101604052809291908181526020018280546001816001161561010002031660029004801561317a5780601f1061314f5761010080835404028352916020019161317a565b820191906000526020600020905b81548152906001019060200180831161315d57829003601f168201915b5050505050905087565b6000606082905060008151141561319e57600191506131a3565b600091505b50919050565b608060405190810160405280600081526020016060815260200160608152602001606081525090565b828054600181600116156101000203166002900490600052602060002090601f016020900481019282601f1061321357805160ff1916838001178555613241565b82800160010185558215613241579182015b82811115613240578251825591602001919060010190613225565b5b50905061324e9190613474565b5090565b82805482825590600052602060002090810192821561328e579160200282015b8281111561328d578251825591602001919060010190613272565b5b50905061329b9190613474565b5090565b6040805190810160405280600081526020016000151581525090565b60806040519081016040528060008152602001600015158152602001606081526020016000151581525090565b60a0604051908101604052806000815260200160001515815260200160608152602001606081526020016000151581525090565b60806040519081016040528060008152602001600015158152602001606081526020016000151581525090565b60a0604051908101604052806000815260200160608152602001600015158152602001606081526020016000151581525090565b60806040519081016040528060008152602001600015158152602001606081526020016000151581525090565b6101006040519081016040528060608152602001606081526020016060815260200160608152602001606081526020016060815260200160608152602001606081525090565b6101006040519081016040528060008152602001600081526020016060815260200160608152602001606081526020016060815260200160608152602001606081525090565b60e060405190810160405280600081526020016060815260200160608152602001606081526020016060815260200160608152602001606081525090565b61349691905b8082111561349257600081600090555060010161347a565b5090565b905600a165627a7a7230582031d414d558f5d8482f5716af3d2e59d199e6f61181b6b144b2a2c4915b86ffe50029",
  "source": "pragma solidity ^0.4.23;\n\ncontract AffogatoNetwork {\n  //Initialice the contract\n\n  address admin;\n\n  //Actors, Owners\n  struct Producer{\n    uint256 id;\n    string producerName;\n    string history;\n    uint256[] farms; //IDs of ownerd farms\n  }\n\n  struct Processor{\n    uint256 id;\n    string name;\n    string typeOfProcessor; //Beneficio, Cooperativa, Finca\n    string village;\n    string municipality;\n    string department;\n    string country;\n  }\n\n  struct Farm{\n    uint256 id;\n    uint256 producerId;\n    string farmName;\n    string village;\n    string municipality;\n    string department;\n    string country;\n    uint256[] coffeeBatches; //IDs of Coffee Batches\n  }\n\n  //Coffee Process\n  struct Cut{\n    uint256 finalBatchSize; \n    bool isProcessComplete;\n  }\n\n  struct Depulped{\n    uint256 finalBatchSize;\n    bool isProcessedByFarm;\n    string processorId;\n    bool isProcessComplete;\n  }\n\n  struct Fermented{\n    uint256 finalBatchSize;\n    bool isProcessedByFarm;\n    string processorId;\n    string typeOfFermented;\n    bool isProcessComplete;\n  }\n\n  struct Washed{\n    uint256 finalBatchSize;\n    bool isProcessedByFarm;\n    string processorId;\n    bool isProcessComplete;\n  }\n\n  struct Drying{\n    uint256 finalBatchSize;\n    string typeOfDrying;\n    bool isProcessedByFarm;\n    string processorId;\n    bool isProcessComplete;\n  }\n\n  struct Trite{\n    uint256 finalBatchSize;\n    bool isProcessedByFarm;\n    string processorId;\n    bool isProcessComplete;\n  }\n\n  struct CupProfile{\n    string frangance;\n    string flavor;\n    string acidity;\n    string body;\n    string sweetness;\n    string cuppingNote;\n    string defects;\n    string grainSize;\n  }\n\n  // End of Coffee Process\n\n  struct CoffeeBatch {\n    uint256 id;\n    uint256 farmId;\n    uint256 altitude;\n    string process;\n    string variety;\n    Cut cut;\n    Depulped depulped;\n    Fermented fermented;\n    Washed washed;\n    Drying drying;\n    Trite trite;\n    CupProfile cupProfile;\n  }\n\n  Producer[] public producers;\n  Farm[] public farms;\n  Processor[] public processors;\n  CoffeeBatch[] public coffeeBatches;\n \n\n  //Event Definition\n  event AddProducer(uint256 indexed _id);\n  event AddFarm(uint256 indexed _id);\n  event AddCoffeeBatch(uint256 indexed _id);\n  event AddProcessor(uint256 indexed _id);\n\n  //Constructor, initialices the values\n  constructor() public{\n    admin = msg.sender;\n  }\n\n  //Inserts Producer and emits AddProducer event\n  function addProducer(string _producerName, string _history) public {\n    require(!isEmpty(_producerName) && !isEmpty(_history));\n    uint currentId = producers.length;\n    Producer memory producer = Producer(currentId, _producerName,_history, new uint[](0)); \n    producers.push(producer);  \n    emit AddProducer(currentId);\n  }\n\n  //Inserts Farm and emits AddFarm event\n  function addProcessor(\n    string _name,\n    string _typeOfProcessor,\n    string _village,\n    string _municipality,\n    string _department,\n    string _country\n  ) public {\n    require(!isEmpty(_typeOfProcessor) && !isEmpty(_name) && !isEmpty(_village) && !isEmpty(_municipality) && !isEmpty(_department) && !isEmpty(_country));\n    uint currentId = processors.length;\n    Processor memory processor = Processor(currentId, _name, _typeOfProcessor, _village, _municipality, _department, _country); \n    processors.push(processor);  \n    emit AddProcessor(currentId);\n  }\n\n  //Inserts Batch of coffee, updates farm batches and emits AddCoffeeBatch event\n  function addCoffeeBatch(\n    uint256 _farmId,\n    uint256 _altitude,\n    string _process,\n    string _variety\n  ) public {\n    require(farms.length >= _farmId);\n    require(!isEmpty(_process) && !isEmpty(_variety));\n    uint currentId = coffeeBatches.length;\n    \n    //initialices empty structs\n    Cut memory cut = Cut(0,false);\n    Depulped memory depulped = Depulped(0,false,\"\",false);\n    Fermented memory fermented = Fermented(0,false,\"\",\"\",false);\n    Washed memory washed = Washed(0,false,\"\",false);\n    Drying memory drying = Drying(0,\"\",false,\"\",false);\n    Trite memory trite = Trite(0,false,\"\",false);\n    CupProfile memory cupProfile = CupProfile(\"\",\"\",\"\",\"\",\"\",\"\",\"\",\"\");\n\n    coffeeBatches.push(CoffeeBatch(currentId, _farmId, _altitude, _process, _variety, cut, depulped, fermented, washed, drying,trite,cupProfile));\n    farms[_farmId].coffeeBatches.push(currentId);\n    emit AddCoffeeBatch(currentId);\n  }\n\n  //Inserts Farm and emits AddFarm event\n  function addFarm(\n    uint _producerId,\n    string _farmName,\n    string _village,\n    string _municipality,\n    string _department,\n    string _country\n  ) public {\n    require(producers.length >= _producerId);\n    require(!isEmpty(_farmName) && !isEmpty(_village) && !isEmpty(_municipality) && !isEmpty(_country));\n    uint currentId = farms.length;\n    Farm memory farm = Farm(currentId, _producerId, _farmName, _village, _municipality, _department, _country, new uint[](0)); \n    farms.push(farm);  \n    producers[_producerId].farms.push(currentId);\n    emit AddFarm(currentId);\n  }\n\n  //Gets Producer Farms \n  function getProducerFarms(uint256 _index) public view returns (uint256[]) {\n      return producers[_index].farms;\n  }\n\n  //Gets farm batches\n  function getFarmBatches(uint256 _index) public view returns (uint256[]) {\n      return farms[_index].coffeeBatches;\n  }\n\n\n  function isEmpty(string _empty) internal pure returns (bool){\n    bytes memory tempEmptyString = bytes(_empty); // Uses memory\n    if (tempEmptyString.length == 0) {\n        return true;\n    } else {\n        return false;\n    }\n  }\n}",
  "sourcePath": "/Users/crisgarner/Projects/affogato/contracts/AffogatoNetwork.sol",
  "compiler": {
    "name": "solc",
    "version": "0.4.23+commit.124ca40d.Emscripten.clang"
  },
  "schemaVersion": "2.0.0",
  "updatedAt": "2018-06-12T04:31:31.268Z"
}