{
  "contractName": "AffogatoNetwork",
  "abi": [
    {
      "constant": true,
      "inputs": [],
      "name": "count",
      "outputs": [
        {
          "name": "",
          "type": "uint256"
        }
      ],
      "payable": false,
      "stateMutability": "view",
      "type": "function"
    },
    {
      "constant": true,
      "inputs": [
        {
          "name": "",
          "type": "uint256"
        }
      ],
      "name": "coffeeBatches",
      "outputs": [
        {
          "name": "id",
          "type": "uint256"
        },
        {
          "name": "auditCode",
          "type": "uint256"
        },
        {
          "name": "cuppingFinalNote",
          "type": "string"
        },
        {
          "name": "batchSize",
          "type": "string"
        },
        {
          "name": "altitude",
          "type": "uint256"
        },
        {
          "name": "process",
          "type": "string"
        },
        {
          "name": "variety",
          "type": "string"
        },
        {
          "name": "farmId",
          "type": "uint256"
        }
      ],
      "payable": false,
      "stateMutability": "view",
      "type": "function"
    },
    {
      "inputs": [],
      "payable": false,
      "stateMutability": "nonpayable",
      "type": "constructor"
    },
    {
      "anonymous": false,
      "inputs": [
        {
          "indexed": true,
          "name": "_id",
          "type": "uint256"
        }
      ],
      "name": "AddCoffeeBatch",
      "type": "event"
    },
    {
      "constant": false,
      "inputs": [
        {
          "name": "_auditCode",
          "type": "uint256"
        },
        {
          "name": "_cuppingFinalNote",
          "type": "string"
        },
        {
          "name": "_batchSize",
          "type": "string"
        },
        {
          "name": "_altitude",
          "type": "uint256"
        },
        {
          "name": "_process",
          "type": "string"
        },
        {
          "name": "_variety",
          "type": "string"
        },
        {
          "name": "_farmId",
          "type": "uint256"
        }
      ],
      "name": "addCoffeeBatch",
      "outputs": [
        {
          "name": "",
          "type": "uint256"
        }
      ],
      "payable": false,
      "stateMutability": "nonpayable",
      "type": "function"
    },
    {
      "constant": false,
      "inputs": [
        {
          "name": "_producerName",
          "type": "string"
        },
        {
          "name": "_farmName",
          "type": "string"
        },
        {
          "name": "_village",
          "type": "string"
        },
        {
          "name": "_municipality",
          "type": "string"
        },
        {
          "name": "_department",
          "type": "string"
        },
        {
          "name": "_country",
          "type": "string"
        }
      ],
      "name": "addFarm",
      "outputs": [],
      "payable": false,
      "stateMutability": "nonpayable",
      "type": "function"
    }
  ],
  "bytecode": "0x608060405234801561001057600080fd5b50336000806101000a81548173ffffffffffffffffffffffffffffffffffffffff021916908373ffffffffffffffffffffffffffffffffffffffff1602179055506000600181905550610a3a806100686000396000f300608060405260043610610062576000357c0100000000000000000000000000000000000000000000000000000000900463ffffffff16806306661abd14610067578063395209b2146100925780635881bcfd1461029857806399dc42291461045f575b600080fd5b34801561007357600080fd5b5061007c6105cc565b6040518082815260200191505060405180910390f35b34801561009e57600080fd5b506100bd600480360381019080803590602001909291905050506105d2565b604051808981526020018881526020018060200180602001878152602001806020018060200186815260200185810385528b818151815260200191508051906020019080838360005b83811015610121578082015181840152602081019050610106565b50505050905090810190601f16801561014e5780820380516001836020036101000a031916815260200191505b5085810384528a818151815260200191508051906020019080838360005b8381101561018757808201518184015260208101905061016c565b50505050905090810190601f1680156101b45780820380516001836020036101000a031916815260200191505b50858103835288818151815260200191508051906020019080838360005b838110156101ed5780820151818401526020810190506101d2565b50505050905090810190601f16801561021a5780820380516001836020036101000a031916815260200191505b50858103825287818151815260200191508051906020019080838360005b83811015610253578082015181840152602081019050610238565b50505050905090810190601f1680156102805780820380516001836020036101000a031916815260200191505b509c5050505050505050505050505060405180910390f35b3480156102a457600080fd5b5061045d600480360381019080803590602001908201803590602001908080601f0160208091040260200160405190810160405280939291908181526020018383808284378201915050505050509192919290803590602001908201803590602001908080601f0160208091040260200160405190810160405280939291908181526020018383808284378201915050505050509192919290803590602001908201803590602001908080601f0160208091040260200160405190810160405280939291908181526020018383808284378201915050505050509192919290803590602001908201803590602001908080601f0160208091040260200160405190810160405280939291908181526020018383808284378201915050505050509192919290803590602001908201803590602001908080601f0160208091040260200160405190810160405280939291908181526020018383808284378201915050505050509192919290803590602001908201803590602001908080601f0160208091040260200160405190810160405280939291908181526020018383808284378201915050505050509192919290505050610889565b005b34801561046b57600080fd5b506105b660048036038101908080359060200190929190803590602001908201803590602001908080601f0160208091040260200160405190810160405280939291908181526020018383808284378201915050505050509192919290803590602001908201803590602001908080601f016020809104026020016040519081016040528093929190818152602001838380828437820191505050505050919291929080359060200190929190803590602001908201803590602001908080601f0160208091040260200160405190810160405280939291908181526020018383808284378201915050505050509192919290803590602001908201803590602001908080601f016020809104026020016040519081016040528093929190818152602001838380828437820191505050505050919291929080359060200190929190505050610891565b6040518082815260200191505060405180910390f35b60015481565b6002818154811015156105e157fe5b9060005260206000209060080201600091509050806000015490806001015490806002018054600181600116156101000203166002900480601f0160208091040260200160405190810160405280929190818152602001828054600181600116156101000203166002900480156106995780601f1061066e57610100808354040283529160200191610699565b820191906000526020600020905b81548152906001019060200180831161067c57829003601f168201915b505050505090806003018054600181600116156101000203166002900480601f0160208091040260200160405190810160405280929190818152602001828054600181600116156101000203166002900480156107375780601f1061070c57610100808354040283529160200191610737565b820191906000526020600020905b81548152906001019060200180831161071a57829003601f168201915b505050505090806004015490806005018054600181600116156101000203166002900480601f0160208091040260200160405190810160405280929190818152602001828054600181600116156101000203166002900480156107db5780601f106107b0576101008083540402835291602001916107db565b820191906000526020600020905b8154815290600101906020018083116107be57829003601f168201915b505050505090806006018054600181600116156101000203166002900480601f0160208091040260200160405190810160405280929190818152602001828054600181600116156101000203166002900480156108795780601f1061084e57610100808354040283529160200191610879565b820191906000526020600020905b81548152906001019060200180831161085c57829003601f168201915b5050505050908060070154905088565b505050505050565b60006002805490507f825ed299415b0eed10996b6a8df0c8c33b9a5ab4f5cad6b8369077e4c80fb94f60405160405180910390a2600280548091906001016108d991906108f0565b506001600280549050039050979650505050505050565b81548183558181111561091d5760080281600802836000526020600020918201910161091c9190610922565b5b505050565b61099e91905b8082111561099a57600080820160009055600182016000905560028201600061095191906109a1565b60038201600061096191906109a1565b600482016000905560058201600061097991906109a1565b60068201600061098991906109a1565b600782016000905550600801610928565b5090565b90565b50805460018160011615610100020316600290046000825580601f106109c757506109e6565b601f0160209004906000526020600020908101906109e591906109e9565b5b50565b610a0b91905b80821115610a075760008160009055506001016109ef565b5090565b905600a165627a7a723058203266b714a4852587eb54867934f90651723cd275ced80161b5ae429a455686760029",
  "source": "pragma solidity ^0.4.23;\n\ncontract AffogatoNetwork {\n  //Initialice the contract\n\n  address admin;\n  uint256 public count;\n\n  struct CoffeeBatch {\n    uint256 id;\n    uint256 auditCode;\n    string cuppingFinalNote;\n    string batchSize;\n    uint256 altitude;\n    string process;\n    string variety;\n    uint256 farmId;\n  }\n\n  struct farm{\n    uint256 id;\n    string producerName;\n    string farmName;\n    string village;\n    string municipality;\n    string department;\n    string country;\n  }\n\n  //removed public because struct is to big, \"Stack too deep, try using less variables.\"\"\n  CoffeeBatch[] public coffeeBatches;\n\n  //Event Definition\n  event AddCoffeeBatch(uint256 indexed _id);\n\n  //Constructor, initialices the values\n  constructor() public{\n    admin = msg.sender;\n    count = 0;\n  }\n\n  //Inserts Batch of coffee in Mapping and emits AddCoffeeBatch event\n  function addCoffeeBatch(\n    uint256 _auditCode,\n    string _cuppingFinalNote,\n    string _batchSize,\n    uint256 _altitude,\n    string _process,\n    string _variety,\n    uint256 _farmId\n  ) public returns(uint){  \n    //coffeeBatches[coffeeBatches.length] = CoffeeBatch(id, _auditCode, _cuppingFinalNote, _batchSize, _altitude, _process, _variety, _farmId);\n    emit AddCoffeeBatch(coffeeBatches.length);\n    coffeeBatches.length++;   \n    return (coffeeBatches.length - 1);\n  }\n\n  //Inserts Batch of coffee in Mapping and emits AddCoffeeBatch event\n  function addFarm(\n    string _producerName,\n    string _farmName,\n    string _village,\n    string _municipality,\n    string _department,\n    string _country\n  ) public{  \n   // uint256 id = count;\n   // coffeeBatches[id] = CoffeeBatch(id, _auditCode, _cuppingFinalNote, _producerName, _farmName, _village, _municipality, _department, _country, _batchSize, _altitude, _process, _variety);\n   // count++;\n  //  emit AddCoffeeBatch(id);\n  }\n/*\n  function getCoffeeBatch( uint256 _id) public returns\n  (\n    uint256 _auditCode,\n    string _cuppingFinalNote,\n    string _producerName,\n    string _farmName,\n    string _village,\n    string _municipality,\n    string _department,\n    string _country,\n    string _batchSize,\n    uint256 _altitude,\n    string _process,\n    string _variety\n  ){  \n //   return coffeeBatches[id];\n//    emit AddCoffeeBatch(id);\n  }\n*/\n\n\n //get objects by id\n //only people witch access can write\n //set permissions\n //create events\n\n /*\n  contract SalaryInfo {\n    struct User {\n        uint salaryId;\n        string name;\n        string userAddress;\n        uint salary;\n    }\n    User[] public users;\n\n    function addUser(uint _salaryId, string _name, string _userAddress, uint _salary) public returns(uint) {\n        users.length++;\n        users[users.length-1].salaryId = _salaryId;\n        users[users.length-1].name = _name;\n        users[users.length-1].userAddress = _userAddress;\n        users[users.length-1].salary = _salary;\n        return users.length;\n    }\n\n    function getUsersCount() public constant returns(uint) {\n        return users.length;\n    }\n\n    function getUser(uint index) public constant returns(uint, string, string, uint) {\n        return (users[index].salaryId, users[index].name, users[index].userAddress, users[index].salary);\n    }\n}\n */\n\n}\n",
  "sourcePath": "/Users/crisgarner/Projects/affogato/contracts/AffogatoNetwork.sol",
  "compiler": {
    "name": "solc",
    "version": "0.4.23+commit.124ca40d.Emscripten.clang"
  },
  "schemaVersion": "2.0.0",
  "updatedAt": "2018-06-03T00:30:09.396Z"
}