{
  "contractName": "AffogatoNetwork",
  "abi": [
    {
      "constant": true,
      "inputs": [
        {
          "name": "",
          "type": "uint256"
        }
      ],
      "name": "coffeeBatches",
      "outputs": [
        {
          "name": "id",
          "type": "uint256"
        },
        {
          "name": "auditCode",
          "type": "uint256"
        },
        {
          "name": "cuppingFinalNote",
          "type": "string"
        },
        {
          "name": "batchSize",
          "type": "string"
        },
        {
          "name": "altitude",
          "type": "uint256"
        },
        {
          "name": "process",
          "type": "string"
        },
        {
          "name": "variety",
          "type": "string"
        },
        {
          "name": "farmId",
          "type": "uint256"
        }
      ],
      "payable": false,
      "stateMutability": "view",
      "type": "function"
    },
    {
      "constant": true,
      "inputs": [
        {
          "name": "",
          "type": "uint256"
        }
      ],
      "name": "farms",
      "outputs": [
        {
          "name": "id",
          "type": "uint256"
        },
        {
          "name": "producerName",
          "type": "string"
        },
        {
          "name": "farmName",
          "type": "string"
        },
        {
          "name": "village",
          "type": "string"
        },
        {
          "name": "municipality",
          "type": "string"
        },
        {
          "name": "department",
          "type": "string"
        },
        {
          "name": "country",
          "type": "string"
        }
      ],
      "payable": false,
      "stateMutability": "view",
      "type": "function"
    },
    {
      "inputs": [],
      "payable": false,
      "stateMutability": "nonpayable",
      "type": "constructor"
    },
    {
      "anonymous": false,
      "inputs": [
        {
          "indexed": true,
          "name": "_id",
          "type": "uint256"
        }
      ],
      "name": "AddCoffeeBatch",
      "type": "event"
    },
    {
      "anonymous": false,
      "inputs": [
        {
          "indexed": true,
          "name": "_id",
          "type": "uint256"
        }
      ],
      "name": "AddFarm",
      "type": "event"
    },
    {
      "constant": false,
      "inputs": [
        {
          "name": "_auditCode",
          "type": "uint256"
        },
        {
          "name": "_cuppingFinalNote",
          "type": "string"
        },
        {
          "name": "_batchSize",
          "type": "string"
        },
        {
          "name": "_altitude",
          "type": "uint256"
        },
        {
          "name": "_process",
          "type": "string"
        },
        {
          "name": "_variety",
          "type": "string"
        },
        {
          "name": "_farmId",
          "type": "uint256"
        }
      ],
      "name": "addCoffeeBatch",
      "outputs": [],
      "payable": false,
      "stateMutability": "nonpayable",
      "type": "function"
    },
    {
      "constant": false,
      "inputs": [
        {
          "name": "_producerName",
          "type": "string"
        },
        {
          "name": "_farmName",
          "type": "string"
        },
        {
          "name": "_village",
          "type": "string"
        },
        {
          "name": "_municipality",
          "type": "string"
        },
        {
          "name": "_department",
          "type": "string"
        },
        {
          "name": "_country",
          "type": "string"
        }
      ],
      "name": "addFarm",
      "outputs": [],
      "payable": false,
      "stateMutability": "nonpayable",
      "type": "function"
    },
    {
      "constant": true,
      "inputs": [
        {
          "name": "_index",
          "type": "uint256"
        }
      ],
      "name": "getFarmBatches",
      "outputs": [
        {
          "name": "",
          "type": "uint256[]"
        }
      ],
      "payable": false,
      "stateMutability": "view",
      "type": "function"
    }
  ],
  "bytecode": "0x608060405234801561001057600080fd5b50336000806101000a81548173ffffffffffffffffffffffffffffffffffffffff021916908373ffffffffffffffffffffffffffffffffffffffff1602179055506114a5806100606000396000f30060806040526004361061006d576000357c0100000000000000000000000000000000000000000000000000000000900463ffffffff168063395209b2146100725780635881bcfd146102785780637da470ea1461043f57806399dc422914610708578063b375418314610861575b600080fd5b34801561007e57600080fd5b5061009d600480360381019080803590602001909291905050506108e3565b604051808981526020018881526020018060200180602001878152602001806020018060200186815260200185810385528b818151815260200191508051906020019080838360005b838110156101015780820151818401526020810190506100e6565b50505050905090810190601f16801561012e5780820380516001836020036101000a031916815260200191505b5085810384528a818151815260200191508051906020019080838360005b8381101561016757808201518184015260208101905061014c565b50505050905090810190601f1680156101945780820380516001836020036101000a031916815260200191505b50858103835288818151815260200191508051906020019080838360005b838110156101cd5780820151818401526020810190506101b2565b50505050905090810190601f1680156101fa5780820380516001836020036101000a031916815260200191505b50858103825287818151815260200191508051906020019080838360005b83811015610233578082015181840152602081019050610218565b50505050905090810190601f1680156102605780820380516001836020036101000a031916815260200191505b509c5050505050505050505050505060405180910390f35b34801561028457600080fd5b5061043d600480360381019080803590602001908201803590602001908080601f0160208091040260200160405190810160405280939291908181526020018383808284378201915050505050509192919290803590602001908201803590602001908080601f0160208091040260200160405190810160405280939291908181526020018383808284378201915050505050509192919290803590602001908201803590602001908080601f0160208091040260200160405190810160405280939291908181526020018383808284378201915050505050509192919290803590602001908201803590602001908080601f0160208091040260200160405190810160405280939291908181526020018383808284378201915050505050509192919290803590602001908201803590602001908080601f0160208091040260200160405190810160405280939291908181526020018383808284378201915050505050509192919290803590602001908201803590602001908080601f0160208091040260200160405190810160405280939291908181526020018383808284378201915050505050509192919290505050610b9a565b005b34801561044b57600080fd5b5061046a60048036038101908080359060200190929190505050610d56565b6040518088815260200180602001806020018060200180602001806020018060200187810387528d818151815260200191508051906020019080838360005b838110156104c45780820151818401526020810190506104a9565b50505050905090810190601f1680156104f15780820380516001836020036101000a031916815260200191505b5087810386528c818151815260200191508051906020019080838360005b8381101561052a57808201518184015260208101905061050f565b50505050905090810190601f1680156105575780820380516001836020036101000a031916815260200191505b5087810385528b818151815260200191508051906020019080838360005b83811015610590578082015181840152602081019050610575565b50505050905090810190601f1680156105bd5780820380516001836020036101000a031916815260200191505b5087810384528a818151815260200191508051906020019080838360005b838110156105f65780820151818401526020810190506105db565b50505050905090810190601f1680156106235780820380516001836020036101000a031916815260200191505b50878103835289818151815260200191508051906020019080838360005b8381101561065c578082015181840152602081019050610641565b50505050905090810190601f1680156106895780820380516001836020036101000a031916815260200191505b50878103825288818151815260200191508051906020019080838360005b838110156106c25780820151818401526020810190506106a7565b50505050905090810190601f1680156106ef5780820380516001836020036101000a031916815260200191505b509d505050505050505050505050505060405180910390f35b34801561071457600080fd5b5061085f60048036038101908080359060200190929190803590602001908201803590602001908080601f0160208091040260200160405190810160405280939291908181526020018383808284378201915050505050509192919290803590602001908201803590602001908080601f016020809104026020016040519081016040528093929190818152602001838380828437820191505050505050919291929080359060200190929190803590602001908201803590602001908080601f0160208091040260200160405190810160405280939291908181526020018383808284378201915050505050509192919290803590602001908201803590602001908080601f016020809104026020016040519081016040528093929190818152602001838380828437820191505050505050919291929080359060200190929190505050611137565b005b34801561086d57600080fd5b5061088c600480360381019080803590602001909291905050506112c9565b6040518080602001828103825283818151815260200191508051906020019060200280838360005b838110156108cf5780820151818401526020810190506108b4565b505050509050019250505060405180910390f35b6001818154811015156108f257fe5b9060005260206000209060080201600091509050806000015490806001015490806002018054600181600116156101000203166002900480601f0160208091040260200160405190810160405280929190818152602001828054600181600116156101000203166002900480156109aa5780601f1061097f576101008083540402835291602001916109aa565b820191906000526020600020905b81548152906001019060200180831161098d57829003601f168201915b505050505090806003018054600181600116156101000203166002900480601f016020809104026020016040519081016040528092919081815260200182805460018160011615610100020316600290048015610a485780601f10610a1d57610100808354040283529160200191610a48565b820191906000526020600020905b815481529060010190602001808311610a2b57829003601f168201915b505050505090806004015490806005018054600181600116156101000203166002900480601f016020809104026020016040519081016040528092919081815260200182805460018160011615610100020316600290048015610aec5780601f10610ac157610100808354040283529160200191610aec565b820191906000526020600020905b815481529060010190602001808311610acf57829003601f168201915b505050505090806006018054600181600116156101000203166002900480601f016020809104026020016040519081016040528092919081815260200182805460018160011615610100020316600290048015610b8a5780601f10610b5f57610100808354040283529160200191610b8a565b820191906000526020600020905b815481529060010190602001808311610b6d57829003601f168201915b5050505050908060070154905088565b6000610ba4611341565b6002805490509150610100604051908101604052808381526020018981526020018881526020018781526020018681526020018581526020018481526020016000604051908082528060200260200182016040528015610c135781602001602082028038833980820191505090505b50815250905060028190806001815401808255809150509060018203906000526020600020906008020160009091929091909150600082015181600001556020820151816001019080519060200190610c6d929190611387565b506040820151816002019080519060200190610c8a929190611387565b506060820151816003019080519060200190610ca7929190611387565b506080820151816004019080519060200190610cc4929190611387565b5060a0820151816005019080519060200190610ce1929190611387565b5060c0820151816006019080519060200190610cfe929190611387565b5060e0820151816007019080519060200190610d1b929190611407565b50505050817fa7519119fc78e3a0264b7b028dd33232b5408d7f0ace427e1117397dfa1dbe1860405160405180910390a25050505050505050565b600281815481101515610d6557fe5b9060005260206000209060080201600091509050806000015490806001018054600181600116156101000203166002900480601f016020809104026020016040519081016040528092919081815260200182805460018160011615610100020316600290048015610e175780601f10610dec57610100808354040283529160200191610e17565b820191906000526020600020905b815481529060010190602001808311610dfa57829003601f168201915b505050505090806002018054600181600116156101000203166002900480601f016020809104026020016040519081016040528092919081815260200182805460018160011615610100020316600290048015610eb55780601f10610e8a57610100808354040283529160200191610eb5565b820191906000526020600020905b815481529060010190602001808311610e9857829003601f168201915b505050505090806003018054600181600116156101000203166002900480601f016020809104026020016040519081016040528092919081815260200182805460018160011615610100020316600290048015610f535780601f10610f2857610100808354040283529160200191610f53565b820191906000526020600020905b815481529060010190602001808311610f3657829003601f168201915b505050505090806004018054600181600116156101000203166002900480601f016020809104026020016040519081016040528092919081815260200182805460018160011615610100020316600290048015610ff15780601f10610fc657610100808354040283529160200191610ff1565b820191906000526020600020905b815481529060010190602001808311610fd457829003601f168201915b505050505090806005018054600181600116156101000203166002900480601f01602080910402602001604051908101604052809291908181526020018280546001816001161561010002031660029004801561108f5780601f106110645761010080835404028352916020019161108f565b820191906000526020600020905b81548152906001019060200180831161107257829003601f168201915b505050505090806006018054600181600116156101000203166002900480601f01602080910402602001604051908101604052809291908181526020018280546001816001161561010002031660029004801561112d5780601f106111025761010080835404028352916020019161112d565b820191906000526020600020905b81548152906001019060200180831161111057829003601f168201915b5050505050905087565b600060018054905090506001610100604051908101604052808381526020018a81526020018981526020018881526020018781526020018681526020018581526020018481525090806001815401808255809150509060018203906000526020600020906008020160009091929091909150600082015181600001556020820151816001015560408201518160020190805190602001906111d9929190611387565b5060608201518160030190805190602001906111f6929190611387565b506080820151816004015560a082015181600501908051906020019061121d929190611387565b5060c082015181600601908051906020019061123a929190611387565b5060e0820151816007015550505060028281548110151561125757fe5b9060005260206000209060080201600701819080600181540180825580915050906001820390600052602060002001600090919290919091505550807f825ed299415b0eed10996b6a8df0c8c33b9a5ab4f5cad6b8369077e4c80fb94f60405160405180910390a25050505050505050565b60606002828154811015156112da57fe5b906000526020600020906008020160070180548060200260200160405190810160405280929190818152602001828054801561133557602002820191906000526020600020905b815481526020019060010190808311611321575b50505050509050919050565b6101006040519081016040528060008152602001606081526020016060815260200160608152602001606081526020016060815260200160608152602001606081525090565b828054600181600116156101000203166002900490600052602060002090601f016020900481019282601f106113c857805160ff19168380011785556113f6565b828001600101855582156113f6579182015b828111156113f55782518255916020019190600101906113da565b5b5090506114039190611454565b5090565b828054828255906000526020600020908101928215611443579160200282015b82811115611442578251825591602001919060010190611427565b5b5090506114509190611454565b5090565b61147691905b8082111561147257600081600090555060010161145a565b5090565b905600a165627a7a72305820d0f42f192c4d1e1657fb3174c50dd5bf3647d3e900715fcb3ff8d3165694f3600029",
  "source": "pragma solidity ^0.4.23;\n\ncontract AffogatoNetwork {\n  //Initialice the contract\n\n  address admin;\n\n  struct CoffeeBatch {\n    uint256 id;\n    uint256 auditCode;\n    string cuppingFinalNote;\n    string batchSize;\n    uint256 altitude;\n    string process;\n    string variety;\n    uint256 farmId;\n  }\n\n  struct Farm{\n    uint256 id;\n    string producerName;\n    string farmName;\n    string village;\n    string municipality;\n    string department;\n    string country;\n    uint256[] coffeeBatchesIds;\n  }\n\n  CoffeeBatch[] public coffeeBatches;\n  Farm[] public farms;\n\n  //Event Definition\n  event AddCoffeeBatch(uint256 indexed _id);\n  event AddFarm(uint256 indexed _id);\n\n  //Constructor, initialices the values\n  constructor() public{\n    admin = msg.sender;\n  }\n\n  //Inserts Batch of coffee, updates farm batches and emits AddCoffeeBatch event\n  function addCoffeeBatch(\n    uint256 _auditCode,\n    string _cuppingFinalNote,\n    string _batchSize,\n    uint256 _altitude,\n    string _process,\n    string _variety,\n    uint256 _farmId\n  ) public {    \n    // require(farms[_farmId].producerName != '0');\n    uint currentId = coffeeBatches.length;\n    coffeeBatches.push(CoffeeBatch(currentId, _auditCode, _cuppingFinalNote, _batchSize, _altitude, _process, _variety, _farmId));\n    farms[_farmId].coffeeBatchesIds.push(currentId);\n    emit AddCoffeeBatch(currentId);\n  }\n\n  //Inserts Farm and emits AddFarm event\n  function addFarm(\n    string _producerName,\n    string _farmName,\n    string _village,\n    string _municipality,\n    string _department,\n    string _country\n  ) public {\n    uint currentId = farms.length;\n    Farm memory farm = Farm(currentId, _producerName, _farmName, _village, _municipality, _department, _country, new uint[](0)); \n    farms.push(farm);  \n    emit AddFarm(currentId);\n  }\n\n  //Gets farm batches\n  function getFarmBatches(uint256 _index) public view returns (uint256[]) {\n      return farms[_index].coffeeBatchesIds;\n  }\n\n}\n",
  "sourcePath": "/Users/crisgarner/Projects/affogato/contracts/AffogatoNetwork.sol",
  "compiler": {
    "name": "solc",
    "version": "0.4.23+commit.124ca40d.Emscripten.clang"
  },
  "schemaVersion": "2.0.0",
  "updatedAt": "2018-06-04T22:28:28.169Z"
}