{
  "contractName": "AffogatoNetwork",
  "abi": [
    {
      "constant": true,
      "inputs": [
        {
          "name": "",
          "type": "uint256"
        }
      ],
      "name": "coffeeBatches",
      "outputs": [
        {
          "name": "id",
          "type": "uint256"
        },
        {
          "name": "farmId",
          "type": "uint256"
        },
        {
          "name": "altitude",
          "type": "uint256"
        },
        {
          "name": "process",
          "type": "string"
        },
        {
          "name": "variety",
          "type": "string"
        },
        {
          "components": [
            {
              "name": "finalBatchSize",
              "type": "uint256"
            },
            {
              "name": "isProcessComplete",
              "type": "bool"
            }
          ],
          "name": "cut",
          "type": "tuple"
        },
        {
          "components": [
            {
              "name": "finalBatchSize",
              "type": "uint256"
            },
            {
              "name": "isProcessedByFarm",
              "type": "bool"
            },
            {
              "name": "processorId",
              "type": "string"
            },
            {
              "name": "isProcessComplete",
              "type": "bool"
            }
          ],
          "name": "depulped",
          "type": "tuple"
        },
        {
          "components": [
            {
              "name": "finalBatchSize",
              "type": "uint256"
            },
            {
              "name": "isProcessedByFarm",
              "type": "bool"
            },
            {
              "name": "processorId",
              "type": "string"
            },
            {
              "name": "typeOfFermented",
              "type": "string"
            },
            {
              "name": "isProcessComplete",
              "type": "bool"
            }
          ],
          "name": "fermented",
          "type": "tuple"
        },
        {
          "components": [
            {
              "name": "finalBatchSize",
              "type": "uint256"
            },
            {
              "name": "isProcessedByFarm",
              "type": "bool"
            },
            {
              "name": "processorId",
              "type": "string"
            },
            {
              "name": "isProcessComplete",
              "type": "bool"
            }
          ],
          "name": "washed",
          "type": "tuple"
        },
        {
          "components": [
            {
              "name": "finalBatchSize",
              "type": "uint256"
            },
            {
              "name": "typeOfDrying",
              "type": "string"
            },
            {
              "name": "isProcessedByFarm",
              "type": "bool"
            },
            {
              "name": "processorId",
              "type": "string"
            },
            {
              "name": "isProcessComplete",
              "type": "bool"
            }
          ],
          "name": "drying",
          "type": "tuple"
        },
        {
          "components": [
            {
              "name": "finalBatchSize",
              "type": "uint256"
            },
            {
              "name": "isProcessedByFarm",
              "type": "bool"
            },
            {
              "name": "processorId",
              "type": "string"
            },
            {
              "name": "isProcessComplete",
              "type": "bool"
            }
          ],
          "name": "trite",
          "type": "tuple"
        },
        {
          "components": [
            {
              "name": "frangance",
              "type": "string"
            },
            {
              "name": "flavor",
              "type": "string"
            },
            {
              "name": "acidity",
              "type": "string"
            },
            {
              "name": "body",
              "type": "string"
            },
            {
              "name": "sweetness",
              "type": "string"
            },
            {
              "name": "cuppingNote",
              "type": "string"
            },
            {
              "name": "defects",
              "type": "string"
            },
            {
              "name": "grainSize",
              "type": "string"
            }
          ],
          "name": "cupProfile",
          "type": "tuple"
        }
      ],
      "payable": false,
      "stateMutability": "view",
      "type": "function"
    },
    {
      "constant": true,
      "inputs": [
        {
          "name": "",
          "type": "uint256"
        }
      ],
      "name": "farms",
      "outputs": [
        {
          "name": "id",
          "type": "uint256"
        },
        {
          "name": "producerId",
          "type": "uint256"
        },
        {
          "name": "farmName",
          "type": "string"
        },
        {
          "name": "village",
          "type": "string"
        },
        {
          "name": "municipality",
          "type": "string"
        },
        {
          "name": "department",
          "type": "string"
        },
        {
          "name": "country",
          "type": "string"
        }
      ],
      "payable": false,
      "stateMutability": "view",
      "type": "function"
    },
    {
      "constant": true,
      "inputs": [
        {
          "name": "",
          "type": "uint256"
        }
      ],
      "name": "producers",
      "outputs": [
        {
          "name": "id",
          "type": "uint256"
        },
        {
          "name": "producerName",
          "type": "string"
        },
        {
          "name": "history",
          "type": "string"
        }
      ],
      "payable": false,
      "stateMutability": "view",
      "type": "function"
    },
    {
      "constant": true,
      "inputs": [
        {
          "name": "",
          "type": "uint256"
        }
      ],
      "name": "processors",
      "outputs": [
        {
          "name": "id",
          "type": "uint256"
        },
        {
          "name": "name",
          "type": "string"
        },
        {
          "name": "typeOfProcessor",
          "type": "string"
        },
        {
          "name": "village",
          "type": "string"
        },
        {
          "name": "municipality",
          "type": "string"
        },
        {
          "name": "department",
          "type": "string"
        },
        {
          "name": "country",
          "type": "string"
        }
      ],
      "payable": false,
      "stateMutability": "view",
      "type": "function"
    },
    {
      "inputs": [],
      "payable": false,
      "stateMutability": "nonpayable",
      "type": "constructor"
    },
    {
      "anonymous": false,
      "inputs": [
        {
          "indexed": true,
          "name": "_id",
          "type": "uint256"
        }
      ],
      "name": "AddProducer",
      "type": "event"
    },
    {
      "anonymous": false,
      "inputs": [
        {
          "indexed": true,
          "name": "_id",
          "type": "uint256"
        }
      ],
      "name": "AddFarm",
      "type": "event"
    },
    {
      "anonymous": false,
      "inputs": [
        {
          "indexed": true,
          "name": "_id",
          "type": "uint256"
        }
      ],
      "name": "AddCoffeeBatch",
      "type": "event"
    },
    {
      "anonymous": false,
      "inputs": [
        {
          "indexed": true,
          "name": "_id",
          "type": "uint256"
        }
      ],
      "name": "AddProcessor",
      "type": "event"
    },
    {
      "constant": false,
      "inputs": [
        {
          "name": "_producerName",
          "type": "string"
        },
        {
          "name": "_history",
          "type": "string"
        }
      ],
      "name": "addProducer",
      "outputs": [],
      "payable": false,
      "stateMutability": "nonpayable",
      "type": "function"
    },
    {
      "constant": false,
      "inputs": [
        {
          "name": "_name",
          "type": "string"
        },
        {
          "name": "_typeOfProcessor",
          "type": "string"
        },
        {
          "name": "_village",
          "type": "string"
        },
        {
          "name": "_municipality",
          "type": "string"
        },
        {
          "name": "_department",
          "type": "string"
        },
        {
          "name": "_country",
          "type": "string"
        }
      ],
      "name": "addProcessor",
      "outputs": [],
      "payable": false,
      "stateMutability": "nonpayable",
      "type": "function"
    },
    {
      "constant": false,
      "inputs": [
        {
          "name": "_auditCode",
          "type": "uint256"
        },
        {
          "name": "_cuppingFinalNote",
          "type": "string"
        },
        {
          "name": "_batchSize",
          "type": "string"
        },
        {
          "name": "_altitude",
          "type": "uint256"
        },
        {
          "name": "_process",
          "type": "string"
        },
        {
          "name": "_variety",
          "type": "string"
        },
        {
          "name": "_farmId",
          "type": "uint256"
        }
      ],
      "name": "addCoffeeBatch",
      "outputs": [],
      "payable": false,
      "stateMutability": "nonpayable",
      "type": "function"
    },
    {
      "constant": false,
      "inputs": [
        {
          "name": "_producerName",
          "type": "string"
        },
        {
          "name": "_farmName",
          "type": "string"
        },
        {
          "name": "_village",
          "type": "string"
        },
        {
          "name": "_municipality",
          "type": "string"
        },
        {
          "name": "_department",
          "type": "string"
        },
        {
          "name": "_country",
          "type": "string"
        }
      ],
      "name": "addFarm",
      "outputs": [],
      "payable": false,
      "stateMutability": "nonpayable",
      "type": "function"
    },
    {
      "constant": true,
      "inputs": [
        {
          "name": "_index",
          "type": "uint256"
        }
      ],
      "name": "getProducerFarms",
      "outputs": [
        {
          "name": "",
          "type": "uint256[]"
        }
      ],
      "payable": false,
      "stateMutability": "view",
      "type": "function"
    },
    {
      "constant": true,
      "inputs": [
        {
          "name": "_index",
          "type": "uint256"
        }
      ],
      "name": "getFarmBatches",
      "outputs": [
        {
          "name": "",
          "type": "uint256[]"
        }
      ],
      "payable": false,
      "stateMutability": "view",
      "type": "function"
    }
  ],
  "bytecode": "0x608060405234801561001057600080fd5b50336000806101000a81548173ffffffffffffffffffffffffffffffffffffffff021916908373ffffffffffffffffffffffffffffffffffffffff160217905550612b43806100606000396000f3006080604052600436106100a4576000357c0100000000000000000000000000000000000000000000000000000000900463ffffffff1680631197e734146100a9578063395209b2146101585780635881bcfd146102b05780637da470ea1461047757806399dc4229146106db5780639b68ade714610834578063b37541831461094d578063bbfb8812146109cf578063d554b18114610a51578063fe7c58e914610c18575b600080fd5b3480156100b557600080fd5b50610156600480360381019080803590602001908201803590602001908080601f0160208091040260200160405190810160405280939291908181526020018383808284378201915050505050509192919290803590602001908201803590602001908080601f0160208091040260200160405190810160405280939291908181526020018383808284378201915050505050509192919290505050610ee1565b005b34801561016457600080fd5b5061018360048036038101908080359060200190929190505050611033565b604051808d81526020018c81526020018b815260200180602001806020018a815260200189815260200188815260200187815260200186815260200185815260200184815260200183810383528c818151815260200191508051906020019080838360005b838110156102035780820151818401526020810190506101e8565b50505050905090810190601f1680156102305780820380516001836020036101000a031916815260200191505b5083810382528b818151815260200191508051906020019080838360005b8381101561026957808201518184015260208101905061024e565b50505050905090810190601f1680156102965780820380516001836020036101000a031916815260200191505b509e50505050505050505050505050505060405180910390f35b3480156102bc57600080fd5b50610475600480360381019080803590602001908201803590602001908080601f0160208091040260200160405190810160405280939291908181526020018383808284378201915050505050509192919290803590602001908201803590602001908080601f0160208091040260200160405190810160405280939291908181526020018383808284378201915050505050509192919290803590602001908201803590602001908080601f0160208091040260200160405190810160405280939291908181526020018383808284378201915050505050509192919290803590602001908201803590602001908080601f0160208091040260200160405190810160405280939291908181526020018383808284378201915050505050509192919290803590602001908201803590602001908080601f0160208091040260200160405190810160405280939291908181526020018383808284378201915050505050509192919290803590602001908201803590602001908080601f0160208091040260200160405190810160405280939291908181526020018383808284378201915050505050509192919290505050611d02565b005b34801561048357600080fd5b506104a260048036038101908080359060200190929190505050611d9f565b60405180888152602001878152602001806020018060200180602001806020018060200186810386528b818151815260200191508051906020019080838360005b838110156104fe5780820151818401526020810190506104e3565b50505050905090810190601f16801561052b5780820380516001836020036101000a031916815260200191505b5086810385528a818151815260200191508051906020019080838360005b83811015610564578082015181840152602081019050610549565b50505050905090810190601f1680156105915780820380516001836020036101000a031916815260200191505b50868103845289818151815260200191508051906020019080838360005b838110156105ca5780820151818401526020810190506105af565b50505050905090810190601f1680156105f75780820380516001836020036101000a031916815260200191505b50868103835288818151815260200191508051906020019080838360005b83811015610630578082015181840152602081019050610615565b50505050905090810190601f16801561065d5780820380516001836020036101000a031916815260200191505b50868103825287818151815260200191508051906020019080838360005b8381101561069657808201518184015260208101905061067b565b50505050905090810190601f1680156106c35780820380516001836020036101000a031916815260200191505b509c5050505050505050505050505060405180910390f35b3480156106e757600080fd5b5061083260048036038101908080359060200190929190803590602001908201803590602001908080601f0160208091040260200160405190810160405280939291908181526020018383808284378201915050505050509192919290803590602001908201803590602001908080601f016020809104026020016040519081016040528093929190818152602001838380828437820191505050505050919291929080359060200190929190803590602001908201803590602001908080601f0160208091040260200160405190810160405280939291908181526020018383808284378201915050505050509192919290803590602001908201803590602001908080601f0160208091040260200160405190810160405280939291908181526020018383808284378201915050505050509192919290803590602001909291905050506120e8565b005b34801561084057600080fd5b5061085f60048036038101908080359060200190929190505050612188565b604051808481526020018060200180602001838103835285818151815260200191508051906020019080838360005b838110156108a957808201518184015260208101905061088e565b50505050905090810190601f1680156108d65780820380516001836020036101000a031916815260200191505b50838103825284818151815260200191508051906020019080838360005b8381101561090f5780820151818401526020810190506108f4565b50505050905090810190601f16801561093c5780820380516001836020036101000a031916815260200191505b509550505050505060405180910390f35b34801561095957600080fd5b50610978600480360381019080803590602001909291905050506122f1565b6040518080602001828103825283818151815260200191508051906020019060200280838360005b838110156109bb5780820151818401526020810190506109a0565b505050509050019250505060405180910390f35b3480156109db57600080fd5b506109fa60048036038101908080359060200190929190505050612369565b6040518080602001828103825283818151815260200191508051906020019060200280838360005b83811015610a3d578082015181840152602081019050610a22565b505050509050019250505060405180910390f35b348015610a5d57600080fd5b50610c16600480360381019080803590602001908201803590602001908080601f0160208091040260200160405190810160405280939291908181526020018383808284378201915050505050509192919290803590602001908201803590602001908080601f0160208091040260200160405190810160405280939291908181526020018383808284378201915050505050509192919290803590602001908201803590602001908080601f0160208091040260200160405190810160405280939291908181526020018383808284378201915050505050509192919290803590602001908201803590602001908080601f0160208091040260200160405190810160405280939291908181526020018383808284378201915050505050509192919290803590602001908201803590602001908080601f0160208091040260200160405190810160405280939291908181526020018383808284378201915050505050509192919290803590602001908201803590602001908080601f01602080910402602001604051908101604052809392919081815260200183838082843782019150505050505091929192905050506123e1565b005b348015610c2457600080fd5b50610c43600480360381019080803590602001909291905050506125b8565b6040518088815260200180602001806020018060200180602001806020018060200187810387528d818151815260200191508051906020019080838360005b83811015610c9d578082015181840152602081019050610c82565b50505050905090810190601f168015610cca5780820380516001836020036101000a031916815260200191505b5087810386528c818151815260200191508051906020019080838360005b83811015610d03578082015181840152602081019050610ce8565b50505050905090810190601f168015610d305780820380516001836020036101000a031916815260200191505b5087810385528b818151815260200191508051906020019080838360005b83811015610d69578082015181840152602081019050610d4e565b50505050905090810190601f168015610d965780820380516001836020036101000a031916815260200191505b5087810384528a818151815260200191508051906020019080838360005b83811015610dcf578082015181840152602081019050610db4565b50505050905090810190601f168015610dfc5780820380516001836020036101000a031916815260200191505b50878103835289818151815260200191508051906020019080838360005b83811015610e35578082015181840152602081019050610e1a565b50505050905090810190601f168015610e625780820380516001836020036101000a031916815260200191505b50878103825288818151815260200191508051906020019080838360005b83811015610e9b578082015181840152602081019050610e80565b50505050905090810190601f168015610ec85780820380516001836020036101000a031916815260200191505b509d505050505050505050505050505060405180910390f35b6000610eeb6129be565b610ef484612999565b158015610f075750610f0583612999565b155b1515610f1257600080fd5b60018054905091506080604051908101604052808381526020018581526020018481526020016000604051908082528060200260200182016040528015610f685781602001602082028038833980820191505090505b50815250905060018190806001815401808255809150509060018203906000526020600020906004020160009091929091909150600082015181600001556020820151816001019080519060200190610fc29291906129e7565b506040820151816002019080519060200190610fdf9291906129e7565b506060820151816003019080519060200190610ffc929190612a67565b50505050817f1074041b1f3c44b82090a7939c5401d6358a76d18ebeef0776bcf2c11eb7080660405160405180910390a250505050565b60048181548110151561104257fe5b9060005260206000209060250201600091509050806000015490806001015490806002015490806003018054600181600116156101000203166002900480601f0160208091040260200160405190810160405280929190818152602001828054600181600116156101000203166002900480156111005780601f106110d557610100808354040283529160200191611100565b820191906000526020600020905b8154815290600101906020018083116110e357829003601f168201915b505050505090806004018054600181600116156101000203166002900480601f01602080910402602001604051908101604052809291908181526020018280546001816001161561010002031660029004801561119e5780601f106111735761010080835404028352916020019161119e565b820191906000526020600020905b81548152906001019060200180831161118157829003601f168201915b50505050509080600501604080519081016040529081600082015481526020016001820160009054906101000a900460ff161515151581525050908060070160806040519081016040529081600082015481526020016001820160009054906101000a900460ff16151515158152602001600282018054600181600116156101000203166002900480601f0160208091040260200160405190810160405280929190818152602001828054600181600116156101000203166002900480156112a75780601f1061127c576101008083540402835291602001916112a7565b820191906000526020600020905b81548152906001019060200180831161128a57829003601f168201915b505050505081526020016003820160009054906101000a900460ff1615151515815250509080600b0160a06040519081016040529081600082015481526020016001820160009054906101000a900460ff16151515158152602001600282018054600181600116156101000203166002900480601f01602080910402602001604051908101604052809291908181526020018280546001816001161561010002031660029004801561139a5780601f1061136f5761010080835404028352916020019161139a565b820191906000526020600020905b81548152906001019060200180831161137d57829003601f168201915b50505050508152602001600382018054600181600116156101000203166002900480601f01602080910402602001604051908101604052809291908181526020018280546001816001161561010002031660029004801561143c5780601f106114115761010080835404028352916020019161143c565b820191906000526020600020905b81548152906001019060200180831161141f57829003601f168201915b505050505081526020016004820160009054906101000a900460ff161515151581525050908060100160806040519081016040529081600082015481526020016001820160009054906101000a900460ff16151515158152602001600282018054600181600116156101000203166002900480601f01602080910402602001604051908101604052809291908181526020018280546001816001161561010002031660029004801561152f5780601f106115045761010080835404028352916020019161152f565b820191906000526020600020905b81548152906001019060200180831161151257829003601f168201915b505050505081526020016003820160009054906101000a900460ff161515151581525050908060140160a0604051908101604052908160008201548152602001600182018054600181600116156101000203166002900480601f0160208091040260200160405190810160405280929190818152602001828054600181600116156101000203166002900480156116075780601f106115dc57610100808354040283529160200191611607565b820191906000526020600020905b8154815290600101906020018083116115ea57829003601f168201915b505050505081526020016002820160009054906101000a900460ff16151515158152602001600382018054600181600116156101000203166002900480601f0160208091040260200160405190810160405280929190818152602001828054600181600116156101000203166002900480156116c45780601f10611699576101008083540402835291602001916116c4565b820191906000526020600020905b8154815290600101906020018083116116a757829003601f168201915b505050505081526020016004820160009054906101000a900460ff161515151581525050908060190160806040519081016040529081600082015481526020016001820160009054906101000a900460ff16151515158152602001600282018054600181600116156101000203166002900480601f0160208091040260200160405190810160405280929190818152602001828054600181600116156101000203166002900480156117b75780601f1061178c576101008083540402835291602001916117b7565b820191906000526020600020905b81548152906001019060200180831161179a57829003601f168201915b505050505081526020016003820160009054906101000a900460ff1615151515815250509080601d016101006040519081016040529081600082018054600181600116156101000203166002900480601f0160208091040260200160405190810160405280929190818152602001828054600181600116156101000203166002900480156118865780601f1061185b57610100808354040283529160200191611886565b820191906000526020600020905b81548152906001019060200180831161186957829003601f168201915b50505050508152602001600182018054600181600116156101000203166002900480601f0160208091040260200160405190810160405280929190818152602001828054600181600116156101000203166002900480156119285780601f106118fd57610100808354040283529160200191611928565b820191906000526020600020905b81548152906001019060200180831161190b57829003601f168201915b50505050508152602001600282018054600181600116156101000203166002900480601f0160208091040260200160405190810160405280929190818152602001828054600181600116156101000203166002900480156119ca5780601f1061199f576101008083540402835291602001916119ca565b820191906000526020600020905b8154815290600101906020018083116119ad57829003601f168201915b50505050508152602001600382018054600181600116156101000203166002900480601f016020809104026020016040519081016040528092919081815260200182805460018160011615610100020316600290048015611a6c5780601f10611a4157610100808354040283529160200191611a6c565b820191906000526020600020905b815481529060010190602001808311611a4f57829003601f168201915b50505050508152602001600482018054600181600116156101000203166002900480601f016020809104026020016040519081016040528092919081815260200182805460018160011615610100020316600290048015611b0e5780601f10611ae357610100808354040283529160200191611b0e565b820191906000526020600020905b815481529060010190602001808311611af157829003601f168201915b50505050508152602001600582018054600181600116156101000203166002900480601f016020809104026020016040519081016040528092919081815260200182805460018160011615610100020316600290048015611bb05780601f10611b8557610100808354040283529160200191611bb0565b820191906000526020600020905b815481529060010190602001808311611b9357829003601f168201915b50505050508152602001600682018054600181600116156101000203166002900480601f016020809104026020016040519081016040528092919081815260200182805460018160011615610100020316600290048015611c525780601f10611c2757610100808354040283529160200191611c52565b820191906000526020600020905b815481529060010190602001808311611c3557829003601f168201915b50505050508152602001600782018054600181600116156101000203166002900480601f016020809104026020016040519081016040528092919081815260200182805460018160011615610100020316600290048015611cf45780601f10611cc957610100808354040283529160200191611cf4565b820191906000526020600020905b815481529060010190602001808311611cd757829003601f168201915b50505050508152505090508c565b6000611d0d87612999565b158015611d205750611d1e86612999565b155b8015611d325750611d3085612999565b155b8015611d445750611d4284612999565b155b8015611d565750611d5482612999565b155b1515611d6157600080fd5b6002805490509050807fa7519119fc78e3a0264b7b028dd33232b5408d7f0ace427e1117397dfa1dbe1860405160405180910390a250505050505050565b600281815481101515611dae57fe5b9060005260206000209060080201600091509050806000015490806001015490806002018054600181600116156101000203166002900480601f016020809104026020016040519081016040528092919081815260200182805460018160011615610100020316600290048015611e665780601f10611e3b57610100808354040283529160200191611e66565b820191906000526020600020905b815481529060010190602001808311611e4957829003601f168201915b505050505090806003018054600181600116156101000203166002900480601f016020809104026020016040519081016040528092919081815260200182805460018160011615610100020316600290048015611f045780601f10611ed957610100808354040283529160200191611f04565b820191906000526020600020905b815481529060010190602001808311611ee757829003601f168201915b505050505090806004018054600181600116156101000203166002900480601f016020809104026020016040519081016040528092919081815260200182805460018160011615610100020316600290048015611fa25780601f10611f7757610100808354040283529160200191611fa2565b820191906000526020600020905b815481529060010190602001808311611f8557829003601f168201915b505050505090806005018054600181600116156101000203166002900480601f0160208091040260200160405190810160405280929190818152602001828054600181600116156101000203166002900480156120405780601f1061201557610100808354040283529160200191612040565b820191906000526020600020905b81548152906001019060200180831161202357829003601f168201915b505050505090806006018054600181600116156101000203166002900480601f0160208091040260200160405190810160405280929190818152602001828054600181600116156101000203166002900480156120de5780601f106120b3576101008083540402835291602001916120de565b820191906000526020600020905b8154815290600101906020018083116120c157829003601f168201915b5050505050905087565b600081600280549050101515156120fe57600080fd5b61210787612999565b15801561211a575061211886612999565b155b801561212c575061212a84612999565b155b801561213e575061213c83612999565b155b151561214957600080fd5b6004805490509050807f825ed299415b0eed10996b6a8df0c8c33b9a5ab4f5cad6b8369077e4c80fb94f60405160405180910390a25050505050505050565b60018181548110151561219757fe5b9060005260206000209060040201600091509050806000015490806001018054600181600116156101000203166002900480601f0160208091040260200160405190810160405280929190818152602001828054600181600116156101000203166002900480156122495780601f1061221e57610100808354040283529160200191612249565b820191906000526020600020905b81548152906001019060200180831161222c57829003601f168201915b505050505090806002018054600181600116156101000203166002900480601f0160208091040260200160405190810160405280929190818152602001828054600181600116156101000203166002900480156122e75780601f106122bc576101008083540402835291602001916122e7565b820191906000526020600020905b8154815290600101906020018083116122ca57829003601f168201915b5050505050905083565b606060028281548110151561230257fe5b906000526020600020906008020160070180548060200260200160405190810160405280929190818152602001828054801561235d57602002820191906000526020600020905b815481526020019060010190808311612349575b50505050509050919050565b606060018281548110151561237a57fe5b90600052602060002090600402016003018054806020026020016040519081016040528092919081815260200182805480156123d557602002820191906000526020600020905b8154815260200190600101908083116123c1575b50505050509050919050565b60006123eb612ab4565b6123f487612999565b158015612407575061240588612999565b155b8015612419575061241786612999565b155b801561242b575061242985612999565b155b801561243d575061243b84612999565b155b801561244f575061244d83612999565b155b151561245a57600080fd5b600280549050915060e060405190810160405280838152602001898152602001888152602001878152602001868152602001858152602001848152509050600381908060018154018082558091505090600182039060005260206000209060070201600090919290919091506000820151816000015560208201518160010190805190602001906124ec9291906129e7565b5060408201518160020190805190602001906125099291906129e7565b5060608201518160030190805190602001906125269291906129e7565b5060808201518160040190805190602001906125439291906129e7565b5060a08201518160050190805190602001906125609291906129e7565b5060c082015181600601908051906020019061257d9291906129e7565b50505050817f2d097a86d6a8c65f42bce20487ddbd77f36f93eda3d9ed0fed92928b32c72e4b60405160405180910390a25050505050505050565b6003818154811015156125c757fe5b9060005260206000209060070201600091509050806000015490806001018054600181600116156101000203166002900480601f0160208091040260200160405190810160405280929190818152602001828054600181600116156101000203166002900480156126795780601f1061264e57610100808354040283529160200191612679565b820191906000526020600020905b81548152906001019060200180831161265c57829003601f168201915b505050505090806002018054600181600116156101000203166002900480601f0160208091040260200160405190810160405280929190818152602001828054600181600116156101000203166002900480156127175780601f106126ec57610100808354040283529160200191612717565b820191906000526020600020905b8154815290600101906020018083116126fa57829003601f168201915b505050505090806003018054600181600116156101000203166002900480601f0160208091040260200160405190810160405280929190818152602001828054600181600116156101000203166002900480156127b55780601f1061278a576101008083540402835291602001916127b5565b820191906000526020600020905b81548152906001019060200180831161279857829003601f168201915b505050505090806004018054600181600116156101000203166002900480601f0160208091040260200160405190810160405280929190818152602001828054600181600116156101000203166002900480156128535780601f1061282857610100808354040283529160200191612853565b820191906000526020600020905b81548152906001019060200180831161283657829003601f168201915b505050505090806005018054600181600116156101000203166002900480601f0160208091040260200160405190810160405280929190818152602001828054600181600116156101000203166002900480156128f15780601f106128c6576101008083540402835291602001916128f1565b820191906000526020600020905b8154815290600101906020018083116128d457829003601f168201915b505050505090806006018054600181600116156101000203166002900480601f01602080910402602001604051908101604052809291908181526020018280546001816001161561010002031660029004801561298f5780601f106129645761010080835404028352916020019161298f565b820191906000526020600020905b81548152906001019060200180831161297257829003601f168201915b5050505050905087565b600060608290506000815114156129b357600191506129b8565b600091505b50919050565b608060405190810160405280600081526020016060815260200160608152602001606081525090565b828054600181600116156101000203166002900490600052602060002090601f016020900481019282601f10612a2857805160ff1916838001178555612a56565b82800160010185558215612a56579182015b82811115612a55578251825591602001919060010190612a3a565b5b509050612a639190612af2565b5090565b828054828255906000526020600020908101928215612aa3579160200282015b82811115612aa2578251825591602001919060010190612a87565b5b509050612ab09190612af2565b5090565b60e060405190810160405280600081526020016060815260200160608152602001606081526020016060815260200160608152602001606081525090565b612b1491905b80821115612b10576000816000905550600101612af8565b5090565b905600a165627a7a723058209afb36e05a5df874be61c3c95ca15223c5aa22d5a9b3510df3f356f33aa1f6bb0029",
  "source": "pragma solidity ^0.4.23;\n\ncontract AffogatoNetwork {\n  //Initialice the contract\n\n  address admin;\n\n  //Actors, Owners\n  struct Producer{\n    uint256 id;\n    string producerName;\n    string history;\n    uint256[] farms; //IDs of ownerd farms\n  }\n\n  struct Processor{\n    uint256 id;\n    string name;\n    string typeOfProcessor; //Beneficio, Cooperativa, Finca\n    string village;\n    string municipality;\n    string department;\n    string country;\n  }\n\n  struct Farm{\n    uint256 id;\n    uint256 producerId;\n    string farmName;\n    string village;\n    string municipality;\n    string department;\n    string country;\n    uint256[] coffeeBatches; //IDs of Coffee Batches\n  }\n\n  //Coffee Process\n  struct Cut{\n    uint256 finalBatchSize; \n    bool isProcessComplete;\n  }\n\n  struct Depulped{\n    uint256 finalBatchSize;\n    bool isProcessedByFarm;\n    string processorId;\n    bool isProcessComplete;\n  }\n\n  struct Fermented{\n    uint256 finalBatchSize;\n    bool isProcessedByFarm;\n    string processorId;\n    string typeOfFermented;\n    bool isProcessComplete;\n  }\n\n  struct Washed{\n    uint256 finalBatchSize;\n    bool isProcessedByFarm;\n    string processorId;\n    bool isProcessComplete;\n  }\n\n  struct Drying{\n    uint256 finalBatchSize;\n    string typeOfDrying;\n    bool isProcessedByFarm;\n    string processorId;\n    bool isProcessComplete;\n  }\n\n  struct Trite{\n    uint256 finalBatchSize;\n    bool isProcessedByFarm;\n    string processorId;\n    bool isProcessComplete;\n  }\n\n  struct CupProfile{\n    string frangance;\n    string flavor;\n    string acidity;\n    string body;\n    string sweetness;\n    string cuppingNote;\n    string defects;\n    string grainSize;\n  }\n\n  // End of Coffee Process\n\n  struct CoffeeBatch {\n    uint256 id;\n    uint256 farmId;\n    uint256 altitude;\n    string process;\n    string variety;\n    Cut cut;\n    Depulped depulped;\n    Fermented fermented;\n    Washed washed;\n    Drying drying;\n    Trite trite;\n    CupProfile cupProfile;\n  }\n\n  Producer[] public producers;\n  Farm[] public farms;\n  Processor[] public processors;\n  CoffeeBatch[] public coffeeBatches;\n \n\n  //Event Definition\n  event AddProducer(uint256 indexed _id);\n  event AddFarm(uint256 indexed _id);\n  event AddCoffeeBatch(uint256 indexed _id);\n  event AddProcessor(uint256 indexed _id);\n\n  //Constructor, initialices the values\n  constructor() public{\n    admin = msg.sender;\n  }\n\n  //Inserts Producer and emits AddProducer event\n  function addProducer(string _producerName, string _history) public {\n    require(!isEmpty(_producerName) && !isEmpty(_history));\n    uint currentId = producers.length;\n    Producer memory producer = Producer(currentId, _producerName,_history, new uint[](0)); \n    producers.push(producer);  \n    emit AddProducer(currentId);\n  }\n\n  //Inserts Farm and emits AddFarm event\n  function addProcessor(\n    string _name,\n    string _typeOfProcessor,\n    string _village,\n    string _municipality,\n    string _department,\n    string _country\n  ) public {\n    require(!isEmpty(_typeOfProcessor) && !isEmpty(_name) && !isEmpty(_village) && !isEmpty(_municipality) && !isEmpty(_department) && !isEmpty(_country));\n    uint currentId = farms.length;\n    Processor memory processor = Processor(currentId, _name, _typeOfProcessor, _village, _municipality, _department, _country); \n    processors.push(processor);  \n    emit AddProcessor(currentId);\n  }\n\n  //Inserts Batch of coffee, updates farm batches and emits AddCoffeeBatch event\n  function addCoffeeBatch(\n    uint256 _auditCode,\n    string _cuppingFinalNote,\n    string _batchSize,\n    uint256 _altitude,\n    string _process,\n    string _variety,\n    uint256 _farmId\n  ) public {\n    require(farms.length >= _farmId);\n    require(!isEmpty(_cuppingFinalNote) && !isEmpty(_batchSize) && !isEmpty(_process) && !isEmpty(_variety));\n    uint currentId = coffeeBatches.length;\n  //  coffeeBatches.push(CoffeeBatch(currentId, _auditCode, _cuppingFinalNote, _batchSize, _altitude, _process, _variety, _farmId));\n   // farms[_farmId].coffeeBatchesIds.push(currentId);\n    emit AddCoffeeBatch(currentId);\n  }\n\n  //Inserts Farm and emits AddFarm event\n  function addFarm(\n    string _producerName,\n    string _farmName,\n    string _village,\n    string _municipality,\n    string _department,\n    string _country\n  ) public {\n    require(!isEmpty(_producerName) && !isEmpty(_farmName) && !isEmpty(_village) && !isEmpty(_municipality) && !isEmpty(_country));\n    uint currentId = farms.length;\n//    Farm memory farm = Farm(currentId, _producerName, _farmName, _village, _municipality, _department, _country, new uint[](0)); \n //   farms.push(farm);  \n    emit AddFarm(currentId);\n  }\n\n  //Gets Producer Farms \n  function getProducerFarms(uint256 _index) public view returns (uint256[]) {\n      return producers[_index].farms;\n  }\n\n  //Gets farm batches\n  function getFarmBatches(uint256 _index) public view returns (uint256[]) {\n      return farms[_index].coffeeBatches;\n  }\n\n\n  function isEmpty(string _empty) internal pure returns (bool){\n    bytes memory tempEmptyString = bytes(_empty); // Uses memory\n    if (tempEmptyString.length == 0) {\n        return true;\n    } else {\n        return false;\n    }\n  }\n}",
  "sourcePath": "/Users/crisgarner/Projects/affogato/contracts/AffogatoNetwork.sol",
  "compiler": {
    "name": "solc",
    "version": "0.4.23+commit.124ca40d.Emscripten.clang"
  },
  "schemaVersion": "2.0.0",
  "updatedAt": "2018-06-11T21:56:13.948Z"
}