{
  "contractName": "AffogatoNetwork",
  "abi": [
    {
      "constant": true,
      "inputs": [
        {
          "name": "",
          "type": "uint256"
        }
      ],
      "name": "coffeeBatches",
      "outputs": [
        {
          "name": "id",
          "type": "uint256"
        },
        {
          "name": "farmId",
          "type": "uint256"
        },
        {
          "name": "altitude",
          "type": "uint256"
        },
        {
          "name": "process",
          "type": "string"
        },
        {
          "name": "variety",
          "type": "string"
        },
        {
          "components": [
            {
              "name": "finalBatchSize",
              "type": "uint256"
            },
            {
              "name": "isProcessComplete",
              "type": "bool"
            }
          ],
          "name": "cut",
          "type": "tuple"
        },
        {
          "components": [
            {
              "name": "processorId",
              "type": "uint256"
            },
            {
              "name": "finalBatchSize",
              "type": "uint256"
            },
            {
              "name": "isProcessedByFarm",
              "type": "bool"
            },
            {
              "name": "isProcessComplete",
              "type": "bool"
            }
          ],
          "name": "depulped",
          "type": "tuple"
        },
        {
          "components": [
            {
              "name": "processorId",
              "type": "uint256"
            },
            {
              "name": "finalBatchSize",
              "type": "uint256"
            },
            {
              "name": "isProcessedByFarm",
              "type": "bool"
            },
            {
              "name": "typeOfFermented",
              "type": "string"
            },
            {
              "name": "isProcessComplete",
              "type": "bool"
            }
          ],
          "name": "fermented",
          "type": "tuple"
        },
        {
          "components": [
            {
              "name": "processorId",
              "type": "uint256"
            },
            {
              "name": "finalBatchSize",
              "type": "uint256"
            },
            {
              "name": "isProcessedByFarm",
              "type": "bool"
            },
            {
              "name": "isProcessComplete",
              "type": "bool"
            }
          ],
          "name": "washed",
          "type": "tuple"
        },
        {
          "components": [
            {
              "name": "processorId",
              "type": "uint256"
            },
            {
              "name": "finalBatchSize",
              "type": "uint256"
            },
            {
              "name": "isProcessedByFarm",
              "type": "bool"
            },
            {
              "name": "typeOfDrying",
              "type": "string"
            },
            {
              "name": "isProcessComplete",
              "type": "bool"
            }
          ],
          "name": "drying",
          "type": "tuple"
        },
        {
          "components": [
            {
              "name": "processorId",
              "type": "uint256"
            },
            {
              "name": "finalBatchSize",
              "type": "uint256"
            },
            {
              "name": "isProcessedByFarm",
              "type": "bool"
            },
            {
              "name": "isProcessComplete",
              "type": "bool"
            }
          ],
          "name": "trite",
          "type": "tuple"
        },
        {
          "components": [
            {
              "name": "frangance",
              "type": "string"
            },
            {
              "name": "flavor",
              "type": "string"
            },
            {
              "name": "acidity",
              "type": "string"
            },
            {
              "name": "body",
              "type": "string"
            },
            {
              "name": "cuppingNote",
              "type": "string"
            },
            {
              "name": "defects",
              "type": "string"
            },
            {
              "name": "grainSize",
              "type": "string"
            }
          ],
          "name": "cupProfile",
          "type": "tuple"
        }
      ],
      "payable": false,
      "stateMutability": "view",
      "type": "function"
    },
    {
      "constant": true,
      "inputs": [
        {
          "name": "",
          "type": "uint256"
        }
      ],
      "name": "farms",
      "outputs": [
        {
          "name": "id",
          "type": "uint256"
        },
        {
          "name": "producerId",
          "type": "uint256"
        },
        {
          "name": "farmName",
          "type": "string"
        },
        {
          "name": "village",
          "type": "string"
        },
        {
          "name": "municipality",
          "type": "string"
        },
        {
          "name": "department",
          "type": "string"
        },
        {
          "name": "country",
          "type": "string"
        }
      ],
      "payable": false,
      "stateMutability": "view",
      "type": "function"
    },
    {
      "constant": true,
      "inputs": [
        {
          "name": "",
          "type": "uint256"
        }
      ],
      "name": "producers",
      "outputs": [
        {
          "name": "id",
          "type": "uint256"
        },
        {
          "name": "producerName",
          "type": "string"
        },
        {
          "name": "history",
          "type": "string"
        }
      ],
      "payable": false,
      "stateMutability": "view",
      "type": "function"
    },
    {
      "constant": true,
      "inputs": [
        {
          "name": "",
          "type": "uint256"
        }
      ],
      "name": "processors",
      "outputs": [
        {
          "name": "id",
          "type": "uint256"
        },
        {
          "name": "name",
          "type": "string"
        },
        {
          "name": "typeOfProcessor",
          "type": "string"
        },
        {
          "name": "village",
          "type": "string"
        },
        {
          "name": "municipality",
          "type": "string"
        },
        {
          "name": "department",
          "type": "string"
        },
        {
          "name": "country",
          "type": "string"
        }
      ],
      "payable": false,
      "stateMutability": "view",
      "type": "function"
    },
    {
      "inputs": [],
      "payable": false,
      "stateMutability": "nonpayable",
      "type": "constructor"
    },
    {
      "anonymous": false,
      "inputs": [
        {
          "indexed": true,
          "name": "_id",
          "type": "uint256"
        }
      ],
      "name": "AddProducer",
      "type": "event"
    },
    {
      "anonymous": false,
      "inputs": [
        {
          "indexed": true,
          "name": "_id",
          "type": "uint256"
        }
      ],
      "name": "AddFarm",
      "type": "event"
    },
    {
      "anonymous": false,
      "inputs": [
        {
          "indexed": true,
          "name": "_id",
          "type": "uint256"
        }
      ],
      "name": "AddCoffeeBatch",
      "type": "event"
    },
    {
      "anonymous": false,
      "inputs": [
        {
          "indexed": true,
          "name": "_id",
          "type": "uint256"
        }
      ],
      "name": "AddProcessor",
      "type": "event"
    },
    {
      "anonymous": false,
      "inputs": [
        {
          "indexed": true,
          "name": "_batchId",
          "type": "uint256"
        },
        {
          "indexed": false,
          "name": "_finalBatchSize",
          "type": "uint256"
        },
        {
          "indexed": false,
          "name": "_isProcessComplete",
          "type": "bool"
        }
      ],
      "name": "UpdateCoffeeBatchCut",
      "type": "event"
    },
    {
      "anonymous": false,
      "inputs": [
        {
          "indexed": true,
          "name": "_batchId",
          "type": "uint256"
        },
        {
          "indexed": true,
          "name": "_processorId",
          "type": "uint256"
        },
        {
          "indexed": false,
          "name": "_finalBatchSize",
          "type": "uint256"
        },
        {
          "indexed": false,
          "name": "_isProcessedByFarm",
          "type": "bool"
        },
        {
          "indexed": false,
          "name": "_isProcessComplete",
          "type": "bool"
        }
      ],
      "name": "UpdateCoffeeBatchDepulped",
      "type": "event"
    },
    {
      "anonymous": false,
      "inputs": [
        {
          "indexed": true,
          "name": "_batchId",
          "type": "uint256"
        },
        {
          "indexed": true,
          "name": "_processorId",
          "type": "uint256"
        },
        {
          "indexed": false,
          "name": "_finalBatchSize",
          "type": "uint256"
        },
        {
          "indexed": false,
          "name": "_isProcessedByFarm",
          "type": "bool"
        },
        {
          "indexed": false,
          "name": "_typeOfFermented",
          "type": "string"
        },
        {
          "indexed": false,
          "name": "_isProcessComplete",
          "type": "bool"
        }
      ],
      "name": "UpdateCoffeeBatchFermented",
      "type": "event"
    },
    {
      "anonymous": false,
      "inputs": [
        {
          "indexed": true,
          "name": "_batchId",
          "type": "uint256"
        },
        {
          "indexed": true,
          "name": "_processorId",
          "type": "uint256"
        },
        {
          "indexed": false,
          "name": "_finalBatchSize",
          "type": "uint256"
        },
        {
          "indexed": false,
          "name": "_isProcessedByFarm",
          "type": "bool"
        },
        {
          "indexed": false,
          "name": "_isProcessComplete",
          "type": "bool"
        }
      ],
      "name": "UpdateCoffeeBatchWashed",
      "type": "event"
    },
    {
      "anonymous": false,
      "inputs": [
        {
          "indexed": true,
          "name": "_batchId",
          "type": "uint256"
        },
        {
          "indexed": true,
          "name": "_processorId",
          "type": "uint256"
        },
        {
          "indexed": false,
          "name": "_finalBatchSize",
          "type": "uint256"
        },
        {
          "indexed": false,
          "name": "_isProcessedByFarm",
          "type": "bool"
        },
        {
          "indexed": false,
          "name": "_typeOfDrying",
          "type": "string"
        },
        {
          "indexed": false,
          "name": "_isProcessComplete",
          "type": "bool"
        }
      ],
      "name": "UpdateCoffeeBatchDrying",
      "type": "event"
    },
    {
      "anonymous": false,
      "inputs": [
        {
          "indexed": true,
          "name": "_batchId",
          "type": "uint256"
        },
        {
          "indexed": true,
          "name": "_processorId",
          "type": "uint256"
        },
        {
          "indexed": false,
          "name": "_finalBatchSize",
          "type": "uint256"
        },
        {
          "indexed": false,
          "name": "_isProcessedByFarm",
          "type": "bool"
        },
        {
          "indexed": false,
          "name": "_isProcessComplete",
          "type": "bool"
        }
      ],
      "name": "UpdateCoffeeBatchTrite",
      "type": "event"
    },
    {
      "anonymous": false,
      "inputs": [
        {
          "indexed": true,
          "name": "_batchId",
          "type": "uint256"
        },
        {
          "indexed": false,
          "name": "_frangance",
          "type": "string"
        },
        {
          "indexed": false,
          "name": "_flavor",
          "type": "string"
        },
        {
          "indexed": false,
          "name": "_acidity",
          "type": "string"
        },
        {
          "indexed": false,
          "name": "_body",
          "type": "string"
        },
        {
          "indexed": false,
          "name": "_cuppingNote",
          "type": "string"
        },
        {
          "indexed": false,
          "name": "_defects",
          "type": "string"
        },
        {
          "indexed": false,
          "name": "_grainSize",
          "type": "string"
        }
      ],
      "name": "UpdateCupProfile",
      "type": "event"
    },
    {
      "constant": false,
      "inputs": [
        {
          "name": "_producerName",
          "type": "string"
        },
        {
          "name": "_history",
          "type": "string"
        }
      ],
      "name": "addProducer",
      "outputs": [],
      "payable": false,
      "stateMutability": "nonpayable",
      "type": "function"
    },
    {
      "constant": false,
      "inputs": [
        {
          "name": "_name",
          "type": "string"
        },
        {
          "name": "_typeOfProcessor",
          "type": "string"
        },
        {
          "name": "_village",
          "type": "string"
        },
        {
          "name": "_municipality",
          "type": "string"
        },
        {
          "name": "_department",
          "type": "string"
        },
        {
          "name": "_country",
          "type": "string"
        }
      ],
      "name": "addProcessor",
      "outputs": [],
      "payable": false,
      "stateMutability": "nonpayable",
      "type": "function"
    },
    {
      "constant": false,
      "inputs": [
        {
          "name": "_farmId",
          "type": "uint256"
        },
        {
          "name": "_altitude",
          "type": "uint256"
        },
        {
          "name": "_process",
          "type": "string"
        },
        {
          "name": "_variety",
          "type": "string"
        }
      ],
      "name": "addCoffeeBatch",
      "outputs": [],
      "payable": false,
      "stateMutability": "nonpayable",
      "type": "function"
    },
    {
      "constant": true,
      "inputs": [
        {
          "name": "_index",
          "type": "uint256"
        }
      ],
      "name": "getCoffeeBatchInfo",
      "outputs": [
        {
          "name": "",
          "type": "uint256"
        },
        {
          "name": "",
          "type": "uint256"
        },
        {
          "name": "",
          "type": "uint256"
        },
        {
          "name": "",
          "type": "string"
        },
        {
          "name": "",
          "type": "string"
        }
      ],
      "payable": false,
      "stateMutability": "view",
      "type": "function"
    },
    {
      "constant": true,
      "inputs": [
        {
          "name": "_index",
          "type": "uint256"
        }
      ],
      "name": "getCoffeeBatchCut",
      "outputs": [
        {
          "name": "",
          "type": "uint256"
        },
        {
          "name": "",
          "type": "bool"
        }
      ],
      "payable": false,
      "stateMutability": "view",
      "type": "function"
    },
    {
      "constant": false,
      "inputs": [
        {
          "name": "_index",
          "type": "uint256"
        },
        {
          "name": "_finalBatchSize",
          "type": "uint256"
        },
        {
          "name": "_isProcessComplete",
          "type": "bool"
        }
      ],
      "name": "updateCoffeeBatchCut",
      "outputs": [],
      "payable": false,
      "stateMutability": "nonpayable",
      "type": "function"
    },
    {
      "constant": true,
      "inputs": [
        {
          "name": "_index",
          "type": "uint256"
        }
      ],
      "name": "getCoffeeBatchDepulped",
      "outputs": [
        {
          "name": "",
          "type": "uint256"
        },
        {
          "name": "",
          "type": "uint256"
        },
        {
          "name": "",
          "type": "bool"
        },
        {
          "name": "",
          "type": "bool"
        }
      ],
      "payable": false,
      "stateMutability": "view",
      "type": "function"
    },
    {
      "constant": false,
      "inputs": [
        {
          "name": "_index",
          "type": "uint256"
        },
        {
          "name": "_processorId",
          "type": "uint256"
        },
        {
          "name": "_finalBatchSize",
          "type": "uint256"
        },
        {
          "name": "_isProcessedByFarm",
          "type": "bool"
        },
        {
          "name": "_isProcessComplete",
          "type": "bool"
        }
      ],
      "name": "updateCoffeeBatchDepulped",
      "outputs": [],
      "payable": false,
      "stateMutability": "nonpayable",
      "type": "function"
    },
    {
      "constant": true,
      "inputs": [
        {
          "name": "_index",
          "type": "uint256"
        }
      ],
      "name": "getCoffeeBatchFermented",
      "outputs": [
        {
          "name": "",
          "type": "uint256"
        },
        {
          "name": "",
          "type": "uint256"
        },
        {
          "name": "",
          "type": "bool"
        },
        {
          "name": "",
          "type": "string"
        },
        {
          "name": "",
          "type": "bool"
        }
      ],
      "payable": false,
      "stateMutability": "view",
      "type": "function"
    },
    {
      "constant": false,
      "inputs": [
        {
          "name": "_index",
          "type": "uint256"
        },
        {
          "name": "_processorId",
          "type": "uint256"
        },
        {
          "name": "_finalBatchSize",
          "type": "uint256"
        },
        {
          "name": "_isProcessedByFarm",
          "type": "bool"
        },
        {
          "name": "_typeOfFermented",
          "type": "string"
        },
        {
          "name": "_isProcessComplete",
          "type": "bool"
        }
      ],
      "name": "updateCoffeeBatchFermented",
      "outputs": [],
      "payable": false,
      "stateMutability": "nonpayable",
      "type": "function"
    },
    {
      "constant": true,
      "inputs": [
        {
          "name": "_index",
          "type": "uint256"
        }
      ],
      "name": "getCoffeeBatchWashed",
      "outputs": [
        {
          "name": "",
          "type": "uint256"
        },
        {
          "name": "",
          "type": "uint256"
        },
        {
          "name": "",
          "type": "bool"
        },
        {
          "name": "",
          "type": "bool"
        }
      ],
      "payable": false,
      "stateMutability": "view",
      "type": "function"
    },
    {
      "constant": false,
      "inputs": [
        {
          "name": "_index",
          "type": "uint256"
        },
        {
          "name": "_processorId",
          "type": "uint256"
        },
        {
          "name": "_finalBatchSize",
          "type": "uint256"
        },
        {
          "name": "_isProcessedByFarm",
          "type": "bool"
        },
        {
          "name": "_isProcessComplete",
          "type": "bool"
        }
      ],
      "name": "updateCoffeeBatchWashed",
      "outputs": [],
      "payable": false,
      "stateMutability": "nonpayable",
      "type": "function"
    },
    {
      "constant": true,
      "inputs": [
        {
          "name": "_index",
          "type": "uint256"
        }
      ],
      "name": "getCoffeeBatchDrying",
      "outputs": [
        {
          "name": "",
          "type": "uint256"
        },
        {
          "name": "",
          "type": "uint256"
        },
        {
          "name": "",
          "type": "bool"
        },
        {
          "name": "",
          "type": "string"
        },
        {
          "name": "",
          "type": "bool"
        }
      ],
      "payable": false,
      "stateMutability": "view",
      "type": "function"
    },
    {
      "constant": false,
      "inputs": [
        {
          "name": "_index",
          "type": "uint256"
        },
        {
          "name": "_processorId",
          "type": "uint256"
        },
        {
          "name": "_finalBatchSize",
          "type": "uint256"
        },
        {
          "name": "_isProcessedByFarm",
          "type": "bool"
        },
        {
          "name": "_typeOfDrying",
          "type": "string"
        },
        {
          "name": "_isProcessComplete",
          "type": "bool"
        }
      ],
      "name": "updateCoffeeBatchDrying",
      "outputs": [],
      "payable": false,
      "stateMutability": "nonpayable",
      "type": "function"
    },
    {
      "constant": true,
      "inputs": [
        {
          "name": "_index",
          "type": "uint256"
        }
      ],
      "name": "getCoffeeBatchTrite",
      "outputs": [
        {
          "name": "",
          "type": "uint256"
        },
        {
          "name": "",
          "type": "uint256"
        },
        {
          "name": "",
          "type": "bool"
        },
        {
          "name": "",
          "type": "bool"
        }
      ],
      "payable": false,
      "stateMutability": "view",
      "type": "function"
    },
    {
      "constant": false,
      "inputs": [
        {
          "name": "_index",
          "type": "uint256"
        },
        {
          "name": "_processorId",
          "type": "uint256"
        },
        {
          "name": "_finalBatchSize",
          "type": "uint256"
        },
        {
          "name": "_isProcessedByFarm",
          "type": "bool"
        },
        {
          "name": "_isProcessComplete",
          "type": "bool"
        }
      ],
      "name": "updateCoffeeBatchTrite",
      "outputs": [],
      "payable": false,
      "stateMutability": "nonpayable",
      "type": "function"
    },
    {
      "constant": true,
      "inputs": [
        {
          "name": "_index",
          "type": "uint256"
        }
      ],
      "name": "getCupProfile",
      "outputs": [
        {
          "name": "",
          "type": "string"
        },
        {
          "name": "",
          "type": "string"
        },
        {
          "name": "",
          "type": "string"
        },
        {
          "name": "",
          "type": "string"
        },
        {
          "name": "",
          "type": "string"
        },
        {
          "name": "",
          "type": "string"
        },
        {
          "name": "",
          "type": "string"
        }
      ],
      "payable": false,
      "stateMutability": "view",
      "type": "function"
    },
    {
      "constant": false,
      "inputs": [
        {
          "name": "_index",
          "type": "uint256"
        },
        {
          "name": "_frangance",
          "type": "string"
        },
        {
          "name": "_flavor",
          "type": "string"
        },
        {
          "name": "_acidity",
          "type": "string"
        },
        {
          "name": "_body",
          "type": "string"
        },
        {
          "name": "_cuppingNote",
          "type": "string"
        },
        {
          "name": "_defects",
          "type": "string"
        },
        {
          "name": "_grainSize",
          "type": "string"
        }
      ],
      "name": "updateCupProfile",
      "outputs": [],
      "payable": false,
      "stateMutability": "nonpayable",
      "type": "function"
    },
    {
      "constant": false,
      "inputs": [
        {
          "name": "_producerId",
          "type": "uint256"
        },
        {
          "name": "_farmName",
          "type": "string"
        },
        {
          "name": "_village",
          "type": "string"
        },
        {
          "name": "_municipality",
          "type": "string"
        },
        {
          "name": "_department",
          "type": "string"
        },
        {
          "name": "_country",
          "type": "string"
        }
      ],
      "name": "addFarm",
      "outputs": [],
      "payable": false,
      "stateMutability": "nonpayable",
      "type": "function"
    },
    {
      "constant": true,
      "inputs": [
        {
          "name": "_index",
          "type": "uint256"
        }
      ],
      "name": "getProducerFarms",
      "outputs": [
        {
          "name": "",
          "type": "uint256[]"
        }
      ],
      "payable": false,
      "stateMutability": "view",
      "type": "function"
    },
    {
      "constant": true,
      "inputs": [
        {
          "name": "_index",
          "type": "uint256"
        }
      ],
      "name": "getFarmBatches",
      "outputs": [
        {
          "name": "",
          "type": "uint256[]"
        }
      ],
      "payable": false,
      "stateMutability": "view",
      "type": "function"
    }
  ],
  "bytecode": "0x608060405234801561001057600080fd5b50336000806101000a81548173ffffffffffffffffffffffffffffffffffffffff021916908373ffffffffffffffffffffffffffffffffffffffff160217905550615f9280620000616000396000f300608060405260043610610149576000357c0100000000000000000000000000000000000000000000000000000000900463ffffffff16806301f822771461014e5780631197e734146101ac5780631b41b7d71461025b57806320bd8d58146102b9578063297620ca146104d0578063395209b214610593578063415eb9d8146106eb57806379d506e6146107375780637da470ea1461077a5780639813e117146109de5780639b68ade714610a37578063a18c17a114610b50578063a91d818b14610ba9578063b0eb6b5014610d34578063b34b5f5e14610d92578063b375418314610e5c578063bbfb881214610ede578063c67526a914610f60578063cacb569d14610fff578063d554b18114611058578063d6c65ebb1461121f578063e943d5f8146112be578063f5f06d94146113e5578063fe7c58e9146114af578063ffd87fcc14611778575b600080fd5b34801561015a57600080fd5b5061017960048036038101908080359060200190929190505050611aa6565b60405180858152602001848152602001831515151581526020018215151515815260200194505050505060405180910390f35b3480156101b857600080fd5b50610259600480360381019080803590602001908201803590602001908080601f0160208091040260200160405190810160405280939291908181526020018383808284378201915050505050509192919290803590602001908201803590602001908080601f0160208091040260200160405190810160405280939291908181526020018383808284378201915050505050509192919290505050611b50565b005b34801561026757600080fd5b5061028660048036038101908080359060200190929190505050611ca2565b60405180858152602001848152602001831515151581526020018215151515815260200194505050505060405180910390f35b3480156102c557600080fd5b506104ce60048036038101908080359060200190929190803590602001908201803590602001908080601f0160208091040260200160405190810160405280939291908181526020018383808284378201915050505050509192919290803590602001908201803590602001908080601f0160208091040260200160405190810160405280939291908181526020018383808284378201915050505050509192919290803590602001908201803590602001908080601f0160208091040260200160405190810160405280939291908181526020018383808284378201915050505050509192919290803590602001908201803590602001908080601f0160208091040260200160405190810160405280939291908181526020018383808284378201915050505050509192919290803590602001908201803590602001908080601f0160208091040260200160405190810160405280939291908181526020018383808284378201915050505050509192919290803590602001908201803590602001908080601f0160208091040260200160405190810160405280939291908181526020018383808284378201915050505050509192919290803590602001908201803590602001908080601f0160208091040260200160405190810160405280939291908181526020018383808284378201915050505050509192919290505050611d4c565b005b3480156104dc57600080fd5b506105916004803603810190808035906020019092919080359060200190929190803590602001908201803590602001908080601f0160208091040260200160405190810160405280939291908181526020018383808284378201915050505050509192919290803590602001908201803590602001908080601f0160208091040260200160405190810160405280939291908181526020018383808284378201915050505050509192919290505050612249565b005b34801561059f57600080fd5b506105be6004803603810190808035906020019092919050505061291f565b604051808d81526020018c81526020018b815260200180602001806020018a815260200189815260200188815260200187815260200186815260200185815260200184815260200183810383528c818151815260200191508051906020019080838360005b8381101561063e578082015181840152602081019050610623565b50505050905090810190601f16801561066b5780820380516001836020036101000a031916815260200191505b5083810382528b818151815260200191508051906020019080838360005b838110156106a4578082015181840152602081019050610689565b50505050905090810190601f1680156106d15780820380516001836020036101000a031916815260200191505b509e50505050505050505050505050505060405180910390f35b3480156106f757600080fd5b5061071660048036038101908080359060200190929190505050613253565b60405180838152602001821515151581526020019250505060405180910390f35b34801561074357600080fd5b5061077860048036038101908080359060200190929190803590602001909291908035151590602001909291905050506132c4565b005b34801561078657600080fd5b506107a560048036038101908080359060200190929190505050613380565b60405180888152602001878152602001806020018060200180602001806020018060200186810386528b818151815260200191508051906020019080838360005b838110156108015780820151818401526020810190506107e6565b50505050905090810190601f16801561082e5780820380516001836020036101000a031916815260200191505b5086810385528a818151815260200191508051906020019080838360005b8381101561086757808201518184015260208101905061084c565b50505050905090810190601f1680156108945780820380516001836020036101000a031916815260200191505b50868103845289818151815260200191508051906020019080838360005b838110156108cd5780820151818401526020810190506108b2565b50505050905090810190601f1680156108fa5780820380516001836020036101000a031916815260200191505b50868103835288818151815260200191508051906020019080838360005b83811015610933578082015181840152602081019050610918565b50505050905090810190601f1680156109605780820380516001836020036101000a031916815260200191505b50868103825287818151815260200191508051906020019080838360005b8381101561099957808201518184015260208101905061097e565b50505050905090810190601f1680156109c65780820380516001836020036101000a031916815260200191505b509c5050505050505050505050505060405180910390f35b3480156109ea57600080fd5b50610a356004803603810190808035906020019092919080359060200190929190803590602001909291908035151590602001909291908035151590602001909291905050506136c9565b005b348015610a4357600080fd5b50610a62600480360381019080803590602001909291905050506137e2565b604051808481526020018060200180602001838103835285818151815260200191508051906020019080838360005b83811015610aac578082015181840152602081019050610a91565b50505050905090810190601f168015610ad95780820380516001836020036101000a031916815260200191505b50838103825284818151815260200191508051906020019080838360005b83811015610b12578082015181840152602081019050610af7565b50505050905090810190601f168015610b3f5780820380516001836020036101000a031916815260200191505b509550505050505060405180910390f35b348015610b5c57600080fd5b50610ba760048036038101908080359060200190929190803590602001909291908035906020019092919080351515906020019092919080351515906020019092919050505061394b565b005b348015610bb557600080fd5b50610d3260048036038101908080359060200190929190803590602001908201803590602001908080601f0160208091040260200160405190810160405280939291908181526020018383808284378201915050505050509192919290803590602001908201803590602001908080601f0160208091040260200160405190810160405280939291908181526020018383808284378201915050505050509192919290803590602001908201803590602001908080601f0160208091040260200160405190810160405280939291908181526020018383808284378201915050505050509192919290803590602001908201803590602001908080601f0160208091040260200160405190810160405280939291908181526020018383808284378201915050505050509192919290803590602001908201803590602001908080601f0160208091040260200160405190810160405280939291908181526020018383808284378201915050505050509192919290505050613a64565b005b348015610d4057600080fd5b50610d5f60048036038101908080359060200190929190505050613cb6565b60405180858152602001848152602001831515151581526020018215151515815260200194505050505060405180910390f35b348015610d9e57600080fd5b50610dbd60048036038101908080359060200190929190505050613d60565b60405180868152602001858152602001841515151581526020018060200183151515158152602001828103825284818151815260200191508051906020019080838360005b83811015610e1d578082015181840152602081019050610e02565b50505050905090810190601f168015610e4a5780820380516001836020036101000a031916815260200191505b50965050505050505060405180910390f35b348015610e6857600080fd5b50610e8760048036038101908080359060200190929190505050613ebb565b6040518080602001828103825283818151815260200191508051906020019060200280838360005b83811015610eca578082015181840152602081019050610eaf565b505050509050019250505060405180910390f35b348015610eea57600080fd5b50610f0960048036038101908080359060200190929190505050613f33565b6040518080602001828103825283818151815260200191508051906020019060200280838360005b83811015610f4c578082015181840152602081019050610f31565b505050509050019250505060405180910390f35b348015610f6c57600080fd5b50610ffd600480360381019080803590602001909291908035906020019092919080359060200190929190803515159060200190929190803590602001908201803590602001908080601f0160208091040260200160405190810160405280939291908181526020018383808284378201915050505050509192919290803515159060200190929190505050613fab565b005b34801561100b57600080fd5b5061105660048036038101908080359060200190929190803590602001909291908035906020019092919080351515906020019092919080351515906020019092919050505061416b565b005b34801561106457600080fd5b5061121d600480360381019080803590602001908201803590602001908080601f0160208091040260200160405190810160405280939291908181526020018383808284378201915050505050509192919290803590602001908201803590602001908080601f0160208091040260200160405190810160405280939291908181526020018383808284378201915050505050509192919290803590602001908201803590602001908080601f0160208091040260200160405190810160405280939291908181526020018383808284378201915050505050509192919290803590602001908201803590602001908080601f0160208091040260200160405190810160405280939291908181526020018383808284378201915050505050509192919290803590602001908201803590602001908080601f0160208091040260200160405190810160405280939291908181526020018383808284378201915050505050509192919290803590602001908201803590602001908080601f0160208091040260200160405190810160405280939291908181526020018383808284378201915050505050509192919290505050614284565b005b34801561122b57600080fd5b506112bc600480360381019080803590602001909291908035906020019092919080359060200190929190803515159060200190929190803590602001908201803590602001908080601f016020809104026020016040519081016040528093929190818152602001838380828437820191505050505050919291929080351515906020019092919050505061445b565b005b3480156112ca57600080fd5b506112e96004803603810190808035906020019092919050505061461b565b604051808681526020018581526020018481526020018060200180602001838103835285818151815260200191508051906020019080838360005b8381101561133f578082015181840152602081019050611324565b50505050905090810190601f16801561136c5780820380516001836020036101000a031916815260200191505b50838103825284818151815260200191508051906020019080838360005b838110156113a557808201518184015260208101905061138a565b50505050905090810190601f1680156113d25780820380516001836020036101000a031916815260200191505b5097505050505050505060405180910390f35b3480156113f157600080fd5b5061141060048036038101908080359060200190929190505050614fc7565b60405180868152602001858152602001841515151581526020018060200183151515158152602001828103825284818151815260200191508051906020019080838360005b83811015611470578082015181840152602081019050611455565b50505050905090810190601f16801561149d5780820380516001836020036101000a031916815260200191505b50965050505050505060405180910390f35b3480156114bb57600080fd5b506114da60048036038101908080359060200190929190505050615122565b6040518088815260200180602001806020018060200180602001806020018060200187810387528d818151815260200191508051906020019080838360005b83811015611534578082015181840152602081019050611519565b50505050905090810190601f1680156115615780820380516001836020036101000a031916815260200191505b5087810386528c818151815260200191508051906020019080838360005b8381101561159a57808201518184015260208101905061157f565b50505050905090810190601f1680156115c75780820380516001836020036101000a031916815260200191505b5087810385528b818151815260200191508051906020019080838360005b838110156116005780820151818401526020810190506115e5565b50505050905090810190601f16801561162d5780820380516001836020036101000a031916815260200191505b5087810384528a818151815260200191508051906020019080838360005b8381101561166657808201518184015260208101905061164b565b50505050905090810190601f1680156116935780820380516001836020036101000a031916815260200191505b50878103835289818151815260200191508051906020019080838360005b838110156116cc5780820151818401526020810190506116b1565b50505050905090810190601f1680156116f95780820380516001836020036101000a031916815260200191505b50878103825288818151815260200191508051906020019080838360005b83811015611732578082015181840152602081019050611717565b50505050905090810190601f16801561175f5780820380516001836020036101000a031916815260200191505b509d505050505050505050505050505060405180910390f35b34801561178457600080fd5b506117a360048036038101908080359060200190929190505050615503565b604051808060200180602001806020018060200180602001806020018060200188810388528f818151815260200191508051906020019080838360005b838110156117fb5780820151818401526020810190506117e0565b50505050905090810190601f1680156118285780820380516001836020036101000a031916815260200191505b5088810387528e818151815260200191508051906020019080838360005b83811015611861578082015181840152602081019050611846565b50505050905090810190601f16801561188e5780820380516001836020036101000a031916815260200191505b5088810386528d818151815260200191508051906020019080838360005b838110156118c75780820151818401526020810190506118ac565b50505050905090810190601f1680156118f45780820380516001836020036101000a031916815260200191505b5088810385528c818151815260200191508051906020019080838360005b8381101561192d578082015181840152602081019050611912565b50505050905090810190601f16801561195a5780820380516001836020036101000a031916815260200191505b5088810384528b818151815260200191508051906020019080838360005b83811015611993578082015181840152602081019050611978565b50505050905090810190601f1680156119c05780820380516001836020036101000a031916815260200191505b5088810383528a818151815260200191508051906020019080838360005b838110156119f95780820151818401526020810190506119de565b50505050905090810190601f168015611a265780820380516001836020036101000a031916815260200191505b50888103825289818151815260200191508051906020019080838360005b83811015611a5f578082015181840152602081019050611a44565b50505050905090810190601f168015611a8c5780820380516001836020036101000a031916815260200191505b509e50505050505050505050505050505060405180910390f35b600080600080611ab4615a29565b600486815481101515611ac357fe5b90600052602060002090602102016017016080604051908101604052908160008201548152602001600182015481526020016002820160009054906101000a900460ff161515151581526020016002820160019054906101000a900460ff161515151581525050905080600001518160200151826040015183606001519450945094509450509193509193565b6000611b5a615a56565b611b6384615a04565b158015611b765750611b7483615a04565b155b1515611b8157600080fd5b60018054905091506080604051908101604052808381526020018581526020018481526020016000604051908082528060200260200182016040528015611bd75781602001602082028038833980820191505090505b50815250905060018190806001815401808255809150509060018203906000526020600020906004020160009091929091909150600082015181600001556020820151816001019080519060200190611c31929190615a7f565b506040820151816002019080519060200190611c4e929190615a7f565b506060820151816003019080519060200190611c6b929190615aff565b50505050817f1074041b1f3c44b82090a7939c5401d6358a76d18ebeef0776bcf2c11eb7080660405160405180910390a250505050565b600080600080611cb0615b4c565b600486815481101515611cbf57fe5b9060005260206000209060210201600f016080604051908101604052908160008201548152602001600182015481526020016002820160009054906101000a900460ff161515151581526020016002820160019054906101000a900460ff161515151581525050905080600001518160200151826040015183606001519450945094509450509193509193565b60008860048054905010151515611d6257600080fd5b600489815481101515611d7157fe5b9060005260206000209060210201601a01905087816000019080519060200190611d9c929190615b79565b5086816001019080519060200190611db5929190615b79565b5085816002019080519060200190611dce929190615b79565b5084816003019080519060200190611de7929190615b79565b5083816004019080519060200190611e00929190615b79565b5082816005019080519060200190611e19929190615b79565b5081816006019080519060200190611e32929190615b79565b50887f25d50f636fb2178b1e1f043955c453b6fd06c525ff8aa04a5501f8e9584c91da82600001836001018460020185600301866004018760050188600601604051808060200180602001806020018060200180602001806020018060200188810388528f818154600181600116156101000203166002900481526020019150805460018160011615610100020316600290048015611f125780601f10611ee757610100808354040283529160200191611f12565b820191906000526020600020905b815481529060010190602001808311611ef557829003601f168201915b505088810387528e818154600181600116156101000203166002900481526020019150805460018160011615610100020316600290048015611f955780601f10611f6a57610100808354040283529160200191611f95565b820191906000526020600020905b815481529060010190602001808311611f7857829003601f168201915b505088810386528d8181546001816001161561010002031660029004815260200191508054600181600116156101000203166002900480156120185780601f10611fed57610100808354040283529160200191612018565b820191906000526020600020905b815481529060010190602001808311611ffb57829003601f168201915b505088810385528c81815460018160011615610100020316600290048152602001915080546001816001161561010002031660029004801561209b5780601f106120705761010080835404028352916020019161209b565b820191906000526020600020905b81548152906001019060200180831161207e57829003601f168201915b505088810384528b81815460018160011615610100020316600290048152602001915080546001816001161561010002031660029004801561211e5780601f106120f35761010080835404028352916020019161211e565b820191906000526020600020905b81548152906001019060200180831161210157829003601f168201915b505088810383528a8181546001816001161561010002031660029004815260200191508054600181600116156101000203166002900480156121a15780601f10612176576101008083540402835291602001916121a1565b820191906000526020600020905b81548152906001019060200180831161218457829003601f168201915b50508881038252898181546001816001161561010002031660029004815260200191508054600181600116156101000203166002900480156122245780601f106121f957610100808354040283529160200191612224565b820191906000526020600020905b81548152906001019060200180831161220757829003601f168201915b50509e50505050505050505050505050505060405180910390a2505050505050505050565b6000612253615bf9565b61225b615c15565b612263615c42565b61226b615b4c565b612273615c76565b61227b615a29565b612283615caa565b61228b615ce8565b8c6002805490501015151561229f57600080fd5b6122a88b615a04565b1580156122bb57506122b98a615a04565b155b15156122c657600080fd5b6004805490509850604080519081016040528060008152602001600015158152509750608060405190810160405280600081526020016000815260200160001515815260200160001515815250965060a060405190810160405280600081526020016000815260200160001515815260200160206040519081016040528060008152508152602001600015158152509550608060405190810160405280600081526020016000815260200160001515815260200160001515815250945060a060405190810160405280600081526020016000815260200160001515815260200160206040519081016040528060008152508152602001600015158152509350608060405190810160405280600081526020016000815260200160001515815260200160001515815250925060e06040519081016040528060206040519081016040528060008152508152602001602060405190810160405280600081525081526020016020604051908101604052806000815250815260200160206040519081016040528060008152508152602001602060405190810160405280600081525081526020016020604051908101604052806000815250815260200160206040519081016040528060008152508152509150610180604051908101604052808a81526020018e81526020018d81526020018c81526020018b8152602001898152602001888152602001878152602001868152602001858152602001848152602001838152509050600481908060018154018082558091505090600182039060005260206000209060210201600090919290919091506000820151816000015560208201518160010155604082015181600201556060820151816003019080519060200190612554929190615a7f565b506080820151816004019080519060200190612571929190615a7f565b5060a0820151816005016000820151816000015560208201518160010160006101000a81548160ff021916908315150217905550505060c082015181600701600082015181600001556020820151816001015560408201518160020160006101000a81548160ff02191690831515021790555060608201518160020160016101000a81548160ff021916908315150217905550505060e082015181600a01600082015181600001556020820151816001015560408201518160020160006101000a81548160ff021916908315150217905550606082015181600301908051906020019061265f929190615a7f565b5060808201518160040160006101000a81548160ff021916908315150217905550505061010082015181600f01600082015181600001556020820151816001015560408201518160020160006101000a81548160ff02191690831515021790555060608201518160020160016101000a81548160ff021916908315150217905550505061012082015181601201600082015181600001556020820151816001015560408201518160020160006101000a81548160ff021916908315150217905550606082015181600301908051906020019061273c929190615a7f565b5060808201518160040160006101000a81548160ff021916908315150217905550505061014082015181601701600082015181600001556020820151816001015560408201518160020160006101000a81548160ff02191690831515021790555060608201518160020160016101000a81548160ff021916908315150217905550505061016082015181601a0160008201518160000190805190602001906127e5929190615a7f565b506020820151816001019080519060200190612802929190615a7f565b50604082015181600201908051906020019061281f929190615a7f565b50606082015181600301908051906020019061283c929190615a7f565b506080820151816004019080519060200190612859929190615a7f565b5060a0820151816005019080519060200190612876929190615a7f565b5060c0820151816006019080519060200190612893929190615a7f565b50505050505060028d8154811015156128a857fe5b9060005260206000209060080201600701899080600181540180825580915050906001820390600052602060002001600090919290919091505550887f825ed299415b0eed10996b6a8df0c8c33b9a5ab4f5cad6b8369077e4c80fb94f60405160405180910390a250505050505050505050505050565b60048181548110151561292e57fe5b9060005260206000209060210201600091509050806000015490806001015490806002015490806003018054600181600116156101000203166002900480601f0160208091040260200160405190810160405280929190818152602001828054600181600116156101000203166002900480156129ec5780601f106129c1576101008083540402835291602001916129ec565b820191906000526020600020905b8154815290600101906020018083116129cf57829003601f168201915b505050505090806004018054600181600116156101000203166002900480601f016020809104026020016040519081016040528092919081815260200182805460018160011615610100020316600290048015612a8a5780601f10612a5f57610100808354040283529160200191612a8a565b820191906000526020600020905b815481529060010190602001808311612a6d57829003601f168201915b50505050509080600501604080519081016040529081600082015481526020016001820160009054906101000a900460ff16151515158152505090806007016080604051908101604052908160008201548152602001600182015481526020016002820160009054906101000a900460ff161515151581526020016002820160019054906101000a900460ff1615151515815250509080600a0160a0604051908101604052908160008201548152602001600182015481526020016002820160009054906101000a900460ff16151515158152602001600382018054600181600116156101000203166002900480601f016020809104026020016040519081016040528092919081815260200182805460018160011615610100020316600290048015612bf85780601f10612bcd57610100808354040283529160200191612bf8565b820191906000526020600020905b815481529060010190602001808311612bdb57829003601f168201915b505050505081526020016004820160009054906101000a900460ff1615151515815250509080600f016080604051908101604052908160008201548152602001600182015481526020016002820160009054906101000a900460ff161515151581526020016002820160019054906101000a900460ff161515151581525050908060120160a0604051908101604052908160008201548152602001600182015481526020016002820160009054906101000a900460ff16151515158152602001600382018054600181600116156101000203166002900480601f016020809104026020016040519081016040528092919081815260200182805460018160011615610100020316600290048015612d505780601f10612d2557610100808354040283529160200191612d50565b820191906000526020600020905b815481529060010190602001808311612d3357829003601f168201915b505050505081526020016004820160009054906101000a900460ff16151515158152505090806017016080604051908101604052908160008201548152602001600182015481526020016002820160009054906101000a900460ff161515151581526020016002820160019054906101000a900460ff1615151515815250509080601a0160e06040519081016040529081600082018054600181600116156101000203166002900480601f016020809104026020016040519081016040528092919081815260200182805460018160011615610100020316600290048015612e795780601f10612e4e57610100808354040283529160200191612e79565b820191906000526020600020905b815481529060010190602001808311612e5c57829003601f168201915b50505050508152602001600182018054600181600116156101000203166002900480601f016020809104026020016040519081016040528092919081815260200182805460018160011615610100020316600290048015612f1b5780601f10612ef057610100808354040283529160200191612f1b565b820191906000526020600020905b815481529060010190602001808311612efe57829003601f168201915b50505050508152602001600282018054600181600116156101000203166002900480601f016020809104026020016040519081016040528092919081815260200182805460018160011615610100020316600290048015612fbd5780601f10612f9257610100808354040283529160200191612fbd565b820191906000526020600020905b815481529060010190602001808311612fa057829003601f168201915b50505050508152602001600382018054600181600116156101000203166002900480601f01602080910402602001604051908101604052809291908181526020018280546001816001161561010002031660029004801561305f5780601f106130345761010080835404028352916020019161305f565b820191906000526020600020905b81548152906001019060200180831161304257829003601f168201915b50505050508152602001600482018054600181600116156101000203166002900480601f0160208091040260200160405190810160405280929190818152602001828054600181600116156101000203166002900480156131015780601f106130d657610100808354040283529160200191613101565b820191906000526020600020905b8154815290600101906020018083116130e457829003601f168201915b50505050508152602001600582018054600181600116156101000203166002900480601f0160208091040260200160405190810160405280929190818152602001828054600181600116156101000203166002900480156131a35780601f10613178576101008083540402835291602001916131a3565b820191906000526020600020905b81548152906001019060200180831161318657829003601f168201915b50505050508152602001600682018054600181600116156101000203166002900480601f0160208091040260200160405190810160405280929190818152602001828054600181600116156101000203166002900480156132455780601f1061321a57610100808354040283529160200191613245565b820191906000526020600020905b81548152906001019060200180831161322857829003601f168201915b50505050508152505090508c565b60008061325e615bf9565b60048481548110151561326d57fe5b9060005260206000209060210201600501604080519081016040529081600082015481526020016001820160009054906101000a900460ff1615151515815250509050806000015181602001519250925050915091565b600083600480549050101515156132da57600080fd5b6004848154811015156132e957fe5b90600052602060002090602102016005019050828160000181905550818160010160006101000a81548160ff021916908315150217905550837f50759aed2865c92fa25b2d56c4266d313b5bab4d705a8185d78fe3ec064be88082600001548360010160009054906101000a900460ff1660405180838152602001821515151581526020019250505060405180910390a250505050565b60028181548110151561338f57fe5b9060005260206000209060080201600091509050806000015490806001015490806002018054600181600116156101000203166002900480601f0160208091040260200160405190810160405280929190818152602001828054600181600116156101000203166002900480156134475780601f1061341c57610100808354040283529160200191613447565b820191906000526020600020905b81548152906001019060200180831161342a57829003601f168201915b505050505090806003018054600181600116156101000203166002900480601f0160208091040260200160405190810160405280929190818152602001828054600181600116156101000203166002900480156134e55780601f106134ba576101008083540402835291602001916134e5565b820191906000526020600020905b8154815290600101906020018083116134c857829003601f168201915b505050505090806004018054600181600116156101000203166002900480601f0160208091040260200160405190810160405280929190818152602001828054600181600116156101000203166002900480156135835780601f1061355857610100808354040283529160200191613583565b820191906000526020600020905b81548152906001019060200180831161356657829003601f168201915b505050505090806005018054600181600116156101000203166002900480601f0160208091040260200160405190810160405280929190818152602001828054600181600116156101000203166002900480156136215780601f106135f657610100808354040283529160200191613621565b820191906000526020600020905b81548152906001019060200180831161360457829003601f168201915b505050505090806006018054600181600116156101000203166002900480601f0160208091040260200160405190810160405280929190818152602001828054600181600116156101000203166002900480156136bf5780601f10613694576101008083540402835291602001916136bf565b820191906000526020600020905b8154815290600101906020018083116136a257829003601f168201915b5050505050905087565b600085600480549050101515156136df57600080fd5b84600380549050101515156136f357600080fd5b60048681548110151561370257fe5b9060005260206000209060210201600f019050848160000181905550838160010181905550828160020160006101000a81548160ff021916908315150217905550818160020160016101000a81548160ff0219169083151502179055508060000154867f6b665525252678512ff68f34c5ff302ca5974dd34c90b5abd4c325e73ab5e99883600101548460020160009054906101000a900460ff168560020160019054906101000a900460ff16604051808481526020018315151515815260200182151515158152602001935050505060405180910390a3505050505050565b6001818154811015156137f157fe5b9060005260206000209060040201600091509050806000015490806001018054600181600116156101000203166002900480601f0160208091040260200160405190810160405280929190818152602001828054600181600116156101000203166002900480156138a35780601f10613878576101008083540402835291602001916138a3565b820191906000526020600020905b81548152906001019060200180831161388657829003601f168201915b505050505090806002018054600181600116156101000203166002900480601f0160208091040260200160405190810160405280929190818152602001828054600181600116156101000203166002900480156139415780601f1061391657610100808354040283529160200191613941565b820191906000526020600020905b81548152906001019060200180831161392457829003601f168201915b5050505050905083565b6000856004805490501015151561396157600080fd5b846003805490501015151561397557600080fd5b60048681548110151561398457fe5b90600052602060002090602102016017019050848160000181905550838160010181905550828160020160006101000a81548160ff021916908315150217905550818160020160016101000a81548160ff0219169083151502179055508060000154867f78db1ab015e8e5fcbe361bd6f40e749792a738ed7c7512f0cbc37f3471b7bfe583600101548460020160009054906101000a900460ff168560020160019054906101000a900460ff16604051808481526020018315151515815260200182151515158152602001935050505060405180910390a3505050505050565b6000613a6e615d74565b8760018054905010151515613a8257600080fd5b613a8b87615a04565b158015613a9e5750613a9c86615a04565b155b8015613ab05750613aae85615a04565b155b8015613ac25750613ac083615a04565b155b1515613acd57600080fd5b6002805490509150610100604051908101604052808381526020018981526020018881526020018781526020018681526020018581526020018481526020016000604051908082528060200260200182016040528015613b3c5781602001602082028038833980820191505090505b5081525090506002819080600181540180825580915050906001820390600052602060002090600802016000909192909190915060008201518160000155602082015181600101556040820151816002019080519060200190613ba0929190615a7f565b506060820151816003019080519060200190613bbd929190615a7f565b506080820151816004019080519060200190613bda929190615a7f565b5060a0820151816005019080519060200190613bf7929190615a7f565b5060c0820151816006019080519060200190613c14929190615a7f565b5060e0820151816007019080519060200190613c31929190615aff565b50505050600188815481101515613c4457fe5b9060005260206000209060040201600301829080600181540180825580915050906001820390600052602060002001600090919290919091505550817fa7519119fc78e3a0264b7b028dd33232b5408d7f0ace427e1117397dfa1dbe1860405160405180910390a25050505050505050565b600080600080613cc4615c15565b600486815481101515613cd357fe5b90600052602060002090602102016007016080604051908101604052908160008201548152602001600182015481526020016002820160009054906101000a900460ff161515151581526020016002820160019054906101000a900460ff161515151581525050905080600001518160200151826040015183606001519450945094509450509193509193565b600080600060606000613d71615c42565b600487815481101515613d8057fe5b9060005260206000209060210201600a0160a0604051908101604052908160008201548152602001600182015481526020016002820160009054906101000a900460ff16151515158152602001600382018054600181600116156101000203166002900480601f016020809104026020016040519081016040528092919081815260200182805460018160011615610100020316600290048015613e655780601f10613e3a57610100808354040283529160200191613e65565b820191906000526020600020905b815481529060010190602001808311613e4857829003601f168201915b505050505081526020016004820160009054906101000a900460ff161515151581525050905080600001518160200151826040015183606001518460800151819150955095509550955095505091939590929450565b6060600282815481101515613ecc57fe5b9060005260206000209060080201600701805480602002602001604051908101604052809291908181526020018280548015613f2757602002820191906000526020600020905b815481526020019060010190808311613f13575b50505050509050919050565b6060600182815481101515613f4457fe5b9060005260206000209060040201600301805480602002602001604051908101604052809291908181526020018280548015613f9f57602002820191906000526020600020905b815481526020019060010190808311613f8b575b50505050509050919050565b60008660048054905010151515613fc157600080fd5b8560038054905010151515613fd557600080fd5b600487815481101515613fe457fe5b9060005260206000209060210201600a019050858160000181905550848160010181905550838160020160006101000a81548160ff0219169083151502179055508281600301908051906020019061403d929190615b79565b50818160040160006101000a81548160ff0219169083151502179055508060000154877fa7b9cc18e596407c4fd619fe0f3fd3aed3beee50d2fa7639f63d905e9ffa04ca83600101548460020160009054906101000a900460ff16856003018660040160009054906101000a900460ff16604051808581526020018415151515815260200180602001831515151581526020018281038252848181546001816001161561010002031660029004815260200191508054600181600116156101000203166002900480156141515780601f1061412657610100808354040283529160200191614151565b820191906000526020600020905b81548152906001019060200180831161413457829003601f168201915b50509550505050505060405180910390a350505050505050565b6000856004805490501015151561418157600080fd5b846003805490501015151561419557600080fd5b6004868154811015156141a457fe5b90600052602060002090602102016007019050848160000181905550838160010181905550828160020160006101000a81548160ff021916908315150217905550818160020160016101000a81548160ff0219169083151502179055508060000154867f91852224ee11cdfec047c63b37a9b1789535bfbbedd46ff0e7f77bb6deb3cdbc83600101548460020160009054906101000a900460ff168560020160019054906101000a900460ff16604051808481526020018315151515815260200182151515158152602001935050505060405180910390a3505050505050565b600061428e615dba565b61429787615a04565b1580156142aa57506142a888615a04565b155b80156142bc57506142ba86615a04565b155b80156142ce57506142cc85615a04565b155b80156142e057506142de84615a04565b155b80156142f257506142f083615a04565b155b15156142fd57600080fd5b600380549050915060e0604051908101604052808381526020018981526020018881526020018781526020018681526020018581526020018481525090506003819080600181540180825580915050906001820390600052602060002090600702016000909192909190915060008201518160000155602082015181600101908051906020019061438f929190615a7f565b5060408201518160020190805190602001906143ac929190615a7f565b5060608201518160030190805190602001906143c9929190615a7f565b5060808201518160040190805190602001906143e6929190615a7f565b5060a0820151816005019080519060200190614403929190615a7f565b5060c0820151816006019080519060200190614420929190615a7f565b50505050817f2d097a86d6a8c65f42bce20487ddbd77f36f93eda3d9ed0fed92928b32c72e4b60405160405180910390a25050505050505050565b6000866004805490501015151561447157600080fd5b856003805490501015151561448557600080fd5b60048781548110151561449457fe5b90600052602060002090602102016012019050858160000181905550848160010181905550828160030190805190602001906144d1929190615b79565b50838160020160006101000a81548160ff021916908315150217905550818160040160006101000a81548160ff0219169083151502179055508060000154877ff3cb98547b1f4a945ecf03a028c8de6a7ea694da3700a53576e47b016e97c6f383600101548460020160009054906101000a900460ff16856003018660040160009054906101000a900460ff16604051808581526020018415151515815260200180602001831515151581526020018281038252848181546001816001161561010002031660029004815260200191508054600181600116156101000203166002900480156146015780601f106145d657610100808354040283529160200191614601565b820191906000526020600020905b8154815290600101906020018083116145e457829003601f168201915b50509550505050505060405180910390a350505050505050565b600080600060608061462b615ce8565b60048781548110151561463a57fe5b90600052602060002090602102016101806040519081016040529081600082015481526020016001820154815260200160028201548152602001600382018054600181600116156101000203166002900480601f01602080910402602001604051908101604052809291908181526020018280546001816001161561010002031660029004801561470c5780601f106146e15761010080835404028352916020019161470c565b820191906000526020600020905b8154815290600101906020018083116146ef57829003601f168201915b50505050508152602001600482018054600181600116156101000203166002900480601f0160208091040260200160405190810160405280929190818152602001828054600181600116156101000203166002900480156147ae5780601f10614783576101008083540402835291602001916147ae565b820191906000526020600020905b81548152906001019060200180831161479157829003601f168201915b5050505050815260200160058201604080519081016040529081600082015481526020016001820160009054906101000a900460ff1615151515815250508152602001600782016080604051908101604052908160008201548152602001600182015481526020016002820160009054906101000a900460ff161515151581526020016002820160019054906101000a900460ff1615151515815250508152602001600a820160a0604051908101604052908160008201548152602001600182015481526020016002820160009054906101000a900460ff16151515158152602001600382018054600181600116156101000203166002900480601f0160208091040260200160405190810160405280929190818152602001828054600181600116156101000203166002900480156149285780601f106148fd57610100808354040283529160200191614928565b820191906000526020600020905b81548152906001019060200180831161490b57829003601f168201915b505050505081526020016004820160009054906101000a900460ff1615151515815250508152602001600f82016080604051908101604052908160008201548152602001600182015481526020016002820160009054906101000a900460ff161515151581526020016002820160019054906101000a900460ff16151515158152505081526020016012820160a0604051908101604052908160008201548152602001600182015481526020016002820160009054906101000a900460ff16151515158152602001600382018054600181600116156101000203166002900480601f016020809104026020016040519081016040528092919081815260200182805460018160011615610100020316600290048015614a885780601f10614a5d57610100808354040283529160200191614a88565b820191906000526020600020905b815481529060010190602001808311614a6b57829003601f168201915b505050505081526020016004820160009054906101000a900460ff1615151515815250508152602001601782016080604051908101604052908160008201548152602001600182015481526020016002820160009054906101000a900460ff161515151581526020016002820160019054906101000a900460ff1615151515815250508152602001601a820160e06040519081016040529081600082018054600181600116156101000203166002900480601f016020809104026020016040519081016040528092919081815260200182805460018160011615610100020316600290048015614bb95780601f10614b8e57610100808354040283529160200191614bb9565b820191906000526020600020905b815481529060010190602001808311614b9c57829003601f168201915b50505050508152602001600182018054600181600116156101000203166002900480601f016020809104026020016040519081016040528092919081815260200182805460018160011615610100020316600290048015614c5b5780601f10614c3057610100808354040283529160200191614c5b565b820191906000526020600020905b815481529060010190602001808311614c3e57829003601f168201915b50505050508152602001600282018054600181600116156101000203166002900480601f016020809104026020016040519081016040528092919081815260200182805460018160011615610100020316600290048015614cfd5780601f10614cd257610100808354040283529160200191614cfd565b820191906000526020600020905b815481529060010190602001808311614ce057829003601f168201915b50505050508152602001600382018054600181600116156101000203166002900480601f016020809104026020016040519081016040528092919081815260200182805460018160011615610100020316600290048015614d9f5780601f10614d7457610100808354040283529160200191614d9f565b820191906000526020600020905b815481529060010190602001808311614d8257829003601f168201915b50505050508152602001600482018054600181600116156101000203166002900480601f016020809104026020016040519081016040528092919081815260200182805460018160011615610100020316600290048015614e415780601f10614e1657610100808354040283529160200191614e41565b820191906000526020600020905b815481529060010190602001808311614e2457829003601f168201915b50505050508152602001600582018054600181600116156101000203166002900480601f016020809104026020016040519081016040528092919081815260200182805460018160011615610100020316600290048015614ee35780601f10614eb857610100808354040283529160200191614ee3565b820191906000526020600020905b815481529060010190602001808311614ec657829003601f168201915b50505050508152602001600682018054600181600116156101000203166002900480601f016020809104026020016040519081016040528092919081815260200182805460018160011615610100020316600290048015614f855780601f10614f5a57610100808354040283529160200191614f85565b820191906000526020600020905b815481529060010190602001808311614f6857829003601f168201915b50505050508152505081525050905080600001518160200151826040015183606001518460800151819150809050955095509550955095505091939590929450565b600080600060606000614fd8615c76565b600487815481101515614fe757fe5b906000526020600020906021020160120160a0604051908101604052908160008201548152602001600182015481526020016002820160009054906101000a900460ff16151515158152602001600382018054600181600116156101000203166002900480601f0160208091040260200160405190810160405280929190818152602001828054600181600116156101000203166002900480156150cc5780601f106150a1576101008083540402835291602001916150cc565b820191906000526020600020905b8154815290600101906020018083116150af57829003601f168201915b505050505081526020016004820160009054906101000a900460ff161515151581525050905080600001518160200151826040015183606001518460800151819150955095509550955095505091939590929450565b60038181548110151561513157fe5b9060005260206000209060070201600091509050806000015490806001018054600181600116156101000203166002900480601f0160208091040260200160405190810160405280929190818152602001828054600181600116156101000203166002900480156151e35780601f106151b8576101008083540402835291602001916151e3565b820191906000526020600020905b8154815290600101906020018083116151c657829003601f168201915b505050505090806002018054600181600116156101000203166002900480601f0160208091040260200160405190810160405280929190818152602001828054600181600116156101000203166002900480156152815780601f1061525657610100808354040283529160200191615281565b820191906000526020600020905b81548152906001019060200180831161526457829003601f168201915b505050505090806003018054600181600116156101000203166002900480601f01602080910402602001604051908101604052809291908181526020018280546001816001161561010002031660029004801561531f5780601f106152f45761010080835404028352916020019161531f565b820191906000526020600020905b81548152906001019060200180831161530257829003601f168201915b505050505090806004018054600181600116156101000203166002900480601f0160208091040260200160405190810160405280929190818152602001828054600181600116156101000203166002900480156153bd5780601f10615392576101008083540402835291602001916153bd565b820191906000526020600020905b8154815290600101906020018083116153a057829003601f168201915b505050505090806005018054600181600116156101000203166002900480601f01602080910402602001604051908101604052809291908181526020018280546001816001161561010002031660029004801561545b5780601f106154305761010080835404028352916020019161545b565b820191906000526020600020905b81548152906001019060200180831161543e57829003601f168201915b505050505090806006018054600181600116156101000203166002900480601f0160208091040260200160405190810160405280929190818152602001828054600181600116156101000203166002900480156154f95780601f106154ce576101008083540402835291602001916154f9565b820191906000526020600020905b8154815290600101906020018083116154dc57829003601f168201915b5050505050905087565b6060806060806060806060615516615caa565b60048981548110151561552557fe5b9060005260206000209060210201601a0160e06040519081016040529081600082018054600181600116156101000203166002900480601f0160208091040260200160405190810160405280929190818152602001828054600181600116156101000203166002900480156155db5780601f106155b0576101008083540402835291602001916155db565b820191906000526020600020905b8154815290600101906020018083116155be57829003601f168201915b50505050508152602001600182018054600181600116156101000203166002900480601f01602080910402602001604051908101604052809291908181526020018280546001816001161561010002031660029004801561567d5780601f106156525761010080835404028352916020019161567d565b820191906000526020600020905b81548152906001019060200180831161566057829003601f168201915b50505050508152602001600282018054600181600116156101000203166002900480601f01602080910402602001604051908101604052809291908181526020018280546001816001161561010002031660029004801561571f5780601f106156f45761010080835404028352916020019161571f565b820191906000526020600020905b81548152906001019060200180831161570257829003601f168201915b50505050508152602001600382018054600181600116156101000203166002900480601f0160208091040260200160405190810160405280929190818152602001828054600181600116156101000203166002900480156157c15780601f10615796576101008083540402835291602001916157c1565b820191906000526020600020905b8154815290600101906020018083116157a457829003601f168201915b50505050508152602001600482018054600181600116156101000203166002900480601f0160208091040260200160405190810160405280929190818152602001828054600181600116156101000203166002900480156158635780601f1061583857610100808354040283529160200191615863565b820191906000526020600020905b81548152906001019060200180831161584657829003601f168201915b50505050508152602001600582018054600181600116156101000203166002900480601f0160208091040260200160405190810160405280929190818152602001828054600181600116156101000203166002900480156159055780601f106158da57610100808354040283529160200191615905565b820191906000526020600020905b8154815290600101906020018083116158e857829003601f168201915b50505050508152602001600682018054600181600116156101000203166002900480601f0160208091040260200160405190810160405280929190818152602001828054600181600116156101000203166002900480156159a75780601f1061597c576101008083540402835291602001916159a7565b820191906000526020600020905b81548152906001019060200180831161598a57829003601f168201915b5050505050815250509050806000015181602001518260400151836060015184608001518560a001518660c00151869650859550849450839350829250819150809050975097509750975097509750975050919395979092949650565b60006060829050600081511415615a1e5760019150615a23565b600091505b50919050565b60806040519081016040528060008152602001600081526020016000151581526020016000151581525090565b608060405190810160405280600081526020016060815260200160608152602001606081525090565b828054600181600116156101000203166002900490600052602060002090601f016020900481019282601f10615ac057805160ff1916838001178555615aee565b82800160010185558215615aee579182015b82811115615aed578251825591602001919060010190615ad2565b5b509050615afb9190615df8565b5090565b828054828255906000526020600020908101928215615b3b579160200282015b82811115615b3a578251825591602001919060010190615b1f565b5b509050615b489190615df8565b5090565b60806040519081016040528060008152602001600081526020016000151581526020016000151581525090565b828054600181600116156101000203166002900490600052602060002090601f016020900481019282601f10615bba57805160ff1916838001178555615be8565b82800160010185558215615be8579182015b82811115615be7578251825591602001919060010190615bcc565b5b509050615bf59190615df8565b5090565b6040805190810160405280600081526020016000151581525090565b60806040519081016040528060008152602001600081526020016000151581526020016000151581525090565b60a0604051908101604052806000815260200160008152602001600015158152602001606081526020016000151581525090565b60a0604051908101604052806000815260200160008152602001600015158152602001606081526020016000151581525090565b60e060405190810160405280606081526020016060815260200160608152602001606081526020016060815260200160608152602001606081525090565b610480604051908101604052806000815260200160008152602001600081526020016060815260200160608152602001615d20615e1d565b8152602001615d2d615e39565b8152602001615d3a615e66565b8152602001615d47615e9a565b8152602001615d54615ec7565b8152602001615d61615efb565b8152602001615d6e615f28565b81525090565b6101006040519081016040528060008152602001600081526020016060815260200160608152602001606081526020016060815260200160608152602001606081525090565b60e060405190810160405280600081526020016060815260200160608152602001606081526020016060815260200160608152602001606081525090565b615e1a91905b80821115615e16576000816000905550600101615dfe565b5090565b90565b6040805190810160405280600081526020016000151581525090565b60806040519081016040528060008152602001600081526020016000151581526020016000151581525090565b60a0604051908101604052806000815260200160008152602001600015158152602001606081526020016000151581525090565b60806040519081016040528060008152602001600081526020016000151581526020016000151581525090565b60a0604051908101604052806000815260200160008152602001600015158152602001606081526020016000151581525090565b60806040519081016040528060008152602001600081526020016000151581526020016000151581525090565b60e0604051908101604052806060815260200160608152602001606081526020016060815260200160608152602001606081526020016060815250905600a165627a7a72305820e27c5101c2dcef7a8db2044b54f7633aab335d1b6bf82462134ec126ab2876030029",
  "source": "pragma solidity ^0.4.23;\n\ncontract AffogatoNetwork {\n  //Initialice the contract\n\n  address admin;\n\n  //Actors, Owners\n  struct Producer{\n    uint256 id;\n    string producerName;\n    string history;\n    uint256[] farms; //IDs of ownerd farms\n  }\n\n  struct Processor{\n    uint256 id;\n    string name;\n    string typeOfProcessor; //Beneficio, Cooperativa, Finca\n    string village;\n    string municipality;\n    string department;\n    string country;\n  }\n\n  struct Farm{\n    uint256 id;\n    uint256 producerId;\n    string farmName;\n    string village;\n    string municipality;\n    string department;\n    string country;\n    uint256[] coffeeBatches; //IDs of Coffee Batches\n  }\n\n  //Coffee Process\n  struct Cut{\n    uint256 finalBatchSize; \n    bool isProcessComplete;\n    //Sell price - Cereza\n  }\n\n  struct Depulped{\n    uint256 processorId;\n    uint256 finalBatchSize;\n    bool isProcessedByFarm; \n    bool isProcessComplete;\n  }\n\n  struct Fermented{\n    uint256 processorId;\n    uint256 finalBatchSize;\n    bool isProcessedByFarm;\n    string typeOfFermented;\n    bool isProcessComplete;\n  }\n\n  struct Washed{\n    uint256 processorId;\n    uint256 finalBatchSize;\n    bool isProcessedByFarm;\n    bool isProcessComplete;\n    //Sell Price - Humedo\n  }\n\n  struct Drying{\n    uint256 processorId;\n    uint256 finalBatchSize;\n    bool isProcessedByFarm;\n    string typeOfDrying;\n    bool isProcessComplete;\n    //Sell Price - Pergamino Seco\n  }\n\n  struct Trite{\n    uint256 processorId;\n    uint256 finalBatchSize;\n    bool isProcessedByFarm;\n    bool isProcessComplete;\n    //Sell Price - Oro\n  }\n\n  struct CupProfile{\n    string frangance;\n    string flavor;\n    string acidity;\n    string body;\n    string cuppingNote;\n    string defects;\n    string grainSize;\n  }\n\n  // End of Coffee Process\n\n  struct CoffeeBatch {\n    uint256 id;\n    uint256 farmId;\n    uint256 altitude;\n    string process;\n    string variety;\n    Cut cut;\n    Depulped depulped;\n    Fermented fermented;\n    Washed washed;\n    Drying drying;\n    Trite trite;\n    CupProfile cupProfile;\n  }\n\n  Producer[] public producers;\n  Farm[] public farms;\n  Processor[] public processors;\n  CoffeeBatch[] public coffeeBatches;\n \n\n  //Event Definition\n  event AddProducer(uint256 indexed _id);\n  event AddFarm(uint256 indexed _id);\n  event AddCoffeeBatch(uint256 indexed _id);\n  event AddProcessor(uint256 indexed _id);\n  event UpdateCoffeeBatchCut(uint256 indexed _batchId, uint256 _finalBatchSize, bool _isProcessComplete);\n  event UpdateCoffeeBatchDepulped(uint256 indexed _batchId, uint256 indexed _processorId, uint256 _finalBatchSize, bool _isProcessedByFarm, bool _isProcessComplete);\n  event UpdateCoffeeBatchFermented(uint256 indexed _batchId, uint256 indexed _processorId, uint256 _finalBatchSize, bool _isProcessedByFarm, string _typeOfFermented, bool _isProcessComplete);\n  event UpdateCoffeeBatchWashed(uint256 indexed _batchId, uint256 indexed _processorId, uint256 _finalBatchSize, bool _isProcessedByFarm, bool _isProcessComplete);\n  event UpdateCoffeeBatchDrying(uint256 indexed _batchId, uint256 indexed _processorId, uint256 _finalBatchSize, bool _isProcessedByFarm, string _typeOfDrying, bool _isProcessComplete);\n  event UpdateCoffeeBatchTrite(uint256 indexed _batchId, uint256 indexed _processorId, uint256 _finalBatchSize, bool _isProcessedByFarm, bool _isProcessComplete);\n  event UpdateCupProfile(uint256 indexed _batchId, string _frangance, string _flavor, string _acidity, string _body, string _cuppingNote, string _defects, string _grainSize);\n\n  //Constructor, initialices the values\n  constructor() public{\n    admin = msg.sender;\n  }\n\n  //Inserts Producer and emits AddProducer event\n  function addProducer(string _producerName, string _history) public {\n    require(!isEmpty(_producerName) && !isEmpty(_history));\n    uint currentId = producers.length;\n    Producer memory producer = Producer(currentId, _producerName,_history, new uint[](0)); \n    producers.push(producer);  \n    emit AddProducer(currentId);\n  }\n\n  //Inserts Farm and emits AddFarm event\n  function addProcessor(\n    string _name,\n    string _typeOfProcessor,\n    string _village,\n    string _municipality,\n    string _department,\n    string _country\n  ) public {\n    require(!isEmpty(_typeOfProcessor) && !isEmpty(_name) && !isEmpty(_village) && !isEmpty(_municipality) && !isEmpty(_department) && !isEmpty(_country));\n    uint currentId = processors.length;\n    Processor memory processor = Processor(currentId, _name, _typeOfProcessor, _village, _municipality, _department, _country); \n    processors.push(processor);  \n    emit AddProcessor(currentId);\n  }\n\n  //Inserts Batch of coffee, updates farm batches and emits AddCoffeeBatch event\n  function addCoffeeBatch(\n    uint256 _farmId,\n    uint256 _altitude,\n    string _process,\n    string _variety\n  ) public {\n\n    require(farms.length >= _farmId);\n    require(!isEmpty(_process) && !isEmpty(_variety));\n\n    uint currentId = coffeeBatches.length;\n    \n    //initialices empty structs\n    Cut memory cut = Cut(0,false);\n    Depulped memory depulped = Depulped(0,0,false,false);\n    Fermented memory fermented = Fermented(0,0,false,\"\",false);\n    Washed memory washed = Washed(0,0,false,false);\n    Drying memory drying = Drying(0,0,false,\"\",false);\n    Trite memory trite = Trite(0,0,false,false);\n    CupProfile memory cupProfile = CupProfile(\"\",\"\",\"\",\"\",\"\",\"\",\"\");\n    CoffeeBatch memory coffeeBatch = CoffeeBatch(currentId, _farmId, _altitude, _process, _variety, cut, depulped, fermented, washed, drying,trite,cupProfile);\n    coffeeBatches.push(coffeeBatch);\n    farms[_farmId].coffeeBatches.push(currentId);\n    emit AddCoffeeBatch(currentId);\n  }\n\n  function getCoffeeBatchInfo(uint _index) public constant \n  returns(uint256,uint256,uint256,string,string) {\n      CoffeeBatch memory coffeeBatch = coffeeBatches[_index];\n      return( coffeeBatch.id,\n              coffeeBatch.farmId, \n              coffeeBatch.altitude, \n              coffeeBatch.process, \n              coffeeBatch.variety\n      );\n  }\n\n  function getCoffeeBatchCut(uint _index) public constant \n  returns(uint256,bool) {\n      Cut memory cut = coffeeBatches[_index].cut;\n      return( cut.finalBatchSize, \n              cut.isProcessComplete\n      );\n  }\n\n  function updateCoffeeBatchCut(uint _index, uint256 _finalBatchSize, bool _isProcessComplete) public { \n      require(coffeeBatches.length >= _index);\n\n      Cut storage cut = coffeeBatches[_index].cut;\n      cut.finalBatchSize = _finalBatchSize;\n      cut.isProcessComplete = _isProcessComplete;\n      emit UpdateCoffeeBatchCut(_index,cut.finalBatchSize,cut.isProcessComplete);\n  }\n\n  function getCoffeeBatchDepulped(uint _index) public constant \n  returns(uint256,uint256,bool,bool) {\n      Depulped memory depulped = coffeeBatches[_index].depulped;\n      return( depulped.processorId, \n              depulped.finalBatchSize, \n              depulped.isProcessedByFarm, \n              depulped.isProcessComplete\n      );\n  }\n\n  function updateCoffeeBatchDepulped(uint _index, uint _processorId, uint256 _finalBatchSize, bool _isProcessedByFarm, bool _isProcessComplete) public { \n      require(coffeeBatches.length >= _index);\n      require(processors.length >= _processorId);\n\n      Depulped storage depulped = coffeeBatches[_index].depulped;\n      depulped.processorId = _processorId;\n      depulped.finalBatchSize = _finalBatchSize;\n      depulped.isProcessedByFarm = _isProcessedByFarm;\n      depulped.isProcessComplete = _isProcessComplete;\n\n      emit UpdateCoffeeBatchDepulped(_index,depulped.processorId,depulped.finalBatchSize,depulped.isProcessedByFarm,depulped.isProcessComplete);\n  }\n\n  function getCoffeeBatchFermented(uint _index) public constant \n  returns(uint256,uint256,bool,string,bool) {\n      Fermented memory fermented = coffeeBatches[_index].fermented;\n      return( fermented.processorId, \n              fermented.finalBatchSize, \n              fermented.isProcessedByFarm, \n              fermented.typeOfFermented,\n              fermented.isProcessComplete\n      );\n  }\n\n  function updateCoffeeBatchFermented(uint _index, uint _processorId, uint256 _finalBatchSize, bool _isProcessedByFarm, string _typeOfFermented, bool _isProcessComplete) public { \n      require(coffeeBatches.length >= _index);\n      require(processors.length >= _processorId);\n\n      Fermented storage fermented = coffeeBatches[_index].fermented;\n      fermented.processorId = _processorId;\n      fermented.finalBatchSize = _finalBatchSize;\n      fermented.isProcessedByFarm = _isProcessedByFarm;\n      fermented.typeOfFermented = _typeOfFermented;\n      fermented.isProcessComplete = _isProcessComplete;\n\n      emit UpdateCoffeeBatchFermented(_index,fermented.processorId,fermented.finalBatchSize,fermented.isProcessedByFarm, fermented.typeOfFermented,fermented.isProcessComplete);\n  }\n\n  function getCoffeeBatchWashed(uint _index) public constant \n  returns(uint256,uint256,bool,bool) {\n      Washed memory washed = coffeeBatches[_index].washed;\n      return( washed.processorId, \n              washed.finalBatchSize, \n              washed.isProcessedByFarm, \n              washed.isProcessComplete\n      );\n  }\n\n  function updateCoffeeBatchWashed(uint _index, uint _processorId, uint256 _finalBatchSize, bool _isProcessedByFarm, bool _isProcessComplete) public { \n      require(coffeeBatches.length >= _index);\n      require(processors.length >= _processorId);\n\n      Washed storage washed = coffeeBatches[_index].washed;\n      washed.processorId = _processorId;\n      washed.finalBatchSize = _finalBatchSize;\n      washed.isProcessedByFarm = _isProcessedByFarm;\n      washed.isProcessComplete = _isProcessComplete;\n\n      emit UpdateCoffeeBatchWashed(_index, washed.processorId, washed.finalBatchSize, washed.isProcessedByFarm, washed.isProcessComplete);\n  }\n\n  function getCoffeeBatchDrying(uint _index) public constant \n  returns(uint256,uint256,bool,string,bool) {\n      Drying memory drying = coffeeBatches[_index].drying;\n      return( drying.processorId, \n              drying.finalBatchSize, \n              drying.isProcessedByFarm, \n              drying.typeOfDrying,\n              drying.isProcessComplete\n      );\n  }\n\n  function updateCoffeeBatchDrying(uint _index, uint _processorId, uint256 _finalBatchSize, bool _isProcessedByFarm, string _typeOfDrying, bool _isProcessComplete) public { \n      require(coffeeBatches.length >= _index);\n      require(processors.length >= _processorId);\n\n      Drying storage drying = coffeeBatches[_index].drying;\n      drying.processorId = _processorId;\n      drying.finalBatchSize = _finalBatchSize;\n      drying.typeOfDrying = _typeOfDrying;\n      drying.isProcessedByFarm = _isProcessedByFarm;\n      drying.isProcessComplete = _isProcessComplete;\n\n      emit UpdateCoffeeBatchDrying(_index, drying.processorId, drying.finalBatchSize, drying.isProcessedByFarm, drying.typeOfDrying, drying.isProcessComplete);\n  }\n\n  function getCoffeeBatchTrite(uint _index) public constant \n  returns(uint256,uint256,bool,bool) {\n      Trite memory trite = coffeeBatches[_index].trite;\n      return( trite.processorId, \n              trite.finalBatchSize, \n              trite.isProcessedByFarm, \n              trite.isProcessComplete\n      );\n  }\n\n  function updateCoffeeBatchTrite(uint _index, uint _processorId, uint256 _finalBatchSize, bool _isProcessedByFarm, bool _isProcessComplete) public { \n      require(coffeeBatches.length >= _index);\n      require(processors.length >= _processorId);\n\n      Trite storage trite = coffeeBatches[_index].trite;\n      trite.processorId = _processorId;\n      trite.finalBatchSize = _finalBatchSize;\n      trite.isProcessedByFarm = _isProcessedByFarm;\n      trite.isProcessComplete = _isProcessComplete;\n\n      emit UpdateCoffeeBatchTrite(_index, trite.processorId, trite.finalBatchSize, trite.isProcessedByFarm, trite.isProcessComplete);\n  }\n\n  function getCupProfile(uint _index) public constant \n  returns(string,string,string,string,string,string,string) {\n      CupProfile memory cupProfile = coffeeBatches[_index].cupProfile;\n      return (cupProfile.frangance,\n              cupProfile.flavor,\n              cupProfile.acidity,\n              cupProfile.body,\n              cupProfile.cuppingNote,\n              cupProfile.defects,\n              cupProfile.grainSize\n      );\n  }\n\n  function updateCupProfile(\n    uint _index,\n    string _frangance, \n    string _flavor, \n    string _acidity, \n    string _body, \n    string _cuppingNote, \n    string _defects, \n    string _grainSize\n  ) public { \n      require(coffeeBatches.length >= _index);\n\n      CupProfile storage cupProfile = coffeeBatches[_index].cupProfile;\n      cupProfile.frangance = _frangance;\n      cupProfile.flavor = _flavor;\n      cupProfile.acidity = _acidity;\n      cupProfile.body = _body;\n      cupProfile.cuppingNote = _cuppingNote;\n      cupProfile.defects = _defects;\n      cupProfile.grainSize = _grainSize;\n\n      emit UpdateCupProfile(_index, cupProfile.frangance, cupProfile.flavor, cupProfile.acidity, cupProfile.body, cupProfile.cuppingNote, cupProfile.defects, cupProfile.grainSize);\n  }\n\n  //Inserts Farm and emits AddFarm event\n  function addFarm(\n    uint _producerId,\n    string _farmName,\n    string _village,\n    string _municipality,\n    string _department,\n    string _country\n  ) public {\n    require(producers.length >= _producerId);\n    require(!isEmpty(_farmName) && !isEmpty(_village) && !isEmpty(_municipality) && !isEmpty(_country));\n\n    uint currentId = farms.length;\n    Farm memory farm = Farm(currentId, _producerId, _farmName, _village, _municipality, _department, _country, new uint[](0)); \n    farms.push(farm);  \n    producers[_producerId].farms.push(currentId);\n\n    emit AddFarm(currentId);\n  }\n\n  //Gets Producer Farms \n  function getProducerFarms(uint256 _index) public view returns (uint256[]) {\n      return producers[_index].farms;\n  }\n\n  //Gets farm batches\n  function getFarmBatches(uint256 _index) public view returns (uint256[]) {\n      return farms[_index].coffeeBatches;\n  }\n\n\n  function isEmpty(string _empty) internal pure returns (bool){\n    bytes memory tempEmptyString = bytes(_empty); // Uses memory\n    if (tempEmptyString.length == 0) {\n        return true;\n    } else {\n        return false;\n    }\n  }\n}",
  "sourcePath": "/Users/crisgarner/Projects/affogato/contracts/AffogatoNetwork.sol",
  "compiler": {
    "name": "solc",
    "version": "0.4.23+commit.124ca40d.Emscripten.clang"
  },
  "schemaVersion": "2.0.0",
  "updatedAt": "2018-06-12T21:59:02.869Z"
}