{
  "contractName": "CertificateFactory",
  "abi": [
    {
      "constant": true,
      "inputs": [
        {
          "name": "",
          "type": "address"
        },
        {
          "name": "",
          "type": "uint256"
        }
      ],
      "name": "actorToCertificates",
      "outputs": [
        {
          "name": "",
          "type": "uint256"
        }
      ],
      "payable": false,
      "stateMutability": "view",
      "type": "function"
    },
    {
      "constant": true,
      "inputs": [
        {
          "name": "",
          "type": "uint256"
        }
      ],
      "name": "certificates",
      "outputs": [
        {
          "name": "uid",
          "type": "uint256"
        },
        {
          "name": "name",
          "type": "bytes32"
        },
        {
          "name": "imageHash",
          "type": "string"
        },
        {
          "name": "description",
          "type": "string"
        },
        {
          "name": "additionalInformation",
          "type": "string"
        }
      ],
      "payable": false,
      "stateMutability": "view",
      "type": "function"
    },
    {
      "constant": true,
      "inputs": [
        {
          "name": "",
          "type": "uint256"
        },
        {
          "name": "",
          "type": "uint256"
        }
      ],
      "name": "coffeeBatchToCertificates",
      "outputs": [
        {
          "name": "",
          "type": "uint256"
        }
      ],
      "payable": false,
      "stateMutability": "view",
      "type": "function"
    },
    {
      "inputs": [
        {
          "name": "_actorAddress",
          "type": "address"
        }
      ],
      "payable": false,
      "stateMutability": "nonpayable",
      "type": "constructor"
    },
    {
      "anonymous": false,
      "inputs": [
        {
          "indexed": true,
          "name": "_id",
          "type": "uint256"
        },
        {
          "indexed": false,
          "name": "_certifierAddress",
          "type": "address"
        },
        {
          "indexed": false,
          "name": "_name",
          "type": "bytes32"
        },
        {
          "indexed": false,
          "name": "_imageHash",
          "type": "string"
        },
        {
          "indexed": false,
          "name": "_description",
          "type": "string"
        },
        {
          "indexed": false,
          "name": "_additionalInformation",
          "type": "string"
        }
      ],
      "name": "LogAddCertificate",
      "type": "event"
    },
    {
      "anonymous": false,
      "inputs": [
        {
          "indexed": false,
          "name": "_ownerAddress",
          "type": "address"
        },
        {
          "indexed": false,
          "name": "_certifierAddress",
          "type": "address"
        },
        {
          "indexed": false,
          "name": "_coffeeBatchId",
          "type": "uint256"
        },
        {
          "indexed": false,
          "name": "_certificateId",
          "type": "uint256"
        }
      ],
      "name": "LogAssignCertificate",
      "type": "event"
    },
    {
      "constant": true,
      "inputs": [
        {
          "name": "_certifier",
          "type": "address"
        }
      ],
      "name": "getCertifierCertificateCount",
      "outputs": [
        {
          "name": "",
          "type": "uint256"
        }
      ],
      "payable": false,
      "stateMutability": "view",
      "type": "function"
    },
    {
      "constant": true,
      "inputs": [
        {
          "name": "_certificateId",
          "type": "uint256"
        }
      ],
      "name": "getCertificateById",
      "outputs": [
        {
          "name": "",
          "type": "uint256"
        },
        {
          "name": "",
          "type": "bytes32"
        },
        {
          "name": "",
          "type": "string"
        },
        {
          "name": "",
          "type": "string"
        },
        {
          "name": "",
          "type": "string"
        }
      ],
      "payable": false,
      "stateMutability": "view",
      "type": "function"
    },
    {
      "constant": false,
      "inputs": [
        {
          "name": "_name",
          "type": "bytes32"
        },
        {
          "name": "_imageHash",
          "type": "string"
        },
        {
          "name": "_description",
          "type": "string"
        },
        {
          "name": "_additionalInformation",
          "type": "string"
        }
      ],
      "name": "addCertificate",
      "outputs": [],
      "payable": false,
      "stateMutability": "nonpayable",
      "type": "function"
    },
    {
      "constant": false,
      "inputs": [
        {
          "name": "_owner",
          "type": "address"
        },
        {
          "name": "_coffeeBatchId",
          "type": "uint256"
        },
        {
          "name": "_certificateId",
          "type": "uint256"
        }
      ],
      "name": "assignCertificate",
      "outputs": [],
      "payable": false,
      "stateMutability": "nonpayable",
      "type": "function"
    }
  ],
  "bytecode": "0x6080604052600160045534801561001557600080fd5b506040516020806111ce83398101806040528101908080519060200190929190505050806000806101000a81548173ffffffffffffffffffffffffffffffffffffffff021916908373ffffffffffffffffffffffffffffffffffffffff16021790555050611146806100886000396000f300608060405260043610610083576000357c0100000000000000000000000000000000000000000000000000000000900463ffffffff1680630e3a7db8146100885780633c992be6146100e9578063663b3e22146101405780636c83af5e146102d45780639d735caf1461031f578063a7472f11146104b3578063aa11b60b1461050a575b600080fd5b34801561009457600080fd5b506100d3600480360381019080803573ffffffffffffffffffffffffffffffffffffffff1690602001909291908035906020019092919050505061060d565b6040518082815260200191505060405180910390f35b3480156100f557600080fd5b5061012a600480360381019080803573ffffffffffffffffffffffffffffffffffffffff16906020019092919050505061063d565b6040518082815260200191505060405180910390f35b34801561014c57600080fd5b5061016b60048036038101908080359060200190929190505050610689565b604051808681526020018560001916600019168152602001806020018060200180602001848103845287818151815260200191508051906020019080838360005b838110156101c75780820151818401526020810190506101ac565b50505050905090810190601f1680156101f45780820380516001836020036101000a031916815260200191505b50848103835286818151815260200191508051906020019080838360005b8381101561022d578082015181840152602081019050610212565b50505050905090810190601f16801561025a5780820380516001836020036101000a031916815260200191505b50848103825285818151815260200191508051906020019080838360005b83811015610293578082015181840152602081019050610278565b50505050905090810190601f1680156102c05780820380516001836020036101000a031916815260200191505b509850505050505050505060405180910390f35b3480156102e057600080fd5b506103096004803603810190808035906020019092919080359060200190929190505050610887565b6040518082815260200191505060405180910390f35b34801561032b57600080fd5b5061034a600480360381019080803590602001909291905050506108b7565b604051808681526020018560001916600019168152602001806020018060200180602001848103845287818151815260200191508051906020019080838360005b838110156103a657808201518184015260208101905061038b565b50505050905090810190601f1680156103d35780820380516001836020036101000a031916815260200191505b50848103835286818151815260200191508051906020019080838360005b8381101561040c5780820151818401526020810190506103f1565b50505050905090810190601f1680156104395780820380516001836020036101000a031916815260200191505b50848103825285818151815260200191508051906020019080838360005b83811015610472578082015181840152602081019050610457565b50505050905090810190601f16801561049f5780820380516001836020036101000a031916815260200191505b509850505050505050505060405180910390f35b3480156104bf57600080fd5b50610508600480360381019080803573ffffffffffffffffffffffffffffffffffffffff1690602001909291908035906020019092919080359060200190929190505050610b20565b005b34801561051657600080fd5b5061060b6004803603810190808035600019169060200190929190803590602001908201803590602001908080601f0160208091040260200160405190810160405280939291908181526020018383808284378201915050505050509192919290803590602001908201803590602001908080601f0160208091040260200160405190810160405280939291908181526020018383808284378201915050505050509192919290803590602001908201803590602001908080601f0160208091040260200160405190810160405280939291908181526020018383808284378201915050505050509192919290505050610d3f565b005b60016020528160005260406000208181548110151561062857fe5b90600052602060002001600091509150505481565b6000600160008373ffffffffffffffffffffffffffffffffffffffff1673ffffffffffffffffffffffffffffffffffffffff168152602001908152602001600020805490509050919050565b6003602052806000526040600020600091509050806000015490806001015490806002018054600181600116156101000203166002900480601f0160208091040260200160405190810160405280929190818152602001828054600181600116156101000203166002900480156107415780601f1061071657610100808354040283529160200191610741565b820191906000526020600020905b81548152906001019060200180831161072457829003601f168201915b505050505090806003018054600181600116156101000203166002900480601f0160208091040260200160405190810160405280929190818152602001828054600181600116156101000203166002900480156107df5780601f106107b4576101008083540402835291602001916107df565b820191906000526020600020905b8154815290600101906020018083116107c257829003601f168201915b505050505090806004018054600181600116156101000203166002900480601f01602080910402602001604051908101604052809291908181526020018280546001816001161561010002031660029004801561087d5780601f106108525761010080835404028352916020019161087d565b820191906000526020600020905b81548152906001019060200180831161086057829003601f168201915b5050505050905085565b6002602052816000526040600020818154811015156108a257fe5b90600052602060002001600091509150505481565b60008060608060606108c7611042565b6003600088815260200190815260200160002060a0604051908101604052908160008201548152602001600182015460001916600019168152602001600282018054600181600116156101000203166002900480601f01602080910402602001604051908101604052809291908181526020018280546001816001161561010002031660029004801561099b5780601f106109705761010080835404028352916020019161099b565b820191906000526020600020905b81548152906001019060200180831161097e57829003601f168201915b50505050508152602001600382018054600181600116156101000203166002900480601f016020809104026020016040519081016040528092919081815260200182805460018160011615610100020316600290048015610a3d5780601f10610a1257610100808354040283529160200191610a3d565b820191906000526020600020905b815481529060010190602001808311610a2057829003601f168201915b50505050508152602001600482018054600181600116156101000203166002900480601f016020809104026020016040519081016040528092919081815260200182805460018160011615610100020316600290048015610adf5780601f10610ab457610100808354040283529160200191610adf565b820191906000526020600020905b815481529060010190602001808311610ac257829003601f168201915b505050505081525050905080600001518160200151826040015183606001518460800151829250819150809050955095509550955095505091939590929450565b6000809054906101000a900473ffffffffffffffffffffffffffffffffffffffff1673ffffffffffffffffffffffffffffffffffffffff1663a165437984336040518363ffffffff167c0100000000000000000000000000000000000000000000000000000000028152600401808373ffffffffffffffffffffffffffffffffffffffff1673ffffffffffffffffffffffffffffffffffffffff1681526020018273ffffffffffffffffffffffffffffffffffffffff1673ffffffffffffffffffffffffffffffffffffffff16815260200192505050602060405180830381600087803b158015610c1057600080fd5b505af1158015610c24573d6000803e3d6000fd5b505050506040513d6020811015610c3a57600080fd5b81019080805190602001909291905050501515610c5657600080fd5b600260008381526020019081526020016000208190806001815401808255809150509060018203906000526020600020016000909192909190915055507fbc8258cddc647771b60213e7f91eb27f55113c4f17a0489a603d084c0648869c83338484604051808573ffffffffffffffffffffffffffffffffffffffff1673ffffffffffffffffffffffffffffffffffffffff1681526020018473ffffffffffffffffffffffffffffffffffffffff1673ffffffffffffffffffffffffffffffffffffffff16815260200183815260200182815260200194505050505060405180910390a1505050565b6000610d49611042565b600454915060a06040519081016040528083815260200187600019168152602001868152602001858152602001848152509050600160003373ffffffffffffffffffffffffffffffffffffffff1673ffffffffffffffffffffffffffffffffffffffff168152602001908152602001600020829080600181540180825580915050906001820390600052602060002001600090919290919091505550806003600084815260200190815260200160002060008201518160000155602082015181600101906000191690556040820151816002019080519060200190610e2f929190611075565b506060820151816003019080519060200190610e4c929190611075565b506080820151816004019080519060200190610e69929190611075565b50905050600460008154809291906001019190505550817f1c0301de5558dec00629290b8c99777b715c30ed012dfbf0db1fbe20281e31093388888888604051808673ffffffffffffffffffffffffffffffffffffffff1673ffffffffffffffffffffffffffffffffffffffff1681526020018560001916600019168152602001806020018060200180602001848103845287818151815260200191508051906020019080838360005b83811015610f2e578082015181840152602081019050610f13565b50505050905090810190601f168015610f5b5780820380516001836020036101000a031916815260200191505b50848103835286818151815260200191508051906020019080838360005b83811015610f94578082015181840152602081019050610f79565b50505050905090810190601f168015610fc15780820380516001836020036101000a031916815260200191505b50848103825285818151815260200191508051906020019080838360005b83811015610ffa578082015181840152602081019050610fdf565b50505050905090810190601f1680156110275780820380516001836020036101000a031916815260200191505b509850505050505050505060405180910390a2505050505050565b60a06040519081016040528060008152602001600080191681526020016060815260200160608152602001606081525090565b828054600181600116156101000203166002900490600052602060002090601f016020900481019282601f106110b657805160ff19168380011785556110e4565b828001600101855582156110e4579182015b828111156110e35782518255916020019190600101906110c8565b5b5090506110f191906110f5565b5090565b61111791905b808211156111135760008160009055506001016110fb565b5090565b905600a165627a7a7230582092ea672b7b2d5b7fb16b93021dba6ddfd2419630bb3fb6cc7392c8b647ad0feb0029",
  "source": "pragma solidity ^0.4.23;\n\nimport \"./Utils.sol\";\nimport \"./ActorFactory.sol\";\n\ncontract CertificateFactory is Utils{\n\n   event LogAddCertificate(\n        uint indexed _id,\n        address _certifierAddress,\n        bytes32 _name,\n        string _imageHash,\n        string _description,\n        string _additionalInformation\n    );\n\n   event LogAssignCertificate(\n        address _ownerAddress,\n        address _certifierAddress,\n        uint _coffeeBatchId,\n        uint _certificateId\n    );\n\n   ActorFactory actor;\n\n   struct Certificate{\n        uint uid;\n        bytes32 name;\n        string imageHash;\n        string description;\n        string additionalInformation;\n   }\n\n    mapping(address => uint[]) public actorToCertificates;\n    mapping(uint => uint[]) public coffeeBatchToCertificates;\n    mapping(uint => Certificate) public certificates;\n    uint certificatesCount = 1;\n\n    constructor(address _actorAddress) public {\n        actor = ActorFactory(_actorAddress);\n    }\n\n    function getCertifierCertificateCount(address _certifier)public view returns (uint){\n        return actorToCertificates[_certifier].length;\n    }\n\n   \n    function getCertificateById(uint _certificateId) public view returns(\n        uint,\n        bytes32,\n        string,\n        string,\n        string\n    ){\n        Certificate memory certificate = certificates[_certificateId];\n        return(\n            certificate.uid,\n            certificate.name,\n            certificate.imageHash,\n            certificate.description,\n            certificate.additionalInformation\n        );\n    }\n\n    //TODO: Should insert if no actor?\n    function addCertificate(bytes32 _name, string _imageHash, string _description, string _additionalInformation\n    ) public {\n        uint uid = certificatesCount;\n        Certificate memory certificate = Certificate(uid, _name, _imageHash, _description, _additionalInformation);\n        actorToCertificates[msg.sender].push(uid);\n        certificates[uid] = certificate;\n        certificatesCount++;\n        emit LogAddCertificate(uid,msg.sender,_name, _imageHash, _description, _additionalInformation);\n    }\n\n    function assignCertificate(address _owner, uint _coffeeBatchId, uint _certificateId\n    ) public {\n        require(actor.isAllowed(_owner,msg.sender));\n        coffeeBatchToCertificates[_coffeeBatchId].push(_certificateId);\n        emit LogAssignCertificate(_owner, msg.sender, _coffeeBatchId, _certificateId);\n    }\n   \n}",
  "sourcePath": "/Users/crisgarner/Projects/affogato/contracts/CertificateFactory.sol",
  "compiler": {
    "name": "solc",
    "version": "0.4.24+commit.e67f0147.Emscripten.clang"
  },
  "schemaVersion": "2.0.1",
  "updatedAt": "2018-10-07T00:18:06.468Z"
}