{
  "contractName": "Coffee",
  "abi": [
    {
      "constant": true,
      "inputs": [
        {
          "name": "",
          "type": "uint256"
        }
      ],
      "name": "coffeeBatches",
      "outputs": [
        {
          "name": "uid",
          "type": "uint256"
        },
        {
          "name": "owner",
          "type": "address"
        },
        {
          "name": "farmUid",
          "type": "uint256"
        },
        {
          "name": "altitude",
          "type": "uint16"
        },
        {
          "name": "variety",
          "type": "bytes32"
        },
        {
          "name": "process",
          "type": "bytes32"
        },
        {
          "name": "size",
          "type": "uint32"
        },
        {
          "name": "isSold",
          "type": "bool"
        }
      ],
      "payable": false,
      "stateMutability": "view",
      "type": "function"
    },
    {
      "constant": true,
      "inputs": [
        {
          "name": "",
          "type": "uint256"
        },
        {
          "name": "",
          "type": "uint256"
        }
      ],
      "name": "farmToBatches",
      "outputs": [
        {
          "name": "",
          "type": "uint256"
        }
      ],
      "payable": false,
      "stateMutability": "view",
      "type": "function"
    },
    {
      "anonymous": false,
      "inputs": [
        {
          "indexed": true,
          "name": "_id",
          "type": "uint256"
        },
        {
          "indexed": false,
          "name": "_owner",
          "type": "address"
        },
        {
          "indexed": false,
          "name": "_farmUid",
          "type": "uint256"
        },
        {
          "indexed": false,
          "name": "_altitude",
          "type": "uint16"
        },
        {
          "indexed": false,
          "name": "_variety",
          "type": "bytes32"
        },
        {
          "indexed": false,
          "name": "_process",
          "type": "bytes32"
        },
        {
          "indexed": false,
          "name": "_size",
          "type": "uint32"
        },
        {
          "indexed": false,
          "name": "_isSold",
          "type": "bool"
        }
      ],
      "name": "LogAddCoffeeBatch",
      "type": "event"
    },
    {
      "anonymous": false,
      "inputs": [
        {
          "indexed": true,
          "name": "_id",
          "type": "uint256"
        },
        {
          "indexed": false,
          "name": "_farmUid",
          "type": "uint256"
        },
        {
          "indexed": false,
          "name": "_altitude",
          "type": "uint16"
        },
        {
          "indexed": false,
          "name": "_variety",
          "type": "bytes32"
        },
        {
          "indexed": false,
          "name": "_process",
          "type": "bytes32"
        },
        {
          "indexed": false,
          "name": "_size",
          "type": "uint32"
        },
        {
          "indexed": false,
          "name": "_isSold",
          "type": "bool"
        }
      ],
      "name": "LogUpdateCoffeeBatch",
      "type": "event"
    },
    {
      "constant": true,
      "inputs": [
        {
          "name": "_farmUid",
          "type": "uint256"
        }
      ],
      "name": "getFarmCoffeeBatchCount",
      "outputs": [
        {
          "name": "count",
          "type": "uint256"
        }
      ],
      "payable": false,
      "stateMutability": "view",
      "type": "function"
    },
    {
      "constant": true,
      "inputs": [
        {
          "name": "_uid",
          "type": "uint256"
        }
      ],
      "name": "getCoffeeBatchById",
      "outputs": [
        {
          "name": "",
          "type": "uint256"
        },
        {
          "name": "",
          "type": "address"
        },
        {
          "name": "",
          "type": "uint256"
        },
        {
          "name": "",
          "type": "uint16"
        },
        {
          "name": "",
          "type": "bytes32"
        },
        {
          "name": "",
          "type": "bytes32"
        },
        {
          "name": "",
          "type": "uint32"
        },
        {
          "name": "",
          "type": "bool"
        }
      ],
      "payable": false,
      "stateMutability": "view",
      "type": "function"
    },
    {
      "constant": false,
      "inputs": [
        {
          "name": "_farmUid",
          "type": "uint256"
        },
        {
          "name": "_altitude",
          "type": "uint16"
        },
        {
          "name": "_variety",
          "type": "bytes32"
        },
        {
          "name": "_process",
          "type": "bytes32"
        },
        {
          "name": "_size",
          "type": "uint32"
        }
      ],
      "name": "addCoffeeBatch",
      "outputs": [],
      "payable": false,
      "stateMutability": "nonpayable",
      "type": "function"
    },
    {
      "constant": false,
      "inputs": [
        {
          "name": "_coffeeUid",
          "type": "uint256"
        },
        {
          "name": "_farmUid",
          "type": "uint256"
        },
        {
          "name": "_altitude",
          "type": "uint16"
        },
        {
          "name": "_variety",
          "type": "bytes32"
        },
        {
          "name": "_process",
          "type": "bytes32"
        },
        {
          "name": "_size",
          "type": "uint32"
        }
      ],
      "name": "updateCoffeeBatch",
      "outputs": [],
      "payable": false,
      "stateMutability": "nonpayable",
      "type": "function"
    },
    {
      "constant": true,
      "inputs": [
        {
          "name": "_owner",
          "type": "address"
        },
        {
          "name": "_coffeeBatchId",
          "type": "uint256"
        }
      ],
      "name": "actorIsOwner",
      "outputs": [
        {
          "name": "",
          "type": "bool"
        }
      ],
      "payable": false,
      "stateMutability": "view",
      "type": "function"
    }
  ],
  "bytecode": "0x6080604052600160025534801561001557600080fd5b50610bcd806100256000396000f300608060405260043610610083576000357c0100000000000000000000000000000000000000000000000000000000900463ffffffff16806302aa971d146100885780632e3e7a23146100ed578063395209b21461015457806339a3a8bb1461021a578063584f929c146102e05780635c601a9c14610351578063978e6e7114610392575b600080fd5b34801561009457600080fd5b506100d3600480360381019080803573ffffffffffffffffffffffffffffffffffffffff169060200190929190803590602001909291905050506103dd565b604051808215151515815260200191505060405180910390f35b3480156100f957600080fd5b5061015260048036038101908080359060200190929190803561ffff16906020019092919080356000191690602001909291908035600019169060200190929190803563ffffffff169060200190929190505050610544565b005b34801561016057600080fd5b5061017f600480360381019080803590602001909291905050506107cb565b604051808981526020018873ffffffffffffffffffffffffffffffffffffffff1673ffffffffffffffffffffffffffffffffffffffff1681526020018781526020018661ffff1661ffff168152602001856000191660001916815260200184600019166000191681526020018363ffffffff1663ffffffff168152602001821515151581526020019850505050505050505060405180910390f35b34801561022657600080fd5b506102456004803603810190808035906020019092919050505061085e565b604051808981526020018873ffffffffffffffffffffffffffffffffffffffff1673ffffffffffffffffffffffffffffffffffffffff1681526020018781526020018661ffff1661ffff168152602001856000191660001916815260200184600019166000191681526020018363ffffffff1663ffffffff168152602001821515151581526020019850505050505050505060405180910390f35b3480156102ec57600080fd5b5061034f6004803603810190808035906020019092919080359060200190929190803561ffff16906020019092919080356000191690602001909291908035600019169060200190929190803563ffffffff1690602001909291905050506109c6565b005b34801561035d57600080fd5b5061037c60048036038101908080359060200190929190505050610ae3565b6040518082815260200191505060405180910390f35b34801561039e57600080fd5b506103c76004803603810190808035906020019092919080359060200190929190505050610b03565b6040518082815260200191505060405180910390f35b60006103e7610b33565b6000808481526020019081526020016000206101006040519081016040529081600082015481526020016001820160009054906101000a900473ffffffffffffffffffffffffffffffffffffffff1673ffffffffffffffffffffffffffffffffffffffff1673ffffffffffffffffffffffffffffffffffffffff168152602001600282015481526020016003820160009054906101000a900461ffff1661ffff1661ffff1681526020016004820154600019166000191681526020016005820154600019166000191681526020016006820160009054906101000a900463ffffffff1663ffffffff1663ffffffff1681526020016006820160049054906101000a900460ff16151515158152505090508373ffffffffffffffffffffffffffffffffffffffff16816020015173ffffffffffffffffffffffffffffffffffffffff161415610538576001915061053d565b600091505b5092915050565b600061054e610b33565b6002549150610100604051908101604052808381526020013373ffffffffffffffffffffffffffffffffffffffff1681526020018881526020018761ffff16815260200186600019168152602001856000191681526020018463ffffffff168152602001600015158152509050600260008154809291906001019190505550806000808481526020019081526020016000206000820151816000015560208201518160010160006101000a81548173ffffffffffffffffffffffffffffffffffffffff021916908373ffffffffffffffffffffffffffffffffffffffff1602179055506040820151816002015560608201518160030160006101000a81548161ffff021916908361ffff1602179055506080820151816004019060001916905560a0820151816005019060001916905560c08201518160060160006101000a81548163ffffffff021916908363ffffffff16021790555060e08201518160060160046101000a81548160ff02191690831515021790555090505060016000888152602001908152602001600020829080600181540180825580915050906001820390600052602060002001600090919290919091505550817fda0e499d70467a0ca4fb42c053a056fe9a6ffb184ddf18c89510487f666dc70a3389898989896000604051808873ffffffffffffffffffffffffffffffffffffffff1673ffffffffffffffffffffffffffffffffffffffff1681526020018781526020018661ffff1661ffff168152602001856000191660001916815260200184600019166000191681526020018363ffffffff1663ffffffff1681526020018215151515815260200197505050505050505060405180910390a250505050505050565b60006020528060005260406000206000915090508060000154908060010160009054906101000a900473ffffffffffffffffffffffffffffffffffffffff16908060020154908060030160009054906101000a900461ffff16908060040154908060050154908060060160009054906101000a900463ffffffff16908060060160049054906101000a900460ff16905088565b600080600080600080600080610872610b33565b6000808b81526020019081526020016000206101006040519081016040529081600082015481526020016001820160009054906101000a900473ffffffffffffffffffffffffffffffffffffffff1673ffffffffffffffffffffffffffffffffffffffff1673ffffffffffffffffffffffffffffffffffffffff168152602001600282015481526020016003820160009054906101000a900461ffff1661ffff1661ffff1681526020016004820154600019166000191681526020016005820154600019166000191681526020016006820160009054906101000a900463ffffffff1663ffffffff1663ffffffff1681526020016006820160049054906101000a900460ff1615151515815250509050806000015181602001518260400151836060015184608001518560a001518660c001518760e001519850985098509850985098509850985050919395975091939597565b60008060008881526020019081526020016000209050858160020181905550848160030160006101000a81548161ffff021916908361ffff1602179055508381600401816000191690555082816005018160001916905550818160060160006101000a81548163ffffffff021916908363ffffffff160217905550867f2a43ace8dbca349f2a9860a83d861a1ee80c96e4ddf82b7077ca0c918d2c7aac87878787878760060160049054906101000a900460ff16604051808781526020018661ffff1661ffff168152602001856000191660001916815260200184600019166000191681526020018363ffffffff1663ffffffff16815260200182151515158152602001965050505050505060405180910390a250505050505050565b600060016000838152602001908152602001600020805490509050919050565b600160205281600052604060002081815481101515610b1e57fe5b90600052602060002001600091509150505481565b6101006040519081016040528060008152602001600073ffffffffffffffffffffffffffffffffffffffff16815260200160008152602001600061ffff1681526020016000801916815260200160008019168152602001600063ffffffff16815260200160001515815250905600a165627a7a72305820ab81bb9aca964b4534ae0d72f261b7cb30f1e77ce66643987c43875c2c400efe0029",
  "source": "pragma solidity ^0.4.23;\n\ncontract Coffee{\n    //TODO: rename to Factory\n    //TODO: add is coffee batch owner\n    event LogAddCoffeeBatch(\n        uint indexed _id,\n        address _owner,\n        uint _farmUid,\n        uint16 _altitude,\n        bytes32 _variety,\n        bytes32 _process,\n        uint32 _size,\n        bool _isSold\n    );\n    event LogUpdateCoffeeBatch(\n        uint indexed _id,\n        uint _farmUid,\n        uint16 _altitude,\n        bytes32 _variety,\n        bytes32 _process,\n        uint32 _size,\n        bool _isSold\n    );\n     \n    struct CoffeeBatch{\n        uint uid;\n        address owner;\n        uint farmUid;\n        uint16 altitude;\n        bytes32 variety;\n        bytes32 process;\n        //QQ - Precision two decimals 100.00\n        uint32 size;\n        bool isSold;  \n    }\n\n   mapping(uint => CoffeeBatch) public coffeeBatches;\n   mapping(uint => uint[]) public farmToBatches;\n   // mapping(uint256 => CoffeeBatch) coffeeBatches;\n   // uint256[] coffeeBatchIds;\n   uint coffeeBatchCount = 1;\n\n    function getFarmCoffeeBatchCount(uint _farmUid) public view returns(uint count) {\n        return farmToBatches[_farmUid].length;\n    }\n\n    function getCoffeeBatchById(uint _uid) public view returns(\n        uint,\n        address,\n        uint,\n        uint16,\n        bytes32,\n        bytes32,\n        uint32,\n        bool\n    ){\n        CoffeeBatch memory coffeeBatch = coffeeBatches[_uid];\n        return(\n            coffeeBatch.uid,\n            coffeeBatch.owner,\n            coffeeBatch.farmUid,\n            coffeeBatch.altitude,\n            coffeeBatch.variety,\n            coffeeBatch.process,\n            coffeeBatch.size,\n            coffeeBatch.isSold\n        ); \n    }\n\n    function addCoffeeBatch(uint _farmUid, uint16 _altitude, bytes32 _variety, bytes32 _process, uint32 _size) public {\n     //   Action memory action = Action(msg.sender,\"creation\",_additionalInformation, _timestamp); \n        //Fixes memory error that doesn't allow to create memory objects in structs\n        uint uid = coffeeBatchCount;\n        CoffeeBatch memory coffeeBatch = CoffeeBatch(uid, msg.sender, _farmUid, _altitude, _variety, _process, _size, false);\n        coffeeBatchCount++;\n        coffeeBatches[uid] = coffeeBatch;\n        farmToBatches[_farmUid].push(uid);\n        emit LogAddCoffeeBatch(uid, msg.sender, _farmUid, _altitude, _variety, _process, _size, false);        \n    }\n    //TODO: Only owner should update\n    function updateCoffeeBatch(uint _coffeeUid, uint _farmUid, uint16 _altitude, bytes32 _variety, bytes32 _process, uint32 _size) public {\n     //   Action memory action = Action(msg.sender,\"creation\",_additionalInformation, _timestamp); \n        //Fixes memory error that doesn't allow to create memory objects in structs\n        CoffeeBatch storage coffeeBatch = coffeeBatches[_coffeeUid];\n        coffeeBatch.farmUid = _farmUid;\n        coffeeBatch.altitude = _altitude;\n        coffeeBatch.variety = _variety;\n        coffeeBatch.process = _process;\n        coffeeBatch.size = _size;\n        emit LogUpdateCoffeeBatch(_coffeeUid, _farmUid, _altitude, _variety, _process, _size, coffeeBatch.isSold);        \n    }\n\n    function actorIsOwner(address _owner, uint _coffeeBatchId) public view returns (bool){\n        CoffeeBatch memory coffeeBatch = coffeeBatches[_coffeeBatchId];\n        if(coffeeBatch.owner == _owner){\n            return true;\n        }\n        return false;\n    }\n} ",
  "sourcePath": "/Users/crisgarner/Projects/affogato/affogato-contract/contracts/Coffee.sol",
  "compiler": {
    "name": "solc",
    "version": "0.4.24+commit.e67f0147.Emscripten.clang"
  },
  "schemaVersion": "2.0.1",
  "updatedAt": "2018-11-20T03:40:25.140Z"
}