{
  "contractName": "Coffee",
  "abi": [
    {
      "constant": true,
      "inputs": [
        {
          "name": "",
          "type": "bytes32"
        }
      ],
      "name": "coffeeBatches",
      "outputs": [
        {
          "name": "uid",
          "type": "bytes32"
        },
        {
          "name": "farmUid",
          "type": "bytes32"
        },
        {
          "name": "altitude",
          "type": "uint16"
        },
        {
          "name": "variety",
          "type": "bytes32"
        },
        {
          "name": "process",
          "type": "bytes32"
        },
        {
          "name": "size",
          "type": "uint32"
        },
        {
          "name": "isSold",
          "type": "bool"
        }
      ],
      "payable": false,
      "stateMutability": "view",
      "type": "function"
    },
    {
      "constant": true,
      "inputs": [
        {
          "name": "",
          "type": "bytes32"
        },
        {
          "name": "",
          "type": "uint256"
        }
      ],
      "name": "farmToBatches",
      "outputs": [
        {
          "name": "",
          "type": "bytes32"
        }
      ],
      "payable": false,
      "stateMutability": "view",
      "type": "function"
    },
    {
      "anonymous": false,
      "inputs": [
        {
          "indexed": true,
          "name": "_id",
          "type": "bytes32"
        }
      ],
      "name": "LogAddCoffeeBatch",
      "type": "event"
    },
    {
      "constant": true,
      "inputs": [
        {
          "name": "_farmUid",
          "type": "bytes32"
        }
      ],
      "name": "getFarmCoffeeBatchCount",
      "outputs": [
        {
          "name": "count",
          "type": "uint256"
        }
      ],
      "payable": false,
      "stateMutability": "view",
      "type": "function"
    },
    {
      "constant": true,
      "inputs": [
        {
          "name": "_uid",
          "type": "bytes32"
        }
      ],
      "name": "getCoffeeBatchById",
      "outputs": [
        {
          "name": "",
          "type": "bytes32"
        },
        {
          "name": "",
          "type": "bytes32"
        },
        {
          "name": "",
          "type": "uint16"
        },
        {
          "name": "",
          "type": "bytes32"
        },
        {
          "name": "",
          "type": "bytes32"
        },
        {
          "name": "",
          "type": "uint32"
        },
        {
          "name": "",
          "type": "bool"
        }
      ],
      "payable": false,
      "stateMutability": "view",
      "type": "function"
    },
    {
      "constant": false,
      "inputs": [
        {
          "name": "_farmUid",
          "type": "bytes32"
        },
        {
          "name": "_altitude",
          "type": "uint16"
        },
        {
          "name": "_variety",
          "type": "bytes32"
        },
        {
          "name": "_process",
          "type": "bytes32"
        },
        {
          "name": "_size",
          "type": "uint32"
        }
      ],
      "name": "addCoffeeBatch",
      "outputs": [],
      "payable": false,
      "stateMutability": "nonpayable",
      "type": "function"
    }
  ],
  "bytecode": "0x6080604052600060025534801561001557600080fd5b5061082b806100256000396000f30060806040526004361061006d576000357c0100000000000000000000000000000000000000000000000000000000900463ffffffff168063032323c41461007257806314795fd114610119578063ea5b100b14610170578063f0a4d9cb14610217578063f1e0563d14610282575b600080fd5b34801561007e57600080fd5b506100a160048036038101908080356000191690602001909291905050506102c7565b60405180886000191660001916815260200187600019166000191681526020018661ffff1661ffff168152602001856000191660001916815260200184600019166000191681526020018363ffffffff1663ffffffff1681526020018215151515815260200197505050505050505060405180910390f35b34801561012557600080fd5b50610152600480360381019080803560001916906020019092919080359060200190929190505050610334565b60405180826000191660001916815260200191505060405180910390f35b34801561017c57600080fd5b5061019f6004803603810190808035600019169060200190929190505050610364565b60405180886000191660001916815260200187600019166000191681526020018661ffff1661ffff168152602001856000191660001916815260200184600019166000191681526020018363ffffffff1663ffffffff1681526020018215151515815260200197505050505050505060405180910390f35b34801561022357600080fd5b506102806004803603810190808035600019169060200190929190803561ffff16906020019092919080356000191690602001909291908035600019169060200190929190803563ffffffff169060200190929190505050610485565b005b34801561028e57600080fd5b506102b160048036038101908080356000191690602001909291905050506106b0565b6040518082815260200191505060405180910390f35b60006020528060005260406000206000915090508060000154908060010154908060020160009054906101000a900461ffff16908060030154908060040154908060050160009054906101000a900463ffffffff16908060050160049054906101000a900460ff16905087565b60016020528160005260406000208181548110151561034f57fe5b90600052602060002001600091509150505481565b60008060008060008060006103776107a9565b6000808a6000191660001916815260200190815260200160002060e060405190810160405290816000820154600019166000191681526020016001820154600019166000191681526020016002820160009054906101000a900461ffff1661ffff1661ffff1681526020016003820154600019166000191681526020016004820154600019166000191681526020016005820160009054906101000a900463ffffffff1663ffffffff1663ffffffff1681526020016005820160049054906101000a900460ff1615151515815250509050806000015181602001518260400151836060015184608001518560a001518660c00151975097509750975097509750975050919395979092949650565b600061048f6107a9565b61049a6002546106d8565b6040518082805190602001908083835b6020831015156104cf57805182526020820191506020810190506020830392506104aa565b6001836020036101000a0380198251168184511680821785525050505050509050019150506040518091039020915060e06040519081016040528083600019168152602001886000191681526020018761ffff16815260200186600019168152602001856000191681526020018463ffffffff168152602001600015158152509050600260008154809291906001019190505550806000808460001916600019168152602001908152602001600020600082015181600001906000191690556020820151816001019060001916905560408201518160020160006101000a81548161ffff021916908361ffff160217905550606082015181600301906000191690556080820151816004019060001916905560a08201518160050160006101000a81548163ffffffff021916908363ffffffff16021790555060c08201518160050160046101000a81548160ff02191690831515021790555090505060016000886000191660001916815260200190815260200160002082908060018154018082558091505090600182039060005260206000200160009091929091909150906000191690555081600019167faedf1823060e1c860e5d24c31de32c51904ebf41c4dd5732974a584ce5e42c8b60405160405180910390a250505050505050565b6000600160008360001916600019168152602001908152602001600020805490509050919050565b6060600060206040519080825280601f01601f1916602001820160405280156107105781602001602082028038833980820191505090505b509150600090505b60208110156107a35780601f0360080260020a8381151561073557fe5b047f010000000000000000000000000000000000000000000000000000000000000002828281518110151561076657fe5b9060200101907effffffffffffffffffffffffffffffffffffffffffffffffffffffffffffff1916908160001a9053508080600101915050610718565b50919050565b60e0604051908101604052806000801916815260200160008019168152602001600061ffff1681526020016000801916815260200160008019168152602001600063ffffffff16815260200160001515815250905600a165627a7a723058205bb83a2fd5ff47564f8917563305987b8b3ba7c26de301febe4e8be43ca506090029",
  "source": "pragma solidity ^0.4.23;\n\ncontract Coffee{\n\n    event LogAddCoffeeBatch(bytes32 indexed _id);\n     \n    struct CoffeeBatch{\n        bytes32 uid;\n        bytes32 farmUid;\n        uint16 altitude;\n        bytes32 variety;\n        bytes32 process;\n        //QQ - Precision two decimals 100.00\n        uint32 size;\n        bool isSold;  \n    }\n\n   mapping(bytes32 => CoffeeBatch) public coffeeBatches;\n   mapping(bytes32 => bytes32[]) public farmToBatches;\n   // mapping(uint256 => CoffeeBatch) coffeeBatches;\n   // uint256[] coffeeBatchIds;\n   uint coffeeBatchCount = 0;\n\n    function getFarmCoffeeBatchCount(bytes32 _farmUid) public view returns(uint count) {\n        return farmToBatches[_farmUid].length;\n    }\n\n    function getCoffeeBatchById(bytes32 _uid) public view returns(\n        bytes32,\n        bytes32,\n        uint16,\n        bytes32,\n        bytes32,\n        uint32,\n        bool\n    ){\n        CoffeeBatch memory coffeeBatch = coffeeBatches[_uid];\n        return(\n            coffeeBatch.uid,\n            coffeeBatch.farmUid,\n            coffeeBatch.altitude,\n            coffeeBatch.variety,\n            coffeeBatch.process,\n            coffeeBatch.size,\n            coffeeBatch.isSold\n        ); \n    }\n\n    function addCoffeeBatch(bytes32 _farmUid, uint16 _altitude, bytes32 _variety, bytes32 _process, uint32 _size) public {\n     //   Action memory action = Action(msg.sender,\"creation\",_additionalInformation, _timestamp); \n        //Fixes memory error that doesn't allow to create memory objects in structs\n        bytes32 uid = keccak256(toBytes(coffeeBatchCount));\n        CoffeeBatch memory coffeeBatch = CoffeeBatch(uid, _farmUid, _altitude, _variety, _process, _size, false);\n        coffeeBatchCount++;\n        coffeeBatches[uid] = coffeeBatch;\n        farmToBatches[_farmUid].push(uid);\n        emit LogAddCoffeeBatch(uid);        \n    }\n\n    //TODO: pass to a util function\n    function toBytes(uint256 x)  internal pure returns (bytes b) {\n        b = new bytes(32);\n        for (uint i = 0; i < 32; i++) {\n            b[i] = byte(uint8(x / (2**(8*(31 - i))))); \n        }\n    }\n\n\n    //TODO\n    //Handle same action\n    //Update Action\n    //Finish Process\n    \n} ",
  "sourcePath": "/Users/crisgarner/Projects/affogato/contracts/Coffee.sol",
  "compiler": {
    "name": "solc",
    "version": "0.4.24+commit.e67f0147.Emscripten.clang"
  },
  "schemaVersion": "2.0.1",
  "updatedAt": "2018-08-24T20:55:16.943Z"
}