{
  "contractName": "Coffee",
  "abi": [
    {
      "constant": true,
      "inputs": [
        {
          "name": "",
          "type": "uint256"
        }
      ],
      "name": "coffeeBatches",
      "outputs": [
        {
          "name": "uid",
          "type": "uint256"
        },
        {
          "name": "farmUid",
          "type": "uint256"
        },
        {
          "name": "altitude",
          "type": "uint16"
        },
        {
          "name": "variety",
          "type": "bytes32"
        },
        {
          "name": "process",
          "type": "bytes32"
        },
        {
          "name": "size",
          "type": "uint32"
        },
        {
          "name": "isSold",
          "type": "bool"
        }
      ],
      "payable": false,
      "stateMutability": "view",
      "type": "function"
    },
    {
      "constant": true,
      "inputs": [
        {
          "name": "",
          "type": "uint256"
        },
        {
          "name": "",
          "type": "uint256"
        }
      ],
      "name": "farmToBatches",
      "outputs": [
        {
          "name": "",
          "type": "uint256"
        }
      ],
      "payable": false,
      "stateMutability": "view",
      "type": "function"
    },
    {
      "anonymous": false,
      "inputs": [
        {
          "indexed": true,
          "name": "_id",
          "type": "uint256"
        },
        {
          "indexed": false,
          "name": "_farmUid",
          "type": "uint256"
        },
        {
          "indexed": false,
          "name": "_altitude",
          "type": "uint16"
        },
        {
          "indexed": false,
          "name": "_variety",
          "type": "bytes32"
        },
        {
          "indexed": false,
          "name": "_process",
          "type": "bytes32"
        },
        {
          "indexed": false,
          "name": "_size",
          "type": "uint32"
        },
        {
          "indexed": false,
          "name": "_isSold",
          "type": "bool"
        }
      ],
      "name": "LogAddCoffeeBatch",
      "type": "event"
    },
    {
      "anonymous": false,
      "inputs": [
        {
          "indexed": true,
          "name": "_id",
          "type": "uint256"
        },
        {
          "indexed": false,
          "name": "_farmUid",
          "type": "uint256"
        },
        {
          "indexed": false,
          "name": "_altitude",
          "type": "uint16"
        },
        {
          "indexed": false,
          "name": "_variety",
          "type": "bytes32"
        },
        {
          "indexed": false,
          "name": "_process",
          "type": "bytes32"
        },
        {
          "indexed": false,
          "name": "_size",
          "type": "uint32"
        },
        {
          "indexed": false,
          "name": "_isSold",
          "type": "bool"
        }
      ],
      "name": "LogUpdateCoffeeBatch",
      "type": "event"
    },
    {
      "constant": true,
      "inputs": [
        {
          "name": "_farmUid",
          "type": "uint256"
        }
      ],
      "name": "getFarmCoffeeBatchCount",
      "outputs": [
        {
          "name": "count",
          "type": "uint256"
        }
      ],
      "payable": false,
      "stateMutability": "view",
      "type": "function"
    },
    {
      "constant": true,
      "inputs": [
        {
          "name": "_uid",
          "type": "uint256"
        }
      ],
      "name": "getCoffeeBatchById",
      "outputs": [
        {
          "name": "",
          "type": "uint256"
        },
        {
          "name": "",
          "type": "uint256"
        },
        {
          "name": "",
          "type": "uint16"
        },
        {
          "name": "",
          "type": "bytes32"
        },
        {
          "name": "",
          "type": "bytes32"
        },
        {
          "name": "",
          "type": "uint32"
        },
        {
          "name": "",
          "type": "bool"
        }
      ],
      "payable": false,
      "stateMutability": "view",
      "type": "function"
    },
    {
      "constant": false,
      "inputs": [
        {
          "name": "_farmUid",
          "type": "uint256"
        },
        {
          "name": "_altitude",
          "type": "uint16"
        },
        {
          "name": "_variety",
          "type": "bytes32"
        },
        {
          "name": "_process",
          "type": "bytes32"
        },
        {
          "name": "_size",
          "type": "uint32"
        }
      ],
      "name": "addCoffeeBatch",
      "outputs": [],
      "payable": false,
      "stateMutability": "nonpayable",
      "type": "function"
    },
    {
      "constant": false,
      "inputs": [
        {
          "name": "_coffeeUid",
          "type": "uint256"
        },
        {
          "name": "_farmUid",
          "type": "uint256"
        },
        {
          "name": "_altitude",
          "type": "uint16"
        },
        {
          "name": "_variety",
          "type": "bytes32"
        },
        {
          "name": "_process",
          "type": "bytes32"
        },
        {
          "name": "_size",
          "type": "uint32"
        }
      ],
      "name": "updateCoffeeBatch",
      "outputs": [],
      "payable": false,
      "stateMutability": "nonpayable",
      "type": "function"
    }
  ],
  "bytecode": "0x6080604052600160025534801561001557600080fd5b50610855806100256000396000f300608060405260043610610078576000357c0100000000000000000000000000000000000000000000000000000000900463ffffffff1680632e3e7a231461007d578063395209b2146100e457806339a3a8bb14610177578063584f929c1461020a5780635c601a9c1461027b578063978e6e71146102bc575b600080fd5b34801561008957600080fd5b506100e260048036038101908080359060200190929190803561ffff16906020019092919080356000191690602001909291908035600019169060200190929190803563ffffffff169060200190929190505050610307565b005b3480156100f057600080fd5b5061010f600480360381019080803590602001909291905050506104f6565b604051808881526020018781526020018661ffff1661ffff168152602001856000191660001916815260200184600019166000191681526020018363ffffffff1663ffffffff1681526020018215151515815260200197505050505050505060405180910390f35b34801561018357600080fd5b506101a260048036038101908080359060200190929190505050610563565b604051808881526020018781526020018661ffff1661ffff168152602001856000191660001916815260200184600019166000191681526020018363ffffffff1663ffffffff1681526020018215151515815260200197505050505050505060405180910390f35b34801561021657600080fd5b506102796004803603810190808035906020019092919080359060200190929190803561ffff16906020019092919080356000191690602001909291908035600019169060200190929190803563ffffffff16906020019092919050505061066c565b005b34801561028757600080fd5b506102a660048036038101908080359060200190929190505050610789565b6040518082815260200191505060405180910390f35b3480156102c857600080fd5b506102f160048036038101908080359060200190929190803590602001909291905050506107a9565b6040518082815260200191505060405180910390f35b60006103116107d9565b600254915060e0604051908101604052808381526020018881526020018761ffff16815260200186600019168152602001856000191681526020018463ffffffff16815260200160001515815250905060026000815480929190600101919050555080600080848152602001908152602001600020600082015181600001556020820151816001015560408201518160020160006101000a81548161ffff021916908361ffff160217905550606082015181600301906000191690556080820151816004019060001916905560a08201518160050160006101000a81548163ffffffff021916908363ffffffff16021790555060c08201518160050160046101000a81548160ff02191690831515021790555090505060016000888152602001908152602001600020829080600181540180825580915050906001820390600052602060002001600090919290919091505550817ff5c0c177ec9a5738d3f2f81522f49ce0013f38da1eb3e6d1abc38e325c41b43688888888886000604051808781526020018661ffff1661ffff168152602001856000191660001916815260200184600019166000191681526020018363ffffffff1663ffffffff16815260200182151515158152602001965050505050505060405180910390a250505050505050565b60006020528060005260406000206000915090508060000154908060010154908060020160009054906101000a900461ffff16908060030154908060040154908060050160009054906101000a900463ffffffff16908060050160049054906101000a900460ff16905087565b60008060008060008060006105766107d9565b6000808a815260200190815260200160002060e0604051908101604052908160008201548152602001600182015481526020016002820160009054906101000a900461ffff1661ffff1661ffff1681526020016003820154600019166000191681526020016004820154600019166000191681526020016005820160009054906101000a900463ffffffff1663ffffffff1663ffffffff1681526020016005820160049054906101000a900460ff1615151515815250509050806000015181602001518260400151836060015184608001518560a001518660c00151975097509750975097509750975050919395979092949650565b60008060008881526020019081526020016000209050858160010181905550848160020160006101000a81548161ffff021916908361ffff1602179055508381600301816000191690555082816004018160001916905550818160050160006101000a81548163ffffffff021916908363ffffffff160217905550867f2a43ace8dbca349f2a9860a83d861a1ee80c96e4ddf82b7077ca0c918d2c7aac87878787878760050160049054906101000a900460ff16604051808781526020018661ffff1661ffff168152602001856000191660001916815260200184600019166000191681526020018363ffffffff1663ffffffff16815260200182151515158152602001965050505050505060405180910390a250505050505050565b600060016000838152602001908152602001600020805490509050919050565b6001602052816000526040600020818154811015156107c457fe5b90600052602060002001600091509150505481565b60e0604051908101604052806000815260200160008152602001600061ffff1681526020016000801916815260200160008019168152602001600063ffffffff16815260200160001515815250905600a165627a7a72305820f04a4f2ae5d6493a516e736b848b04b1e464e507c2050265326936ec27605c030029",
  "source": "pragma solidity ^0.4.23;\n\ncontract Coffee{\n    //TODO: should i add ownerAddress\n    event LogAddCoffeeBatch(\n        uint indexed _id,\n        uint _farmUid,\n        uint16 _altitude,\n        bytes32 _variety,\n        bytes32 _process,\n        uint32 _size,\n        bool _isSold\n    );\n    event LogUpdateCoffeeBatch(\n        uint indexed _id,\n        uint _farmUid,\n        uint16 _altitude,\n        bytes32 _variety,\n        bytes32 _process,\n        uint32 _size,\n        bool _isSold\n    );\n     \n    struct CoffeeBatch{\n        uint uid;\n        uint farmUid;\n        uint16 altitude;\n        bytes32 variety;\n        bytes32 process;\n        //QQ - Precision two decimals 100.00\n        uint32 size;\n        bool isSold;  \n    }\n\n   mapping(uint => CoffeeBatch) public coffeeBatches;\n   mapping(uint => uint[]) public farmToBatches;\n   // mapping(uint256 => CoffeeBatch) coffeeBatches;\n   // uint256[] coffeeBatchIds;\n   uint coffeeBatchCount = 1;\n\n    function getFarmCoffeeBatchCount(uint _farmUid) public view returns(uint count) {\n        return farmToBatches[_farmUid].length;\n    }\n\n    function getCoffeeBatchById(uint _uid) public view returns(\n        uint,\n        uint,\n        uint16,\n        bytes32,\n        bytes32,\n        uint32,\n        bool\n    ){\n        CoffeeBatch memory coffeeBatch = coffeeBatches[_uid];\n        return(\n            coffeeBatch.uid,\n            coffeeBatch.farmUid,\n            coffeeBatch.altitude,\n            coffeeBatch.variety,\n            coffeeBatch.process,\n            coffeeBatch.size,\n            coffeeBatch.isSold\n        ); \n    }\n\n    function addCoffeeBatch(uint _farmUid, uint16 _altitude, bytes32 _variety, bytes32 _process, uint32 _size) public {\n     //   Action memory action = Action(msg.sender,\"creation\",_additionalInformation, _timestamp); \n        //Fixes memory error that doesn't allow to create memory objects in structs\n        uint uid = coffeeBatchCount;\n        CoffeeBatch memory coffeeBatch = CoffeeBatch(uid, _farmUid, _altitude, _variety, _process, _size, false);\n        coffeeBatchCount++;\n        coffeeBatches[uid] = coffeeBatch;\n        farmToBatches[_farmUid].push(uid);\n        emit LogAddCoffeeBatch(uid, _farmUid, _altitude, _variety, _process, _size, false);        \n    }\n    //TODO: Only owner should update\n    function updateCoffeeBatch(uint _coffeeUid, uint _farmUid, uint16 _altitude, bytes32 _variety, bytes32 _process, uint32 _size) public {\n     //   Action memory action = Action(msg.sender,\"creation\",_additionalInformation, _timestamp); \n        //Fixes memory error that doesn't allow to create memory objects in structs\n        CoffeeBatch storage coffeeBatch = coffeeBatches[_coffeeUid];\n        coffeeBatch.farmUid = _farmUid;\n        coffeeBatch.altitude = _altitude;\n        coffeeBatch.variety = _variety;\n        coffeeBatch.process = _process;\n        coffeeBatch.size = _size;\n        emit LogUpdateCoffeeBatch(_coffeeUid, _farmUid, _altitude, _variety, _process, _size, coffeeBatch.isSold);        \n    }\n} ",
  "sourcePath": "/Users/crisgarner/Projects/affogato/affogato-contract/contracts/Coffee.sol",
  "compiler": {
    "name": "solc",
    "version": "0.4.24+commit.e67f0147.Emscripten.clang"
  },
  "schemaVersion": "2.0.1",
  "updatedAt": "2018-11-10T19:31:27.512Z"
}