{
  "contractName": "Coffee",
  "abi": [
    {
      "constant": true,
      "inputs": [
        {
          "name": "",
          "type": "uint256"
        }
      ],
      "name": "coffeeBatches",
      "outputs": [
        {
          "name": "id",
          "type": "uint256"
        },
        {
          "name": "altitude",
          "type": "uint16"
        },
        {
          "name": "variety",
          "type": "bytes32"
        },
        {
          "name": "lastCuppingNote",
          "type": "string"
        },
        {
          "name": "isSold",
          "type": "bool"
        },
        {
          "name": "additionalInformation",
          "type": "string"
        }
      ],
      "payable": false,
      "stateMutability": "view",
      "type": "function"
    },
    {
      "anonymous": false,
      "inputs": [
        {
          "indexed": true,
          "name": "_id",
          "type": "uint256"
        }
      ],
      "name": "LogAddCoffeeBatch",
      "type": "event"
    },
    {
      "anonymous": false,
      "inputs": [
        {
          "indexed": true,
          "name": "_id",
          "type": "uint256"
        }
      ],
      "name": "LogAddCoffeeBatchAction",
      "type": "event"
    },
    {
      "anonymous": false,
      "inputs": [
        {
          "indexed": true,
          "name": "_id",
          "type": "uint256"
        }
      ],
      "name": "LogAddCoffeeBatchTasting",
      "type": "event"
    },
    {
      "anonymous": false,
      "inputs": [
        {
          "indexed": true,
          "name": "_id",
          "type": "uint256"
        }
      ],
      "name": "LogAddCoffeeBatchCertficate",
      "type": "event"
    },
    {
      "constant": true,
      "inputs": [],
      "name": "getCount",
      "outputs": [
        {
          "name": "count",
          "type": "uint256"
        }
      ],
      "payable": false,
      "stateMutability": "view",
      "type": "function"
    },
    {
      "constant": true,
      "inputs": [
        {
          "name": "_id",
          "type": "uint256"
        }
      ],
      "name": "getCoffeeBatchTastersCount",
      "outputs": [
        {
          "name": "count",
          "type": "uint256"
        }
      ],
      "payable": false,
      "stateMutability": "view",
      "type": "function"
    },
    {
      "constant": true,
      "inputs": [
        {
          "name": "_id",
          "type": "uint256"
        }
      ],
      "name": "getCoffeeBatchCertificatesCount",
      "outputs": [
        {
          "name": "count",
          "type": "uint256"
        }
      ],
      "payable": false,
      "stateMutability": "view",
      "type": "function"
    },
    {
      "constant": true,
      "inputs": [
        {
          "name": "_coffeeBatchIndex",
          "type": "uint256"
        }
      ],
      "name": "getCoffeeBatchActions",
      "outputs": [
        {
          "name": "",
          "type": "bytes32[]"
        }
      ],
      "payable": false,
      "stateMutability": "view",
      "type": "function"
    },
    {
      "constant": true,
      "inputs": [
        {
          "name": "_coffeeBatchIndex",
          "type": "uint256"
        },
        {
          "name": "_typeOfaction",
          "type": "bytes32"
        }
      ],
      "name": "getCoffeeBatchAction",
      "outputs": [
        {
          "name": "",
          "type": "address"
        },
        {
          "name": "",
          "type": "bytes32"
        },
        {
          "name": "",
          "type": "string"
        },
        {
          "name": "",
          "type": "uint256"
        }
      ],
      "payable": false,
      "stateMutability": "view",
      "type": "function"
    },
    {
      "constant": true,
      "inputs": [
        {
          "name": "_coffeeBatchIndex",
          "type": "uint256"
        }
      ],
      "name": "getCoffeeBatchTasters",
      "outputs": [
        {
          "name": "",
          "type": "address[]"
        }
      ],
      "payable": false,
      "stateMutability": "view",
      "type": "function"
    },
    {
      "constant": true,
      "inputs": [
        {
          "name": "_coffeeBatchIndex",
          "type": "uint256"
        },
        {
          "name": "_certificateId",
          "type": "uint256"
        }
      ],
      "name": "getCoffeeBatchCertificate",
      "outputs": [
        {
          "name": "",
          "type": "address"
        },
        {
          "name": "",
          "type": "bytes32"
        },
        {
          "name": "",
          "type": "string"
        },
        {
          "name": "",
          "type": "uint256"
        }
      ],
      "payable": false,
      "stateMutability": "view",
      "type": "function"
    },
    {
      "constant": true,
      "inputs": [
        {
          "name": "_coffeeBatchIndex",
          "type": "uint256"
        },
        {
          "name": "_taster",
          "type": "address"
        }
      ],
      "name": "getCoffeeBatchCupProfile",
      "outputs": [
        {
          "name": "",
          "type": "bytes32"
        },
        {
          "name": "",
          "type": "bytes32"
        },
        {
          "name": "",
          "type": "bytes32"
        },
        {
          "name": "",
          "type": "bytes32"
        },
        {
          "name": "",
          "type": "bytes32"
        },
        {
          "name": "",
          "type": "string"
        },
        {
          "name": "",
          "type": "string"
        },
        {
          "name": "",
          "type": "uint256"
        }
      ],
      "payable": false,
      "stateMutability": "view",
      "type": "function"
    },
    {
      "constant": false,
      "inputs": [
        {
          "name": "_altitude",
          "type": "uint16"
        },
        {
          "name": "_variety",
          "type": "bytes32"
        },
        {
          "name": "_additionalInformation",
          "type": "string"
        },
        {
          "name": "_timestamp",
          "type": "uint256"
        }
      ],
      "name": "addCoffeeBatch",
      "outputs": [],
      "payable": false,
      "stateMutability": "nonpayable",
      "type": "function"
    },
    {
      "constant": false,
      "inputs": [
        {
          "name": "_coffeeBatchId",
          "type": "uint256"
        },
        {
          "name": "_typeOfAction",
          "type": "bytes32"
        },
        {
          "name": "_additionalInformation",
          "type": "string"
        },
        {
          "name": "_timestamp",
          "type": "uint256"
        }
      ],
      "name": "addCoffeeBatchAction",
      "outputs": [],
      "payable": false,
      "stateMutability": "nonpayable",
      "type": "function"
    },
    {
      "constant": false,
      "inputs": [
        {
          "name": "_coffeeBatchId",
          "type": "uint256"
        },
        {
          "name": "_aroma",
          "type": "bytes32"
        },
        {
          "name": "_flavor",
          "type": "bytes32"
        },
        {
          "name": "_acidity",
          "type": "bytes32"
        },
        {
          "name": "_body",
          "type": "bytes32"
        },
        {
          "name": "_aftertaste",
          "type": "bytes32"
        },
        {
          "name": "_cuppingNote",
          "type": "string"
        },
        {
          "name": "_additionalInformation",
          "type": "string"
        },
        {
          "name": "_timestamp",
          "type": "uint256"
        }
      ],
      "name": "addCoffeeBatchTasting",
      "outputs": [],
      "payable": false,
      "stateMutability": "nonpayable",
      "type": "function"
    },
    {
      "constant": false,
      "inputs": [
        {
          "name": "_coffeeBatchId",
          "type": "uint256"
        },
        {
          "name": "_typeOfCertificate",
          "type": "bytes32"
        },
        {
          "name": "_additionalInformation",
          "type": "string"
        },
        {
          "name": "_timestamp",
          "type": "uint256"
        }
      ],
      "name": "addCoffeeBatchCertificate",
      "outputs": [],
      "payable": false,
      "stateMutability": "nonpayable",
      "type": "function"
    }
  ],
  "bytecode": "0x608060405234801561001057600080fd5b506128da806100206000396000f3006080604052600436106100c5576000357c0100000000000000000000000000000000000000000000000000000000900463ffffffff1680630566abd2146100ca5780630b45dfa1146101555780631baa459b146101965780632ee43f9e1461021857806338a5cd3a1461029a578063395209b2146103975780633a7f6ced146104d95780634266939d146105e25780635e69b5fd1461066d5780635f658313146106fc57806365352e5e146107f5578063a87d942c14610979578063a96dd2df146109a4575b600080fd5b3480156100d657600080fd5b50610153600480360381019080803590602001909291908035600019169060200190929190803590602001908201803590602001908080601f0160208091040260200160405190810160405280939291908181526020018383808284378201915050505050509192919290803590602001909291905050506109e5565b005b34801561016157600080fd5b5061018060048036038101908080359060200190929190505050610b36565b6040518082815260200191505060405180910390f35b3480156101a257600080fd5b506101c160048036038101908080359060200190929190505050610b62565b6040518080602001828103825283818151815260200191508051906020019060200280838360005b838110156102045780820151818401526020810190506101e9565b505050509050019250505060405180910390f35b34801561022457600080fd5b5061024360048036038101908080359060200190929190505050610f9e565b6040518080602001828103825283818151815260200191508051906020019060200280838360005b8381101561028657808201518184015260208101905061026b565b505050509050019250505060405180910390f35b3480156102a657600080fd5b506102d36004803603810190808035906020019092919080356000191690602001909291905050506113da565b604051808573ffffffffffffffffffffffffffffffffffffffff1673ffffffffffffffffffffffffffffffffffffffff168152602001846000191660001916815260200180602001838152602001828103825284818151815260200191508051906020019080838360005b8381101561035957808201518184015260208101905061033e565b50505050905090810190601f1680156103865780820380516001836020036101000a031916815260200191505b509550505050505060405180910390f35b3480156103a357600080fd5b506103c260048036038101908080359060200190929190505050611572565b604051808781526020018661ffff1661ffff1681526020018560001916600019168152602001806020018415151515815260200180602001838103835286818151815260200191508051906020019080838360005b83811015610432578082015181840152602081019050610417565b50505050905090810190601f16801561045f5780820380516001836020036101000a031916815260200191505b50838103825284818151815260200191508051906020019080838360005b8381101561049857808201518184015260208101905061047d565b50505050905090810190601f1680156104c55780820380516001836020036101000a031916815260200191505b509850505050505050505060405180910390f35b3480156104e557600080fd5b506105e06004803603810190808035906020019092919080356000191690602001909291908035600019169060200190929190803560001916906020019092919080356000191690602001909291908035600019169060200190929190803590602001908201803590602001908080601f0160208091040260200160405190810160405280939291908181526020018383808284378201915050505050509192919290803590602001908201803590602001908080601f016020809104026020016040519081016040528093929190818152602001838380828437820191505050505050919291929080359060200190929190505050611708565b005b3480156105ee57600080fd5b5061066b600480360381019080803590602001909291908035600019169060200190929190803590602001908201803590602001908080601f01602080910402602001604051908101604052809392919081815260200183838082843782019150505050505091929192908035906020019092919050505061191a565b005b34801561067957600080fd5b506106fa600480360381019080803561ffff1690602001909291908035600019169060200190929190803590602001908201803590602001908080601f016020809104026020016040519081016040528093929190818152602001838380828437820191505050505050919291929080359060200190929190505050611a8d565b005b34801561070857600080fd5b506107316004803603810190808035906020019092919080359060200190929190505050611d11565b604051808573ffffffffffffffffffffffffffffffffffffffff1673ffffffffffffffffffffffffffffffffffffffff168152602001846000191660001916815260200180602001838152602001828103825284818151815260200191508051906020019080838360005b838110156107b757808201518184015260208101905061079c565b50505050905090810190601f1680156107e45780820380516001836020036101000a031916815260200191505b509550505050505060405180910390f35b34801561080157600080fd5b5061084060048036038101908080359060200190929190803573ffffffffffffffffffffffffffffffffffffffff169060200190929190505050612195565b60405180896000191660001916815260200188600019166000191681526020018760001916600019168152602001866000191660001916815260200185600019166000191681526020018060200180602001848152602001838103835286818151815260200191508051906020019080838360005b838110156108d05780820151818401526020810190506108b5565b50505050905090810190601f1680156108fd5780820380516001836020036101000a031916815260200191505b50838103825285818151815260200191508051906020019080838360005b8381101561093657808201518184015260208101905061091b565b50505050905090810190601f1680156109635780820380516001836020036101000a031916815260200191505b509a505050505050505050505060405180910390f35b34801561098557600080fd5b5061098e61240f565b6040518082815260200191505060405180910390f35b3480156109b057600080fd5b506109cf6004803603810190808035906020019092919050505061241b565b6040518082815260200191505060405180910390f35b6109ed612447565b60006080604051908101604052803373ffffffffffffffffffffffffffffffffffffffff16815260200186600019168152602001858152602001848152509150600086815481101515610a3c57fe5b90600052602060002090600b0201905080600901829080600181540180825580915050906001820390600052602060002090600402016000909192909190915060008201518160000160006101000a81548173ffffffffffffffffffffffffffffffffffffffff021916908373ffffffffffffffffffffffffffffffffffffffff160217905550602082015181600101906000191690556040820151816002019080519060200190610aef929190612489565b506060820151816003015550505080600001547fdc4f6c2b13fe299540432f7a013b686eb5d68408a6ccf3e5348c40a13d708a7b60405160405180910390a2505050505050565b60008082815481101515610b4657fe5b90600052602060002090600b0201600801805490509050919050565b6060610b6c612509565b600083815481101515610b7b57fe5b90600052602060002090600b02016101206040519081016040529081600082015481526020016001820160009054906101000a900461ffff1661ffff1661ffff168152602001600282015460001916600019168152602001600382018054600181600116156101000203166002900480601f016020809104026020016040519081016040528092919081815260200182805460018160011615610100020316600290048015610c6b5780601f10610c4057610100808354040283529160200191610c6b565b820191906000526020600020905b815481529060010190602001808311610c4e57829003601f168201915b505050505081526020016004820160009054906101000a900460ff1615151515815260200160068201805480602002602001604051908101604052809291908181526020018280548015610ce257602002820191906000526020600020905b81546000191681526020019060010190808311610cca575b5050505050815260200160088201805480602002602001604051908101604052809291908181526020018280548015610d7057602002820191906000526020600020905b8160009054906101000a900473ffffffffffffffffffffffffffffffffffffffff1673ffffffffffffffffffffffffffffffffffffffff1681526020019060010190808311610d26575b5050505050815260200160098201805480602002602001604051908101604052809291908181526020016000905b82821015610ee55783829060005260206000209060040201608060405190810160405290816000820160009054906101000a900473ffffffffffffffffffffffffffffffffffffffff1673ffffffffffffffffffffffffffffffffffffffff1673ffffffffffffffffffffffffffffffffffffffff168152602001600182015460001916600019168152602001600282018054600181600116156101000203166002900480601f016020809104026020016040519081016040528092919081815260200182805460018160011615610100020316600290048015610ec35780601f10610e9857610100808354040283529160200191610ec3565b820191906000526020600020905b815481529060010190602001808311610ea657829003601f168201915b5050505050815260200160038201548152505081526020019060010190610d9e565b505050508152602001600a82018054600181600116156101000203166002900480601f016020809104026020016040519081016040528092919081815260200182805460018160011615610100020316600290048015610f865780601f10610f5b57610100808354040283529160200191610f86565b820191906000526020600020905b815481529060010190602001808311610f6957829003601f168201915b50505050508152505090508060a00151915050919050565b6060610fa8612509565b600083815481101515610fb757fe5b90600052602060002090600b02016101206040519081016040529081600082015481526020016001820160009054906101000a900461ffff1661ffff1661ffff168152602001600282015460001916600019168152602001600382018054600181600116156101000203166002900480601f0160208091040260200160405190810160405280929190818152602001828054600181600116156101000203166002900480156110a75780601f1061107c576101008083540402835291602001916110a7565b820191906000526020600020905b81548152906001019060200180831161108a57829003601f168201915b505050505081526020016004820160009054906101000a900460ff161515151581526020016006820180548060200260200160405190810160405280929190818152602001828054801561111e57602002820191906000526020600020905b81546000191681526020019060010190808311611106575b50505050508152602001600882018054806020026020016040519081016040528092919081815260200182805480156111ac57602002820191906000526020600020905b8160009054906101000a900473ffffffffffffffffffffffffffffffffffffffff1673ffffffffffffffffffffffffffffffffffffffff1681526020019060010190808311611162575b5050505050815260200160098201805480602002602001604051908101604052809291908181526020016000905b828210156113215783829060005260206000209060040201608060405190810160405290816000820160009054906101000a900473ffffffffffffffffffffffffffffffffffffffff1673ffffffffffffffffffffffffffffffffffffffff1673ffffffffffffffffffffffffffffffffffffffff168152602001600182015460001916600019168152602001600282018054600181600116156101000203166002900480601f0160208091040260200160405190810160405280929190818152602001828054600181600116156101000203166002900480156112ff5780601f106112d4576101008083540402835291602001916112ff565b820191906000526020600020905b8154815290600101906020018083116112e257829003601f168201915b50505050508152602001600382015481525050815260200190600101906111da565b505050508152602001600a82018054600181600116156101000203166002900480601f0160208091040260200160405190810160405280929190818152602001828054600181600116156101000203166002900480156113c25780601f10611397576101008083540402835291602001916113c2565b820191906000526020600020905b8154815290600101906020018083116113a557829003601f168201915b50505050508152505090508060c00151915050919050565b60008060606000806113ea61255f565b6000888154811015156113f957fe5b90600052602060002090600b020191508160050160008860001916600019168152602001908152602001600020608060405190810160405290816000820160009054906101000a900473ffffffffffffffffffffffffffffffffffffffff1673ffffffffffffffffffffffffffffffffffffffff1673ffffffffffffffffffffffffffffffffffffffff168152602001600182015460001916600019168152602001600282018054600181600116156101000203166002900480601f0160208091040260200160405190810160405280929190818152602001828054600181600116156101000203166002900480156115335780601f1061150857610100808354040283529160200191611533565b820191906000526020600020905b81548152906001019060200180831161151657829003601f168201915b50505050508152602001600382015481525050905080600001518160200151826040015183606001518191509550955095509550505092959194509250565b60008181548110151561158157fe5b90600052602060002090600b02016000915090508060000154908060010160009054906101000a900461ffff1690806002015490806003018054600181600116156101000203166002900480601f01602080910402602001604051908101604052809291908181526020018280546001816001161561010002031660029004801561164d5780601f106116225761010080835404028352916020019161164d565b820191906000526020600020905b81548152906001019060200180831161163057829003601f168201915b5050505050908060040160009054906101000a900460ff169080600a018054600181600116156101000203166002900480601f0160208091040260200160405190810160405280929190818152602001828054600181600116156101000203166002900480156116fe5780601f106116d3576101008083540402835291602001916116fe565b820191906000526020600020905b8154815290600101906020018083116116e157829003601f168201915b5050505050905086565b6117106125a1565b6000610100604051908101604052808b6000191681526020018a60001916815260200189600019168152602001886000191681526020018760001916815260200186815260200185815260200184815250915060008b81548110151561177257fe5b90600052602060002090600b020190508481600301908051906020019061179a9291906125f6565b50818160070160003373ffffffffffffffffffffffffffffffffffffffff1673ffffffffffffffffffffffffffffffffffffffff168152602001908152602001600020600082015181600001906000191690556020820151816001019060001916905560408201518160020190600019169055606082015181600301906000191690556080820151816004019060001916905560a0820151816005019080519060200190611849929190612489565b5060c0820151816006019080519060200190611866929190612489565b5060e08201518160070155905050806008013390806001815401808255809150509060018203906000526020600020016000909192909190916101000a81548173ffffffffffffffffffffffffffffffffffffffff021916908373ffffffffffffffffffffffffffffffffffffffff1602179055505080600001547f94c5dcb574d4aaba5d6c06891225047ce65ffe7a778573c0c5cea91fb3dcf48960405160405180910390a25050505050505050505050565b61192261255f565b60006080604051908101604052803373ffffffffffffffffffffffffffffffffffffffff1681526020018660001916815260200185815260200184815250915060008681548110151561197157fe5b90600052602060002090600b0201905081816005016000876000191660001916815260200190815260200160002060008201518160000160006101000a81548173ffffffffffffffffffffffffffffffffffffffff021916908373ffffffffffffffffffffffffffffffffffffffff160217905550602082015181600101906000191690556040820151816002019080519060200190611a12929190612489565b50606082015181600301559050508060060185908060018154018082558091505090600182039060005260206000200160009091929091909150906000191690555080600001547fef4ff4186a3f987641550f1a6462560502f0a3416a73279c035aecd4c980e0cb60405160405180910390a2505050505050565b611a9561255f565b60006080604051908101604052803373ffffffffffffffffffffffffffffffffffffffff1681526020017f6372656174696f6e00000000000000000000000000000000000000000000000060001916815260200185815260200184815250915060008054809190600101611b099190612676565b506000600160008054905003815481101515611b2157fe5b90600052602060002090600b020190506001600080549050038160000181905550858160010160006101000a81548161ffff021916908361ffff160217905550848160020181600019169055506020604051908101604052806000815250816003019080519060200190611b969291906125f6565b5060008160040160006101000a81548160ff021916908315150217905550818160050160007f6372656174696f6e00000000000000000000000000000000000000000000000060001916815260200190815260200160002060008201518160000160006101000a81548173ffffffffffffffffffffffffffffffffffffffff021916908373ffffffffffffffffffffffffffffffffffffffff160217905550602082015181600101906000191690556040820151816002019080519060200190611c61929190612489565b5060608201518160030155905050806006018060018154018082558091505090600182039060005260206000200160007f6372656174696f6e000000000000000000000000000000000000000000000000909190915090600019169055508381600a019080519060200190611cd79291906125f6565b5080600001547f684ed311dfce0b2f238df429a4d82f34400ec203c6c44bdffb6490527cb196be60405160405180910390a2505050505050565b60008060606000611d20612509565b611d28612447565b600088815481101515611d3757fe5b90600052602060002090600b02016101206040519081016040529081600082015481526020016001820160009054906101000a900461ffff1661ffff1661ffff168152602001600282015460001916600019168152602001600382018054600181600116156101000203166002900480601f016020809104026020016040519081016040528092919081815260200182805460018160011615610100020316600290048015611e275780601f10611dfc57610100808354040283529160200191611e27565b820191906000526020600020905b815481529060010190602001808311611e0a57829003601f168201915b505050505081526020016004820160009054906101000a900460ff1615151515815260200160068201805480602002602001604051908101604052809291908181526020018280548015611e9e57602002820191906000526020600020905b81546000191681526020019060010190808311611e86575b5050505050815260200160088201805480602002602001604051908101604052809291908181526020018280548015611f2c57602002820191906000526020600020905b8160009054906101000a900473ffffffffffffffffffffffffffffffffffffffff1673ffffffffffffffffffffffffffffffffffffffff1681526020019060010190808311611ee2575b5050505050815260200160098201805480602002602001604051908101604052809291908181526020016000905b828210156120a15783829060005260206000209060040201608060405190810160405290816000820160009054906101000a900473ffffffffffffffffffffffffffffffffffffffff1673ffffffffffffffffffffffffffffffffffffffff1673ffffffffffffffffffffffffffffffffffffffff168152602001600182015460001916600019168152602001600282018054600181600116156101000203166002900480601f01602080910402602001604051908101604052809291908181526020018280546001816001161561010002031660029004801561207f5780601f106120545761010080835404028352916020019161207f565b820191906000526020600020905b81548152906001019060200180831161206257829003601f168201915b5050505050815260200160038201548152505081526020019060010190611f5a565b505050508152602001600a82018054600181600116156101000203166002900480601f0160208091040260200160405190810160405280929190818152602001828054600181600116156101000203166002900480156121425780601f1061211757610100808354040283529160200191612142565b820191906000526020600020905b81548152906001019060200180831161212557829003601f168201915b50505050508152505091508160e001518781518110151561215f57fe5b90602001906020020151905080600001518160200151826040015183606001518191509550955095509550505092959194509250565b60008060008060006060806000806121ab6125a1565b60008c8154811015156121ba57fe5b90600052602060002090600b020191508160070160008c73ffffffffffffffffffffffffffffffffffffffff1673ffffffffffffffffffffffffffffffffffffffff1681526020019081526020016000206101006040519081016040529081600082015460001916600019168152602001600182015460001916600019168152602001600282015460001916600019168152602001600382015460001916600019168152602001600482015460001916600019168152602001600582018054600181600116156101000203166002900480601f01602080910402602001604051908101604052809291908181526020018280546001816001161561010002031660029004801561230b5780601f106122e05761010080835404028352916020019161230b565b820191906000526020600020905b8154815290600101906020018083116122ee57829003601f168201915b50505050508152602001600682018054600181600116156101000203166002900480601f0160208091040260200160405190810160405280929190818152602001828054600181600116156101000203166002900480156123ad5780601f10612382576101008083540402835291602001916123ad565b820191906000526020600020905b81548152906001019060200180831161239057829003601f168201915b505050505081526020016007820154815250509050806000015181602001518260400151836060015184608001518560a001518660c001518760e001518292508191509950995099509950995099509950995050509295985092959890939650565b60008080549050905090565b6000808281548110151561242b57fe5b90600052602060002090600b0201600901805490509050919050565b608060405190810160405280600073ffffffffffffffffffffffffffffffffffffffff1681526020016000801916815260200160608152602001600081525090565b828054600181600116156101000203166002900490600052602060002090601f016020900481019282601f106124ca57805160ff19168380011785556124f8565b828001600101855582156124f8579182015b828111156124f75782518255916020019190600101906124dc565b5b50905061250591906126a8565b5090565b6101206040519081016040528060008152602001600061ffff1681526020016000801916815260200160608152602001600015158152602001606081526020016060815260200160608152602001606081525090565b608060405190810160405280600073ffffffffffffffffffffffffffffffffffffffff1681526020016000801916815260200160608152602001600081525090565b6101006040519081016040528060008019168152602001600080191681526020016000801916815260200160008019168152602001600080191681526020016060815260200160608152602001600081525090565b828054600181600116156101000203166002900490600052602060002090601f016020900481019282601f1061263757805160ff1916838001178555612665565b82800160010185558215612665579182015b82811115612664578251825591602001919060010190612649565b5b50905061267291906126a8565b5090565b8154818355818111156126a357600b0281600b0283600052602060002091820191016126a291906126cd565b5b505050565b6126ca91905b808211156126c65760008160009055506001016126ae565b5090565b90565b61277291905b8082111561276e576000808201600090556001820160006101000a81549061ffff021916905560028201600090556003820160006127119190612775565b6004820160006101000a81549060ff021916905560068201600061273591906127bd565b60088201600061274591906127de565b60098201600061275591906127ff565b600a820160006127659190612775565b50600b016126d3565b5090565b90565b50805460018160011615610100020316600290046000825580601f1061279b57506127ba565b601f0160209004906000526020600020908101906127b991906126a8565b5b50565b50805460008255906000526020600020908101906127db9190612823565b50565b50805460008255906000526020600020908101906127fc91906126a8565b50565b50805460008255600402906000526020600020908101906128209190612848565b50565b61284591905b80821115612841576000816000905550600101612829565b5090565b90565b6128ab91905b808211156128a757600080820160006101000a81549073ffffffffffffffffffffffffffffffffffffffff021916905560018201600090556002820160006128969190612775565b60038201600090555060040161284e565b5090565b905600a165627a7a723058203c97723591cf462a4bd017337aaa6d6e7fb0b1550644f3af5a7decbc9f0dbe350029",
  "source": "pragma solidity ^0.4.23;\n\ncontract Coffee{\n\n    event LogAddCoffeeBatch(uint256 indexed _id);\n    event LogAddCoffeeBatchAction(uint256 indexed _id);\n    event LogAddCoffeeBatchTasting(uint256 indexed _id);\n    event LogAddCoffeeBatchCertficate(uint256 indexed _id);\n     \n    struct CoffeeBatch{\n        uint256 id;\n        uint16 altitude;\n        bytes32 variety;\n        string lastCuppingNote; \n        bool isSold;\n        mapping(bytes32 => Action) actions;\n        bytes32[] actionIds;\n        mapping(address => CupProfile) cupProfiles;\n        address[] tasters;\n        Certificate[] certificates;\n        string additionalInformation;\n        \n    }\n    \n    struct Action{\n        //@dev address of the individual or the organization who realizes the action.\n        address processor;\n        //@dev description of the action.\n        bytes32 typeOfAction; \n        string additionalInformation;\n        // @dev Instant of time when the Action is done.\n        uint timestamp;\n    }\n\n    struct CupProfile{\n        bytes32 aroma;\n        bytes32 flavor;\n        bytes32 acidity;\n        bytes32 body;\n        bytes32 aftertaste;\n        string cuppingNote;\n        string additionalInformation;\n        uint timestamp;\n    }\n\n    struct Certificate{\n        address certifier;\n        bytes32 typeOfCertificate; \n        string additionalInformation;\n        // @dev Instant of time when the Action is done.\n        uint timestamp;\n    }\n\n    CoffeeBatch[] public coffeeBatches;\n   // mapping(uint256 => CoffeeBatch) coffeeBatches;\n   // uint256[] coffeeBatchIds;\n\n    function getCount() public view returns(uint count) {\n        return coffeeBatches.length;\n    }\n\n    function getCoffeeBatchTastersCount(uint _id) public view returns(uint count) {\n        return coffeeBatches[_id].tasters.length;\n    }\n\n    function getCoffeeBatchCertificatesCount(uint _id) public view returns(uint count) {\n        return coffeeBatches[_id].certificates.length;\n    }\n\n    function getCoffeeBatchActions(uint _coffeeBatchIndex) public view returns(bytes32[]){\n        CoffeeBatch memory coffeeBatch = coffeeBatches[_coffeeBatchIndex];\n        return coffeeBatch.actionIds;\n    }\n\n    function getCoffeeBatchAction(uint _coffeeBatchIndex, bytes32 _typeOfaction) \n    public view returns (address,bytes32,string,uint){\n        CoffeeBatch storage coffeeBatch = coffeeBatches[_coffeeBatchIndex];\n        Action memory action = coffeeBatch.actions[_typeOfaction];\n        return (\n            action.processor,\n            action.typeOfAction,\n            action.additionalInformation,\n            action.timestamp\n        );\n    }\n\n    function getCoffeeBatchTasters(uint _coffeeBatchIndex) public view returns(address[]){\n        CoffeeBatch memory coffeeBatch = coffeeBatches[_coffeeBatchIndex];\n        return coffeeBatch.tasters;\n    }\n\n    function getCoffeeBatchCertificate(uint _coffeeBatchIndex, uint _certificateId) \n    public view returns(\n        address,\n        bytes32,\n        string,\n        uint\n    ){\n        CoffeeBatch memory coffeeBatch = coffeeBatches[_coffeeBatchIndex];\n        Certificate memory certificate = coffeeBatch.certificates[_certificateId];\n        return(\n            certificate.certifier,\n            certificate.typeOfCertificate,\n            certificate.additionalInformation,\n            certificate.timestamp\n        );\n    }\n\n    function getCoffeeBatchCupProfile(uint _coffeeBatchIndex, address _taster) public view returns(\n        bytes32,\n        bytes32,\n        bytes32,\n        bytes32,\n        bytes32,\n        string,\n        string,\n        uint\n    ){\n        CoffeeBatch storage coffeeBatch = coffeeBatches[_coffeeBatchIndex];\n        CupProfile memory cupProfile = coffeeBatch.cupProfiles[_taster];\n        return(\n            cupProfile.aroma,\n            cupProfile.flavor,\n            cupProfile.acidity,\n            cupProfile.body,\n            cupProfile.aftertaste,\n            cupProfile.cuppingNote,\n            cupProfile.additionalInformation,\n            cupProfile.timestamp\n        );\n    }\n\n    function addCoffeeBatch(uint16 _altitude, bytes32 _variety, string _additionalInformation, uint _timestamp) public {\n        Action memory action = Action(msg.sender,\"creation\",_additionalInformation, _timestamp); \n        //Fixes memory error that doesn't allow to create memory objects in structs\n        coffeeBatches.length++;\n        CoffeeBatch storage coffeeBatch = coffeeBatches[coffeeBatches.length - 1];\n        //Assigns values\n        coffeeBatch.id = coffeeBatches.length - 1;\n        coffeeBatch.altitude = _altitude;\n        coffeeBatch.variety = _variety;\n        coffeeBatch.lastCuppingNote = \"\";\n        coffeeBatch.isSold = false;\n        coffeeBatch.actions[\"creation\"] = action;\n        coffeeBatch.actionIds.push(\"creation\");\n        coffeeBatch.additionalInformation = _additionalInformation;\n        //logs insert\n        emit LogAddCoffeeBatch(coffeeBatch.id);        \n    }\n\n    function addCoffeeBatchAction(uint _coffeeBatchId, bytes32 _typeOfAction, string _additionalInformation, uint _timestamp) public {\n        Action memory action = Action(msg.sender,_typeOfAction,_additionalInformation, _timestamp); \n        CoffeeBatch storage coffeeBatch = coffeeBatches[_coffeeBatchId];\n        coffeeBatch.actions[_typeOfAction] = action;\n        coffeeBatch.actionIds.push(_typeOfAction);\n        emit LogAddCoffeeBatchAction(coffeeBatch.id);   \n    }\n\n    function addCoffeeBatchTasting(\n        uint _coffeeBatchId,\n        bytes32 _aroma, \n        bytes32 _flavor, \n        bytes32 _acidity, \n        bytes32 _body, \n        bytes32 _aftertaste, \n        string _cuppingNote, \n        string _additionalInformation,\n        uint _timestamp\n    ) public {\n        CupProfile memory cupProfile = CupProfile(\n            _aroma, \n            _flavor, \n            _acidity, \n            _body, \n            _aftertaste, \n            _cuppingNote, \n            _additionalInformation,\n            _timestamp\n        ); \n        CoffeeBatch storage coffeeBatch = coffeeBatches[_coffeeBatchId];\n        coffeeBatch.lastCuppingNote = _cuppingNote;\n        coffeeBatch.cupProfiles[msg.sender] = cupProfile;\n        coffeeBatch.tasters.push(msg.sender); \n        emit LogAddCoffeeBatchTasting(coffeeBatch.id); \n    }\n\n    function addCoffeeBatchCertificate(\n        uint _coffeeBatchId,\n        bytes32 _typeOfCertificate,\n        string _additionalInformation,\n        uint _timestamp\n    ) public {\n        Certificate memory certificate = Certificate(msg.sender, _typeOfCertificate, _additionalInformation, _timestamp);\n        CoffeeBatch storage coffeeBatch = coffeeBatches[_coffeeBatchId];\n        coffeeBatch.certificates.push(certificate);\n        emit LogAddCoffeeBatchCertficate(coffeeBatch.id); \n    }\n\n\n    //TODO\n    //Handle same action\n    //Update Action\n    //Finish Process\n    \n} ",
  "sourcePath": "/Users/crisgarner/Projects/affogato/contracts/Coffee.sol",
  "compiler": {
    "name": "solc",
    "version": "0.4.24+commit.e67f0147.Emscripten.clang"
  },
  "schemaVersion": "2.0.1",
  "updatedAt": "2018-08-11T20:34:09.923Z"
}