{
  "contractName": "Coffee",
  "abi": [
    {
      "constant": true,
      "inputs": [
        {
          "name": "",
          "type": "uint256"
        }
      ],
      "name": "coffeeBatches",
      "outputs": [
        {
          "name": "uid",
          "type": "uint256"
        },
        {
          "name": "owner",
          "type": "address"
        },
        {
          "name": "farmUid",
          "type": "uint256"
        },
        {
          "name": "altitude",
          "type": "uint16"
        },
        {
          "name": "variety",
          "type": "bytes32"
        },
        {
          "name": "process",
          "type": "bytes32"
        },
        {
          "name": "size",
          "type": "uint32"
        },
        {
          "name": "isSold",
          "type": "bool"
        }
      ],
      "payable": false,
      "stateMutability": "view",
      "type": "function",
      "signature": "0x395209b2"
    },
    {
      "constant": false,
      "inputs": [],
      "name": "unpause",
      "outputs": [],
      "payable": false,
      "stateMutability": "nonpayable",
      "type": "function",
      "signature": "0x3f4ba83a"
    },
    {
      "constant": true,
      "inputs": [],
      "name": "paused",
      "outputs": [
        {
          "name": "",
          "type": "bool"
        }
      ],
      "payable": false,
      "stateMutability": "view",
      "type": "function",
      "signature": "0x5c975abb"
    },
    {
      "constant": false,
      "inputs": [],
      "name": "renounceOwnership",
      "outputs": [],
      "payable": false,
      "stateMutability": "nonpayable",
      "type": "function",
      "signature": "0x715018a6"
    },
    {
      "constant": false,
      "inputs": [],
      "name": "pause",
      "outputs": [],
      "payable": false,
      "stateMutability": "nonpayable",
      "type": "function",
      "signature": "0x8456cb59"
    },
    {
      "constant": true,
      "inputs": [],
      "name": "owner",
      "outputs": [
        {
          "name": "",
          "type": "address"
        }
      ],
      "payable": false,
      "stateMutability": "view",
      "type": "function",
      "signature": "0x8da5cb5b"
    },
    {
      "constant": true,
      "inputs": [],
      "name": "isOwner",
      "outputs": [
        {
          "name": "",
          "type": "bool"
        }
      ],
      "payable": false,
      "stateMutability": "view",
      "type": "function",
      "signature": "0x8f32d59b"
    },
    {
      "constant": true,
      "inputs": [
        {
          "name": "",
          "type": "uint256"
        },
        {
          "name": "",
          "type": "uint256"
        }
      ],
      "name": "farmToBatches",
      "outputs": [
        {
          "name": "",
          "type": "uint256"
        }
      ],
      "payable": false,
      "stateMutability": "view",
      "type": "function",
      "signature": "0x978e6e71"
    },
    {
      "constant": false,
      "inputs": [
        {
          "name": "newOwner",
          "type": "address"
        }
      ],
      "name": "transferOwnership",
      "outputs": [],
      "payable": false,
      "stateMutability": "nonpayable",
      "type": "function",
      "signature": "0xf2fde38b"
    },
    {
      "anonymous": false,
      "inputs": [
        {
          "indexed": true,
          "name": "_id",
          "type": "uint256"
        },
        {
          "indexed": false,
          "name": "_owner",
          "type": "address"
        },
        {
          "indexed": false,
          "name": "_farmUid",
          "type": "uint256"
        },
        {
          "indexed": false,
          "name": "_altitude",
          "type": "uint16"
        },
        {
          "indexed": false,
          "name": "_variety",
          "type": "bytes32"
        },
        {
          "indexed": false,
          "name": "_process",
          "type": "bytes32"
        },
        {
          "indexed": false,
          "name": "_size",
          "type": "uint32"
        },
        {
          "indexed": false,
          "name": "_isSold",
          "type": "bool"
        }
      ],
      "name": "LogAddCoffeeBatch",
      "type": "event",
      "signature": "0xda0e499d70467a0ca4fb42c053a056fe9a6ffb184ddf18c89510487f666dc70a"
    },
    {
      "anonymous": false,
      "inputs": [
        {
          "indexed": true,
          "name": "_id",
          "type": "uint256"
        },
        {
          "indexed": false,
          "name": "_farmUid",
          "type": "uint256"
        },
        {
          "indexed": false,
          "name": "_altitude",
          "type": "uint16"
        },
        {
          "indexed": false,
          "name": "_variety",
          "type": "bytes32"
        },
        {
          "indexed": false,
          "name": "_process",
          "type": "bytes32"
        },
        {
          "indexed": false,
          "name": "_size",
          "type": "uint32"
        },
        {
          "indexed": false,
          "name": "_isSold",
          "type": "bool"
        }
      ],
      "name": "LogUpdateCoffeeBatch",
      "type": "event",
      "signature": "0x2a43ace8dbca349f2a9860a83d861a1ee80c96e4ddf82b7077ca0c918d2c7aac"
    },
    {
      "anonymous": false,
      "inputs": [
        {
          "indexed": false,
          "name": "account",
          "type": "address"
        }
      ],
      "name": "Paused",
      "type": "event",
      "signature": "0x62e78cea01bee320cd4e420270b5ea74000d11b0c9f74754ebdbfc544b05a258"
    },
    {
      "anonymous": false,
      "inputs": [
        {
          "indexed": false,
          "name": "account",
          "type": "address"
        }
      ],
      "name": "Unpaused",
      "type": "event",
      "signature": "0x5db9ee0a495bf2e6ff9c91a7834c1ba4fdd244a5e8aa4e537bd38aeae4b073aa"
    },
    {
      "anonymous": false,
      "inputs": [
        {
          "indexed": true,
          "name": "previousOwner",
          "type": "address"
        },
        {
          "indexed": true,
          "name": "newOwner",
          "type": "address"
        }
      ],
      "name": "OwnershipTransferred",
      "type": "event",
      "signature": "0x8be0079c531659141344cd1fd0a4f28419497f9722a3daafe3b4186f6b6457e0"
    },
    {
      "constant": true,
      "inputs": [
        {
          "name": "_farmUid",
          "type": "uint256"
        }
      ],
      "name": "getFarmCoffeeBatchCount",
      "outputs": [
        {
          "name": "count",
          "type": "uint256"
        }
      ],
      "payable": false,
      "stateMutability": "view",
      "type": "function",
      "signature": "0x5c601a9c"
    },
    {
      "constant": true,
      "inputs": [
        {
          "name": "_uid",
          "type": "uint256"
        }
      ],
      "name": "getCoffeeBatchById",
      "outputs": [
        {
          "name": "",
          "type": "uint256"
        },
        {
          "name": "",
          "type": "address"
        },
        {
          "name": "",
          "type": "uint256"
        },
        {
          "name": "",
          "type": "uint16"
        },
        {
          "name": "",
          "type": "bytes32"
        },
        {
          "name": "",
          "type": "bytes32"
        },
        {
          "name": "",
          "type": "uint32"
        },
        {
          "name": "",
          "type": "bool"
        }
      ],
      "payable": false,
      "stateMutability": "view",
      "type": "function",
      "signature": "0x39a3a8bb"
    },
    {
      "constant": false,
      "inputs": [
        {
          "name": "_farmUid",
          "type": "uint256"
        },
        {
          "name": "_altitude",
          "type": "uint16"
        },
        {
          "name": "_variety",
          "type": "bytes32"
        },
        {
          "name": "_process",
          "type": "bytes32"
        },
        {
          "name": "_size",
          "type": "uint32"
        }
      ],
      "name": "addCoffeeBatch",
      "outputs": [],
      "payable": false,
      "stateMutability": "nonpayable",
      "type": "function",
      "signature": "0x2e3e7a23"
    },
    {
      "constant": false,
      "inputs": [
        {
          "name": "_coffeeUid",
          "type": "uint256"
        },
        {
          "name": "_farmUid",
          "type": "uint256"
        },
        {
          "name": "_altitude",
          "type": "uint16"
        },
        {
          "name": "_variety",
          "type": "bytes32"
        },
        {
          "name": "_process",
          "type": "bytes32"
        },
        {
          "name": "_size",
          "type": "uint32"
        }
      ],
      "name": "updateCoffeeBatch",
      "outputs": [],
      "payable": false,
      "stateMutability": "nonpayable",
      "type": "function",
      "signature": "0x584f929c"
    },
    {
      "constant": true,
      "inputs": [
        {
          "name": "_owner",
          "type": "address"
        },
        {
          "name": "_coffeeBatchId",
          "type": "uint256"
        }
      ],
      "name": "actorIsOwner",
      "outputs": [
        {
          "name": "",
          "type": "bool"
        }
      ],
      "payable": false,
      "stateMutability": "view",
      "type": "function",
      "signature": "0x02aa971d"
    },
    {
      "constant": false,
      "inputs": [],
      "name": "destroy",
      "outputs": [],
      "payable": false,
      "stateMutability": "nonpayable",
      "type": "function",
      "signature": "0x83197ef0"
    }
  ],
  "bytecode": "0x60806040526001600355336000806101000a81548173ffffffffffffffffffffffffffffffffffffffff021916908373ffffffffffffffffffffffffffffffffffffffff1602179055506000809054906101000a900473ffffffffffffffffffffffffffffffffffffffff1673ffffffffffffffffffffffffffffffffffffffff16600073ffffffffffffffffffffffffffffffffffffffff167f8be0079c531659141344cd1fd0a4f28419497f9722a3daafe3b4186f6b6457e060405160405180910390a360008060146101000a81548160ff0219169083151502179055506114f2806100ee6000396000f3fe6080604052600436106100db576000357c0100000000000000000000000000000000000000000000000000000000900463ffffffff16806302aa971d146100e05780632e3e7a2314610153578063395209b2146101c057806339a3a8bb146102845780633f4ba83a14610348578063584f929c1461035f5780635c601a9c146103d65780635c975abb14610425578063715018a61461045457806383197ef01461046b5780638456cb59146104825780638da5cb5b146104995780638f32d59b146104f0578063978e6e711461051f578063f2fde38b14610578575b600080fd5b3480156100ec57600080fd5b506101396004803603604081101561010357600080fd5b81019080803573ffffffffffffffffffffffffffffffffffffffff169060200190929190803590602001909291905050506105c9565b604051808215151515815260200191505060405180910390f35b34801561015f57600080fd5b506101be600480360360a081101561017657600080fd5b8101908080359060200190929190803561ffff1690602001909291908035906020019092919080359060200190929190803563ffffffff169060200190929190505050610722565b005b3480156101cc57600080fd5b506101f9600480360360208110156101e357600080fd5b8101908080359060200190929190505050610a0b565b604051808981526020018873ffffffffffffffffffffffffffffffffffffffff1673ffffffffffffffffffffffffffffffffffffffff1681526020018781526020018661ffff1661ffff1681526020018581526020018481526020018363ffffffff1663ffffffff168152602001821515151581526020019850505050505050505060405180910390f35b34801561029057600080fd5b506102bd600480360360208110156102a757600080fd5b8101908080359060200190929190505050610a9e565b604051808981526020018873ffffffffffffffffffffffffffffffffffffffff1673ffffffffffffffffffffffffffffffffffffffff1681526020018781526020018661ffff1661ffff1681526020018581526020018481526020018363ffffffff1663ffffffff168152602001821515151581526020019850505050505050505060405180910390f35b34801561035457600080fd5b5061035d610bf7565b005b34801561036b57600080fd5b506103d4600480360360c081101561038257600080fd5b810190808035906020019092919080359060200190929190803561ffff1690602001909291908035906020019092919080359060200190929190803563ffffffff169060200190929190505050610d0d565b005b3480156103e257600080fd5b5061040f600480360360208110156103f957600080fd5b8101908080359060200190929190505050610e98565b6040518082815260200191505060405180910390f35b34801561043157600080fd5b5061043a610eb8565b604051808215151515815260200191505060405180910390f35b34801561046057600080fd5b50610469610ece565b005b34801561047757600080fd5b50610480611009565b005b34801561048e57600080fd5b506104976110a5565b005b3480156104a557600080fd5b506104ae611226565b604051808273ffffffffffffffffffffffffffffffffffffffff1673ffffffffffffffffffffffffffffffffffffffff16815260200191505060405180910390f35b3480156104fc57600080fd5b5061050561124f565b604051808215151515815260200191505060405180910390f35b34801561052b57600080fd5b506105626004803603604081101561054257600080fd5b8101908080359060200190929190803590602001909291905050506112a6565b6040518082815260200191505060405180910390f35b34801561058457600080fd5b506105c76004803603602081101561059b57600080fd5b81019080803573ffffffffffffffffffffffffffffffffffffffff1690602001909291905050506112d6565b005b60006105d3611458565b600160008481526020019081526020016000206101006040519081016040529081600082015481526020016001820160009054906101000a900473ffffffffffffffffffffffffffffffffffffffff1673ffffffffffffffffffffffffffffffffffffffff1673ffffffffffffffffffffffffffffffffffffffff168152602001600282015481526020016003820160009054906101000a900461ffff1661ffff1661ffff16815260200160048201548152602001600582015481526020016006820160009054906101000a900463ffffffff1663ffffffff1663ffffffff1681526020016006820160049054906101000a900460ff16151515158152505090508373ffffffffffffffffffffffffffffffffffffffff16816020015173ffffffffffffffffffffffffffffffffffffffff16141561071657600191505061071c565b60009150505b92915050565b600060149054906101000a900460ff161515156107a7576040517f08c379a00000000000000000000000000000000000000000000000000000000081526004018080602001828103825260128152602001807f436f6e747261637420697320706175736564000000000000000000000000000081525060200191505060405180910390fd5b600060035490506107b6611458565b610100604051908101604052808381526020013373ffffffffffffffffffffffffffffffffffffffff1681526020018881526020018761ffff1681526020018681526020018581526020018463ffffffff16815260200160001515815250905060036000815480929190600101919050555080600160008481526020019081526020016000206000820151816000015560208201518160010160006101000a81548173ffffffffffffffffffffffffffffffffffffffff021916908373ffffffffffffffffffffffffffffffffffffffff1602179055506040820151816002015560608201518160030160006101000a81548161ffff021916908361ffff1602179055506080820151816004015560a0820151816005015560c08201518160060160006101000a81548163ffffffff021916908363ffffffff16021790555060e08201518160060160046101000a81548160ff02191690831515021790555090505060026000888152602001908152602001600020829080600181540180825580915050906001820390600052602060002001600090919290919091505550817fda0e499d70467a0ca4fb42c053a056fe9a6ffb184ddf18c89510487f666dc70a3389898989896000604051808873ffffffffffffffffffffffffffffffffffffffff1673ffffffffffffffffffffffffffffffffffffffff1681526020018781526020018661ffff1661ffff1681526020018581526020018481526020018363ffffffff1663ffffffff1681526020018215151515815260200197505050505050505060405180910390a250505050505050565b60016020528060005260406000206000915090508060000154908060010160009054906101000a900473ffffffffffffffffffffffffffffffffffffffff16908060020154908060030160009054906101000a900461ffff16908060040154908060050154908060060160009054906101000a900463ffffffff16908060060160049054906101000a900460ff16905088565b600080600080600080600080610ab2611458565b600160008b81526020019081526020016000206101006040519081016040529081600082015481526020016001820160009054906101000a900473ffffffffffffffffffffffffffffffffffffffff1673ffffffffffffffffffffffffffffffffffffffff1673ffffffffffffffffffffffffffffffffffffffff168152602001600282015481526020016003820160009054906101000a900461ffff1661ffff1661ffff16815260200160048201548152602001600582015481526020016006820160009054906101000a900463ffffffff1663ffffffff1663ffffffff1681526020016006820160049054906101000a900460ff1615151515815250509050806000015181602001518260400151836060015184608001518560a001518660c001518760e001519850985098509850985098509850985050919395975091939597565b610bff61124f565b1515610c73576040517f08c379a000000000000000000000000000000000000000000000000000000000815260040180806020018281038252600a8152602001807f4f6e6c79206f776e65720000000000000000000000000000000000000000000081525060200191505060405180910390fd5b600060149054906101000a900460ff161515610c8e57600080fd5b60008060146101000a81548160ff0219169083151502179055507f5db9ee0a495bf2e6ff9c91a7834c1ba4fdd244a5e8aa4e537bd38aeae4b073aa33604051808273ffffffffffffffffffffffffffffffffffffffff1673ffffffffffffffffffffffffffffffffffffffff16815260200191505060405180910390a1565b600060149054906101000a900460ff16151515610d92576040517f08c379a00000000000000000000000000000000000000000000000000000000081526004018080602001828103825260128152602001807f436f6e747261637420697320706175736564000000000000000000000000000081525060200191505060405180910390fd5b6000600160008881526020019081526020016000209050858160020181905550848160030160006101000a81548161ffff021916908361ffff160217905550838160040181905550828160050181905550818160060160006101000a81548163ffffffff021916908363ffffffff160217905550867f2a43ace8dbca349f2a9860a83d861a1ee80c96e4ddf82b7077ca0c918d2c7aac87878787878760060160049054906101000a900460ff16604051808781526020018661ffff1661ffff1681526020018581526020018481526020018363ffffffff1663ffffffff16815260200182151515158152602001965050505050505060405180910390a250505050505050565b600060026000838152602001908152602001600020805490509050919050565b60008060149054906101000a900460ff16905090565b610ed661124f565b1515610f4a576040517f08c379a000000000000000000000000000000000000000000000000000000000815260040180806020018281038252600a8152602001807f4f6e6c79206f776e65720000000000000000000000000000000000000000000081525060200191505060405180910390fd5b600073ffffffffffffffffffffffffffffffffffffffff166000809054906101000a900473ffffffffffffffffffffffffffffffffffffffff1673ffffffffffffffffffffffffffffffffffffffff167f8be0079c531659141344cd1fd0a4f28419497f9722a3daafe3b4186f6b6457e060405160405180910390a360008060006101000a81548173ffffffffffffffffffffffffffffffffffffffff021916908373ffffffffffffffffffffffffffffffffffffffff160217905550565b61101161124f565b1515611085576040517f08c379a000000000000000000000000000000000000000000000000000000000815260040180806020018281038252600a8152602001807f4f6e6c79206f776e65720000000000000000000000000000000000000000000081525060200191505060405180910390fd5b61108d611226565b73ffffffffffffffffffffffffffffffffffffffff16ff5b6110ad61124f565b1515611121576040517f08c379a000000000000000000000000000000000000000000000000000000000815260040180806020018281038252600a8152602001807f4f6e6c79206f776e65720000000000000000000000000000000000000000000081525060200191505060405180910390fd5b600060149054906101000a900460ff161515156111a6576040517f08c379a00000000000000000000000000000000000000000000000000000000081526004018080602001828103825260128152602001807f436f6e747261637420697320706175736564000000000000000000000000000081525060200191505060405180910390fd5b6001600060146101000a81548160ff0219169083151502179055507f62e78cea01bee320cd4e420270b5ea74000d11b0c9f74754ebdbfc544b05a25833604051808273ffffffffffffffffffffffffffffffffffffffff1673ffffffffffffffffffffffffffffffffffffffff16815260200191505060405180910390a1565b60008060009054906101000a900473ffffffffffffffffffffffffffffffffffffffff16905090565b60008060009054906101000a900473ffffffffffffffffffffffffffffffffffffffff1673ffffffffffffffffffffffffffffffffffffffff163373ffffffffffffffffffffffffffffffffffffffff1614905090565b6002602052816000526040600020818154811015156112c157fe5b90600052602060002001600091509150505481565b6112de61124f565b1515611352576040517f08c379a000000000000000000000000000000000000000000000000000000000815260040180806020018281038252600a8152602001807f4f6e6c79206f776e65720000000000000000000000000000000000000000000081525060200191505060405180910390fd5b61135b8161135e565b50565b600073ffffffffffffffffffffffffffffffffffffffff168173ffffffffffffffffffffffffffffffffffffffff161415151561139a57600080fd5b8073ffffffffffffffffffffffffffffffffffffffff166000809054906101000a900473ffffffffffffffffffffffffffffffffffffffff1673ffffffffffffffffffffffffffffffffffffffff167f8be0079c531659141344cd1fd0a4f28419497f9722a3daafe3b4186f6b6457e060405160405180910390a3806000806101000a81548173ffffffffffffffffffffffffffffffffffffffff021916908373ffffffffffffffffffffffffffffffffffffffff16021790555050565b6101006040519081016040528060008152602001600073ffffffffffffffffffffffffffffffffffffffff16815260200160008152602001600061ffff1681526020016000801916815260200160008019168152602001600063ffffffff168152602001600015158152509056fea165627a7a723058204488b69a0bbbcfacd224c4f7c4f56e228ade334e79fa8ece76e3b4f1b10092300029",
  "source": "pragma solidity ^0.5.0;\nimport 'openzeppelin-solidity/contracts/ownership/Ownable.sol';\nimport './Libraries/Pausable.sol';\n\ncontract Coffee is Ownable, Pausable {\n    //TODO: rename to Factory\n    //TODO: add is coffee batch owner\n    event LogAddCoffeeBatch(\n        uint indexed _id,\n        address _owner,\n        uint _farmUid,\n        uint16 _altitude,\n        bytes32 _variety,\n        bytes32 _process,\n        uint32 _size,\n        bool _isSold\n    );\n    event LogUpdateCoffeeBatch(\n        uint indexed _id,\n        uint _farmUid,\n        uint16 _altitude,\n        bytes32 _variety,\n        bytes32 _process,\n        uint32 _size,\n        bool _isSold\n    );\n\n    struct CoffeeBatch {\n        uint uid;\n        address owner;\n        uint farmUid;\n        uint16 altitude;\n        bytes32 variety;\n        bytes32 process;\n        //QQ - Precision two decimals 100.00\n        uint32 size;\n        bool isSold;\n    }\n\n    mapping(uint => CoffeeBatch) public coffeeBatches;\n    mapping(uint => uint[]) public farmToBatches;\n    // mapping(uint256 => CoffeeBatch) coffeeBatches;\n    // uint256[] coffeeBatchIds;\n    uint coffeeBatchCount = 1;\n\n    function getFarmCoffeeBatchCount(uint _farmUid) public view returns (uint count) {\n        return farmToBatches[_farmUid].length;\n    }\n\n    function getCoffeeBatchById(uint _uid) public view returns (uint, address, uint, uint16, bytes32, bytes32, uint32, bool) {\n        CoffeeBatch memory coffeeBatch = coffeeBatches[_uid];\n        return (coffeeBatch.uid, coffeeBatch.owner, coffeeBatch.farmUid, coffeeBatch.altitude, coffeeBatch.variety, coffeeBatch.process, coffeeBatch.size, coffeeBatch.isSold);\n    }\n\n    function addCoffeeBatch(uint _farmUid, uint16 _altitude, bytes32 _variety, bytes32 _process, uint32 _size) public whenNotPaused {\n        //   Action memory action = Action(msg.sender,\"creation\",_additionalInformation, _timestamp);\n        //Fixes memory error that doesn't allow to create memory objects in structs\n        uint uid = coffeeBatchCount;\n        CoffeeBatch memory coffeeBatch = CoffeeBatch(uid, msg.sender, _farmUid, _altitude, _variety, _process, _size, false);\n        coffeeBatchCount++;\n        coffeeBatches[uid] = coffeeBatch;\n        farmToBatches[_farmUid].push(uid);\n        emit LogAddCoffeeBatch(uid, msg.sender, _farmUid, _altitude, _variety, _process, _size, false);\n    }\n    //TODO: Only owner should update\n    function updateCoffeeBatch(uint _coffeeUid, uint _farmUid, uint16 _altitude, bytes32 _variety, bytes32 _process, uint32 _size)  public whenNotPaused {\n        //   Action memory action = Action(msg.sender,\"creation\",_additionalInformation, _timestamp);\n        //Fixes memory error that doesn't allow to create memory objects in structs\n        CoffeeBatch storage coffeeBatch = coffeeBatches[_coffeeUid];\n        coffeeBatch.farmUid = _farmUid;\n        coffeeBatch.altitude = _altitude;\n        coffeeBatch.variety = _variety;\n        coffeeBatch.process = _process;\n        coffeeBatch.size = _size;\n        emit LogUpdateCoffeeBatch(_coffeeUid, _farmUid, _altitude, _variety, _process, _size, coffeeBatch.isSold);\n    }\n\n    function actorIsOwner(address _owner, uint _coffeeBatchId) public view returns (bool) {\n        CoffeeBatch memory coffeeBatch = coffeeBatches[_coffeeBatchId];\n        if (coffeeBatch.owner == _owner) {\n            return true;\n        }\n        return false;\n    }\n\n    function destroy() public onlyOwner {\n        selfdestruct(owner());\n    }\n}\n",
  "sourcePath": "/home/crisgarner/Projects/affogato/affogato/contracts/Coffee.sol",
  "compiler": {
    "name": "solc",
    "version": "0.5.0+commit.1d4f565a.Emscripten.clang"
  },
  "schemaVersion": "3.0.0",
  "updatedAt": "2019-02-11T20:53:08.087Z",
  "devdoc": {
    "methods": {
      "isOwner()": {
        "return": "true if `msg.sender` is the owner of the contract."
      },
      "owner()": {
        "return": "the address of the owner."
      },
      "pause()": {
        "details": "called by the owner to pause, triggers stopped state"
      },
      "paused()": {
        "return": "true if the contract is paused, false otherwise."
      },
      "renounceOwnership()": {
        "details": "Allows the current owner to relinquish control of the contract."
      },
      "transferOwnership(address)": {
        "details": "Allows the current owner to transfer control of the contract to a newOwner.",
        "params": {
          "newOwner": "The address to transfer ownership to."
        }
      },
      "unpause()": {
        "details": "called by the owner to unpause, returns to normal state"
      }
    }
  },
  "userdoc": {
    "methods": {
      "renounceOwnership()": {
        "notice": "Renouncing to ownership will leave the contract without an owner. It will not be possible to call the functions with the `onlyOwner` modifier anymore."
      }
    }
  }
}