{
  "contractName": "Coffee",
  "abi": [
    {
      "constant": true,
      "inputs": [
        {
          "name": "",
          "type": "bytes32"
        }
      ],
      "name": "coffeeBatches",
      "outputs": [
        {
          "name": "uid",
          "type": "bytes32"
        },
        {
          "name": "farmUid",
          "type": "bytes32"
        },
        {
          "name": "altitude",
          "type": "uint16"
        },
        {
          "name": "variety",
          "type": "bytes32"
        },
        {
          "name": "process",
          "type": "bytes32"
        },
        {
          "name": "size",
          "type": "uint32"
        },
        {
          "name": "isSold",
          "type": "bool"
        }
      ],
      "payable": false,
      "stateMutability": "view",
      "type": "function"
    },
    {
      "constant": true,
      "inputs": [
        {
          "name": "",
          "type": "bytes32"
        },
        {
          "name": "",
          "type": "uint256"
        }
      ],
      "name": "farmToBatches",
      "outputs": [
        {
          "name": "",
          "type": "bytes32"
        }
      ],
      "payable": false,
      "stateMutability": "view",
      "type": "function"
    },
    {
      "anonymous": false,
      "inputs": [
        {
          "indexed": true,
          "name": "_id",
          "type": "bytes32"
        },
        {
          "indexed": false,
          "name": "_farmUid",
          "type": "bytes32"
        },
        {
          "indexed": false,
          "name": "_altitude",
          "type": "uint16"
        },
        {
          "indexed": false,
          "name": "_variety",
          "type": "bytes32"
        },
        {
          "indexed": false,
          "name": "_process",
          "type": "bytes32"
        },
        {
          "indexed": false,
          "name": "_size",
          "type": "uint32"
        },
        {
          "indexed": false,
          "name": "_isSold",
          "type": "bool"
        }
      ],
      "name": "LogAddCoffeeBatch",
      "type": "event"
    },
    {
      "anonymous": false,
      "inputs": [
        {
          "indexed": true,
          "name": "_id",
          "type": "bytes32"
        },
        {
          "indexed": false,
          "name": "_farmUid",
          "type": "bytes32"
        },
        {
          "indexed": false,
          "name": "_altitude",
          "type": "uint16"
        },
        {
          "indexed": false,
          "name": "_variety",
          "type": "bytes32"
        },
        {
          "indexed": false,
          "name": "_process",
          "type": "bytes32"
        },
        {
          "indexed": false,
          "name": "_size",
          "type": "uint32"
        },
        {
          "indexed": false,
          "name": "_isSold",
          "type": "bool"
        }
      ],
      "name": "LogUpdateCoffeeBatch",
      "type": "event"
    },
    {
      "constant": true,
      "inputs": [
        {
          "name": "_farmUid",
          "type": "bytes32"
        }
      ],
      "name": "getFarmCoffeeBatchCount",
      "outputs": [
        {
          "name": "count",
          "type": "uint256"
        }
      ],
      "payable": false,
      "stateMutability": "view",
      "type": "function"
    },
    {
      "constant": true,
      "inputs": [
        {
          "name": "_uid",
          "type": "bytes32"
        }
      ],
      "name": "getCoffeeBatchById",
      "outputs": [
        {
          "name": "",
          "type": "bytes32"
        },
        {
          "name": "",
          "type": "bytes32"
        },
        {
          "name": "",
          "type": "uint16"
        },
        {
          "name": "",
          "type": "bytes32"
        },
        {
          "name": "",
          "type": "bytes32"
        },
        {
          "name": "",
          "type": "uint32"
        },
        {
          "name": "",
          "type": "bool"
        }
      ],
      "payable": false,
      "stateMutability": "view",
      "type": "function"
    },
    {
      "constant": false,
      "inputs": [
        {
          "name": "_farmUid",
          "type": "bytes32"
        },
        {
          "name": "_altitude",
          "type": "uint16"
        },
        {
          "name": "_variety",
          "type": "bytes32"
        },
        {
          "name": "_process",
          "type": "bytes32"
        },
        {
          "name": "_size",
          "type": "uint32"
        }
      ],
      "name": "addCoffeeBatch",
      "outputs": [],
      "payable": false,
      "stateMutability": "nonpayable",
      "type": "function"
    },
    {
      "constant": false,
      "inputs": [
        {
          "name": "_coffeeUid",
          "type": "bytes32"
        },
        {
          "name": "_farmUid",
          "type": "bytes32"
        },
        {
          "name": "_altitude",
          "type": "uint16"
        },
        {
          "name": "_variety",
          "type": "bytes32"
        },
        {
          "name": "_process",
          "type": "bytes32"
        },
        {
          "name": "_size",
          "type": "uint32"
        }
      ],
      "name": "updateCoffeeBatch",
      "outputs": [],
      "payable": false,
      "stateMutability": "nonpayable",
      "type": "function"
    }
  ],
  "bytecode": "0x6080604052600060025534801561001557600080fd5b50610a48806100256000396000f300608060405260043610610078576000357c0100000000000000000000000000000000000000000000000000000000900463ffffffff168063032323c41461007d57806314795fd1146101245780631b960a7f1461017b578063ea5b100b146101f4578063f0a4d9cb1461029b578063f1e0563d14610306575b600080fd5b34801561008957600080fd5b506100ac600480360381019080803560001916906020019092919050505061034b565b60405180886000191660001916815260200187600019166000191681526020018661ffff1661ffff168152602001856000191660001916815260200184600019166000191681526020018363ffffffff1663ffffffff1681526020018215151515815260200197505050505050505060405180910390f35b34801561013057600080fd5b5061015d6004803603810190808035600019169060200190929190803590602001909291905050506103b8565b60405180826000191660001916815260200191505060405180910390f35b34801561018757600080fd5b506101f260048036038101908080356000191690602001909291908035600019169060200190929190803561ffff16906020019092919080356000191690602001909291908035600019169060200190929190803563ffffffff1690602001909291905050506103e8565b005b34801561020057600080fd5b50610223600480360381019080803560001916906020019092919050505061051d565b60405180886000191660001916815260200187600019166000191681526020018661ffff1661ffff168152602001856000191660001916815260200184600019166000191681526020018363ffffffff1663ffffffff1681526020018215151515815260200197505050505050505060405180910390f35b3480156102a757600080fd5b506103046004803603810190808035600019169060200190929190803561ffff16906020019092919080356000191690602001909291908035600019169060200190929190803563ffffffff16906020019092919050505061063e565b005b34801561031257600080fd5b5061033560048036038101908080356000191690602001909291905050506108cd565b6040518082815260200191505060405180910390f35b60006020528060005260406000206000915090508060000154908060010154908060020160009054906101000a900461ffff16908060030154908060040154908060050160009054906101000a900463ffffffff16908060050160049054906101000a900460ff16905087565b6001602052816000526040600020818154811015156103d357fe5b90600052602060002001600091509150505481565b60008060008860001916600019168152602001908152602001600020905085816001018160001916905550848160020160006101000a81548161ffff021916908361ffff1602179055508381600301816000191690555082816004018160001916905550818160050160006101000a81548163ffffffff021916908363ffffffff16021790555086600019167f51f8fcf0e9dcc7911a3af55099e356ef52e1f00b948fdf6c18ef0befd43d0e1987878787878760050160049054906101000a900460ff166040518087600019166000191681526020018661ffff1661ffff168152602001856000191660001916815260200184600019166000191681526020018363ffffffff1663ffffffff16815260200182151515158152602001965050505050505060405180910390a250505050505050565b60008060008060008060006105306109c6565b6000808a6000191660001916815260200190815260200160002060e060405190810160405290816000820154600019166000191681526020016001820154600019166000191681526020016002820160009054906101000a900461ffff1661ffff1661ffff1681526020016003820154600019166000191681526020016004820154600019166000191681526020016005820160009054906101000a900463ffffffff1663ffffffff1663ffffffff1681526020016005820160049054906101000a900460ff1615151515815250509050806000015181602001518260400151836060015184608001518560a001518660c00151975097509750975097509750975050919395979092949650565b60006106486109c6565b6106536002546108f5565b6040518082805190602001908083835b6020831015156106885780518252602082019150602081019050602083039250610663565b6001836020036101000a0380198251168184511680821785525050505050509050019150506040518091039020915060e06040519081016040528083600019168152602001886000191681526020018761ffff16815260200186600019168152602001856000191681526020018463ffffffff168152602001600015158152509050600260008154809291906001019190505550806000808460001916600019168152602001908152602001600020600082015181600001906000191690556020820151816001019060001916905560408201518160020160006101000a81548161ffff021916908361ffff160217905550606082015181600301906000191690556080820151816004019060001916905560a08201518160050160006101000a81548163ffffffff021916908363ffffffff16021790555060c08201518160050160046101000a81548160ff02191690831515021790555090505060016000886000191660001916815260200190815260200160002082908060018154018082558091505090600182039060005260206000200160009091929091909150906000191690555081600019167f4efd8e8a8134a93199b697aa99c88e44981d6f5d1571574cdbc3cabf6e62e2ee888888888860006040518087600019166000191681526020018661ffff1661ffff168152602001856000191660001916815260200184600019166000191681526020018363ffffffff1663ffffffff16815260200182151515158152602001965050505050505060405180910390a250505050505050565b6000600160008360001916600019168152602001908152602001600020805490509050919050565b6060600060206040519080825280601f01601f19166020018201604052801561092d5781602001602082028038833980820191505090505b509150600090505b60208110156109c05780601f0360080260020a8381151561095257fe5b047f010000000000000000000000000000000000000000000000000000000000000002828281518110151561098357fe5b9060200101907effffffffffffffffffffffffffffffffffffffffffffffffffffffffffffff1916908160001a9053508080600101915050610935565b50919050565b60e0604051908101604052806000801916815260200160008019168152602001600061ffff1681526020016000801916815260200160008019168152602001600063ffffffff16815260200160001515815250905600a165627a7a72305820f726c234b3fd86d979fed098ba5db7a0837745d72e44076ef4381c79c20b66930029",
  "source": "pragma solidity ^0.4.23;\n\ncontract Coffee{\n\n    event LogAddCoffeeBatch(\n        bytes32 indexed _id,\n        bytes32 _farmUid,\n        uint16 _altitude,\n        bytes32 _variety,\n        bytes32 _process,\n        uint32 _size,\n        bool _isSold\n    );\n    event LogUpdateCoffeeBatch(\n        bytes32 indexed _id,\n        bytes32 _farmUid,\n        uint16 _altitude,\n        bytes32 _variety,\n        bytes32 _process,\n        uint32 _size,\n        bool _isSold\n    );\n     \n    struct CoffeeBatch{\n        bytes32 uid;\n        bytes32 farmUid;\n        uint16 altitude;\n        bytes32 variety;\n        bytes32 process;\n        //QQ - Precision two decimals 100.00\n        uint32 size;\n        bool isSold;  \n    }\n\n   mapping(bytes32 => CoffeeBatch) public coffeeBatches;\n   mapping(bytes32 => bytes32[]) public farmToBatches;\n   // mapping(uint256 => CoffeeBatch) coffeeBatches;\n   // uint256[] coffeeBatchIds;\n   uint coffeeBatchCount = 0;\n\n    function getFarmCoffeeBatchCount(bytes32 _farmUid) public view returns(uint count) {\n        return farmToBatches[_farmUid].length;\n    }\n\n    function getCoffeeBatchById(bytes32 _uid) public view returns(\n        bytes32,\n        bytes32,\n        uint16,\n        bytes32,\n        bytes32,\n        uint32,\n        bool\n    ){\n        CoffeeBatch memory coffeeBatch = coffeeBatches[_uid];\n        return(\n            coffeeBatch.uid,\n            coffeeBatch.farmUid,\n            coffeeBatch.altitude,\n            coffeeBatch.variety,\n            coffeeBatch.process,\n            coffeeBatch.size,\n            coffeeBatch.isSold\n        ); \n    }\n\n    function addCoffeeBatch(bytes32 _farmUid, uint16 _altitude, bytes32 _variety, bytes32 _process, uint32 _size) public {\n     //   Action memory action = Action(msg.sender,\"creation\",_additionalInformation, _timestamp); \n        //Fixes memory error that doesn't allow to create memory objects in structs\n        bytes32 uid = keccak256(toBytes(coffeeBatchCount));\n        CoffeeBatch memory coffeeBatch = CoffeeBatch(uid, _farmUid, _altitude, _variety, _process, _size, false);\n        coffeeBatchCount++;\n        coffeeBatches[uid] = coffeeBatch;\n        farmToBatches[_farmUid].push(uid);\n        emit LogAddCoffeeBatch(uid, _farmUid, _altitude, _variety, _process, _size, false);        \n    }\n\n    function updateCoffeeBatch(bytes32 _coffeeUid, bytes32 _farmUid, uint16 _altitude, bytes32 _variety, bytes32 _process, uint32 _size) public {\n     //   Action memory action = Action(msg.sender,\"creation\",_additionalInformation, _timestamp); \n        //Fixes memory error that doesn't allow to create memory objects in structs\n        CoffeeBatch storage coffeeBatch = coffeeBatches[_coffeeUid];\n        coffeeBatch.farmUid = _farmUid;\n        coffeeBatch.altitude = _altitude;\n        coffeeBatch.variety = _variety;\n        coffeeBatch.process = _process;\n        coffeeBatch.size = _size;\n        emit LogUpdateCoffeeBatch(_coffeeUid, _farmUid, _altitude, _variety, _process, _size, coffeeBatch.isSold);        \n    }\n\n    //TODO: pass to a util function\n    function toBytes(uint256 x)  internal pure returns (bytes b) {\n        b = new bytes(32);\n        for (uint i = 0; i < 32; i++) {\n            b[i] = byte(uint8(x / (2**(8*(31 - i))))); \n        }\n    }\n\n\n    //TODO\n    //Handle same action\n    //Update Action\n    //Finish Process\n    \n} ",
  "sourcePath": "/Users/crisgarner/Projects/affogato/contracts/Coffee.sol",
  "compiler": {
    "name": "solc",
    "version": "0.4.24+commit.e67f0147.Emscripten.clang"
  },
  "schemaVersion": "2.0.1",
  "updatedAt": "2018-09-01T22:42:08.659Z"
}