{
  "contractName": "FarmFactory",
  "abi": [
    {
      "constant": false,
      "inputs": [],
      "name": "unpause",
      "outputs": [],
      "payable": false,
      "stateMutability": "nonpayable",
      "type": "function",
      "signature": "0x3f4ba83a"
    },
    {
      "constant": true,
      "inputs": [],
      "name": "paused",
      "outputs": [
        {
          "name": "",
          "type": "bool"
        }
      ],
      "payable": false,
      "stateMutability": "view",
      "type": "function",
      "signature": "0x5c975abb"
    },
    {
      "constant": false,
      "inputs": [],
      "name": "renounceOwnership",
      "outputs": [],
      "payable": false,
      "stateMutability": "nonpayable",
      "type": "function",
      "signature": "0x715018a6"
    },
    {
      "constant": true,
      "inputs": [
        {
          "name": "",
          "type": "uint256"
        }
      ],
      "name": "farms",
      "outputs": [
        {
          "name": "uid",
          "type": "uint256"
        },
        {
          "name": "ownerAddress",
          "type": "address"
        },
        {
          "name": "name",
          "type": "bytes32"
        },
        {
          "name": "country",
          "type": "bytes32"
        },
        {
          "name": "region",
          "type": "bytes32"
        },
        {
          "name": "village",
          "type": "bytes32"
        },
        {
          "name": "story",
          "type": "string"
        }
      ],
      "payable": false,
      "stateMutability": "view",
      "type": "function",
      "signature": "0x7da470ea"
    },
    {
      "constant": true,
      "inputs": [
        {
          "name": "",
          "type": "address"
        },
        {
          "name": "",
          "type": "uint256"
        }
      ],
      "name": "farmerToFarms",
      "outputs": [
        {
          "name": "",
          "type": "uint256"
        }
      ],
      "payable": false,
      "stateMutability": "view",
      "type": "function",
      "signature": "0x7f2265aa"
    },
    {
      "constant": false,
      "inputs": [],
      "name": "pause",
      "outputs": [],
      "payable": false,
      "stateMutability": "nonpayable",
      "type": "function",
      "signature": "0x8456cb59"
    },
    {
      "constant": true,
      "inputs": [],
      "name": "owner",
      "outputs": [
        {
          "name": "",
          "type": "address"
        }
      ],
      "payable": false,
      "stateMutability": "view",
      "type": "function",
      "signature": "0x8da5cb5b"
    },
    {
      "constant": true,
      "inputs": [],
      "name": "isOwner",
      "outputs": [
        {
          "name": "",
          "type": "bool"
        }
      ],
      "payable": false,
      "stateMutability": "view",
      "type": "function",
      "signature": "0x8f32d59b"
    },
    {
      "constant": false,
      "inputs": [
        {
          "name": "newOwner",
          "type": "address"
        }
      ],
      "name": "transferOwnership",
      "outputs": [],
      "payable": false,
      "stateMutability": "nonpayable",
      "type": "function",
      "signature": "0xf2fde38b"
    },
    {
      "anonymous": false,
      "inputs": [
        {
          "indexed": true,
          "name": "_id",
          "type": "uint256"
        },
        {
          "indexed": false,
          "name": "_ownerAddress",
          "type": "address"
        },
        {
          "indexed": false,
          "name": "_name",
          "type": "bytes32"
        },
        {
          "indexed": false,
          "name": "_country",
          "type": "bytes32"
        },
        {
          "indexed": false,
          "name": "_region",
          "type": "bytes32"
        },
        {
          "indexed": false,
          "name": "_village",
          "type": "bytes32"
        },
        {
          "indexed": false,
          "name": "_story",
          "type": "string"
        }
      ],
      "name": "LogAddFarm",
      "type": "event",
      "signature": "0xd3098ac7a01b8686f2c8cf144119f6859cf9c56bf618f465fe488e3e6656e46f"
    },
    {
      "anonymous": false,
      "inputs": [
        {
          "indexed": true,
          "name": "_id",
          "type": "uint256"
        },
        {
          "indexed": false,
          "name": "_ownerAddress",
          "type": "address"
        },
        {
          "indexed": false,
          "name": "_name",
          "type": "bytes32"
        },
        {
          "indexed": false,
          "name": "_country",
          "type": "bytes32"
        },
        {
          "indexed": false,
          "name": "_region",
          "type": "bytes32"
        },
        {
          "indexed": false,
          "name": "_village",
          "type": "bytes32"
        },
        {
          "indexed": false,
          "name": "_story",
          "type": "string"
        }
      ],
      "name": "LogUpdateFarm",
      "type": "event",
      "signature": "0x7f5e4e1c4757aaf20449560bac8ece2ff17e57224d66d47680d9f30bf3fdab2f"
    },
    {
      "anonymous": false,
      "inputs": [
        {
          "indexed": false,
          "name": "account",
          "type": "address"
        }
      ],
      "name": "Paused",
      "type": "event",
      "signature": "0x62e78cea01bee320cd4e420270b5ea74000d11b0c9f74754ebdbfc544b05a258"
    },
    {
      "anonymous": false,
      "inputs": [
        {
          "indexed": false,
          "name": "account",
          "type": "address"
        }
      ],
      "name": "Unpaused",
      "type": "event",
      "signature": "0x5db9ee0a495bf2e6ff9c91a7834c1ba4fdd244a5e8aa4e537bd38aeae4b073aa"
    },
    {
      "anonymous": false,
      "inputs": [
        {
          "indexed": true,
          "name": "previousOwner",
          "type": "address"
        },
        {
          "indexed": true,
          "name": "newOwner",
          "type": "address"
        }
      ],
      "name": "OwnershipTransferred",
      "type": "event",
      "signature": "0x8be0079c531659141344cd1fd0a4f28419497f9722a3daafe3b4186f6b6457e0"
    },
    {
      "constant": true,
      "inputs": [
        {
          "name": "_farmer",
          "type": "address"
        }
      ],
      "name": "getFarmersFarmsCount",
      "outputs": [
        {
          "name": "",
          "type": "uint256"
        }
      ],
      "payable": false,
      "stateMutability": "view",
      "type": "function",
      "signature": "0x804990bc"
    },
    {
      "constant": true,
      "inputs": [
        {
          "name": "uid",
          "type": "uint256"
        }
      ],
      "name": "getFarmById",
      "outputs": [
        {
          "name": "",
          "type": "uint256"
        },
        {
          "name": "",
          "type": "bytes32"
        },
        {
          "name": "",
          "type": "bytes32"
        },
        {
          "name": "",
          "type": "bytes32"
        },
        {
          "name": "",
          "type": "bytes32"
        },
        {
          "name": "",
          "type": "string"
        },
        {
          "name": "",
          "type": "address"
        }
      ],
      "payable": false,
      "stateMutability": "view",
      "type": "function",
      "signature": "0xfd3cb451"
    },
    {
      "constant": false,
      "inputs": [
        {
          "name": "_name",
          "type": "bytes32"
        },
        {
          "name": "_country",
          "type": "bytes32"
        },
        {
          "name": "_region",
          "type": "bytes32"
        },
        {
          "name": "_village",
          "type": "bytes32"
        },
        {
          "name": "_story",
          "type": "string"
        }
      ],
      "name": "addFarm",
      "outputs": [],
      "payable": false,
      "stateMutability": "nonpayable",
      "type": "function",
      "signature": "0xf3020dd1"
    },
    {
      "constant": false,
      "inputs": [
        {
          "name": "_uid",
          "type": "uint256"
        },
        {
          "name": "_name",
          "type": "bytes32"
        },
        {
          "name": "_country",
          "type": "bytes32"
        },
        {
          "name": "_region",
          "type": "bytes32"
        },
        {
          "name": "_village",
          "type": "bytes32"
        },
        {
          "name": "_story",
          "type": "string"
        }
      ],
      "name": "updateFarm",
      "outputs": [],
      "payable": false,
      "stateMutability": "nonpayable",
      "type": "function",
      "signature": "0xd8d01e3e"
    },
    {
      "constant": false,
      "inputs": [],
      "name": "destroy",
      "outputs": [],
      "payable": false,
      "stateMutability": "nonpayable",
      "type": "function",
      "signature": "0x83197ef0"
    }
  ],
  "bytecode": "0x60806040526001600355336000806101000a81548173ffffffffffffffffffffffffffffffffffffffff021916908373ffffffffffffffffffffffffffffffffffffffff1602179055506000809054906101000a900473ffffffffffffffffffffffffffffffffffffffff1673ffffffffffffffffffffffffffffffffffffffff16600073ffffffffffffffffffffffffffffffffffffffff167f8be0079c531659141344cd1fd0a4f28419497f9722a3daafe3b4186f6b6457e060405160405180910390a360008060146101000a81548160ff0219169083151502179055506117e7806100ee6000396000f3fe6080604052600436106100d0576000357c0100000000000000000000000000000000000000000000000000000000900463ffffffff1680633f4ba83a146100d55780635c975abb146100ec578063715018a61461011b5780637da470ea146101325780637f2265aa1461023c578063804990bc146102ab57806383197ef0146103105780638456cb59146103275780638da5cb5b1461033e5780638f32d59b14610395578063d8d01e3e146103c4578063f2fde38b146104be578063f3020dd11461050f578063fd3cb451146105ff575b600080fd5b3480156100e157600080fd5b506100ea610709565b005b3480156100f857600080fd5b5061010161081f565b604051808215151515815260200191505060405180910390f35b34801561012757600080fd5b50610130610835565b005b34801561013e57600080fd5b5061016b6004803603602081101561015557600080fd5b8101908080359060200190929190505050610970565b604051808881526020018773ffffffffffffffffffffffffffffffffffffffff1673ffffffffffffffffffffffffffffffffffffffff16815260200186815260200185815260200184815260200183815260200180602001828103825283818151815260200191508051906020019080838360005b838110156101fb5780820151818401526020810190506101e0565b50505050905090810190601f1680156102285780820380516001836020036101000a031916815260200191505b509850505050505050505060405180910390f35b34801561024857600080fd5b506102956004803603604081101561025f57600080fd5b81019080803573ffffffffffffffffffffffffffffffffffffffff16906020019092919080359060200190929190505050610a6a565b6040518082815260200191505060405180910390f35b3480156102b757600080fd5b506102fa600480360360208110156102ce57600080fd5b81019080803573ffffffffffffffffffffffffffffffffffffffff169060200190929190505050610a9a565b6040518082815260200191505060405180910390f35b34801561031c57600080fd5b50610325610ae6565b005b34801561033357600080fd5b5061033c610b82565b005b34801561034a57600080fd5b50610353610d03565b604051808273ffffffffffffffffffffffffffffffffffffffff1673ffffffffffffffffffffffffffffffffffffffff16815260200191505060405180910390f35b3480156103a157600080fd5b506103aa610d2c565b604051808215151515815260200191505060405180910390f35b3480156103d057600080fd5b506104bc600480360360c08110156103e757600080fd5b8101908080359060200190929190803590602001909291908035906020019092919080359060200190929190803590602001909291908035906020019064010000000081111561043657600080fd5b82018360208201111561044857600080fd5b8035906020019184600183028401116401000000008311171561046a57600080fd5b91908080601f016020809104026020016040519081016040528093929190818152602001838380828437600081840152601f19601f820116905080830192505050505050509192919290505050610d83565b005b3480156104ca57600080fd5b5061050d600480360360208110156104e157600080fd5b81019080803573ffffffffffffffffffffffffffffffffffffffff169060200190929190505050611013565b005b34801561051b57600080fd5b506105fd600480360360a081101561053257600080fd5b81019080803590602001909291908035906020019092919080359060200190929190803590602001909291908035906020019064010000000081111561057757600080fd5b82018360208201111561058957600080fd5b803590602001918460018302840111640100000000831117156105ab57600080fd5b91908080601f016020809104026020016040519081016040528093929190818152602001838380828437600081840152601f19601f82011690508083019250505050505050919291929050505061109b565b005b34801561060b57600080fd5b506106386004803603602081101561062257600080fd5b810190808035906020019092919050505061139d565b60405180888152602001878152602001868152602001858152602001848152602001806020018373ffffffffffffffffffffffffffffffffffffffff1673ffffffffffffffffffffffffffffffffffffffff168152602001828103825284818151815260200191508051906020019080838360005b838110156106c85780820151818401526020810190506106ad565b50505050905090810190601f1680156106f55780820380516001836020036101000a031916815260200191505b509850505050505050505060405180910390f35b610711610d2c565b1515610785576040517f08c379a000000000000000000000000000000000000000000000000000000000815260040180806020018281038252600a8152602001807f4f6e6c79206f776e65720000000000000000000000000000000000000000000081525060200191505060405180910390fd5b600060149054906101000a900460ff1615156107a057600080fd5b60008060146101000a81548160ff0219169083151502179055507f5db9ee0a495bf2e6ff9c91a7834c1ba4fdd244a5e8aa4e537bd38aeae4b073aa33604051808273ffffffffffffffffffffffffffffffffffffffff1673ffffffffffffffffffffffffffffffffffffffff16815260200191505060405180910390a1565b60008060149054906101000a900460ff16905090565b61083d610d2c565b15156108b1576040517f08c379a000000000000000000000000000000000000000000000000000000000815260040180806020018281038252600a8152602001807f4f6e6c79206f776e65720000000000000000000000000000000000000000000081525060200191505060405180910390fd5b600073ffffffffffffffffffffffffffffffffffffffff166000809054906101000a900473ffffffffffffffffffffffffffffffffffffffff1673ffffffffffffffffffffffffffffffffffffffff167f8be0079c531659141344cd1fd0a4f28419497f9722a3daafe3b4186f6b6457e060405160405180910390a360008060006101000a81548173ffffffffffffffffffffffffffffffffffffffff021916908373ffffffffffffffffffffffffffffffffffffffff160217905550565b60026020528060005260406000206000915090508060000154908060010160009054906101000a900473ffffffffffffffffffffffffffffffffffffffff1690806002015490806003015490806004015490806005015490806006018054600181600116156101000203166002900480601f016020809104026020016040519081016040528092919081815260200182805460018160011615610100020316600290048015610a605780601f10610a3557610100808354040283529160200191610a60565b820191906000526020600020905b815481529060010190602001808311610a4357829003601f168201915b5050505050905087565b600160205281600052604060002081815481101515610a8557fe5b90600052602060002001600091509150505481565b6000600160008373ffffffffffffffffffffffffffffffffffffffff1673ffffffffffffffffffffffffffffffffffffffff168152602001908152602001600020805490509050919050565b610aee610d2c565b1515610b62576040517f08c379a000000000000000000000000000000000000000000000000000000000815260040180806020018281038252600a8152602001807f4f6e6c79206f776e65720000000000000000000000000000000000000000000081525060200191505060405180910390fd5b610b6a610d03565b73ffffffffffffffffffffffffffffffffffffffff16ff5b610b8a610d2c565b1515610bfe576040517f08c379a000000000000000000000000000000000000000000000000000000000815260040180806020018281038252600a8152602001807f4f6e6c79206f776e65720000000000000000000000000000000000000000000081525060200191505060405180910390fd5b600060149054906101000a900460ff16151515610c83576040517f08c379a00000000000000000000000000000000000000000000000000000000081526004018080602001828103825260128152602001807f436f6e747261637420697320706175736564000000000000000000000000000081525060200191505060405180910390fd5b6001600060146101000a81548160ff0219169083151502179055507f62e78cea01bee320cd4e420270b5ea74000d11b0c9f74754ebdbfc544b05a25833604051808273ffffffffffffffffffffffffffffffffffffffff1673ffffffffffffffffffffffffffffffffffffffff16815260200191505060405180910390a1565b60008060009054906101000a900473ffffffffffffffffffffffffffffffffffffffff16905090565b60008060009054906101000a900473ffffffffffffffffffffffffffffffffffffffff1673ffffffffffffffffffffffffffffffffffffffff163373ffffffffffffffffffffffffffffffffffffffff1614905090565b600060149054906101000a900460ff16151515610e08576040517f08c379a00000000000000000000000000000000000000000000000000000000081526004018080602001828103825260128152602001807f436f6e747261637420697320706175736564000000000000000000000000000081525060200191505060405180910390fd5b6000600102600260008881526020019081526020016000206002015414151515610e3157600080fd5b3373ffffffffffffffffffffffffffffffffffffffff166002600088815260200190815260200160002060010160009054906101000a900473ffffffffffffffffffffffffffffffffffffffff1673ffffffffffffffffffffffffffffffffffffffff16141515610ea157600080fd5b600060026000888152602001908152602001600020905085816002018190555084816003018190555083816004018190555082816005018190555081816006019080519060200190610ef4929190611636565b50867f7f5e4e1c4757aaf20449560bac8ece2ff17e57224d66d47680d9f30bf3fdab2f8260010160009054906101000a900473ffffffffffffffffffffffffffffffffffffffff168888888888604051808773ffffffffffffffffffffffffffffffffffffffff1673ffffffffffffffffffffffffffffffffffffffff16815260200186815260200185815260200184815260200183815260200180602001828103825283818151815260200191508051906020019080838360005b83811015610fcb578082015181840152602081019050610fb0565b50505050905090810190601f168015610ff85780820380516001836020036101000a031916815260200191505b5097505050505050505060405180910390a250505050505050565b61101b610d2c565b151561108f576040517f08c379a000000000000000000000000000000000000000000000000000000000815260040180806020018281038252600a8152602001807f4f6e6c79206f776e65720000000000000000000000000000000000000000000081525060200191505060405180910390fd5b6110988161153c565b50565b600060149054906101000a900460ff16151515611120576040517f08c379a00000000000000000000000000000000000000000000000000000000081526004018080602001828103825260128152602001807f436f6e747261637420697320706175736564000000000000000000000000000081525060200191505060405180910390fd5b6000600354905061112f6116b6565b60e0604051908101604052808381526020013373ffffffffffffffffffffffffffffffffffffffff168152602001888152602001878152602001868152602001858152602001848152509050600160003373ffffffffffffffffffffffffffffffffffffffff1673ffffffffffffffffffffffffffffffffffffffff16815260200190815260200160002082908060018154018082558091505090600182039060005260206000200160009091929091909150555080600260008481526020019081526020016000206000820151816000015560208201518160010160006101000a81548173ffffffffffffffffffffffffffffffffffffffff021916908373ffffffffffffffffffffffffffffffffffffffff16021790555060408201518160020155606082015181600301556080820151816004015560a0820151816005015560c082015181600601908051906020019061128d929190611716565b50905050600360008154809291906001019190505550817fd3098ac7a01b8686f2c8cf144119f6859cf9c56bf618f465fe488e3e6656e46f338989898989604051808773ffffffffffffffffffffffffffffffffffffffff1673ffffffffffffffffffffffffffffffffffffffff16815260200186815260200185815260200184815260200183815260200180602001828103825283818151815260200191508051906020019080838360005b8381101561135557808201518184015260208101905061133a565b50505050905090810190601f1680156113825780820380516001836020036101000a031916815260200191505b5097505050505050505060405180910390a250505050505050565b6000806000806000606060006113b16116b6565b600260008a815260200190815260200160002060e06040519081016040529081600082015481526020016001820160009054906101000a900473ffffffffffffffffffffffffffffffffffffffff1673ffffffffffffffffffffffffffffffffffffffff1673ffffffffffffffffffffffffffffffffffffffff16815260200160028201548152602001600382015481526020016004820154815260200160058201548152602001600682018054600181600116156101000203166002900480601f0160208091040260200160405190810160405280929190818152602001828054600181600116156101000203166002900480156114f15780601f106114c6576101008083540402835291602001916114f1565b820191906000526020600020905b8154815290600101906020018083116114d457829003601f168201915b505050505081525050905080600001518160400151826060015183608001518460a001518560c001518660200151819150975097509750975097509750975050919395979092949650565b600073ffffffffffffffffffffffffffffffffffffffff168173ffffffffffffffffffffffffffffffffffffffff161415151561157857600080fd5b8073ffffffffffffffffffffffffffffffffffffffff166000809054906101000a900473ffffffffffffffffffffffffffffffffffffffff1673ffffffffffffffffffffffffffffffffffffffff167f8be0079c531659141344cd1fd0a4f28419497f9722a3daafe3b4186f6b6457e060405160405180910390a3806000806101000a81548173ffffffffffffffffffffffffffffffffffffffff021916908373ffffffffffffffffffffffffffffffffffffffff16021790555050565b828054600181600116156101000203166002900490600052602060002090601f016020900481019282601f1061167757805160ff19168380011785556116a5565b828001600101855582156116a5579182015b828111156116a4578251825591602001919060010190611689565b5b5090506116b29190611796565b5090565b60e06040519081016040528060008152602001600073ffffffffffffffffffffffffffffffffffffffff16815260200160008019168152602001600080191681526020016000801916815260200160008019168152602001606081525090565b828054600181600116156101000203166002900490600052602060002090601f016020900481019282601f1061175757805160ff1916838001178555611785565b82800160010185558215611785579182015b82811115611784578251825591602001919060010190611769565b5b5090506117929190611796565b5090565b6117b891905b808211156117b457600081600090555060010161179c565b5090565b9056fea165627a7a7230582093b409e33988dd127e79e7a1e82fa11cc6655aba7208cc22f5d8237305a2ed850029",
  "source": "pragma solidity ^0.5.0;\n\nimport 'openzeppelin-solidity/contracts/ownership/Ownable.sol';\nimport './Libraries/Pausable.sol';\n\n//TODO: Validate that values aren't empty\n//TODO: Shoukd had owner address\ncontract FarmFactory  is Ownable, Pausable {\n    event LogAddFarm(\n        uint indexed _id,\n        address _ownerAddress,\n        bytes32 _name,\n        bytes32 _country,\n        bytes32 _region,\n        bytes32 _village,\n        string _story\n    );\n\n    event LogUpdateFarm(\n        uint indexed _id,\n        address _ownerAddress,\n        bytes32 _name,\n        bytes32 _country,\n        bytes32 _region,\n        bytes32 _village,\n        string _story\n    );\n\n    //Farms\n    struct Farm {\n        uint uid;\n        address ownerAddress;\n        bytes32 name;\n        bytes32 country;\n        bytes32 region;\n        bytes32 village;\n        string story;\n    }\n\n    mapping(address => uint[]) public farmerToFarms;\n    mapping(uint => Farm) public farms;\n    uint farmsCount = 1;\n\n    function getFarmersFarmsCount(address _farmer) public view returns (uint) {\n        return farmerToFarms[_farmer].length;\n    }\n\n    function getFarmById(uint uid) public view returns (uint, bytes32, bytes32, bytes32, bytes32, string memory, address) {\n        Farm memory farm = farms[uid];\n        return (farm.uid, farm.name, farm.country, farm.region, farm.village, farm.story, farm.ownerAddress);\n    }\n\n    function addFarm(bytes32 _name, bytes32 _country, bytes32 _region, bytes32 _village, string memory _story) public whenNotPaused {\n        uint uid = farmsCount;\n        Farm memory farm = Farm(uid, msg.sender, _name, _country, _region, _village, _story);\n        farmerToFarms[msg.sender].push(uid);\n        farms[uid] = farm;\n        farmsCount++;\n        emit LogAddFarm(uid, msg.sender, _name, _country, _region, _village, _story);\n    }\n    function updateFarm(uint _uid, bytes32 _name, bytes32 _country, bytes32 _region, bytes32 _village, string memory _story) public whenNotPaused {\n        require(farms[_uid].name != 0);\n        require(farms[_uid].ownerAddress == msg.sender);\n        Farm storage farm = farms[_uid];\n        farm.name = _name;\n        farm.country = _country;\n        farm.region = _region;\n        farm.village = _village;\n        farm.story = _story;\n        emit LogUpdateFarm(_uid, farm.ownerAddress, _name, _country, _region, _village, _story);\n    }\n\n    function destroy() public onlyOwner {\n        selfdestruct(owner());\n    }\n}\n",
  "sourcePath": "/home/crisgarner/Projects/affogato/affogato/contracts/FarmFactory.sol",
  "compiler": {
    "name": "solc",
    "version": "0.5.0+commit.1d4f565a.Emscripten.clang"
  },
  "schemaVersion": "3.0.0",
  "updatedAt": "2019-02-11T20:53:08.101Z",
  "devdoc": {
    "methods": {
      "isOwner()": {
        "return": "true if `msg.sender` is the owner of the contract."
      },
      "owner()": {
        "return": "the address of the owner."
      },
      "pause()": {
        "details": "called by the owner to pause, triggers stopped state"
      },
      "paused()": {
        "return": "true if the contract is paused, false otherwise."
      },
      "renounceOwnership()": {
        "details": "Allows the current owner to relinquish control of the contract."
      },
      "transferOwnership(address)": {
        "details": "Allows the current owner to transfer control of the contract to a newOwner.",
        "params": {
          "newOwner": "The address to transfer ownership to."
        }
      },
      "unpause()": {
        "details": "called by the owner to unpause, returns to normal state"
      }
    }
  },
  "userdoc": {
    "methods": {
      "renounceOwnership()": {
        "notice": "Renouncing to ownership will leave the contract without an owner. It will not be possible to call the functions with the `onlyOwner` modifier anymore."
      }
    }
  }
}