{
  "contractName": "FarmFactory",
  "abi": [
    {
      "constant": true,
      "inputs": [
        {
          "name": "",
          "type": "uint256"
        }
      ],
      "name": "farms",
      "outputs": [
        {
          "name": "uid",
          "type": "uint256"
        },
        {
          "name": "ownerAddress",
          "type": "address"
        },
        {
          "name": "name",
          "type": "bytes32"
        },
        {
          "name": "country",
          "type": "bytes32"
        },
        {
          "name": "region",
          "type": "bytes32"
        },
        {
          "name": "village",
          "type": "bytes32"
        },
        {
          "name": "story",
          "type": "string"
        }
      ],
      "payable": false,
      "stateMutability": "view",
      "type": "function"
    },
    {
      "constant": true,
      "inputs": [
        {
          "name": "",
          "type": "address"
        },
        {
          "name": "",
          "type": "uint256"
        }
      ],
      "name": "farmerToFarms",
      "outputs": [
        {
          "name": "",
          "type": "uint256"
        }
      ],
      "payable": false,
      "stateMutability": "view",
      "type": "function"
    },
    {
      "anonymous": false,
      "inputs": [
        {
          "indexed": true,
          "name": "_id",
          "type": "uint256"
        },
        {
          "indexed": false,
          "name": "_ownerAddress",
          "type": "address"
        },
        {
          "indexed": false,
          "name": "_name",
          "type": "bytes32"
        },
        {
          "indexed": false,
          "name": "_country",
          "type": "bytes32"
        },
        {
          "indexed": false,
          "name": "_region",
          "type": "bytes32"
        },
        {
          "indexed": false,
          "name": "_village",
          "type": "bytes32"
        },
        {
          "indexed": false,
          "name": "_story",
          "type": "string"
        }
      ],
      "name": "LogAddFarm",
      "type": "event"
    },
    {
      "anonymous": false,
      "inputs": [
        {
          "indexed": true,
          "name": "_id",
          "type": "uint256"
        },
        {
          "indexed": false,
          "name": "_ownerAddress",
          "type": "address"
        },
        {
          "indexed": false,
          "name": "_name",
          "type": "bytes32"
        },
        {
          "indexed": false,
          "name": "_country",
          "type": "bytes32"
        },
        {
          "indexed": false,
          "name": "_region",
          "type": "bytes32"
        },
        {
          "indexed": false,
          "name": "_village",
          "type": "bytes32"
        },
        {
          "indexed": false,
          "name": "_story",
          "type": "string"
        }
      ],
      "name": "LogUpdateFarm",
      "type": "event"
    },
    {
      "constant": true,
      "inputs": [
        {
          "name": "_farmer",
          "type": "address"
        }
      ],
      "name": "getFarmersFarmsCount",
      "outputs": [
        {
          "name": "",
          "type": "uint256"
        }
      ],
      "payable": false,
      "stateMutability": "view",
      "type": "function"
    },
    {
      "constant": true,
      "inputs": [
        {
          "name": "uid",
          "type": "uint256"
        }
      ],
      "name": "getFarmById",
      "outputs": [
        {
          "name": "",
          "type": "uint256"
        },
        {
          "name": "",
          "type": "bytes32"
        },
        {
          "name": "",
          "type": "bytes32"
        },
        {
          "name": "",
          "type": "bytes32"
        },
        {
          "name": "",
          "type": "bytes32"
        },
        {
          "name": "",
          "type": "string"
        },
        {
          "name": "",
          "type": "address"
        }
      ],
      "payable": false,
      "stateMutability": "view",
      "type": "function"
    },
    {
      "constant": false,
      "inputs": [
        {
          "name": "_name",
          "type": "bytes32"
        },
        {
          "name": "_country",
          "type": "bytes32"
        },
        {
          "name": "_region",
          "type": "bytes32"
        },
        {
          "name": "_village",
          "type": "bytes32"
        },
        {
          "name": "_story",
          "type": "string"
        }
      ],
      "name": "addFarm",
      "outputs": [],
      "payable": false,
      "stateMutability": "nonpayable",
      "type": "function"
    },
    {
      "constant": false,
      "inputs": [
        {
          "name": "_uid",
          "type": "uint256"
        },
        {
          "name": "_name",
          "type": "bytes32"
        },
        {
          "name": "_country",
          "type": "bytes32"
        },
        {
          "name": "_region",
          "type": "bytes32"
        },
        {
          "name": "_village",
          "type": "bytes32"
        },
        {
          "name": "_story",
          "type": "string"
        }
      ],
      "name": "updateFarm",
      "outputs": [],
      "payable": false,
      "stateMutability": "nonpayable",
      "type": "function"
    }
  ],
  "bytecode": "0x6080604052600160025534801561001557600080fd5b50610ea0806100256000396000f300608060405260043610610078576000357c0100000000000000000000000000000000000000000000000000000000900463ffffffff1680637da470ea1461007d5780637f2265aa14610199578063804990bc146101fa578063d8d01e3e14610251578063f3020dd1146102fc578063fd3cb4511461039d575b600080fd5b34801561008957600080fd5b506100a8600480360381019080803590602001909291905050506104b9565b604051808881526020018773ffffffffffffffffffffffffffffffffffffffff1673ffffffffffffffffffffffffffffffffffffffff168152602001866000191660001916815260200185600019166000191681526020018460001916600019168152602001836000191660001916815260200180602001828103825283818151815260200191508051906020019080838360005b8381101561015857808201518184015260208101905061013d565b50505050905090810190601f1680156101855780820380516001836020036101000a031916815260200191505b509850505050505050505060405180910390f35b3480156101a557600080fd5b506101e4600480360381019080803573ffffffffffffffffffffffffffffffffffffffff169060200190929190803590602001909291905050506105b3565b6040518082815260200191505060405180910390f35b34801561020657600080fd5b5061023b600480360381019080803573ffffffffffffffffffffffffffffffffffffffff1690602001909291905050506105e3565b6040518082815260200191505060405180910390f35b34801561025d57600080fd5b506102fa600480360381019080803590602001909291908035600019169060200190929190803560001916906020019092919080356000191690602001909291908035600019169060200190929190803590602001908201803590602001908080601f016020809104026020016040519081016040528093929190818152602001838380828437820191505050505050919291929050505061062e565b005b34801561030857600080fd5b5061039b6004803603810190808035600019169060200190929190803560001916906020019092919080356000191690602001909291908035600019169060200190929190803590602001908201803590602001908080601f016020809104026020016040519081016040528093929190818152602001838380828437820191505050505050919291929050505061086c565b005b3480156103a957600080fd5b506103c860048036038101908080359060200190929190505050610b30565b604051808881526020018760001916600019168152602001866000191660001916815260200185600019166000191681526020018460001916600019168152602001806020018373ffffffffffffffffffffffffffffffffffffffff1673ffffffffffffffffffffffffffffffffffffffff168152602001828103825284818151815260200191508051906020019080838360005b8381101561047857808201518184015260208101905061045d565b50505050905090810190601f1680156104a55780820380516001836020036101000a031916815260200191505b509850505050505050505060405180910390f35b60016020528060005260406000206000915090508060000154908060010160009054906101000a900473ffffffffffffffffffffffffffffffffffffffff1690806002015490806003015490806004015490806005015490806006018054600181600116156101000203166002900480601f0160208091040260200160405190810160405280929190818152602001828054600181600116156101000203166002900480156105a95780601f1061057e576101008083540402835291602001916105a9565b820191906000526020600020905b81548152906001019060200180831161058c57829003601f168201915b5050505050905087565b6000602052816000526040600020818154811015156105ce57fe5b90600052602060002001600091509150505481565b60008060008373ffffffffffffffffffffffffffffffffffffffff1673ffffffffffffffffffffffffffffffffffffffff168152602001908152602001600020805490509050919050565b6000806001026001600089815260200190815260200160002060020154600019161415151561065c57600080fd5b3373ffffffffffffffffffffffffffffffffffffffff166001600089815260200190815260200160002060010160009054906101000a900473ffffffffffffffffffffffffffffffffffffffff1673ffffffffffffffffffffffffffffffffffffffff161415156106cc57600080fd5b600160008881526020019081526020016000209050858160020181600019169055508481600301816000191690555083816004018160001916905550828160050181600019169055508181600601908051906020019061072d929190610cef565b50867f7f5e4e1c4757aaf20449560bac8ece2ff17e57224d66d47680d9f30bf3fdab2f8260010160009054906101000a900473ffffffffffffffffffffffffffffffffffffffff168888888888604051808773ffffffffffffffffffffffffffffffffffffffff1673ffffffffffffffffffffffffffffffffffffffff168152602001866000191660001916815260200185600019166000191681526020018460001916600019168152602001836000191660001916815260200180602001828103825283818151815260200191508051906020019080838360005b83811015610824578082015181840152602081019050610809565b50505050905090810190601f1680156108515780820380516001836020036101000a031916815260200191505b5097505050505050505060405180910390a250505050505050565b6000610876610d6f565b600254915060e0604051908101604052808381526020013373ffffffffffffffffffffffffffffffffffffffff168152602001886000191681526020018760001916815260200186600019168152602001856000191681526020018481525090506000803373ffffffffffffffffffffffffffffffffffffffff1673ffffffffffffffffffffffffffffffffffffffff16815260200190815260200160002082908060018154018082558091505090600182039060005260206000200160009091929091909150555080600160008481526020019081526020016000206000820151816000015560208201518160010160006101000a81548173ffffffffffffffffffffffffffffffffffffffff021916908373ffffffffffffffffffffffffffffffffffffffff16021790555060408201518160020190600019169055606082015181600301906000191690556080820151816004019060001916905560a0820151816005019060001916905560c0820151816006019080519060200190610a00929190610dcf565b50905050600260008154809291906001019190505550817fd3098ac7a01b8686f2c8cf144119f6859cf9c56bf618f465fe488e3e6656e46f338989898989604051808773ffffffffffffffffffffffffffffffffffffffff1673ffffffffffffffffffffffffffffffffffffffff168152602001866000191660001916815260200185600019166000191681526020018460001916600019168152602001836000191660001916815260200180602001828103825283818151815260200191508051906020019080838360005b83811015610ae8578082015181840152602081019050610acd565b50505050905090810190601f168015610b155780820380516001836020036101000a031916815260200191505b5097505050505050505060405180910390a250505050505050565b600080600080600060606000610b44610d6f565b600160008a815260200190815260200160002060e06040519081016040529081600082015481526020016001820160009054906101000a900473ffffffffffffffffffffffffffffffffffffffff1673ffffffffffffffffffffffffffffffffffffffff1673ffffffffffffffffffffffffffffffffffffffff168152602001600282015460001916600019168152602001600382015460001916600019168152602001600482015460001916600019168152602001600582015460001916600019168152602001600682018054600181600116156101000203166002900480601f016020809104026020016040519081016040528092919081815260200182805460018160011615610100020316600290048015610ca45780601f10610c7957610100808354040283529160200191610ca4565b820191906000526020600020905b815481529060010190602001808311610c8757829003601f168201915b505050505081525050905080600001518160400151826060015183608001518460a001518560c001518660200151819150975097509750975097509750975050919395979092949650565b828054600181600116156101000203166002900490600052602060002090601f016020900481019282601f10610d3057805160ff1916838001178555610d5e565b82800160010185558215610d5e579182015b82811115610d5d578251825591602001919060010190610d42565b5b509050610d6b9190610e4f565b5090565b60e06040519081016040528060008152602001600073ffffffffffffffffffffffffffffffffffffffff16815260200160008019168152602001600080191681526020016000801916815260200160008019168152602001606081525090565b828054600181600116156101000203166002900490600052602060002090601f016020900481019282601f10610e1057805160ff1916838001178555610e3e565b82800160010185558215610e3e579182015b82811115610e3d578251825591602001919060010190610e22565b5b509050610e4b9190610e4f565b5090565b610e7191905b80821115610e6d576000816000905550600101610e55565b5090565b905600a165627a7a723058205a99e296a2024c76197f559e35a1ddb14a2844cf5eb3826c5f85db62cdfab2860029",
  "source": "pragma solidity ^0.4.23;\n\nimport \"./Utils.sol\";\n\n//TODO: Validate that values aren't empty\n//TODO: Shoukd had owner address\ncontract FarmFactory is Utils{\n    \n    event LogAddFarm(\n        uint indexed _id,\n        address _ownerAddress,\n        bytes32 _name,\n        bytes32 _country,\n        bytes32 _region,\n        bytes32 _village, \n        string _story\n    );\n\n    event LogUpdateFarm(\n        uint indexed _id,\n        address _ownerAddress,\n        bytes32 _name,\n        bytes32 _country,\n        bytes32 _region,\n        bytes32 _village, \n        string _story\n    );\n    \n    //Farms\n    struct Farm{\n        uint uid;\n        address ownerAddress;\n        bytes32 name;\n        bytes32 country;\n        bytes32 region;\n        bytes32 village; \n        string story;\n    }\n\n    mapping(address => uint[]) public farmerToFarms;\n    mapping(uint => Farm) public farms;\n    uint farmsCount = 1;\n\n    function getFarmersFarmsCount(address _farmer)public view returns (uint){\n        return farmerToFarms[_farmer].length;\n    }\n\n    function getFarmById(uint uid) public view returns(\n        uint,\n        bytes32, \n        bytes32, \n        bytes32, \n        bytes32, \n        string,\n        address\n        ){\n        Farm memory farm = farms[uid];\n        return(\n            farm.uid,\n            farm.name,\n            farm.country,\n            farm.region,\n            farm.village,\n            farm.story,\n            farm.ownerAddress\n        );\n    }\n\n    function addFarm(\n        bytes32 _name, \n        bytes32 _country, \n        bytes32 _region, \n        bytes32 _village, \n        string _story\n    ) public {\n        uint uid = farmsCount;\n        Farm memory farm = Farm(uid,msg.sender,_name,_country,_region,_village,_story);\n        farmerToFarms[msg.sender].push(uid);\n        farms[uid] = farm;\n        farmsCount++;\n        emit LogAddFarm(uid,msg.sender,_name,_country,_region,_village,_story);\n    }\n    function updateFarm(\n        uint _uid,\n        bytes32 _name, \n        bytes32 _country, \n        bytes32 _region, \n        bytes32 _village, \n        string _story\n    ) public {\n        require(farms[_uid].name != 0);\n        require(farms[_uid].ownerAddress == msg.sender);\n        Farm storage farm = farms[_uid];\n        farm.name = _name;\n        farm.country = _country;\n        farm.region = _region;\n        farm.village = _village;\n        farm.story = _story;\n        emit LogUpdateFarm(_uid, farm.ownerAddress, _name, _country, _region, _village, _story);\n    }\n}\n",
  "sourcePath": "/Users/crisgarner/Projects/affogato/contracts/FarmFactory.sol",
  "compiler": {
    "name": "solc",
    "version": "0.4.24+commit.e67f0147.Emscripten.clang"
  },
  "schemaVersion": "2.0.1",
  "updatedAt": "2018-10-18T12:39:42.804Z"
}