{
  "contractName": "Farmer",
  "abi": [
    {
      "constant": true,
      "inputs": [
        {
          "name": "",
          "type": "bytes32"
        }
      ],
      "name": "farms",
      "outputs": [
        {
          "name": "uid",
          "type": "bytes32"
        },
        {
          "name": "name",
          "type": "bytes32"
        },
        {
          "name": "country",
          "type": "bytes32"
        },
        {
          "name": "region",
          "type": "bytes32"
        },
        {
          "name": "village",
          "type": "bytes32"
        },
        {
          "name": "story",
          "type": "string"
        }
      ],
      "payable": false,
      "stateMutability": "view",
      "type": "function"
    },
    {
      "constant": true,
      "inputs": [
        {
          "name": "",
          "type": "address"
        },
        {
          "name": "",
          "type": "uint256"
        }
      ],
      "name": "farmerToFarms",
      "outputs": [
        {
          "name": "",
          "type": "bytes32"
        }
      ],
      "payable": false,
      "stateMutability": "view",
      "type": "function"
    },
    {
      "constant": true,
      "inputs": [
        {
          "name": "",
          "type": "uint256"
        }
      ],
      "name": "farmersIds",
      "outputs": [
        {
          "name": "",
          "type": "address"
        }
      ],
      "payable": false,
      "stateMutability": "view",
      "type": "function"
    },
    {
      "constant": true,
      "inputs": [
        {
          "name": "",
          "type": "address"
        }
      ],
      "name": "addressToFarmer",
      "outputs": [
        {
          "name": "name",
          "type": "bytes32"
        },
        {
          "name": "country",
          "type": "bytes32"
        },
        {
          "name": "region",
          "type": "bytes32"
        },
        {
          "name": "email",
          "type": "bytes32"
        }
      ],
      "payable": false,
      "stateMutability": "view",
      "type": "function"
    },
    {
      "anonymous": false,
      "inputs": [
        {
          "indexed": true,
          "name": "_id",
          "type": "bytes32"
        }
      ],
      "name": "LogAddFarm",
      "type": "event"
    },
    {
      "anonymous": false,
      "inputs": [
        {
          "indexed": true,
          "name": "_id",
          "type": "bytes32"
        }
      ],
      "name": "LogUpdateFarm",
      "type": "event"
    },
    {
      "anonymous": false,
      "inputs": [
        {
          "indexed": true,
          "name": "_id",
          "type": "address"
        }
      ],
      "name": "LogAddActor",
      "type": "event"
    },
    {
      "anonymous": false,
      "inputs": [
        {
          "indexed": true,
          "name": "_id",
          "type": "address"
        }
      ],
      "name": "LogUpdateActor",
      "type": "event"
    },
    {
      "constant": true,
      "inputs": [],
      "name": "getActorCount",
      "outputs": [
        {
          "name": "count",
          "type": "uint256"
        }
      ],
      "payable": false,
      "stateMutability": "view",
      "type": "function"
    },
    {
      "constant": true,
      "inputs": [],
      "name": "returnOwner",
      "outputs": [
        {
          "name": "",
          "type": "bytes32"
        },
        {
          "name": "",
          "type": "bytes32"
        },
        {
          "name": "",
          "type": "bytes32"
        },
        {
          "name": "",
          "type": "bytes32"
        }
      ],
      "payable": false,
      "stateMutability": "view",
      "type": "function"
    },
    {
      "constant": true,
      "inputs": [
        {
          "name": "_farmer",
          "type": "address"
        }
      ],
      "name": "getFarmer",
      "outputs": [
        {
          "name": "",
          "type": "bytes32"
        },
        {
          "name": "",
          "type": "bytes32"
        },
        {
          "name": "",
          "type": "bytes32"
        },
        {
          "name": "",
          "type": "bytes32"
        }
      ],
      "payable": false,
      "stateMutability": "view",
      "type": "function"
    },
    {
      "constant": false,
      "inputs": [
        {
          "name": "_name",
          "type": "bytes32"
        },
        {
          "name": "_country",
          "type": "bytes32"
        },
        {
          "name": "_region",
          "type": "bytes32"
        },
        {
          "name": "_email",
          "type": "bytes32"
        }
      ],
      "name": "addFarmer",
      "outputs": [],
      "payable": false,
      "stateMutability": "nonpayable",
      "type": "function"
    },
    {
      "constant": false,
      "inputs": [
        {
          "name": "_name",
          "type": "bytes32"
        },
        {
          "name": "_country",
          "type": "bytes32"
        },
        {
          "name": "_region",
          "type": "bytes32"
        },
        {
          "name": "_email",
          "type": "bytes32"
        }
      ],
      "name": "updateFarmer",
      "outputs": [],
      "payable": false,
      "stateMutability": "nonpayable",
      "type": "function"
    },
    {
      "constant": true,
      "inputs": [
        {
          "name": "_farmer",
          "type": "address"
        }
      ],
      "name": "getFarmersFarmsCount",
      "outputs": [
        {
          "name": "",
          "type": "uint256"
        }
      ],
      "payable": false,
      "stateMutability": "view",
      "type": "function"
    },
    {
      "constant": true,
      "inputs": [
        {
          "name": "uid",
          "type": "bytes32"
        }
      ],
      "name": "getFarmById",
      "outputs": [
        {
          "name": "",
          "type": "bytes32"
        },
        {
          "name": "",
          "type": "bytes32"
        },
        {
          "name": "",
          "type": "bytes32"
        },
        {
          "name": "",
          "type": "bytes32"
        },
        {
          "name": "",
          "type": "bytes32"
        },
        {
          "name": "",
          "type": "string"
        }
      ],
      "payable": false,
      "stateMutability": "view",
      "type": "function"
    },
    {
      "constant": false,
      "inputs": [
        {
          "name": "_name",
          "type": "bytes32"
        },
        {
          "name": "_country",
          "type": "bytes32"
        },
        {
          "name": "_department",
          "type": "bytes32"
        },
        {
          "name": "_village",
          "type": "bytes32"
        },
        {
          "name": "_story",
          "type": "string"
        }
      ],
      "name": "addFarm",
      "outputs": [],
      "payable": false,
      "stateMutability": "nonpayable",
      "type": "function"
    },
    {
      "constant": false,
      "inputs": [
        {
          "name": "_uid",
          "type": "bytes32"
        },
        {
          "name": "_name",
          "type": "bytes32"
        },
        {
          "name": "_country",
          "type": "bytes32"
        },
        {
          "name": "_region",
          "type": "bytes32"
        },
        {
          "name": "_village",
          "type": "bytes32"
        },
        {
          "name": "_story",
          "type": "string"
        }
      ],
      "name": "updateFarm",
      "outputs": [],
      "payable": false,
      "stateMutability": "nonpayable",
      "type": "function"
    }
  ],
  "bytecode": "0x6080604052600060045534801561001557600080fd5b5061159e806100256000396000f3006080604052600436106100c5576000357c0100000000000000000000000000000000000000000000000000000000900463ffffffff16806310f908bd146100ca57806365770e7a146101bf5780636e2062b21461021a5780637978f366146102455780637f2265aa146102f4578063804990bc1461035d578063906a8e8e146103b457806394807112146104a957806394a927fe146105165780639e11976114610576578063b71ff6ee14610602578063e7609c161461065d578063f3020dd1146106e9575b600080fd5b3480156100d657600080fd5b506100f9600480360381019080803560001916906020019092919050505061078a565b604051808760001916600019168152602001866000191660001916815260200185600019166000191681526020018460001916600019168152602001836000191660001916815260200180602001828103825283818151815260200191508051906020019080838360005b8381101561017f578082015181840152602081019050610164565b50505050905090810190601f1680156101ac5780820380516001836020036101000a031916815260200191505b5097505050505050505060405180910390f35b3480156101cb57600080fd5b50610218600480360381019080803560001916906020019092919080356000191690602001909291908035600019169060200190929190803560001916906020019092919050505061085e565b005b34801561022657600080fd5b5061022f610a6e565b6040518082815260200191505060405180910390f35b34801561025157600080fd5b506102f260048036038101908080356000191690602001909291908035600019169060200190929190803560001916906020019092919080356000191690602001909291908035600019169060200190929190803590602001908201803590602001908080601f0160208091040260200160405190810160405280939291908181526020018383808284378201915050505050509192919290505050610a7b565b005b34801561030057600080fd5b5061033f600480360381019080803573ffffffffffffffffffffffffffffffffffffffff16906020019092919080359060200190929190505050610b55565b60405180826000191660001916815260200191505060405180910390f35b34801561036957600080fd5b5061039e600480360381019080803573ffffffffffffffffffffffffffffffffffffffff169060200190929190505050610b85565b6040518082815260200191505060405180910390f35b3480156103c057600080fd5b506103e36004803603810190808035600019169060200190929190505050610bd1565b604051808760001916600019168152602001866000191660001916815260200185600019166000191681526020018460001916600019168152602001836000191660001916815260200180602001828103825283818151815260200191508051906020019080838360005b8381101561046957808201518184015260208101905061044e565b50505050905090810190601f1680156104965780820380516001836020036101000a031916815260200191505b5097505050505050505060405180910390f35b3480156104b557600080fd5b506104d460048036038101908080359060200190929190505050610d3f565b604051808273ffffffffffffffffffffffffffffffffffffffff1673ffffffffffffffffffffffffffffffffffffffff16815260200191505060405180910390f35b34801561052257600080fd5b5061052b610d7d565b60405180856000191660001916815260200184600019166000191681526020018360001916600019168152602001826000191660001916815260200194505050505060405180910390f35b34801561058257600080fd5b506105b7600480360381019080803573ffffffffffffffffffffffffffffffffffffffff169060200190929190505050610e42565b60405180856000191660001916815260200184600019166000191681526020018360001916600019168152602001826000191660001916815260200194505050505060405180910390f35b34801561060e57600080fd5b5061065b6004803603810190808035600019169060200190929190803560001916906020019092919080356000191690602001909291908035600019169060200190929190505050610e72565b005b34801561066957600080fd5b5061069e600480360381019080803573ffffffffffffffffffffffffffffffffffffffff169060200190929190505050611037565b60405180856000191660001916815260200184600019166000191681526020018360001916600019168152602001826000191660001916815260200194505050505060405180910390f35b3480156106f557600080fd5b506107886004803603810190808035600019169060200190929190803560001916906020019092919080356000191690602001909291908035600019169060200190929190803590602001908201803590602001908080601f01602080910402602001604051908101604052809392919081815260200183838082843782019150505050505091929192905050506110fd565b005b6003602052806000526040600020600091509050806000015490806001015490806002015490806003015490806004015490806005018054600181600116156101000203166002900480601f0160208091040260200160405190810160405280929190818152602001828054600181600116156101000203166002900480156108545780601f1061082957610100808354040283529160200191610854565b820191906000526020600020905b81548152906001019060200180831161083757829003601f168201915b5050505050905086565b6108666113d2565b60006001026000803373ffffffffffffffffffffffffffffffffffffffff1673ffffffffffffffffffffffffffffffffffffffff1681526020019081526020016000206000015460001916141515156108be57600080fd5b6000803373ffffffffffffffffffffffffffffffffffffffff1673ffffffffffffffffffffffffffffffffffffffff16815260200190815260200160002060806040519081016040529081600082015460001916600019168152602001600182015460001916600019168152602001600282015460001916600019168152602001600382015460001916600019168152505090508481600001906000191690816000191681525050838160200190600019169081600019168152505082816040019060001916908160001916815250508181606001906000191690816000191681525050806000803373ffffffffffffffffffffffffffffffffffffffff1673ffffffffffffffffffffffffffffffffffffffff168152602001908152602001600020600082015181600001906000191690556020820151816001019060001916905560408201518160020190600019169055606082015181600301906000191690559050503373ffffffffffffffffffffffffffffffffffffffff167f40fe80ed1009d34c733aef0c934c33f019edecf0ce21e711c81acf37e7c3ed7a60405160405180910390a25050505050565b6000600180549050905090565b600080600102600360008960001916600019168152602001908152602001600020600101546000191614151515610ab157600080fd5b60036000886000191660001916815260200190815260200160002090508581600101816000191690555084816002018160001916905550838160030181600019169055508281600401816000191690555081816005019080519060200190610b1a929190611407565b5086600019167fed0388ed79a3892033abfd785da7cf7c1f6f927df60eebc74792848942ae62ce60405160405180910390a250505050505050565b600260205281600052604060002081815481101515610b7057fe5b90600052602060002001600091509150505481565b6000600260008373ffffffffffffffffffffffffffffffffffffffff1673ffffffffffffffffffffffffffffffffffffffff168152602001908152602001600020805490509050919050565b60008060008060006060610be3611487565b60036000896000191660001916815260200190815260200160002060c06040519081016040529081600082015460001916600019168152602001600182015460001916600019168152602001600282015460001916600019168152602001600382015460001916600019168152602001600482015460001916600019168152602001600582018054600181600116156101000203166002900480601f016020809104026020016040519081016040528092919081815260200182805460018160011615610100020316600290048015610cfd5780601f10610cd257610100808354040283529160200191610cfd565b820191906000526020600020905b815481529060010190602001808311610ce057829003601f168201915b5050505050815250509050806000015181602001518260400151836060015184608001518560a001518090509650965096509650965096505091939550919395565b600181815481101515610d4e57fe5b906000526020600020016000915054906101000a900473ffffffffffffffffffffffffffffffffffffffff1681565b600080600080610d8b6113d2565b6000803373ffffffffffffffffffffffffffffffffffffffff1673ffffffffffffffffffffffffffffffffffffffff1681526020019081526020016000206080604051908101604052908160008201546000191660001916815260200160018201546000191660001916815260200160028201546000191660001916815260200160038201546000191660001916815250509050806000015181602001518260400151836060015194509450945094505090919293565b60006020528060005260406000206000915090508060000154908060010154908060020154908060030154905084565b610e7a6113d2565b60006001026000803373ffffffffffffffffffffffffffffffffffffffff1673ffffffffffffffffffffffffffffffffffffffff1681526020019081526020016000206000015460001916141515610ed157600080fd5b60806040519081016040528086600019168152602001856000191681526020018460001916815260200183600019168152509050806000803373ffffffffffffffffffffffffffffffffffffffff1673ffffffffffffffffffffffffffffffffffffffff1681526020019081526020016000206000820151816000019060001916905560208201518160010190600019169055604082015181600201906000191690556060820151816003019060001916905590505060013390806001815401808255809150509060018203906000526020600020016000909192909190916101000a81548173ffffffffffffffffffffffffffffffffffffffff021916908373ffffffffffffffffffffffffffffffffffffffff160217905550503373ffffffffffffffffffffffffffffffffffffffff167f091d600a9bd4e0c61c19bf4b18a9352d51fde5471e24a97d00c2cfe3115b18ca60405160405180910390a25050505050565b6000806000806110456113d2565b6000808773ffffffffffffffffffffffffffffffffffffffff1673ffffffffffffffffffffffffffffffffffffffff168152602001908152602001600020608060405190810160405290816000820154600019166000191681526020016001820154600019166000191681526020016002820154600019166000191681526020016003820154600019166000191681525050905080600001518160200151826040015183606001519450945094509450509193509193565b6000611107611487565b611112600454611301565b6040518082805190602001908083835b6020831015156111475780518252602082019150602081019050602083039250611122565b6001836020036101000a0380198251168184511680821785525050505050509050019150506040518091039020915060c0604051908101604052808360001916815260200188600019168152602001876000191681526020018660001916815260200185600019168152602001848152509050600260003373ffffffffffffffffffffffffffffffffffffffff1673ffffffffffffffffffffffffffffffffffffffff16815260200190815260200160002082908060018154018082558091505090600182039060005260206000200160009091929091909150906000191690555080600360008460001916600019168152602001908152602001600020600082015181600001906000191690556020820151816001019060001916905560408201518160020190600019169055606082015181600301906000191690556080820151816004019060001916905560a08201518160050190805190602001906112b19291906114cd565b5090505060046000815480929190600101919050555081600019167fd8d242042b7178cba78041a2679eb87ae08b1e3d5b8e20d672d95f8916178ba860405160405180910390a250505050505050565b6060600060206040519080825280601f01601f1916602001820160405280156113395781602001602082028038833980820191505090505b509150600090505b60208110156113cc5780601f0360080260020a8381151561135e57fe5b047f010000000000000000000000000000000000000000000000000000000000000002828281518110151561138f57fe5b9060200101907effffffffffffffffffffffffffffffffffffffffffffffffffffffffffffff1916908160001a9053508080600101915050611341565b50919050565b608060405190810160405280600080191681526020016000801916815260200160008019168152602001600080191681525090565b828054600181600116156101000203166002900490600052602060002090601f016020900481019282601f1061144857805160ff1916838001178555611476565b82800160010185558215611476579182015b8281111561147557825182559160200191906001019061145a565b5b509050611483919061154d565b5090565b60c0604051908101604052806000801916815260200160008019168152602001600080191681526020016000801916815260200160008019168152602001606081525090565b828054600181600116156101000203166002900490600052602060002090601f016020900481019282601f1061150e57805160ff191683800117855561153c565b8280016001018555821561153c579182015b8281111561153b578251825591602001919060010190611520565b5b509050611549919061154d565b5090565b61156f91905b8082111561156b576000816000905550600101611553565b5090565b905600a165627a7a7230582026190f18daec373adab1544a868c22db6ed13897dd15275ef687d47811f648600029",
  "source": "pragma solidity ^0.4.23;\n\nimport \"./Actor.sol\";\n\n//TODO: Validate that values aren't empty\ncontract Farmer is Actor {\n\n    event LogAddFarm(bytes32 indexed _id);\n    event LogUpdateFarm(bytes32 indexed _id);\n    \n    //Farmer\n    struct FarmerActor {\n        bytes32 name;\n        bytes32 country; \n        bytes32 region;\n        bytes32 email;   \n    }\n\n    mapping(address => FarmerActor) public addressToFarmer;\n    address[] public farmersIds;\n\n    //Farms\n    struct Farm{\n        bytes32 uid;\n        bytes32 name;\n        bytes32 country;\n        bytes32 region;\n        bytes32 village; \n        string story;\n    }\n\n    mapping(address => bytes32[]) public farmerToFarms;\n    mapping(bytes32 => Farm) public farms;\n    uint farmsCount = 0;\n\n    //Farmer Functions\n\n    function getActorCount() public view returns(uint count){\n        return farmersIds.length;\n    }\n\n    function returnOwner() public view returns(\n        bytes32, \n        bytes32, \n        bytes32, \n        bytes32\n    ){\n        FarmerActor memory farmer = addressToFarmer[msg.sender];\n        return(\n            farmer.name,\n            farmer.country,\n            farmer.region,\n            farmer.email\n        );\n    }\n\n     function getFarmer(address _farmer) public view returns(\n        bytes32, \n        bytes32, \n        bytes32, \n        bytes32\n    ) {\n        FarmerActor memory farmer = addressToFarmer[_farmer];\n        return(\n            farmer.name,\n            farmer.country,\n            farmer.region,\n            farmer.email\n        );\n    }\n\n    function addFarmer(\n        bytes32 _name, \n        bytes32 _country, \n        bytes32 _region, \n        bytes32 _email\n    ) public {\n        require(addressToFarmer[msg.sender].name == 0);\n        FarmerActor memory farmer = FarmerActor(_name,_country,_region,_email);\n        addressToFarmer[msg.sender] = farmer;\n        farmersIds.push(msg.sender);\n        emit LogAddActor(msg.sender);\n    }\n\n     function updateFarmer(\n        bytes32 _name, \n        bytes32 _country, \n        bytes32 _region,\n        bytes32 _email \n    ) public {\n        require(!(addressToFarmer[msg.sender].name == 0));\n        FarmerActor memory farmer = addressToFarmer[msg.sender];\n        farmer.name = _name;\n        farmer.country = _country;\n        farmer.region = _region;\n        farmer.email = _email;\n        addressToFarmer[msg.sender] = farmer;\n        emit LogUpdateActor(msg.sender);\n    }\n\n    //Farm Functions\n\n    function getFarmersFarmsCount(address _farmer)public view returns (uint){\n        return farmerToFarms[_farmer].length;\n    }\n\n    function getFarmById(bytes32 uid) public view returns(\n        bytes32,\n        bytes32, \n        bytes32, \n        bytes32, \n        bytes32, \n        string\n        ){\n        Farm memory farm = farms[uid];\n        return(\n            farm.uid,\n            farm.name,\n            farm.country,\n            farm.region,\n            farm.village,\n            farm.story\n        );\n    }\n\n    function addFarm(\n        bytes32 _name, \n        bytes32 _country, \n        bytes32 _department, \n        bytes32 _village, \n        string _story\n    ) public {\n        bytes32 uid = keccak256(toBytes(farmsCount));\n        Farm memory farm = Farm(uid,_name,_country,_department,_village,_story);\n        farmerToFarms[msg.sender].push(uid);\n        farms[uid] = farm;\n        farmsCount++;\n        emit LogAddFarm(uid);\n    }\n\n    function updateFarm(\n        bytes32 _uid,\n        bytes32 _name, \n        bytes32 _country, \n        bytes32 _region, \n        bytes32 _village, \n        string _story\n    ) public {\n        require(farms[_uid].name != 0);\n        Farm storage farm = farms[_uid];\n        farm.name = _name;\n        farm.country = _country;\n        farm.region = _region;\n        farm.village = _village;\n        farm.story = _story;\n        emit LogUpdateFarm(_uid);\n    }\n}\n",
  "sourcePath": "/Users/crisgarner/Projects/affogato/contracts/Farmer.sol",
  "compiler": {
    "name": "solc",
    "version": "0.4.24+commit.e67f0147.Emscripten.clang"
  },
  "schemaVersion": "2.0.1",
  "updatedAt": "2018-08-18T21:00:05.570Z"
}