{
  "contractName": "Farmer",
  "abi": [
    {
      "constant": true,
      "inputs": [
        {
          "name": "",
          "type": "bytes32"
        }
      ],
      "name": "farms",
      "outputs": [
        {
          "name": "uid",
          "type": "bytes32"
        },
        {
          "name": "name",
          "type": "bytes32"
        },
        {
          "name": "country",
          "type": "bytes32"
        },
        {
          "name": "region",
          "type": "bytes32"
        },
        {
          "name": "village",
          "type": "bytes32"
        },
        {
          "name": "story",
          "type": "string"
        }
      ],
      "payable": false,
      "stateMutability": "view",
      "type": "function"
    },
    {
      "constant": true,
      "inputs": [
        {
          "name": "",
          "type": "address"
        },
        {
          "name": "",
          "type": "uint256"
        }
      ],
      "name": "farmerToFarms",
      "outputs": [
        {
          "name": "",
          "type": "bytes32"
        }
      ],
      "payable": false,
      "stateMutability": "view",
      "type": "function"
    },
    {
      "constant": true,
      "inputs": [
        {
          "name": "",
          "type": "uint256"
        }
      ],
      "name": "farmersIds",
      "outputs": [
        {
          "name": "",
          "type": "address"
        }
      ],
      "payable": false,
      "stateMutability": "view",
      "type": "function"
    },
    {
      "constant": true,
      "inputs": [
        {
          "name": "",
          "type": "address"
        }
      ],
      "name": "addressToFarmer",
      "outputs": [
        {
          "name": "name",
          "type": "bytes32"
        },
        {
          "name": "country",
          "type": "bytes32"
        },
        {
          "name": "region",
          "type": "bytes32"
        },
        {
          "name": "email",
          "type": "bytes32"
        }
      ],
      "payable": false,
      "stateMutability": "view",
      "type": "function"
    },
    {
      "constant": true,
      "inputs": [
        {
          "name": "",
          "type": "address"
        }
      ],
      "name": "addressToType",
      "outputs": [
        {
          "name": "",
          "type": "bytes32"
        }
      ],
      "payable": false,
      "stateMutability": "view",
      "type": "function"
    },
    {
      "anonymous": false,
      "inputs": [
        {
          "indexed": true,
          "name": "_id",
          "type": "bytes32"
        }
      ],
      "name": "LogAddFarm",
      "type": "event"
    },
    {
      "anonymous": false,
      "inputs": [
        {
          "indexed": true,
          "name": "_id",
          "type": "bytes32"
        }
      ],
      "name": "LogUpdateFarm",
      "type": "event"
    },
    {
      "anonymous": false,
      "inputs": [
        {
          "indexed": true,
          "name": "_id",
          "type": "address"
        }
      ],
      "name": "LogAddActor",
      "type": "event"
    },
    {
      "anonymous": false,
      "inputs": [
        {
          "indexed": true,
          "name": "_id",
          "type": "address"
        }
      ],
      "name": "LogUpdateActor",
      "type": "event"
    },
    {
      "constant": true,
      "inputs": [],
      "name": "getActorCount",
      "outputs": [
        {
          "name": "count",
          "type": "uint256"
        }
      ],
      "payable": false,
      "stateMutability": "view",
      "type": "function"
    },
    {
      "constant": true,
      "inputs": [
        {
          "name": "_owner",
          "type": "address"
        }
      ],
      "name": "getAccountType",
      "outputs": [
        {
          "name": "",
          "type": "bytes32"
        }
      ],
      "payable": false,
      "stateMutability": "view",
      "type": "function"
    },
    {
      "constant": true,
      "inputs": [],
      "name": "returnOwner",
      "outputs": [
        {
          "name": "",
          "type": "bytes32"
        },
        {
          "name": "",
          "type": "bytes32"
        },
        {
          "name": "",
          "type": "bytes32"
        },
        {
          "name": "",
          "type": "bytes32"
        }
      ],
      "payable": false,
      "stateMutability": "view",
      "type": "function"
    },
    {
      "constant": true,
      "inputs": [
        {
          "name": "_farmer",
          "type": "address"
        }
      ],
      "name": "getFarmer",
      "outputs": [
        {
          "name": "",
          "type": "bytes32"
        },
        {
          "name": "",
          "type": "bytes32"
        },
        {
          "name": "",
          "type": "bytes32"
        },
        {
          "name": "",
          "type": "bytes32"
        }
      ],
      "payable": false,
      "stateMutability": "view",
      "type": "function"
    },
    {
      "constant": false,
      "inputs": [
        {
          "name": "_name",
          "type": "bytes32"
        },
        {
          "name": "_country",
          "type": "bytes32"
        },
        {
          "name": "_region",
          "type": "bytes32"
        },
        {
          "name": "_email",
          "type": "bytes32"
        }
      ],
      "name": "addFarmer",
      "outputs": [],
      "payable": false,
      "stateMutability": "nonpayable",
      "type": "function"
    },
    {
      "constant": false,
      "inputs": [
        {
          "name": "_name",
          "type": "bytes32"
        },
        {
          "name": "_country",
          "type": "bytes32"
        },
        {
          "name": "_region",
          "type": "bytes32"
        },
        {
          "name": "_email",
          "type": "bytes32"
        }
      ],
      "name": "updateFarmer",
      "outputs": [],
      "payable": false,
      "stateMutability": "nonpayable",
      "type": "function"
    },
    {
      "constant": true,
      "inputs": [
        {
          "name": "_farmer",
          "type": "address"
        }
      ],
      "name": "getFarmersFarmsCount",
      "outputs": [
        {
          "name": "",
          "type": "uint256"
        }
      ],
      "payable": false,
      "stateMutability": "view",
      "type": "function"
    },
    {
      "constant": true,
      "inputs": [
        {
          "name": "uid",
          "type": "bytes32"
        }
      ],
      "name": "getFarmById",
      "outputs": [
        {
          "name": "",
          "type": "bytes32"
        },
        {
          "name": "",
          "type": "bytes32"
        },
        {
          "name": "",
          "type": "bytes32"
        },
        {
          "name": "",
          "type": "bytes32"
        },
        {
          "name": "",
          "type": "bytes32"
        },
        {
          "name": "",
          "type": "string"
        }
      ],
      "payable": false,
      "stateMutability": "view",
      "type": "function"
    },
    {
      "constant": false,
      "inputs": [
        {
          "name": "_name",
          "type": "bytes32"
        },
        {
          "name": "_country",
          "type": "bytes32"
        },
        {
          "name": "_department",
          "type": "bytes32"
        },
        {
          "name": "_village",
          "type": "bytes32"
        },
        {
          "name": "_story",
          "type": "string"
        }
      ],
      "name": "addFarm",
      "outputs": [],
      "payable": false,
      "stateMutability": "nonpayable",
      "type": "function"
    },
    {
      "constant": false,
      "inputs": [
        {
          "name": "_uid",
          "type": "bytes32"
        },
        {
          "name": "_name",
          "type": "bytes32"
        },
        {
          "name": "_country",
          "type": "bytes32"
        },
        {
          "name": "_region",
          "type": "bytes32"
        },
        {
          "name": "_village",
          "type": "bytes32"
        },
        {
          "name": "_story",
          "type": "string"
        }
      ],
      "name": "updateFarm",
      "outputs": [],
      "payable": false,
      "stateMutability": "nonpayable",
      "type": "function"
    }
  ],
  "bytecode": "0x6080604052600060055534801561001557600080fd5b50611760806100256000396000f3006080604052600436106100db576000357c0100000000000000000000000000000000000000000000000000000000900463ffffffff16806310f908bd146100e057806365770e7a146101d55780636e2062b2146102305780637978f3661461025b5780637f2265aa1461030a578063804990bc14610373578063906a8e8e146103ca57806394807112146104bf57806394a927fe1461052c5780639e1197611461058c5780639f769ca614610618578063ae20314614610677578063b71ff6ee146106d6578063e7609c1614610731578063f3020dd1146107bd575b600080fd5b3480156100ec57600080fd5b5061010f600480360381019080803560001916906020019092919050505061085e565b604051808760001916600019168152602001866000191660001916815260200185600019166000191681526020018460001916600019168152602001836000191660001916815260200180602001828103825283818151815260200191508051906020019080838360005b8381101561019557808201518184015260208101905061017a565b50505050905090810190601f1680156101c25780820380516001836020036101000a031916815260200191505b5097505050505050505060405180910390f35b3480156101e157600080fd5b5061022e6004803603810190808035600019169060200190929190803560001916906020019092919080356000191690602001909291908035600019169060200190929190505050610932565b005b34801561023c57600080fd5b50610245610b45565b6040518082815260200191505060405180910390f35b34801561026757600080fd5b5061030860048036038101908080356000191690602001909291908035600019169060200190929190803560001916906020019092919080356000191690602001909291908035600019169060200190929190803590602001908201803590602001908080601f0160208091040260200160405190810160405280939291908181526020018383808284378201915050505050509192919290505050610b52565b005b34801561031657600080fd5b50610355600480360381019080803573ffffffffffffffffffffffffffffffffffffffff16906020019092919080359060200190929190505050610c2c565b60405180826000191660001916815260200191505060405180910390f35b34801561037f57600080fd5b506103b4600480360381019080803573ffffffffffffffffffffffffffffffffffffffff169060200190929190505050610c5c565b6040518082815260200191505060405180910390f35b3480156103d657600080fd5b506103f96004803603810190808035600019169060200190929190505050610ca8565b604051808760001916600019168152602001866000191660001916815260200185600019166000191681526020018460001916600019168152602001836000191660001916815260200180602001828103825283818151815260200191508051906020019080838360005b8381101561047f578082015181840152602081019050610464565b50505050905090810190601f1680156104ac5780820380516001836020036101000a031916815260200191505b5097505050505050505060405180910390f35b3480156104cb57600080fd5b506104ea60048036038101908080359060200190929190505050610e16565b604051808273ffffffffffffffffffffffffffffffffffffffff1673ffffffffffffffffffffffffffffffffffffffff16815260200191505060405180910390f35b34801561053857600080fd5b50610541610e54565b60405180856000191660001916815260200184600019166000191681526020018360001916600019168152602001826000191660001916815260200194505050505060405180910390f35b34801561059857600080fd5b506105cd600480360381019080803573ffffffffffffffffffffffffffffffffffffffff169060200190929190505050610f1a565b60405180856000191660001916815260200184600019166000191681526020018360001916600019168152602001826000191660001916815260200194505050505060405180910390f35b34801561062457600080fd5b50610659600480360381019080803573ffffffffffffffffffffffffffffffffffffffff169060200190929190505050610f4a565b60405180826000191660001916815260200191505060405180910390f35b34801561068357600080fd5b506106b8600480360381019080803573ffffffffffffffffffffffffffffffffffffffff169060200190929190505050610f62565b60405180826000191660001916815260200191505060405180910390f35b3480156106e257600080fd5b5061072f6004803603810190808035600019169060200190929190803560001916906020019092919080356000191690602001909291908035600019169060200190929190505050610f74565b005b34801561073d57600080fd5b50610772600480360381019080803573ffffffffffffffffffffffffffffffffffffffff169060200190929190505050611165565b60405180856000191660001916815260200184600019166000191681526020018360001916600019168152602001826000191660001916815260200194505050505060405180910390f35b3480156107c957600080fd5b5061085c6004803603810190808035600019169060200190929190803560001916906020019092919080356000191690602001909291908035600019169060200190929190803590602001908201803590602001908080601f016020809104026020016040519081016040528093929190818152602001838380828437820191505050505050919291929050505061122c565b005b6004602052806000526040600020600091509050806000015490806001015490806002015490806003015490806004015490806005018054600181600116156101000203166002900480601f0160208091040260200160405190810160405280929190818152602001828054600181600116156101000203166002900480156109285780601f106108fd57610100808354040283529160200191610928565b820191906000526020600020905b81548152906001019060200180831161090b57829003601f168201915b5050505050905086565b61093a611594565b6000600102600160003373ffffffffffffffffffffffffffffffffffffffff1673ffffffffffffffffffffffffffffffffffffffff16815260200190815260200160002060000154600019161415151561099357600080fd5b600160003373ffffffffffffffffffffffffffffffffffffffff1673ffffffffffffffffffffffffffffffffffffffff1681526020019081526020016000206080604051908101604052908160008201546000191660001916815260200160018201546000191660001916815260200160028201546000191660001916815260200160038201546000191660001916815250509050848160000190600019169081600019168152505083816020019060001916908160001916815250508281604001906000191690816000191681525050818160600190600019169081600019168152505080600160003373ffffffffffffffffffffffffffffffffffffffff1673ffffffffffffffffffffffffffffffffffffffff168152602001908152602001600020600082015181600001906000191690556020820151816001019060001916905560408201518160020190600019169055606082015181600301906000191690559050503373ffffffffffffffffffffffffffffffffffffffff167f40fe80ed1009d34c733aef0c934c33f019edecf0ce21e711c81acf37e7c3ed7a60405160405180910390a25050505050565b6000600280549050905090565b600080600102600460008960001916600019168152602001908152602001600020600101546000191614151515610b8857600080fd5b60046000886000191660001916815260200190815260200160002090508581600101816000191690555084816002018160001916905550838160030181600019169055508281600401816000191690555081816005019080519060200190610bf19291906115c9565b5086600019167fed0388ed79a3892033abfd785da7cf7c1f6f927df60eebc74792848942ae62ce60405160405180910390a250505050505050565b600360205281600052604060002081815481101515610c4757fe5b90600052602060002001600091509150505481565b6000600360008373ffffffffffffffffffffffffffffffffffffffff1673ffffffffffffffffffffffffffffffffffffffff168152602001908152602001600020805490509050919050565b60008060008060006060610cba611649565b60046000896000191660001916815260200190815260200160002060c06040519081016040529081600082015460001916600019168152602001600182015460001916600019168152602001600282015460001916600019168152602001600382015460001916600019168152602001600482015460001916600019168152602001600582018054600181600116156101000203166002900480601f016020809104026020016040519081016040528092919081815260200182805460018160011615610100020316600290048015610dd45780601f10610da957610100808354040283529160200191610dd4565b820191906000526020600020905b815481529060010190602001808311610db757829003601f168201915b5050505050815250509050806000015181602001518260400151836060015184608001518560a001518090509650965096509650965096505091939550919395565b600281815481101515610e2557fe5b906000526020600020016000915054906101000a900473ffffffffffffffffffffffffffffffffffffffff1681565b600080600080610e62611594565b600160003373ffffffffffffffffffffffffffffffffffffffff1673ffffffffffffffffffffffffffffffffffffffff1681526020019081526020016000206080604051908101604052908160008201546000191660001916815260200160018201546000191660001916815260200160028201546000191660001916815260200160038201546000191660001916815250509050806000015181602001518260400151836060015194509450945094505090919293565b60016020528060005260406000206000915090508060000154908060010154908060020154908060030154905084565b60006020528060005260406000206000915090505481565b6000610f6d82611430565b9050919050565b610f7c611594565b6000600102600160003373ffffffffffffffffffffffffffffffffffffffff1673ffffffffffffffffffffffffffffffffffffffff1681526020019081526020016000206000015460001916141515610fd457600080fd5b6080604051908101604052808660001916815260200185600019168152602001846000191681526020018360001916815250905080600160003373ffffffffffffffffffffffffffffffffffffffff1673ffffffffffffffffffffffffffffffffffffffff1681526020019081526020016000206000820151816000019060001916905560208201518160010190600019169055604082015181600201906000191690556060820151816003019060001916905590505060023390806001815401808255809150509060018203906000526020600020016000909192909190916101000a81548173ffffffffffffffffffffffffffffffffffffffff021916908373ffffffffffffffffffffffffffffffffffffffff1602179055505061111b337f6661726d65720000000000000000000000000000000000000000000000000000611478565b3373ffffffffffffffffffffffffffffffffffffffff167f091d600a9bd4e0c61c19bf4b18a9352d51fde5471e24a97d00c2cfe3115b18ca60405160405180910390a25050505050565b600080600080611173611594565b600160008773ffffffffffffffffffffffffffffffffffffffff1673ffffffffffffffffffffffffffffffffffffffff168152602001908152602001600020608060405190810160405290816000820154600019166000191681526020016001820154600019166000191681526020016002820154600019166000191681526020016003820154600019166000191681525050905080600001518160200151826040015183606001519450945094509450509193509193565b6000611236611649565b6112416005546114c3565b6040518082805190602001908083835b6020831015156112765780518252602082019150602081019050602083039250611251565b6001836020036101000a0380198251168184511680821785525050505050509050019150506040518091039020915060c0604051908101604052808360001916815260200188600019168152602001876000191681526020018660001916815260200185600019168152602001848152509050600360003373ffffffffffffffffffffffffffffffffffffffff1673ffffffffffffffffffffffffffffffffffffffff16815260200190815260200160002082908060018154018082558091505090600182039060005260206000200160009091929091909150906000191690555080600460008460001916600019168152602001908152602001600020600082015181600001906000191690556020820151816001019060001916905560408201518160020190600019169055606082015181600301906000191690556080820151816004019060001916905560a08201518160050190805190602001906113e092919061168f565b5090505060056000815480929190600101919050555081600019167fd8d242042b7178cba78041a2679eb87ae08b1e3d5b8e20d672d95f8916178ba860405160405180910390a250505050505050565b60008060008373ffffffffffffffffffffffffffffffffffffffff1673ffffffffffffffffffffffffffffffffffffffff168152602001908152602001600020549050919050565b806000808473ffffffffffffffffffffffffffffffffffffffff1673ffffffffffffffffffffffffffffffffffffffff16815260200190815260200160002081600019169055505050565b6060600060206040519080825280601f01601f1916602001820160405280156114fb5781602001602082028038833980820191505090505b509150600090505b602081101561158e5780601f0360080260020a8381151561152057fe5b047f010000000000000000000000000000000000000000000000000000000000000002828281518110151561155157fe5b9060200101907effffffffffffffffffffffffffffffffffffffffffffffffffffffffffffff1916908160001a9053508080600101915050611503565b50919050565b608060405190810160405280600080191681526020016000801916815260200160008019168152602001600080191681525090565b828054600181600116156101000203166002900490600052602060002090601f016020900481019282601f1061160a57805160ff1916838001178555611638565b82800160010185558215611638579182015b8281111561163757825182559160200191906001019061161c565b5b509050611645919061170f565b5090565b60c0604051908101604052806000801916815260200160008019168152602001600080191681526020016000801916815260200160008019168152602001606081525090565b828054600181600116156101000203166002900490600052602060002090601f016020900481019282601f106116d057805160ff19168380011785556116fe565b828001600101855582156116fe579182015b828111156116fd5782518255916020019190600101906116e2565b5b50905061170b919061170f565b5090565b61173191905b8082111561172d576000816000905550600101611715565b5090565b905600a165627a7a72305820a87e6a7c4fee7629d09bc252b730e1deed9dd2c6a24bca195aa7ae647a7b35d10029",
  "source": "pragma solidity ^0.4.23;\n\nimport \"./Actor.sol\";\n\n//TODO: Validate that values aren't empty\ncontract Farmer is Actor {\n\n    event LogAddFarm(bytes32 indexed _id);\n    event LogUpdateFarm(bytes32 indexed _id);\n    \n    //Farmer\n    struct FarmerActor {\n        bytes32 name;\n        bytes32 country; \n        bytes32 region;\n        bytes32 email;   \n    }\n\n    mapping(address => FarmerActor) public addressToFarmer;\n    address[] public farmersIds;\n\n    //Farms\n    struct Farm{\n        bytes32 uid;\n        bytes32 name;\n        bytes32 country;\n        bytes32 region;\n        bytes32 village; \n        string story;\n    }\n\n    mapping(address => bytes32[]) public farmerToFarms;\n    mapping(bytes32 => Farm) public farms;\n    uint farmsCount = 0;\n\n    //Farmer Functions\n\n    function getActorCount() public view returns(uint count){\n        return farmersIds.length;\n    }\n\n    function getAccountType(address _owner) public view returns (bytes32) {\n        return super.getAccountType(_owner);\n    }\n\n    function returnOwner() public view returns(\n        bytes32, \n        bytes32, \n        bytes32, \n        bytes32\n    ){\n        FarmerActor memory farmer = addressToFarmer[msg.sender];\n        return(\n            farmer.name,\n            farmer.country,\n            farmer.region,\n            farmer.email\n        );\n    }\n\n     function getFarmer(address _farmer) public view returns(\n        bytes32, \n        bytes32, \n        bytes32, \n        bytes32\n    ) {\n        FarmerActor memory farmer = addressToFarmer[_farmer];\n        return(\n            farmer.name,\n            farmer.country,\n            farmer.region,\n            farmer.email\n        );\n    }\n\n    function addFarmer(\n        bytes32 _name, \n        bytes32 _country, \n        bytes32 _region, \n        bytes32 _email\n    ) public {\n        require(addressToFarmer[msg.sender].name == 0);\n        FarmerActor memory farmer = FarmerActor(_name,_country,_region,_email);\n        addressToFarmer[msg.sender] = farmer;\n        farmersIds.push(msg.sender);\n        super.setAccountType(msg.sender,\"farmer\");\n        emit LogAddActor(msg.sender);\n    }\n\n     function updateFarmer(\n        bytes32 _name, \n        bytes32 _country, \n        bytes32 _region,\n        bytes32 _email \n    ) public {\n        require(!(addressToFarmer[msg.sender].name == 0));\n        FarmerActor memory farmer = addressToFarmer[msg.sender];\n        farmer.name = _name;\n        farmer.country = _country;\n        farmer.region = _region;\n        farmer.email = _email;\n        addressToFarmer[msg.sender] = farmer;\n        emit LogUpdateActor(msg.sender);\n    }\n\n    //Farm Functions\n\n    function getFarmersFarmsCount(address _farmer)public view returns (uint){\n        return farmerToFarms[_farmer].length;\n    }\n\n    function getFarmById(bytes32 uid) public view returns(\n        bytes32,\n        bytes32, \n        bytes32, \n        bytes32, \n        bytes32, \n        string\n        ){\n        Farm memory farm = farms[uid];\n        return(\n            farm.uid,\n            farm.name,\n            farm.country,\n            farm.region,\n            farm.village,\n            farm.story\n        );\n    }\n\n    function addFarm(\n        bytes32 _name, \n        bytes32 _country, \n        bytes32 _department, \n        bytes32 _village, \n        string _story\n    ) public {\n        bytes32 uid = keccak256(toBytes(farmsCount));\n        Farm memory farm = Farm(uid,_name,_country,_department,_village,_story);\n        farmerToFarms[msg.sender].push(uid);\n        farms[uid] = farm;\n        farmsCount++;\n        emit LogAddFarm(uid);\n    }\n\n    function updateFarm(\n        bytes32 _uid,\n        bytes32 _name, \n        bytes32 _country, \n        bytes32 _region, \n        bytes32 _village, \n        string _story\n    ) public {\n        require(farms[_uid].name != 0);\n        Farm storage farm = farms[_uid];\n        farm.name = _name;\n        farm.country = _country;\n        farm.region = _region;\n        farm.village = _village;\n        farm.story = _story;\n        emit LogUpdateFarm(_uid);\n    }\n}\n",
  "sourcePath": "/Users/crisgarner/Projects/affogato/contracts/Farmer.sol",
  "compiler": {
    "name": "solc",
    "version": "0.4.24+commit.e67f0147.Emscripten.clang"
  },
  "schemaVersion": "2.0.1",
  "updatedAt": "2018-08-30T18:41:24.264Z"
}