{
  "contractName": "FarmFactory",
  "abi": [
    {
      "constant": true,
      "inputs": [
        {
          "name": "",
          "type": "bytes32"
        }
      ],
      "name": "farms",
      "outputs": [
        {
          "name": "uid",
          "type": "bytes32"
        },
        {
          "name": "name",
          "type": "bytes32"
        },
        {
          "name": "country",
          "type": "bytes32"
        },
        {
          "name": "region",
          "type": "bytes32"
        },
        {
          "name": "village",
          "type": "bytes32"
        },
        {
          "name": "story",
          "type": "string"
        }
      ],
      "payable": false,
      "stateMutability": "view",
      "type": "function"
    },
    {
      "constant": true,
      "inputs": [
        {
          "name": "",
          "type": "address"
        },
        {
          "name": "",
          "type": "uint256"
        }
      ],
      "name": "farmerToFarms",
      "outputs": [
        {
          "name": "",
          "type": "bytes32"
        }
      ],
      "payable": false,
      "stateMutability": "view",
      "type": "function"
    },
    {
      "anonymous": false,
      "inputs": [
        {
          "indexed": true,
          "name": "_id",
          "type": "bytes32"
        }
      ],
      "name": "LogAddFarm",
      "type": "event"
    },
    {
      "anonymous": false,
      "inputs": [
        {
          "indexed": true,
          "name": "_id",
          "type": "bytes32"
        }
      ],
      "name": "LogUpdateFarm",
      "type": "event"
    },
    {
      "constant": true,
      "inputs": [
        {
          "name": "_farmer",
          "type": "address"
        }
      ],
      "name": "getFarmersFarmsCount",
      "outputs": [
        {
          "name": "",
          "type": "uint256"
        }
      ],
      "payable": false,
      "stateMutability": "view",
      "type": "function"
    },
    {
      "constant": true,
      "inputs": [
        {
          "name": "uid",
          "type": "bytes32"
        }
      ],
      "name": "getFarmById",
      "outputs": [
        {
          "name": "",
          "type": "bytes32"
        },
        {
          "name": "",
          "type": "bytes32"
        },
        {
          "name": "",
          "type": "bytes32"
        },
        {
          "name": "",
          "type": "bytes32"
        },
        {
          "name": "",
          "type": "bytes32"
        },
        {
          "name": "",
          "type": "string"
        }
      ],
      "payable": false,
      "stateMutability": "view",
      "type": "function"
    },
    {
      "constant": false,
      "inputs": [
        {
          "name": "_name",
          "type": "bytes32"
        },
        {
          "name": "_country",
          "type": "bytes32"
        },
        {
          "name": "_department",
          "type": "bytes32"
        },
        {
          "name": "_village",
          "type": "bytes32"
        },
        {
          "name": "_story",
          "type": "string"
        }
      ],
      "name": "addFarm",
      "outputs": [],
      "payable": false,
      "stateMutability": "nonpayable",
      "type": "function"
    },
    {
      "constant": false,
      "inputs": [
        {
          "name": "_uid",
          "type": "bytes32"
        },
        {
          "name": "_name",
          "type": "bytes32"
        },
        {
          "name": "_country",
          "type": "bytes32"
        },
        {
          "name": "_region",
          "type": "bytes32"
        },
        {
          "name": "_village",
          "type": "bytes32"
        },
        {
          "name": "_story",
          "type": "string"
        }
      ],
      "name": "updateFarm",
      "outputs": [],
      "payable": false,
      "stateMutability": "nonpayable",
      "type": "function"
    }
  ],
  "bytecode": "0x6080604052600060025534801561001557600080fd5b50610c79806100256000396000f300608060405260043610610078576000357c0100000000000000000000000000000000000000000000000000000000900463ffffffff16806310f908bd1461007d5780637978f366146101725780637f2265aa14610221578063804990bc1461028a578063906a8e8e146102e1578063f3020dd1146103d6575b600080fd5b34801561008957600080fd5b506100ac6004803603810190808035600019169060200190929190505050610477565b604051808760001916600019168152602001866000191660001916815260200185600019166000191681526020018460001916600019168152602001836000191660001916815260200180602001828103825283818151815260200191508051906020019080838360005b83811015610132578082015181840152602081019050610117565b50505050905090810190601f16801561015f5780820380516001836020036101000a031916815260200191505b5097505050505050505060405180910390f35b34801561017e57600080fd5b5061021f60048036038101908080356000191690602001909291908035600019169060200190929190803560001916906020019092919080356000191690602001909291908035600019169060200190929190803590602001908201803590602001908080601f016020809104026020016040519081016040528093929190818152602001838380828437820191505050505050919291929050505061054b565b005b34801561022d57600080fd5b5061026c600480360381019080803573ffffffffffffffffffffffffffffffffffffffff16906020019092919080359060200190929190505050610625565b60405180826000191660001916815260200191505060405180910390f35b34801561029657600080fd5b506102cb600480360381019080803573ffffffffffffffffffffffffffffffffffffffff169060200190929190505050610655565b6040518082815260200191505060405180910390f35b3480156102ed57600080fd5b5061031060048036038101908080356000191690602001909291905050506106a0565b604051808760001916600019168152602001866000191660001916815260200185600019166000191681526020018460001916600019168152602001836000191660001916815260200180602001828103825283818151815260200191508051906020019080838360005b8381101561039657808201518184015260208101905061037b565b50505050905090810190601f1680156103c35780820380516001836020036101000a031916815260200191505b5097505050505050505060405180910390f35b3480156103e257600080fd5b506104756004803603810190808035600019169060200190929190803560001916906020019092919080356000191690602001909291908035600019169060200190929190803590602001908201803590602001908080601f016020809104026020016040519081016040528093929190818152602001838380828437820191505050505050919291929050505061080e565b005b6001602052806000526040600020600091509050806000015490806001015490806002015490806003015490806004015490806005018054600181600116156101000203166002900480601f0160208091040260200160405190810160405280929190818152602001828054600181600116156101000203166002900480156105415780601f1061051657610100808354040283529160200191610541565b820191906000526020600020905b81548152906001019060200180831161052457829003601f168201915b5050505050905086565b60008060010260016000896000191660001916815260200190815260200160002060010154600019161415151561058157600080fd5b600160008860001916600019168152602001908152602001600020905085816001018160001916905550848160020181600019169055508381600301816000191690555082816004018160001916905550818160050190805190602001906105ea929190610ae2565b5086600019167fed0388ed79a3892033abfd785da7cf7c1f6f927df60eebc74792848942ae62ce60405160405180910390a250505050505050565b60006020528160005260406000208181548110151561064057fe5b90600052602060002001600091509150505481565b60008060008373ffffffffffffffffffffffffffffffffffffffff1673ffffffffffffffffffffffffffffffffffffffff168152602001908152602001600020805490509050919050565b600080600080600060606106b2610b62565b60016000896000191660001916815260200190815260200160002060c06040519081016040529081600082015460001916600019168152602001600182015460001916600019168152602001600282015460001916600019168152602001600382015460001916600019168152602001600482015460001916600019168152602001600582018054600181600116156101000203166002900480601f0160208091040260200160405190810160405280929190818152602001828054600181600116156101000203166002900480156107cc5780601f106107a1576101008083540402835291602001916107cc565b820191906000526020600020905b8154815290600101906020018083116107af57829003601f168201915b5050505050815250509050806000015181602001518260400151836060015184608001518560a001518090509650965096509650965096505091939550919395565b6000610818610b62565b610823600254610a11565b6040518082805190602001908083835b6020831015156108585780518252602082019150602081019050602083039250610833565b6001836020036101000a0380198251168184511680821785525050505050509050019150506040518091039020915060c06040519081016040528083600019168152602001886000191681526020018760001916815260200186600019168152602001856000191681526020018481525090506000803373ffffffffffffffffffffffffffffffffffffffff1673ffffffffffffffffffffffffffffffffffffffff16815260200190815260200160002082908060018154018082558091505090600182039060005260206000200160009091929091909150906000191690555080600160008460001916600019168152602001908152602001600020600082015181600001906000191690556020820151816001019060001916905560408201518160020190600019169055606082015181600301906000191690556080820151816004019060001916905560a08201518160050190805190602001906109c1929190610ba8565b5090505060026000815480929190600101919050555081600019167fd8d242042b7178cba78041a2679eb87ae08b1e3d5b8e20d672d95f8916178ba860405160405180910390a250505050505050565b6060600060206040519080825280601f01601f191660200182016040528015610a495781602001602082028038833980820191505090505b509150600090505b6020811015610adc5780601f0360080260020a83811515610a6e57fe5b047f0100000000000000000000000000000000000000000000000000000000000000028282815181101515610a9f57fe5b9060200101907effffffffffffffffffffffffffffffffffffffffffffffffffffffffffffff1916908160001a9053508080600101915050610a51565b50919050565b828054600181600116156101000203166002900490600052602060002090601f016020900481019282601f10610b2357805160ff1916838001178555610b51565b82800160010185558215610b51579182015b82811115610b50578251825591602001919060010190610b35565b5b509050610b5e9190610c28565b5090565b60c0604051908101604052806000801916815260200160008019168152602001600080191681526020016000801916815260200160008019168152602001606081525090565b828054600181600116156101000203166002900490600052602060002090601f016020900481019282601f10610be957805160ff1916838001178555610c17565b82800160010185558215610c17579182015b82811115610c16578251825591602001919060010190610bfb565b5b509050610c249190610c28565b5090565b610c4a91905b80821115610c46576000816000905550600101610c2e565b5090565b905600a165627a7a723058208f203b993fe1ff3b8954467dfddd4d0f1e3ded1f79c089d061919e71972bad7b0029",
  "source": "pragma solidity ^0.4.23;\n\nimport \"./Utils.sol\";\n\n//TODO: Validate that values aren't empty\ncontract FarmFactory is Utils{\n\n    event LogAddFarm(bytes32 indexed _id);\n    event LogUpdateFarm(bytes32 indexed _id);\n    \n    //Farms\n    struct Farm{\n        bytes32 uid;\n        bytes32 name;\n        bytes32 country;\n        bytes32 region;\n        bytes32 village; \n        string story;\n    }\n\n    mapping(address => bytes32[]) public farmerToFarms;\n    mapping(bytes32 => Farm) public farms;\n    uint farmsCount = 0;\n\n    function getFarmersFarmsCount(address _farmer)public view returns (uint){\n        return farmerToFarms[_farmer].length;\n    }\n\n    function getFarmById(bytes32 uid) public view returns(\n        bytes32,\n        bytes32, \n        bytes32, \n        bytes32, \n        bytes32, \n        string\n        ){\n        Farm memory farm = farms[uid];\n        return(\n            farm.uid,\n            farm.name,\n            farm.country,\n            farm.region,\n            farm.village,\n            farm.story\n        );\n    }\n\n    function addFarm(\n        bytes32 _name, \n        bytes32 _country, \n        bytes32 _department, \n        bytes32 _village, \n        string _story\n    ) public {\n        bytes32 uid = keccak256(toBytes(farmsCount));\n        Farm memory farm = Farm(uid,_name,_country,_department,_village,_story);\n        farmerToFarms[msg.sender].push(uid);\n        farms[uid] = farm;\n        farmsCount++;\n        emit LogAddFarm(uid);\n    }\n\n    function updateFarm(\n        bytes32 _uid,\n        bytes32 _name, \n        bytes32 _country, \n        bytes32 _region, \n        bytes32 _village, \n        string _story\n    ) public {\n        require(farms[_uid].name != 0);\n        Farm storage farm = farms[_uid];\n        farm.name = _name;\n        farm.country = _country;\n        farm.region = _region;\n        farm.village = _village;\n        farm.story = _story;\n        emit LogUpdateFarm(_uid);\n    }\n}\n",
  "sourcePath": "/Users/crisgarner/Projects/affogato/contracts/FarmFactory.sol",
  "compiler": {
    "name": "solc",
    "version": "0.4.24+commit.e67f0147.Emscripten.clang"
  },
  "schemaVersion": "2.0.1",
  "updatedAt": "2018-08-30T23:04:48.253Z"
}