{
  "contractName": "Marketplace",
  "abi": [
    {
      "constant": true,
      "inputs": [
        {
          "name": "",
          "type": "address"
        },
        {
          "name": "",
          "type": "uint256"
        }
      ],
      "name": "farmerToBid",
      "outputs": [
        {
          "name": "farmer",
          "type": "address"
        },
        {
          "name": "title",
          "type": "string"
        },
        {
          "name": "imageHash",
          "type": "string"
        },
        {
          "name": "initialPrice",
          "type": "uint256"
        },
        {
          "name": "buyoutPrice",
          "type": "uint256"
        },
        {
          "name": "coffeeBatchId",
          "type": "uint256"
        },
        {
          "name": "timeLimit",
          "type": "uint256"
        },
        {
          "name": "status",
          "type": "bool"
        }
      ],
      "payable": false,
      "stateMutability": "view",
      "type": "function"
    },
    {
      "inputs": [
        {
          "name": "_coffeeFactoryAddress",
          "type": "address"
        }
      ],
      "payable": false,
      "stateMutability": "nonpayable",
      "type": "constructor"
    },
    {
      "anonymous": false,
      "inputs": [
        {
          "indexed": false,
          "name": "_bidPosition",
          "type": "uint256"
        },
        {
          "indexed": false,
          "name": "_farmer",
          "type": "address"
        },
        {
          "indexed": false,
          "name": "_title",
          "type": "string"
        },
        {
          "indexed": false,
          "name": "_imageHash",
          "type": "string"
        },
        {
          "indexed": false,
          "name": "_initialPrice",
          "type": "uint256"
        },
        {
          "indexed": false,
          "name": "_buyoutPrice",
          "type": "uint256"
        },
        {
          "indexed": false,
          "name": "_coffeeBatchId",
          "type": "uint256"
        },
        {
          "indexed": false,
          "name": "_timeLimit",
          "type": "uint256"
        },
        {
          "indexed": false,
          "name": "_status",
          "type": "bool"
        }
      ],
      "name": "LogCreateBid",
      "type": "event"
    },
    {
      "constant": false,
      "inputs": [
        {
          "name": "_title",
          "type": "string"
        },
        {
          "name": "_imageHash",
          "type": "string"
        },
        {
          "name": "_initialPrice",
          "type": "uint256"
        },
        {
          "name": "_buyoutPrice",
          "type": "uint256"
        },
        {
          "name": "_coffeeBatchId",
          "type": "uint256"
        },
        {
          "name": "_timeLimit",
          "type": "uint256"
        }
      ],
      "name": "createBid",
      "outputs": [],
      "payable": false,
      "stateMutability": "nonpayable",
      "type": "function"
    },
    {
      "constant": true,
      "inputs": [
        {
          "name": "_owner",
          "type": "address"
        },
        {
          "name": "_bidPosition",
          "type": "uint256"
        }
      ],
      "name": "getBid",
      "outputs": [
        {
          "name": "",
          "type": "address"
        },
        {
          "name": "",
          "type": "string"
        },
        {
          "name": "",
          "type": "string"
        },
        {
          "name": "",
          "type": "uint256"
        },
        {
          "name": "",
          "type": "uint256"
        },
        {
          "name": "",
          "type": "uint256"
        },
        {
          "name": "",
          "type": "uint256"
        },
        {
          "name": "",
          "type": "bool"
        }
      ],
      "payable": false,
      "stateMutability": "view",
      "type": "function"
    }
  ],
  "bytecode": "0x608060405234801561001057600080fd5b50604051602080610dbf83398101806040528101908080519060200190929190505050806000806101000a81548173ffffffffffffffffffffffffffffffffffffffff021916908373ffffffffffffffffffffffffffffffffffffffff16021790555050610d3c806100836000396000f300608060405260043610610057576000357c0100000000000000000000000000000000000000000000000000000000900463ffffffff16806316ab2b031461005c578063962714c3146101e8578063a4ac871514610374575b600080fd5b34801561006857600080fd5b506100a7600480360381019080803573ffffffffffffffffffffffffffffffffffffffff1690602001909291908035906020019092919050505061044b565b604051808973ffffffffffffffffffffffffffffffffffffffff1673ffffffffffffffffffffffffffffffffffffffff16815260200180602001806020018881526020018781526020018681526020018581526020018415151515815260200183810383528a818151815260200191508051906020019080838360005b8381101561013f578082015181840152602081019050610124565b50505050905090810190601f16801561016c5780820380516001836020036101000a031916815260200191505b50838103825289818151815260200191508051906020019080838360005b838110156101a557808201518184015260208101905061018a565b50505050905090810190601f1680156101d25780820380516001836020036101000a031916815260200191505b509a505050505050505050505060405180910390f35b3480156101f457600080fd5b50610233600480360381019080803573ffffffffffffffffffffffffffffffffffffffff169060200190929190803590602001909291905050506106f2565b604051808973ffffffffffffffffffffffffffffffffffffffff1673ffffffffffffffffffffffffffffffffffffffff16815260200180602001806020018881526020018781526020018681526020018581526020018415151515815260200183810383528a818151815260200191508051906020019080838360005b838110156102cb5780820151818401526020810190506102b0565b50505050905090810190601f1680156102f85780820380516001836020036101000a031916815260200191505b50838103825289818151815260200191508051906020019080838360005b83811015610331578082015181840152602081019050610316565b50505050905090810190601f16801561035e5780820380516001836020036101000a031916815260200191505b509a505050505050505050505060405180910390f35b34801561038057600080fd5b50610449600480360381019080803590602001908201803590602001908080601f0160208091040260200160405190810160405280939291908181526020018383808284378201915050505050509192919290803590602001908201803590602001908080601f0160208091040260200160405190810160405280939291908181526020018383808284378201915050505050509192919290803590602001909291908035906020019092919080359060200190929190803590602001909291905050506108b3565b005b60006060806000806000806000610460610c0d565b600160008c73ffffffffffffffffffffffffffffffffffffffff1673ffffffffffffffffffffffffffffffffffffffff1681526020019081526020016000208a8154811015156104ac57fe5b906000526020600020906008020161010060405190810160405290816000820160009054906101000a900473ffffffffffffffffffffffffffffffffffffffff1673ffffffffffffffffffffffffffffffffffffffff1673ffffffffffffffffffffffffffffffffffffffff168152602001600182018054600181600116156101000203166002900480601f0160208091040260200160405190810160405280929190818152602001828054600181600116156101000203166002900480156105b65780601f1061058b576101008083540402835291602001916105b6565b820191906000526020600020905b81548152906001019060200180831161059957829003601f168201915b50505050508152602001600282018054600181600116156101000203166002900480601f0160208091040260200160405190810160405280929190818152602001828054600181600116156101000203166002900480156106585780601f1061062d57610100808354040283529160200191610658565b820191906000526020600020905b81548152906001019060200180831161063b57829003601f168201915b50505050508152602001600382015481526020016004820154815260200160058201548152602001600682015481526020016007820160009054906101000a900460ff1615151515815250509050806000015181602001518260400151836060015184608001518560a001518660c001518760e0015186965085955098509850985098509850985098509850509295985092959890939650565b60016020528160005260406000208181548110151561070d57fe5b9060005260206000209060080201600091509150508060000160009054906101000a900473ffffffffffffffffffffffffffffffffffffffff1690806001018054600181600116156101000203166002900480601f0160208091040260200160405190810160405280929190818152602001828054600181600116156101000203166002900480156107e05780601f106107b5576101008083540402835291602001916107e0565b820191906000526020600020905b8154815290600101906020018083116107c357829003601f168201915b505050505090806002018054600181600116156101000203166002900480601f01602080910402602001604051908101604052809291908181526020018280546001816001161561010002031660029004801561087e5780601f106108535761010080835404028352916020019161087e565b820191906000526020600020905b81548152906001019060200180831161086157829003601f168201915b5050505050908060030154908060040154908060050154908060060154908060070160009054906101000a900460ff16905088565b6108bb610c0d565b6000610100604051908101604052803373ffffffffffffffffffffffffffffffffffffffff168152602001898152602001888152602001878152602001868152602001858152602001848152602001600115158152509150600160003373ffffffffffffffffffffffffffffffffffffffff1673ffffffffffffffffffffffffffffffffffffffff168152602001908152602001600020829080600181540180825580915050906001820390600052602060002090600802016000909192909190915060008201518160000160006101000a81548173ffffffffffffffffffffffffffffffffffffffff021916908373ffffffffffffffffffffffffffffffffffffffff16021790555060208201518160010190805190602001906109e1929190610c6b565b5060408201518160020190805190602001906109fe929190610c6b565b50606082015181600301556080820151816004015560a0820151816005015560c0820151816006015560e08201518160070160006101000a81548160ff02191690831515021790555050505060018060003373ffffffffffffffffffffffffffffffffffffffff1673ffffffffffffffffffffffffffffffffffffffff168152602001908152602001600020805490500390507f2bba97833b85cace51ea8227086f77d30278fba65d43119c802b39bbb8a98b6981338a8a8a8a8a8a6001604051808a81526020018973ffffffffffffffffffffffffffffffffffffffff1673ffffffffffffffffffffffffffffffffffffffff16815260200180602001806020018881526020018781526020018681526020018581526020018415151515815260200183810383528a818151815260200191508051906020019080838360005b83811015610b5a578082015181840152602081019050610b3f565b50505050905090810190601f168015610b875780820380516001836020036101000a031916815260200191505b50838103825289818151815260200191508051906020019080838360005b83811015610bc0578082015181840152602081019050610ba5565b50505050905090810190601f168015610bed5780820380516001836020036101000a031916815260200191505b509b50505050505050505050505060405180910390a15050505050505050565b61010060405190810160405280600073ffffffffffffffffffffffffffffffffffffffff1681526020016060815260200160608152602001600081526020016000815260200160008152602001600081526020016000151581525090565b828054600181600116156101000203166002900490600052602060002090601f016020900481019282601f10610cac57805160ff1916838001178555610cda565b82800160010185558215610cda579182015b82811115610cd9578251825591602001919060010190610cbe565b5b509050610ce79190610ceb565b5090565b610d0d91905b80821115610d09576000816000905550600101610cf1565b5090565b905600a165627a7a72305820a521ffb5e16b0d7fdd255966f1d134f01cfca1153b0c9a5a93aecc4ed38ee1130029",
  "source": "pragma solidity ^0.4.23;\n\nimport \"../Coffee.sol\";\n\ncontract Marketplace{\n\n    Coffee coffeeFactory;\n\n    event LogCreateBid(\n        uint _bidPosition,\n        address _farmer,\n        string _title, //TODO: make it a bytes32\n        string _imageHash,\n        uint256 _initialPrice,\n        uint256 _buyoutPrice,\n        uint _coffeeBatchId,\n        uint _timeLimit, \n        bool _status\n    );\n\n    struct Bid {\n        address farmer;\n        string title;\n        string imageHash;\n        uint256 initialPrice;\n        uint256 buyoutPrice;\n        uint coffeeBatchId;\n        uint timeLimit; \n        bool status;\n    }\n    mapping (address => Bid[]) public farmerToBid;\n\n    constructor(address _coffeeFactoryAddress) public {\n        coffeeFactory = Coffee(_coffeeFactoryAddress);\n    }\n\n\n    //TODO: Only coffee batch owner should create a bid\n    function createBid(string _title, string _imageHash, uint256 _initialPrice, uint256 _buyoutPrice, uint _coffeeBatchId, uint _timeLimit) public{\n        Bid memory bid = Bid(msg.sender, _title, _imageHash, _initialPrice, _buyoutPrice, _coffeeBatchId, _timeLimit, true);\n        farmerToBid[msg.sender].push(bid);\n        uint bidPosition = farmerToBid[msg.sender].length - 1;\n        emit LogCreateBid(bidPosition, msg.sender, _title, _imageHash, _initialPrice, _buyoutPrice, _coffeeBatchId, _timeLimit, true);\n    }\n\n    function getBid(address _owner, uint _bidPosition) public view returns(\n        address,\n        string,\n        string,\n        uint256,\n        uint256,\n        uint,\n        uint,\n        bool\n    ){\n        Bid memory bid = farmerToBid[_owner][_bidPosition];\n        return(\n            bid.farmer,\n            bid.title,\n            bid.imageHash,\n            bid.initialPrice,\n            bid.buyoutPrice,\n            bid.coffeeBatchId,\n            bid.timeLimit,\n            bid.status\n        );\n    }\n}",
  "sourcePath": "/Users/crisgarner/Projects/affogato/affogato-contract/contracts/marketplace/Marketplace.sol",
  "compiler": {
    "name": "solc",
    "version": "0.4.24+commit.e67f0147.Emscripten.clang"
  },
  "schemaVersion": "3.0.0",
  "updatedAt": "2019-01-28T02:09:13.477Z"
}