{
  "contractName": "Marketplace",
  "abi": [
    {
      "constant": true,
      "inputs": [
        {
          "name": "",
          "type": "address"
        },
        {
          "name": "",
          "type": "uint256"
        }
      ],
      "name": "farmerToBid",
      "outputs": [
        {
          "name": "farmer",
          "type": "address"
        },
        {
          "name": "initialPrice",
          "type": "uint256"
        },
        {
          "name": "buyoutPrice",
          "type": "uint256"
        },
        {
          "name": "coffeeBatchId",
          "type": "uint256"
        },
        {
          "name": "timeLimit",
          "type": "uint256"
        },
        {
          "name": "status",
          "type": "bool"
        }
      ],
      "payable": false,
      "stateMutability": "view",
      "type": "function"
    },
    {
      "inputs": [
        {
          "name": "_coffeeFactoryAddress",
          "type": "address"
        }
      ],
      "payable": false,
      "stateMutability": "nonpayable",
      "type": "constructor"
    },
    {
      "anonymous": false,
      "inputs": [
        {
          "indexed": false,
          "name": "_farmer",
          "type": "address"
        },
        {
          "indexed": false,
          "name": "_initialPrice",
          "type": "uint256"
        },
        {
          "indexed": false,
          "name": "_buyoutPrice",
          "type": "uint256"
        },
        {
          "indexed": false,
          "name": "_coffeeBatchId",
          "type": "uint256"
        },
        {
          "indexed": false,
          "name": "_timeLimit",
          "type": "uint256"
        },
        {
          "indexed": false,
          "name": "_status",
          "type": "bool"
        }
      ],
      "name": "LogCreateBid",
      "type": "event"
    },
    {
      "constant": false,
      "inputs": [
        {
          "name": "_initialPrice",
          "type": "uint256"
        },
        {
          "name": "_buyoutPrice",
          "type": "uint256"
        },
        {
          "name": "_coffeeBatchId",
          "type": "uint256"
        },
        {
          "name": "_timeLimit",
          "type": "uint256"
        }
      ],
      "name": "createBid",
      "outputs": [],
      "payable": false,
      "stateMutability": "nonpayable",
      "type": "function"
    },
    {
      "constant": true,
      "inputs": [
        {
          "name": "_owner",
          "type": "address"
        },
        {
          "name": "_bidPosition",
          "type": "uint256"
        }
      ],
      "name": "getBid",
      "outputs": [
        {
          "name": "",
          "type": "address"
        },
        {
          "name": "",
          "type": "uint256"
        },
        {
          "name": "",
          "type": "uint256"
        },
        {
          "name": "",
          "type": "uint256"
        },
        {
          "name": "",
          "type": "uint256"
        },
        {
          "name": "",
          "type": "bool"
        }
      ],
      "payable": false,
      "stateMutability": "view",
      "type": "function"
    }
  ],
  "bytecode": "0x608060405234801561001057600080fd5b506040516020806106be83398101806040528101908080519060200190929190505050806000806101000a81548173ffffffffffffffffffffffffffffffffffffffff021916908373ffffffffffffffffffffffffffffffffffffffff1602179055505061063b806100836000396000f300608060405260043610610057576000357c0100000000000000000000000000000000000000000000000000000000900463ffffffff16806316ab2b031461005c5780634aa28be814610110578063962714c31461015b575b600080fd5b34801561006857600080fd5b506100a7600480360381019080803573ffffffffffffffffffffffffffffffffffffffff1690602001909291908035906020019092919050505061020f565b604051808773ffffffffffffffffffffffffffffffffffffffff1673ffffffffffffffffffffffffffffffffffffffff16815260200186815260200185815260200184815260200183815260200182151515158152602001965050505050505060405180910390f35b34801561011c57600080fd5b5061015960048036038101908080359060200190929190803590602001909291908035906020019092919080359060200190929190505050610356565b005b34801561016757600080fd5b506101a6600480360381019080803573ffffffffffffffffffffffffffffffffffffffff1690602001909291908035906020019092919050505061053b565b604051808773ffffffffffffffffffffffffffffffffffffffff1673ffffffffffffffffffffffffffffffffffffffff16815260200186815260200185815260200184815260200183815260200182151515158152602001965050505050505060405180910390f35b6000806000806000806102206105c0565b600160008a73ffffffffffffffffffffffffffffffffffffffff1673ffffffffffffffffffffffffffffffffffffffff1681526020019081526020016000208881548110151561026c57fe5b906000526020600020906006020160c060405190810160405290816000820160009054906101000a900473ffffffffffffffffffffffffffffffffffffffff1673ffffffffffffffffffffffffffffffffffffffff1673ffffffffffffffffffffffffffffffffffffffff168152602001600182015481526020016002820154815260200160038201548152602001600482015481526020016005820160009054906101000a900460ff1615151515815250509050806000015181602001518260400151836060015184608001518560a00151965096509650965096509650509295509295509295565b61035e6105c0565b60c0604051908101604052803373ffffffffffffffffffffffffffffffffffffffff168152602001868152602001858152602001848152602001838152602001600115158152509050600160003373ffffffffffffffffffffffffffffffffffffffff1673ffffffffffffffffffffffffffffffffffffffff168152602001908152602001600020819080600181540180825580915050906001820390600052602060002090600602016000909192909190915060008201518160000160006101000a81548173ffffffffffffffffffffffffffffffffffffffff021916908373ffffffffffffffffffffffffffffffffffffffff1602179055506020820151816001015560408201518160020155606082015181600301556080820151816004015560a08201518160050160006101000a81548160ff0219169083151502179055505050507f69dd415a414722e8a8c2e269f5fcdfc3f05d06d96708e5944ea78198878517fd33868686866001604051808773ffffffffffffffffffffffffffffffffffffffff1673ffffffffffffffffffffffffffffffffffffffff16815260200186815260200185815260200184815260200183815260200182151515158152602001965050505050505060405180910390a15050505050565b60016020528160005260406000208181548110151561055657fe5b9060005260206000209060060201600091509150508060000160009054906101000a900473ffffffffffffffffffffffffffffffffffffffff16908060010154908060020154908060030154908060040154908060050160009054906101000a900460ff16905086565b60c060405190810160405280600073ffffffffffffffffffffffffffffffffffffffff1681526020016000815260200160008152602001600081526020016000815260200160001515815250905600a165627a7a72305820b2b447335da461ff77d4e9f06c2824d2b2b54acb0f0d91d520a54a5303160dcc0029",
  "source": "pragma solidity ^0.4.23;\n\nimport \"../Coffee.sol\";\n\ncontract Marketplace{\n\n    Coffee coffeeFactory;\n\n    event LogCreateBid(\n        address _farmer,\n        uint256 _initialPrice,\n        uint256 _buyoutPrice,\n        uint _coffeeBatchId,\n        uint _timeLimit, \n        bool _status\n    );\n\n    struct Bid {\n        address farmer;\n        uint256 initialPrice;\n        uint256 buyoutPrice;\n        uint coffeeBatchId;\n        uint timeLimit; \n        bool status;\n    }\n    mapping (address => Bid[]) public farmerToBid;\n\n    constructor(address _coffeeFactoryAddress) public {\n        coffeeFactory = Coffee(_coffeeFactoryAddress);\n    }\n\n\n    //TODO: Only coffee batch owner should create a bid\n    function createBid(uint256 _initialPrice, uint256 _buyoutPrice, uint _coffeeBatchId, uint _timeLimit) public{\n        Bid memory bid = Bid(msg.sender, _initialPrice, _buyoutPrice, _coffeeBatchId, _timeLimit, true);\n        farmerToBid[msg.sender].push(bid);\n        emit LogCreateBid(msg.sender, _initialPrice, _buyoutPrice, _coffeeBatchId, _timeLimit, true);\n    }\n\n    function getBid(address _owner, uint _bidPosition) public view returns(\n        address,\n        uint256,\n        uint256,\n        uint,\n        uint,\n        bool\n    ){\n        Bid memory bid = farmerToBid[_owner][_bidPosition];\n        return(\n            bid.farmer,\n            bid.initialPrice,\n            bid.buyoutPrice,\n            bid.coffeeBatchId,\n            bid.timeLimit,\n            bid.status\n        );\n    }\n}",
  "sourcePath": "/Users/crisgarner/Projects/affogato/affogato-contract/contracts/marketplace/Marketplace.sol",
  "compiler": {
    "name": "solc",
    "version": "0.4.24+commit.e67f0147.Emscripten.clang"
  },
  "schemaVersion": "2.0.1",
  "updatedAt": "2018-11-12T02:44:02.311Z"
}