{
  "contractName": "TastingFactory",
  "abi": [
    {
      "constant": true,
      "inputs": [
        {
          "name": "",
          "type": "address"
        },
        {
          "name": "",
          "type": "uint256"
        }
      ],
      "name": "tasterToCupProfiles",
      "outputs": [
        {
          "name": "",
          "type": "bytes32"
        }
      ],
      "payable": false,
      "stateMutability": "view",
      "type": "function"
    },
    {
      "constant": true,
      "inputs": [
        {
          "name": "",
          "type": "bytes32"
        },
        {
          "name": "",
          "type": "uint256"
        }
      ],
      "name": "coffeeBatchToCupProfiles",
      "outputs": [
        {
          "name": "",
          "type": "bytes32"
        }
      ],
      "payable": false,
      "stateMutability": "view",
      "type": "function"
    },
    {
      "constant": true,
      "inputs": [
        {
          "name": "",
          "type": "bytes32"
        }
      ],
      "name": "cupProfiles",
      "outputs": [
        {
          "name": "uid",
          "type": "bytes32"
        },
        {
          "name": "aroma",
          "type": "bytes32"
        },
        {
          "name": "flavor",
          "type": "bytes32"
        },
        {
          "name": "acidity",
          "type": "bytes32"
        },
        {
          "name": "body",
          "type": "bytes32"
        },
        {
          "name": "aftertaste",
          "type": "bytes32"
        },
        {
          "name": "cuppingNote",
          "type": "uint16"
        }
      ],
      "payable": false,
      "stateMutability": "view",
      "type": "function"
    },
    {
      "anonymous": false,
      "inputs": [
        {
          "indexed": true,
          "name": "_id",
          "type": "bytes32"
        }
      ],
      "name": "LogAddCupProfile",
      "type": "event"
    },
    {
      "anonymous": false,
      "inputs": [
        {
          "indexed": true,
          "name": "_id",
          "type": "bytes32"
        }
      ],
      "name": "LogUpdateCupProfile",
      "type": "event"
    },
    {
      "anonymous": false,
      "inputs": [
        {
          "indexed": true,
          "name": "_owner",
          "type": "address"
        },
        {
          "indexed": true,
          "name": "_taster",
          "type": "address"
        },
        {
          "indexed": false,
          "name": "_value",
          "type": "bool"
        }
      ],
      "name": "LogApproval",
      "type": "event"
    },
    {
      "constant": true,
      "inputs": [
        {
          "name": "_taster",
          "type": "address"
        }
      ],
      "name": "getTasterCupProfileCount",
      "outputs": [
        {
          "name": "",
          "type": "uint256"
        }
      ],
      "payable": false,
      "stateMutability": "view",
      "type": "function"
    },
    {
      "constant": true,
      "inputs": [
        {
          "name": "_coffeeBatch",
          "type": "bytes32"
        }
      ],
      "name": "getCoffeeCupProfileCount",
      "outputs": [
        {
          "name": "",
          "type": "uint256"
        }
      ],
      "payable": false,
      "stateMutability": "view",
      "type": "function"
    },
    {
      "constant": true,
      "inputs": [
        {
          "name": "uid",
          "type": "bytes32"
        }
      ],
      "name": "getCupProfileById",
      "outputs": [
        {
          "name": "",
          "type": "bytes32"
        },
        {
          "name": "",
          "type": "bytes32"
        },
        {
          "name": "",
          "type": "bytes32"
        },
        {
          "name": "",
          "type": "bytes32"
        },
        {
          "name": "",
          "type": "bytes32"
        },
        {
          "name": "",
          "type": "bytes32"
        },
        {
          "name": "",
          "type": "uint16"
        }
      ],
      "payable": false,
      "stateMutability": "view",
      "type": "function"
    },
    {
      "constant": false,
      "inputs": [
        {
          "name": "_owner",
          "type": "address"
        },
        {
          "name": "_coffeeBatchId",
          "type": "bytes32"
        },
        {
          "name": "_aroma",
          "type": "bytes32"
        },
        {
          "name": "_flavor",
          "type": "bytes32"
        },
        {
          "name": "_acidity",
          "type": "bytes32"
        },
        {
          "name": "_body",
          "type": "bytes32"
        },
        {
          "name": "_aftertaste",
          "type": "bytes32"
        },
        {
          "name": "_cuppingNote",
          "type": "uint16"
        }
      ],
      "name": "addCupProfile",
      "outputs": [],
      "payable": false,
      "stateMutability": "nonpayable",
      "type": "function"
    },
    {
      "constant": false,
      "inputs": [
        {
          "name": "_uid",
          "type": "bytes32"
        },
        {
          "name": "_aroma",
          "type": "bytes32"
        },
        {
          "name": "_flavor",
          "type": "bytes32"
        },
        {
          "name": "_acidity",
          "type": "bytes32"
        },
        {
          "name": "_body",
          "type": "bytes32"
        },
        {
          "name": "_aftertaste",
          "type": "bytes32"
        },
        {
          "name": "_cuppingNote",
          "type": "uint16"
        }
      ],
      "name": "updateCupProfileById",
      "outputs": [],
      "payable": false,
      "stateMutability": "nonpayable",
      "type": "function"
    },
    {
      "constant": false,
      "inputs": [
        {
          "name": "_spender",
          "type": "address"
        },
        {
          "name": "_value",
          "type": "bool"
        }
      ],
      "name": "approve",
      "outputs": [
        {
          "name": "",
          "type": "bool"
        }
      ],
      "payable": false,
      "stateMutability": "nonpayable",
      "type": "function"
    }
  ],
  "bytecode": "0x6080604052600060035534801561001557600080fd5b50610d53806100256000396000f300608060405260043610610099576000357c0100000000000000000000000000000000000000000000000000000000900463ffffffff16806327f108941461009e57806331ca4906146101455780633d140d21146101ca5780635ca1bcb2146102315780636de9a8481461029a5780636f48bfbe146102f15780638388c7991461039657806396f915d1146103db578063da4cb16d14610432575b600080fd5b3480156100aa57600080fd5b506100cd60048036038101908080356000191690602001909291905050506104d9565b604051808860001916600019168152602001876000191660001916815260200186600019166000191681526020018560001916600019168152602001846000191660001916815260200183600019166000191681526020018261ffff1661ffff16815260200197505050505050505060405180910390f35b34801561015157600080fd5b506101c8600480360381019080803560001916906020019092919080356000191690602001909291908035600019169060200190929190803560001916906020019092919080356000191690602001909291908035600019169060200190929190803561ffff1690602001909291905050506105de565b005b3480156101d657600080fd5b50610217600480360381019080803573ffffffffffffffffffffffffffffffffffffffff1690602001909291908035151590602001909291905050506106cc565b604051808215151515815260200191505060405180910390f35b34801561023d57600080fd5b5061027c600480360381019080803573ffffffffffffffffffffffffffffffffffffffff169060200190929190803590602001909291905050506107d5565b60405180826000191660001916815260200191505060405180910390f35b3480156102a657600080fd5b506102d3600480360381019080803560001916906020019092919080359060200190929190505050610805565b60405180826000191660001916815260200191505060405180910390f35b3480156102fd57600080fd5b50610394600480360381019080803573ffffffffffffffffffffffffffffffffffffffff169060200190929190803560001916906020019092919080356000191690602001909291908035600019169060200190929190803560001916906020019092919080356000191690602001909291908035600019169060200190929190803561ffff169060200190929190505050610835565b005b3480156103a257600080fd5b506103c56004803603810190808035600019169060200190929190505050610b3f565b6040518082815260200191505060405180910390f35b3480156103e757600080fd5b5061041c600480360381019080803573ffffffffffffffffffffffffffffffffffffffff169060200190929190505050610b67565b6040518082815260200191505060405180910390f35b34801561043e57600080fd5b506104616004803603810190808035600019169060200190929190505050610bb2565b604051808860001916600019168152602001876000191660001916815260200186600019166000191681526020018560001916600019168152602001846000191660001916815260200183600019166000191681526020018261ffff1661ffff16815260200197505050505050505060405180910390f35b60008060008060008060006104ec610cd3565b600260008a6000191660001916815260200190815260200160002060e060405190810160405290816000820154600019166000191681526020016001820154600019166000191681526020016002820154600019166000191681526020016003820154600019166000191681526020016004820154600019166000191681526020016005820154600019166000191681526020016006820160009054906101000a900461ffff1661ffff1661ffff16815250509050806000015181602001518260400151836060015184608001518560a001518660c00151975097509750975097509750975050919395979092949650565b600080600102600260008a6000191660001916815260200190815260200160002060010154600019161415151561061457600080fd5b60026000896000191660001916815260200190815260200160002090508681600101816000191690555085816002018160001916905550848160030181600019169055508381600401816000191690555082816005018160001916905550818160060160006101000a81548161ffff021916908361ffff16021790555087600019167f27bb024a74011f556989fa0869197cbceccd3c6a820af25bf448f2e265c990eb60405160405180910390a25050505050505050565b600081600460003373ffffffffffffffffffffffffffffffffffffffff1673ffffffffffffffffffffffffffffffffffffffff16815260200190815260200160002060008573ffffffffffffffffffffffffffffffffffffffff1673ffffffffffffffffffffffffffffffffffffffff16815260200190815260200160002060006101000a81548160ff0219169083151502179055508273ffffffffffffffffffffffffffffffffffffffff163373ffffffffffffffffffffffffffffffffffffffff167f6cc438beee050a8338ac87dc4353c517532095b48b678a7e50f680da7e6c789184604051808215151515815260200191505060405180910390a36001905092915050565b6000602052816000526040600020818154811015156107f057fe5b90600052602060002001600091509150505481565b60016020528160005260406000208181548110151561082057fe5b90600052602060002001600091509150505481565b600061083f610cd3565b600460008b73ffffffffffffffffffffffffffffffffffffffff1673ffffffffffffffffffffffffffffffffffffffff16815260200190815260200160002060003373ffffffffffffffffffffffffffffffffffffffff1673ffffffffffffffffffffffffffffffffffffffff16815260200190815260200160002060009054906101000a900460ff1615156108d457600080fd5b6108df600354610c02565b6040518082805190602001908083835b60208310151561091457805182526020820191506020810190506020830392506108ef565b6001836020036101000a0380198251168184511680821785525050505050509050019150506040518091039020915060e0604051908101604052808360001916815260200189600019168152602001886000191681526020018760001916815260200186600019168152602001856000191681526020018461ffff1681525090506000803373ffffffffffffffffffffffffffffffffffffffff1673ffffffffffffffffffffffffffffffffffffffff168152602001908152602001600020829080600181540180825580915050906001820390600052602060002001600090919290919091509060001916905550600160008a6000191660001916815260200190815260200160002082908060018154018082558091505090600182039060005260206000200160009091929091909150906000191690555080600260008460001916600019168152602001908152602001600020600082015181600001906000191690556020820151816001019060001916905560408201518160020190600019169055606082015181600301906000191690556080820151816004019060001916905560a0820151816005019060001916905560c08201518160060160006101000a81548161ffff021916908361ffff16021790555090505060036000815480929190600101919050555081600019167f71589b540d45ea709c365eaf5efae36201d73ee1c5981523a849233b90d826bb60405160405180910390a250505050505050505050565b6000600160008360001916600019168152602001908152602001600020805490509050919050565b60008060008373ffffffffffffffffffffffffffffffffffffffff1673ffffffffffffffffffffffffffffffffffffffff168152602001908152602001600020805490509050919050565b60026020528060005260406000206000915090508060000154908060010154908060020154908060030154908060040154908060050154908060060160009054906101000a900461ffff16905087565b6060600060206040519080825280601f01601f191660200182016040528015610c3a5781602001602082028038833980820191505090505b509150600090505b6020811015610ccd5780601f0360080260020a83811515610c5f57fe5b047f0100000000000000000000000000000000000000000000000000000000000000028282815181101515610c9057fe5b9060200101907effffffffffffffffffffffffffffffffffffffffffffffffffffffffffffff1916908160001a9053508080600101915050610c42565b50919050565b60e060405190810160405280600080191681526020016000801916815260200160008019168152602001600080191681526020016000801916815260200160008019168152602001600061ffff16815250905600a165627a7a723058208c8a63ad444c13f6ba8c6fde5aeb6ab5ef49822c5ff458f0fac9eedf263788a40029",
  "source": "pragma solidity ^0.4.23;\n\nimport \"./Utils.sol\";\n\ncontract TastingFactory is Utils{\n\n   event LogAddCupProfile(bytes32 indexed _id);\n   event LogUpdateCupProfile(bytes32 indexed _id);\n   event LogApproval(\n    address indexed _owner,\n    address indexed _taster,\n    bool _value\n   );\n\n   struct CupProfile{\n        bytes32 uid;\n        bytes32 aroma;\n        bytes32 flavor;\n        bytes32 acidity;\n        bytes32 body;\n        bytes32 aftertaste;\n        //Precision two decimals 100.00\n        uint16 cuppingNote;\n    }\n\n    mapping(address => bytes32[]) public tasterToCupProfiles;\n    mapping(bytes32 => bytes32[]) public coffeeBatchToCupProfiles;\n    mapping(bytes32 => CupProfile) public cupProfiles;\n    uint tastingCount = 0;\n\n    mapping (address => mapping (address => bool)) private allowed_;\n\n    function getTasterCupProfileCount(address _taster)public view returns (uint){\n        return tasterToCupProfiles[_taster].length;\n    }\n\n    function getCoffeeCupProfileCount(bytes32 _coffeeBatch)public view returns (uint){\n        return coffeeBatchToCupProfiles[_coffeeBatch].length;\n    }\n\n    function getCupProfileById(bytes32 uid) public view returns(\n        bytes32,\n        bytes32, \n        bytes32, \n        bytes32, \n        bytes32,\n        bytes32, \n        uint16\n        ){\n        CupProfile memory cupProfile = cupProfiles[uid];\n        return(\n            cupProfile.uid,\n            cupProfile.aroma,\n            cupProfile.flavor,\n            cupProfile.acidity,\n            cupProfile.body,\n            cupProfile.aftertaste,\n            cupProfile.cuppingNote\n        );\n    }\n\n    function addCupProfile(\n        address _owner,\n        bytes32 _coffeeBatchId,\n        bytes32 _aroma,\n        bytes32 _flavor,\n        bytes32 _acidity,\n        bytes32 _body,\n        bytes32 _aftertaste,\n        uint16 _cuppingNote\n    ) public {\n        require(allowed_[_owner][msg.sender]);\n        bytes32 uid = keccak256(toBytes(tastingCount));\n        CupProfile memory cupProfile = CupProfile(uid,_aroma,_flavor,_acidity,_body,_aftertaste,_cuppingNote);\n        tasterToCupProfiles[msg.sender].push(uid);\n        coffeeBatchToCupProfiles[_coffeeBatchId].push(uid);\n        cupProfiles[uid] = cupProfile;\n        tastingCount++;\n        emit LogAddCupProfile(uid);\n    }\n    //Coffee Batch can't be updated\n    function updateCupProfileById(\n        bytes32 _uid,\n        bytes32 _aroma,\n        bytes32 _flavor,\n        bytes32 _acidity,\n        bytes32 _body,\n        bytes32 _aftertaste,\n        uint16 _cuppingNote\n    ) public {\n        require(cupProfiles[_uid].aroma != 0);\n        CupProfile storage cupProfile = cupProfiles[_uid];\n        cupProfile.aroma = _aroma;\n        cupProfile.flavor = _flavor;\n        cupProfile.acidity = _acidity;\n        cupProfile.body = _body;\n        cupProfile.aftertaste = _aftertaste;\n        cupProfile.cuppingNote = _cuppingNote;\n        emit LogUpdateCupProfile(_uid);\n    }\n\n    function approve(address _spender, bool _value) public returns (bool) {\n        allowed_[msg.sender][_spender] = _value;\n        emit LogApproval(msg.sender, _spender, _value);\n        return true;\n    }\n}",
  "sourcePath": "/Users/crisgarner/Projects/affogato/contracts/TastingFactory.sol",
  "compiler": {
    "name": "solc",
    "version": "0.4.24+commit.e67f0147.Emscripten.clang"
  },
  "schemaVersion": "2.0.1",
  "updatedAt": "2018-09-01T21:09:39.044Z"
}