{
  "contractName": "TastingFactory",
  "abi": [
    {
      "constant": true,
      "inputs": [
        {
          "name": "",
          "type": "address"
        },
        {
          "name": "",
          "type": "uint256"
        }
      ],
      "name": "tasterToCupProfiles",
      "outputs": [
        {
          "name": "",
          "type": "uint256"
        }
      ],
      "payable": false,
      "stateMutability": "view",
      "type": "function"
    },
    {
      "constant": true,
      "inputs": [
        {
          "name": "",
          "type": "uint256"
        },
        {
          "name": "",
          "type": "uint256"
        }
      ],
      "name": "coffeeBatchToCupProfiles",
      "outputs": [
        {
          "name": "",
          "type": "uint256"
        }
      ],
      "payable": false,
      "stateMutability": "view",
      "type": "function"
    },
    {
      "constant": true,
      "inputs": [
        {
          "name": "",
          "type": "uint256"
        }
      ],
      "name": "cupProfiles",
      "outputs": [
        {
          "name": "uid",
          "type": "uint256"
        },
        {
          "name": "aroma",
          "type": "bytes32"
        },
        {
          "name": "sweetness",
          "type": "bytes32"
        },
        {
          "name": "flavor",
          "type": "bytes32"
        },
        {
          "name": "acidity",
          "type": "bytes32"
        },
        {
          "name": "body",
          "type": "bytes32"
        },
        {
          "name": "aftertaste",
          "type": "bytes32"
        },
        {
          "name": "imageHash",
          "type": "string"
        },
        {
          "name": "cuppingNote",
          "type": "uint16"
        }
      ],
      "payable": false,
      "stateMutability": "view",
      "type": "function"
    },
    {
      "inputs": [
        {
          "name": "_actorAddress",
          "type": "address"
        }
      ],
      "payable": false,
      "stateMutability": "nonpayable",
      "type": "constructor"
    },
    {
      "anonymous": false,
      "inputs": [
        {
          "indexed": true,
          "name": "_id",
          "type": "uint256"
        },
        {
          "indexed": false,
          "name": "_coffeeBatchId",
          "type": "uint256"
        },
        {
          "indexed": false,
          "name": "_tasterAddress",
          "type": "address"
        },
        {
          "indexed": false,
          "name": "_aroma",
          "type": "bytes32"
        },
        {
          "indexed": false,
          "name": "_sweetness",
          "type": "bytes32"
        },
        {
          "indexed": false,
          "name": "_flavor",
          "type": "bytes32"
        },
        {
          "indexed": false,
          "name": "_acidity",
          "type": "bytes32"
        },
        {
          "indexed": false,
          "name": "_body",
          "type": "bytes32"
        },
        {
          "indexed": false,
          "name": "_aftertaste",
          "type": "bytes32"
        },
        {
          "indexed": false,
          "name": "_imageHash",
          "type": "string"
        },
        {
          "indexed": false,
          "name": "_cuppingNote",
          "type": "uint16"
        }
      ],
      "name": "LogAddCupProfile",
      "type": "event"
    },
    {
      "anonymous": false,
      "inputs": [
        {
          "indexed": true,
          "name": "_id",
          "type": "uint256"
        },
        {
          "indexed": false,
          "name": "_aroma",
          "type": "bytes32"
        },
        {
          "indexed": false,
          "name": "_sweetness",
          "type": "bytes32"
        },
        {
          "indexed": false,
          "name": "_flavor",
          "type": "bytes32"
        },
        {
          "indexed": false,
          "name": "_acidity",
          "type": "bytes32"
        },
        {
          "indexed": false,
          "name": "_body",
          "type": "bytes32"
        },
        {
          "indexed": false,
          "name": "_aftertaste",
          "type": "bytes32"
        },
        {
          "indexed": false,
          "name": "_imageHash",
          "type": "string"
        },
        {
          "indexed": false,
          "name": "_cuppingNote",
          "type": "uint16"
        }
      ],
      "name": "LogUpdateCupProfile",
      "type": "event"
    },
    {
      "constant": true,
      "inputs": [
        {
          "name": "_taster",
          "type": "address"
        }
      ],
      "name": "getTasterCupProfileCount",
      "outputs": [
        {
          "name": "",
          "type": "uint256"
        }
      ],
      "payable": false,
      "stateMutability": "view",
      "type": "function"
    },
    {
      "constant": true,
      "inputs": [
        {
          "name": "_coffeeBatch",
          "type": "uint256"
        }
      ],
      "name": "getCoffeeCupProfileCount",
      "outputs": [
        {
          "name": "",
          "type": "uint256"
        }
      ],
      "payable": false,
      "stateMutability": "view",
      "type": "function"
    },
    {
      "constant": true,
      "inputs": [
        {
          "name": "uid",
          "type": "uint256"
        }
      ],
      "name": "getCupProfileById",
      "outputs": [
        {
          "name": "",
          "type": "uint256"
        },
        {
          "name": "",
          "type": "bytes32"
        },
        {
          "name": "",
          "type": "bytes32"
        },
        {
          "name": "",
          "type": "bytes32"
        },
        {
          "name": "",
          "type": "bytes32"
        },
        {
          "name": "",
          "type": "bytes32"
        },
        {
          "name": "",
          "type": "bytes32"
        },
        {
          "name": "",
          "type": "string"
        },
        {
          "name": "",
          "type": "uint16"
        }
      ],
      "payable": false,
      "stateMutability": "view",
      "type": "function"
    },
    {
      "constant": false,
      "inputs": [
        {
          "name": "_owner",
          "type": "address"
        },
        {
          "name": "_coffeeBatchId",
          "type": "uint256"
        },
        {
          "name": "_aroma",
          "type": "bytes32"
        },
        {
          "name": "_sweetness",
          "type": "bytes32"
        },
        {
          "name": "_flavor",
          "type": "bytes32"
        },
        {
          "name": "_acidity",
          "type": "bytes32"
        },
        {
          "name": "_body",
          "type": "bytes32"
        },
        {
          "name": "_aftertaste",
          "type": "bytes32"
        },
        {
          "name": "_imageHash",
          "type": "string"
        },
        {
          "name": "_cuppingNote",
          "type": "uint16"
        }
      ],
      "name": "addCupProfile",
      "outputs": [],
      "payable": false,
      "stateMutability": "nonpayable",
      "type": "function"
    },
    {
      "constant": false,
      "inputs": [
        {
          "name": "_uid",
          "type": "uint256"
        },
        {
          "name": "_aroma",
          "type": "bytes32"
        },
        {
          "name": "_sweetness",
          "type": "bytes32"
        },
        {
          "name": "_flavor",
          "type": "bytes32"
        },
        {
          "name": "_acidity",
          "type": "bytes32"
        },
        {
          "name": "_body",
          "type": "bytes32"
        },
        {
          "name": "_aftertaste",
          "type": "bytes32"
        },
        {
          "name": "_imageHash",
          "type": "string"
        },
        {
          "name": "_cuppingNote",
          "type": "uint16"
        }
      ],
      "name": "updateCupProfileById",
      "outputs": [],
      "payable": false,
      "stateMutability": "nonpayable",
      "type": "function"
    }
  ],
  "bytecode": "0x6080604052600160045534801561001557600080fd5b506040516020806111e283398101806040528101908080519060200190929190505050806000806101000a81548173ffffffffffffffffffffffffffffffffffffffff021916908373ffffffffffffffffffffffffffffffffffffffff1602179055505061115a806100886000396000f30060806040526004361061008e576000357c0100000000000000000000000000000000000000000000000000000000900463ffffffff1680630ebed1a11461009357806314529121146100d45780635ca1bcb2146101c95780637eeb2d931461022a57806396f915d114610340578063b6f2ff5c14610397578063ce47c40d146103e2578063d6558e30146104f8575b600080fd5b34801561009f57600080fd5b506100be600480360381019080803590602001909291905050506105cd565b6040518082815260200191505060405180910390f35b3480156100e057600080fd5b506101c7600480360381019080803573ffffffffffffffffffffffffffffffffffffffff16906020019092919080359060200190929190803560001916906020019092919080356000191690602001909291908035600019169060200190929190803560001916906020019092919080356000191690602001909291908035600019169060200190929190803590602001908201803590602001908080601f0160208091040260200160405190810160405280939291908181526020018383808284378201915050505050509192919290803561ffff1690602001909291905050506105ed565b005b3480156101d557600080fd5b50610214600480360381019080803573ffffffffffffffffffffffffffffffffffffffff16906020019092919080359060200190929190505050610a62565b6040518082815260200191505060405180910390f35b34801561023657600080fd5b5061025560048036038101908080359060200190929190505050610a92565b604051808a8152602001896000191660001916815260200188600019166000191681526020018760001916600019168152602001866000191660001916815260200185600019166000191681526020018460001916600019168152602001806020018361ffff1661ffff168152602001828103825284818151815260200191508051906020019080838360005b838110156102fd5780820151818401526020810190506102e2565b50505050905090810190601f16801561032a5780820380516001836020036101000a031916815260200191505b509a505050505050505050505060405180910390f35b34801561034c57600080fd5b50610381600480360381019080803573ffffffffffffffffffffffffffffffffffffffff169060200190929190505050610c54565b6040518082815260200191505060405180910390f35b3480156103a357600080fd5b506103cc6004803603810190808035906020019092919080359060200190929190505050610ca0565b6040518082815260200191505060405180910390f35b3480156103ee57600080fd5b5061040d60048036038101908080359060200190929190505050610cd0565b604051808a8152602001896000191660001916815260200188600019166000191681526020018760001916600019168152602001866000191660001916815260200185600019166000191681526020018460001916600019168152602001806020018361ffff1661ffff168152602001828103825284818151815260200191508051906020019080838360005b838110156104b557808201518184015260208101905061049a565b50505050905090810190601f1680156104e25780820380516001836020036101000a031916815260200191505b509a505050505050505050505060405180910390f35b34801561050457600080fd5b506105cb60048036038101908080359060200190929190803560001916906020019092919080356000191690602001909291908035600019169060200190929190803560001916906020019092919080356000191690602001909291908035600019169060200190929190803590602001908201803590602001908080601f0160208091040260200160405190810160405280939291908181526020018383808284378201915050505050509192919290803561ffff169060200190929190505050610dc4565b005b600060026000838152602001908152602001600020805490509050919050565b60006105f7610fa6565b6000809054906101000a900473ffffffffffffffffffffffffffffffffffffffff1673ffffffffffffffffffffffffffffffffffffffff1663a16543798d336040518363ffffffff167c0100000000000000000000000000000000000000000000000000000000028152600401808373ffffffffffffffffffffffffffffffffffffffff1673ffffffffffffffffffffffffffffffffffffffff1681526020018273ffffffffffffffffffffffffffffffffffffffff1673ffffffffffffffffffffffffffffffffffffffff16815260200192505050602060405180830381600087803b1580156106e757600080fd5b505af11580156106fb573d6000803e3d6000fd5b505050506040513d602081101561071157600080fd5b8101908080519060200190929190505050151561072d57600080fd5b6004549150610120604051908101604052808381526020018b6000191681526020018a600019168152602001896000191681526020018860001916815260200187600019168152602001866000191681526020018581526020018461ffff168152509050600160003373ffffffffffffffffffffffffffffffffffffffff1673ffffffffffffffffffffffffffffffffffffffff168152602001908152602001600020829080600181540180825580915050906001820390600052602060002001600090919290919091505550600260008c81526020019081526020016000208290806001815401808255809150509060018203906000526020600020016000909192909190915055508060036000848152602001908152602001600020600082015181600001556020820151816001019060001916905560408201518160020190600019169055606082015181600301906000191690556080820151816004019060001916905560a0820151816005019060001916905560c0820151816006019060001916905560e08201518160070190805190602001906108d1929190611009565b506101008201518160080160006101000a81548161ffff021916908361ffff160217905550905050600460008154809291906001019190505550817f028fab2af9f6df3e6215ef542e8bd298b7ac1c79aa0a798a4355a91fad738fdf8c338d8d8d8d8d8d8d8d604051808b81526020018a73ffffffffffffffffffffffffffffffffffffffff1673ffffffffffffffffffffffffffffffffffffffff168152602001896000191660001916815260200188600019166000191681526020018760001916600019168152602001866000191660001916815260200185600019166000191681526020018460001916600019168152602001806020018361ffff1661ffff168152602001828103825284818151815260200191508051906020019080838360005b83811015610a115780820151818401526020810190506109f6565b50505050905090810190601f168015610a3e5780820380516001836020036101000a031916815260200191505b509b50505050505050505050505060405180910390a2505050505050505050505050565b600160205281600052604060002081815481101515610a7d57fe5b90600052602060002001600091509150505481565b600080600080600080600060606000610aa9610fa6565b600360008c8152602001908152602001600020610120604051908101604052908160008201548152602001600182015460001916600019168152602001600282015460001916600019168152602001600382015460001916600019168152602001600482015460001916600019168152602001600582015460001916600019168152602001600682015460001916600019168152602001600782018054600181600116156101000203166002900480601f016020809104026020016040519081016040528092919081815260200182805460018160011615610100020316600290048015610bd85780601f10610bad57610100808354040283529160200191610bd8565b820191906000526020600020905b815481529060010190602001808311610bbb57829003601f168201915b505050505081526020016008820160009054906101000a900461ffff1661ffff1661ffff16815250509050806000015181602001518260400151836060015184608001518560a001518660c001518760e00151886101000151819150995099509950995099509950995099509950509193959799909294969850565b6000600160008373ffffffffffffffffffffffffffffffffffffffff1673ffffffffffffffffffffffffffffffffffffffff168152602001908152602001600020805490509050919050565b600260205281600052604060002081815481101515610cbb57fe5b90600052602060002001600091509150505481565b6003602052806000526040600020600091509050806000015490806001015490806002015490806003015490806004015490806005015490806006015490806007018054600181600116156101000203166002900480601f016020809104026020016040519081016040528092919081815260200182805460018160011615610100020316600290048015610da65780601f10610d7b57610100808354040283529160200191610da6565b820191906000526020600020905b815481529060010190602001808311610d8957829003601f168201915b5050505050908060080160009054906101000a900461ffff16905089565b600080600102600360008c8152602001908152602001600020600101546000191614151515610df257600080fd5b600360008b8152602001908152602001600020905088816001018160001916905550878160020181600019169055508681600301816000191690555085816004018160001916905550848160050181600019169055508381600601816000191690555082816007019080519060200190610e6d929190611089565b50818160080160006101000a81548161ffff021916908361ffff160217905550897f5d07727eac4519d7b42068cdde43f994c10f6a086258a4c36ab03303039a80088a8a8a8a8a8a8a8a60405180896000191660001916815260200188600019166000191681526020018760001916600019168152602001866000191660001916815260200185600019166000191681526020018460001916600019168152602001806020018361ffff1661ffff168152602001828103825284818151815260200191508051906020019080838360005b83811015610f59578082015181840152602081019050610f3e565b50505050905090810190601f168015610f865780820380516001836020036101000a031916815260200191505b50995050505050505050505060405180910390a250505050505050505050565b610120604051908101604052806000815260200160008019168152602001600080191681526020016000801916815260200160008019168152602001600080191681526020016000801916815260200160608152602001600061ffff1681525090565b828054600181600116156101000203166002900490600052602060002090601f016020900481019282601f1061104a57805160ff1916838001178555611078565b82800160010185558215611078579182015b8281111561107757825182559160200191906001019061105c565b5b5090506110859190611109565b5090565b828054600181600116156101000203166002900490600052602060002090601f016020900481019282601f106110ca57805160ff19168380011785556110f8565b828001600101855582156110f8579182015b828111156110f75782518255916020019190600101906110dc565b5b5090506111059190611109565b5090565b61112b91905b8082111561112757600081600090555060010161110f565b5090565b905600a165627a7a7230582010466b021ff21b57aff1ca583888b6f162520faae956d5273482d66426a724480029",
  "source": "pragma solidity ^0.4.23;\n\nimport \"./Utils.sol\";\nimport \"./ActorFactory.sol\";\n\n//TODO: Destroy Tasting\n//TODO: Should add ownerAddress\ncontract TastingFactory is Utils{\n\n   event LogAddCupProfile(\n        uint indexed _id,\n        uint _coffeeBatchId,\n        address _tasterAddress,\n        bytes32 _aroma,\n        bytes32 _sweetness,\n        bytes32 _flavor,\n        bytes32 _acidity,\n        bytes32 _body,\n        bytes32 _aftertaste,\n        string _imageHash,\n        uint16 _cuppingNote\n    );\n   event LogUpdateCupProfile(\n        uint indexed _id,\n        bytes32 _aroma,\n        bytes32 _sweetness,\n        bytes32 _flavor,\n        bytes32 _acidity,\n        bytes32 _body,\n        bytes32 _aftertaste,\n        string _imageHash,\n        uint16 _cuppingNote\n    );\n\n   ActorFactory actor;\n\n   struct CupProfile{\n        uint uid;\n        bytes32 aroma;\n        bytes32 sweetness;\n        bytes32 flavor;\n        bytes32 acidity;\n        bytes32 body;\n        bytes32 aftertaste;\n        string imageHash;\n        //Precision two decimals 100.00\n        uint16 cuppingNote;\n    }\n\n    mapping(address => uint[]) public tasterToCupProfiles;\n    mapping(uint => uint[]) public coffeeBatchToCupProfiles;\n    mapping(uint => CupProfile) public cupProfiles;\n    uint tastingCount = 1;\n\n    constructor(address _actorAddress) public {\n        actor = ActorFactory(_actorAddress);\n    }\n\n    function getTasterCupProfileCount(address _taster)public view returns (uint){\n        return tasterToCupProfiles[_taster].length;\n    }\n\n    function getCoffeeCupProfileCount(uint _coffeeBatch)public view returns (uint){\n        return coffeeBatchToCupProfiles[_coffeeBatch].length;\n    }\n\n    function getCupProfileById(uint uid) public view returns(\n        uint,\n        bytes32, \n        bytes32, \n        bytes32, \n        bytes32, \n        bytes32,\n        bytes32, \n        string,\n        uint16\n        ){\n        CupProfile memory cupProfile = cupProfiles[uid];\n        return(\n            cupProfile.uid,\n            cupProfile.aroma,\n            cupProfile.sweetness,\n            cupProfile.flavor,\n            cupProfile.acidity,\n            cupProfile.body,\n            cupProfile.aftertaste,\n            cupProfile.imageHash,\n            cupProfile.cuppingNote\n        );\n    }\n\n    function addCupProfile(\n        address _owner,\n        uint _coffeeBatchId,\n        bytes32 _aroma,\n        bytes32 _sweetness,\n        bytes32 _flavor,\n        bytes32 _acidity,\n        bytes32 _body,\n        bytes32 _aftertaste,\n        string _imageHash,\n        uint16 _cuppingNote\n    ) public {\n        require(actor.isAllowed(_owner,msg.sender));\n        uint uid = tastingCount;\n        CupProfile memory cupProfile = CupProfile(uid,_aroma,_sweetness,_flavor,_acidity,_body,_aftertaste,_imageHash,_cuppingNote);\n        tasterToCupProfiles[msg.sender].push(uid);\n        coffeeBatchToCupProfiles[_coffeeBatchId].push(uid);\n        cupProfiles[uid] = cupProfile;\n        tastingCount++;\n        emit LogAddCupProfile(uid,_coffeeBatchId,msg.sender,_aroma,_sweetness,_flavor,_acidity,_body,_aftertaste,_imageHash,_cuppingNote);\n    }\n    //TODO: Tastings can't be updated\n    function updateCupProfileById(\n        uint _uid,\n        bytes32 _aroma,\n        bytes32 _sweetness,\n        bytes32 _flavor,\n        bytes32 _acidity,\n        bytes32 _body,\n        bytes32 _aftertaste,\n        string _imageHash,\n        uint16 _cuppingNote\n    ) public {\n        require(cupProfiles[_uid].aroma != 0);\n        CupProfile storage cupProfile = cupProfiles[_uid];\n        cupProfile.aroma = _aroma;\n        cupProfile.sweetness = _sweetness;\n        cupProfile.flavor = _flavor;\n        cupProfile.acidity = _acidity;\n        cupProfile.body = _body;\n        cupProfile.aftertaste = _aftertaste;\n        cupProfile.imageHash = _imageHash;\n        cupProfile.cuppingNote = _cuppingNote;\n        emit LogUpdateCupProfile(_uid,_aroma,_sweetness,_flavor,_acidity,_body,_aftertaste,_imageHash,_cuppingNote);\n    }\n}",
  "sourcePath": "/Users/crisgarner/Projects/affogato/affogato-contract/contracts/TastingFactory.sol",
  "compiler": {
    "name": "solc",
    "version": "0.4.24+commit.e67f0147.Emscripten.clang"
  },
  "schemaVersion": "2.0.1",
  "updatedAt": "2018-11-12T02:44:02.301Z"
}