{
  "contractName": "TastingFactory",
  "abi": [
    {
      "constant": false,
      "inputs": [],
      "name": "unpause",
      "outputs": [],
      "payable": false,
      "stateMutability": "nonpayable",
      "type": "function",
      "signature": "0x3f4ba83a"
    },
    {
      "constant": true,
      "inputs": [],
      "name": "paused",
      "outputs": [
        {
          "name": "",
          "type": "bool"
        }
      ],
      "payable": false,
      "stateMutability": "view",
      "type": "function",
      "signature": "0x5c975abb"
    },
    {
      "constant": true,
      "inputs": [
        {
          "name": "",
          "type": "address"
        },
        {
          "name": "",
          "type": "uint256"
        }
      ],
      "name": "tasterToCupProfiles",
      "outputs": [
        {
          "name": "",
          "type": "uint256"
        }
      ],
      "payable": false,
      "stateMutability": "view",
      "type": "function",
      "signature": "0x5ca1bcb2"
    },
    {
      "constant": false,
      "inputs": [],
      "name": "renounceOwnership",
      "outputs": [],
      "payable": false,
      "stateMutability": "nonpayable",
      "type": "function",
      "signature": "0x715018a6"
    },
    {
      "constant": false,
      "inputs": [],
      "name": "pause",
      "outputs": [],
      "payable": false,
      "stateMutability": "nonpayable",
      "type": "function",
      "signature": "0x8456cb59"
    },
    {
      "constant": true,
      "inputs": [],
      "name": "owner",
      "outputs": [
        {
          "name": "",
          "type": "address"
        }
      ],
      "payable": false,
      "stateMutability": "view",
      "type": "function",
      "signature": "0x8da5cb5b"
    },
    {
      "constant": true,
      "inputs": [],
      "name": "isOwner",
      "outputs": [
        {
          "name": "",
          "type": "bool"
        }
      ],
      "payable": false,
      "stateMutability": "view",
      "type": "function",
      "signature": "0x8f32d59b"
    },
    {
      "constant": true,
      "inputs": [
        {
          "name": "",
          "type": "uint256"
        },
        {
          "name": "",
          "type": "uint256"
        }
      ],
      "name": "coffeeBatchToCupProfiles",
      "outputs": [
        {
          "name": "",
          "type": "uint256"
        }
      ],
      "payable": false,
      "stateMutability": "view",
      "type": "function",
      "signature": "0xb6f2ff5c"
    },
    {
      "constant": true,
      "inputs": [
        {
          "name": "",
          "type": "uint256"
        }
      ],
      "name": "cupProfiles",
      "outputs": [
        {
          "name": "uid",
          "type": "uint256"
        },
        {
          "name": "aroma",
          "type": "bytes32"
        },
        {
          "name": "sweetness",
          "type": "bytes32"
        },
        {
          "name": "flavor",
          "type": "bytes32"
        },
        {
          "name": "acidity",
          "type": "bytes32"
        },
        {
          "name": "body",
          "type": "bytes32"
        },
        {
          "name": "aftertaste",
          "type": "bytes32"
        },
        {
          "name": "imageHash",
          "type": "string"
        },
        {
          "name": "cuppingNote",
          "type": "uint16"
        }
      ],
      "payable": false,
      "stateMutability": "view",
      "type": "function",
      "signature": "0xce47c40d"
    },
    {
      "constant": false,
      "inputs": [
        {
          "name": "newOwner",
          "type": "address"
        }
      ],
      "name": "transferOwnership",
      "outputs": [],
      "payable": false,
      "stateMutability": "nonpayable",
      "type": "function",
      "signature": "0xf2fde38b"
    },
    {
      "inputs": [
        {
          "name": "_actorAddress",
          "type": "address"
        }
      ],
      "payable": false,
      "stateMutability": "nonpayable",
      "type": "constructor",
      "signature": "constructor"
    },
    {
      "anonymous": false,
      "inputs": [
        {
          "indexed": true,
          "name": "_id",
          "type": "uint256"
        },
        {
          "indexed": false,
          "name": "_coffeeBatchId",
          "type": "uint256"
        },
        {
          "indexed": false,
          "name": "_tasterAddress",
          "type": "address"
        },
        {
          "indexed": false,
          "name": "_aroma",
          "type": "bytes32"
        },
        {
          "indexed": false,
          "name": "_sweetness",
          "type": "bytes32"
        },
        {
          "indexed": false,
          "name": "_flavor",
          "type": "bytes32"
        },
        {
          "indexed": false,
          "name": "_acidity",
          "type": "bytes32"
        },
        {
          "indexed": false,
          "name": "_body",
          "type": "bytes32"
        },
        {
          "indexed": false,
          "name": "_aftertaste",
          "type": "bytes32"
        },
        {
          "indexed": false,
          "name": "_imageHash",
          "type": "string"
        },
        {
          "indexed": false,
          "name": "_cuppingNote",
          "type": "uint16"
        }
      ],
      "name": "LogAddCupProfile",
      "type": "event",
      "signature": "0x028fab2af9f6df3e6215ef542e8bd298b7ac1c79aa0a798a4355a91fad738fdf"
    },
    {
      "anonymous": false,
      "inputs": [
        {
          "indexed": true,
          "name": "_id",
          "type": "uint256"
        },
        {
          "indexed": false,
          "name": "_aroma",
          "type": "bytes32"
        },
        {
          "indexed": false,
          "name": "_sweetness",
          "type": "bytes32"
        },
        {
          "indexed": false,
          "name": "_flavor",
          "type": "bytes32"
        },
        {
          "indexed": false,
          "name": "_acidity",
          "type": "bytes32"
        },
        {
          "indexed": false,
          "name": "_body",
          "type": "bytes32"
        },
        {
          "indexed": false,
          "name": "_aftertaste",
          "type": "bytes32"
        },
        {
          "indexed": false,
          "name": "_imageHash",
          "type": "string"
        },
        {
          "indexed": false,
          "name": "_cuppingNote",
          "type": "uint16"
        }
      ],
      "name": "LogUpdateCupProfile",
      "type": "event",
      "signature": "0x5d07727eac4519d7b42068cdde43f994c10f6a086258a4c36ab03303039a8008"
    },
    {
      "anonymous": false,
      "inputs": [
        {
          "indexed": false,
          "name": "account",
          "type": "address"
        }
      ],
      "name": "Paused",
      "type": "event",
      "signature": "0x62e78cea01bee320cd4e420270b5ea74000d11b0c9f74754ebdbfc544b05a258"
    },
    {
      "anonymous": false,
      "inputs": [
        {
          "indexed": false,
          "name": "account",
          "type": "address"
        }
      ],
      "name": "Unpaused",
      "type": "event",
      "signature": "0x5db9ee0a495bf2e6ff9c91a7834c1ba4fdd244a5e8aa4e537bd38aeae4b073aa"
    },
    {
      "anonymous": false,
      "inputs": [
        {
          "indexed": true,
          "name": "previousOwner",
          "type": "address"
        },
        {
          "indexed": true,
          "name": "newOwner",
          "type": "address"
        }
      ],
      "name": "OwnershipTransferred",
      "type": "event",
      "signature": "0x8be0079c531659141344cd1fd0a4f28419497f9722a3daafe3b4186f6b6457e0"
    },
    {
      "constant": true,
      "inputs": [
        {
          "name": "_taster",
          "type": "address"
        }
      ],
      "name": "getTasterCupProfileCount",
      "outputs": [
        {
          "name": "",
          "type": "uint256"
        }
      ],
      "payable": false,
      "stateMutability": "view",
      "type": "function",
      "signature": "0x96f915d1"
    },
    {
      "constant": true,
      "inputs": [
        {
          "name": "_coffeeBatch",
          "type": "uint256"
        }
      ],
      "name": "getCoffeeCupProfileCount",
      "outputs": [
        {
          "name": "",
          "type": "uint256"
        }
      ],
      "payable": false,
      "stateMutability": "view",
      "type": "function",
      "signature": "0x0ebed1a1"
    },
    {
      "constant": true,
      "inputs": [
        {
          "name": "uid",
          "type": "uint256"
        }
      ],
      "name": "getCupProfileById",
      "outputs": [
        {
          "name": "",
          "type": "uint256"
        },
        {
          "name": "",
          "type": "bytes32"
        },
        {
          "name": "",
          "type": "bytes32"
        },
        {
          "name": "",
          "type": "bytes32"
        },
        {
          "name": "",
          "type": "bytes32"
        },
        {
          "name": "",
          "type": "bytes32"
        },
        {
          "name": "",
          "type": "bytes32"
        },
        {
          "name": "",
          "type": "string"
        },
        {
          "name": "",
          "type": "uint16"
        }
      ],
      "payable": false,
      "stateMutability": "view",
      "type": "function",
      "signature": "0x7eeb2d93"
    },
    {
      "constant": false,
      "inputs": [
        {
          "name": "_owner",
          "type": "address"
        },
        {
          "name": "_coffeeBatchId",
          "type": "uint256"
        },
        {
          "name": "_aroma",
          "type": "bytes32"
        },
        {
          "name": "_sweetness",
          "type": "bytes32"
        },
        {
          "name": "_flavor",
          "type": "bytes32"
        },
        {
          "name": "_acidity",
          "type": "bytes32"
        },
        {
          "name": "_body",
          "type": "bytes32"
        },
        {
          "name": "_aftertaste",
          "type": "bytes32"
        },
        {
          "name": "_imageHash",
          "type": "string"
        },
        {
          "name": "_cuppingNote",
          "type": "uint16"
        }
      ],
      "name": "addCupProfile",
      "outputs": [],
      "payable": false,
      "stateMutability": "nonpayable",
      "type": "function",
      "signature": "0x14529121"
    },
    {
      "constant": false,
      "inputs": [
        {
          "name": "_uid",
          "type": "uint256"
        },
        {
          "name": "_aroma",
          "type": "bytes32"
        },
        {
          "name": "_sweetness",
          "type": "bytes32"
        },
        {
          "name": "_flavor",
          "type": "bytes32"
        },
        {
          "name": "_acidity",
          "type": "bytes32"
        },
        {
          "name": "_body",
          "type": "bytes32"
        },
        {
          "name": "_aftertaste",
          "type": "bytes32"
        },
        {
          "name": "_imageHash",
          "type": "string"
        },
        {
          "name": "_cuppingNote",
          "type": "uint16"
        }
      ],
      "name": "updateCupProfileById",
      "outputs": [],
      "payable": false,
      "stateMutability": "nonpayable",
      "type": "function",
      "signature": "0xd6558e30"
    },
    {
      "constant": false,
      "inputs": [],
      "name": "destroy",
      "outputs": [],
      "payable": false,
      "stateMutability": "nonpayable",
      "type": "function",
      "signature": "0x83197ef0"
    }
  ],
  "bytecode": "0x6080604052600160055534801561001557600080fd5b50604051602080611bad8339810180604052602081101561003557600080fd5b8101908080519060200190929190505050336000806101000a81548173ffffffffffffffffffffffffffffffffffffffff021916908373ffffffffffffffffffffffffffffffffffffffff1602179055506000809054906101000a900473ffffffffffffffffffffffffffffffffffffffff1673ffffffffffffffffffffffffffffffffffffffff16600073ffffffffffffffffffffffffffffffffffffffff167f8be0079c531659141344cd1fd0a4f28419497f9722a3daafe3b4186f6b6457e060405160405180910390a360008060146101000a81548160ff02191690831515021790555080600160006101000a81548173ffffffffffffffffffffffffffffffffffffffff021916908373ffffffffffffffffffffffffffffffffffffffff16021790555050611a408061016d6000396000f3fe6080604052600436106100e6576000357c0100000000000000000000000000000000000000000000000000000000900463ffffffff1680630ebed1a1146100eb578063145291211461013a5780633f4ba83a146102775780635c975abb1461028e5780635ca1bcb2146102bd578063715018a61461032c5780637eeb2d931461034357806383197ef0146104375780638456cb591461044e5780638da5cb5b146104655780638f32d59b146104bc57806396f915d1146104eb578063b6f2ff5c14610550578063ce47c40d146105a9578063d6558e301461069d578063f2fde38b146107ba575b600080fd5b3480156100f757600080fd5b506101246004803603602081101561010e57600080fd5b810190808035906020019092919050505061080b565b6040518082815260200191505060405180910390f35b34801561014657600080fd5b50610275600480360361014081101561015e57600080fd5b81019080803573ffffffffffffffffffffffffffffffffffffffff16906020019092919080359060200190929190803590602001909291908035906020019092919080359060200190929190803590602001909291908035906020019092919080359060200190929190803590602001906401000000008111156101e157600080fd5b8201836020820111156101f357600080fd5b8035906020019184600183028401116401000000008311171561021557600080fd5b91908080601f016020809104026020016040519081016040528093929190818152602001838380828437600081840152601f19601f820116905080830192505050505050509192919290803561ffff16906020019092919050505061082b565b005b34801561028357600080fd5b5061028c610cb8565b005b34801561029a57600080fd5b506102a3610dce565b604051808215151515815260200191505060405180910390f35b3480156102c957600080fd5b50610316600480360360408110156102e057600080fd5b81019080803573ffffffffffffffffffffffffffffffffffffffff16906020019092919080359060200190929190505050610de4565b6040518082815260200191505060405180910390f35b34801561033857600080fd5b50610341610e14565b005b34801561034f57600080fd5b5061037c6004803603602081101561036657600080fd5b8101908080359060200190929190505050610f4f565b604051808a8152602001898152602001888152602001878152602001868152602001858152602001848152602001806020018361ffff1661ffff168152602001828103825284818151815260200191508051906020019080838360005b838110156103f45780820151818401526020810190506103d9565b50505050905090810190601f1680156104215780820380516001836020036101000a031916815260200191505b509a505050505050505050505060405180910390f35b34801561044357600080fd5b5061044c6110e1565b005b34801561045a57600080fd5b5061046361117d565b005b34801561047157600080fd5b5061047a6112fe565b604051808273ffffffffffffffffffffffffffffffffffffffff1673ffffffffffffffffffffffffffffffffffffffff16815260200191505060405180910390f35b3480156104c857600080fd5b506104d1611327565b604051808215151515815260200191505060405180910390f35b3480156104f757600080fd5b5061053a6004803603602081101561050e57600080fd5b81019080803573ffffffffffffffffffffffffffffffffffffffff16906020019092919050505061137e565b6040518082815260200191505060405180910390f35b34801561055c57600080fd5b506105936004803603604081101561057357600080fd5b8101908080359060200190929190803590602001909291905050506113ca565b6040518082815260200191505060405180910390f35b3480156105b557600080fd5b506105e2600480360360208110156105cc57600080fd5b81019080803590602001909291905050506113fa565b604051808a8152602001898152602001888152602001878152602001868152602001858152602001848152602001806020018361ffff1661ffff168152602001828103825284818151815260200191508051906020019080838360005b8381101561065a57808201518184015260208101905061063f565b50505050905090810190601f1680156106875780820380516001836020036101000a031916815260200191505b509a505050505050505050505060405180910390f35b3480156106a957600080fd5b506107b860048036036101208110156106c157600080fd5b81019080803590602001909291908035906020019092919080359060200190929190803590602001909291908035906020019092919080359060200190929190803590602001909291908035906020019064010000000081111561072457600080fd5b82018360208201111561073657600080fd5b8035906020019184600183028401116401000000008311171561075857600080fd5b91908080601f016020809104026020016040519081016040528093929190818152602001838380828437600081840152601f19601f820116905080830192505050505050509192919290803561ffff1690602001909291905050506114ee565b005b3480156107c657600080fd5b50610809600480360360208110156107dd57600080fd5b81019080803573ffffffffffffffffffffffffffffffffffffffff16906020019092919050505061170a565b005b600060036000838152602001908152602001600020805490509050919050565b600060149054906101000a900460ff161515156108b0576040517f08c379a00000000000000000000000000000000000000000000000000000000081526004018080602001828103825260128152602001807f436f6e747261637420697320706175736564000000000000000000000000000081525060200191505060405180910390fd5b600160009054906101000a900473ffffffffffffffffffffffffffffffffffffffff1673ffffffffffffffffffffffffffffffffffffffff1663a16543798b336040518363ffffffff167c0100000000000000000000000000000000000000000000000000000000028152600401808373ffffffffffffffffffffffffffffffffffffffff1673ffffffffffffffffffffffffffffffffffffffff1681526020018273ffffffffffffffffffffffffffffffffffffffff1673ffffffffffffffffffffffffffffffffffffffff1681526020019250505060206040518083038186803b15801561099f57600080fd5b505afa1580156109b3573d6000803e3d6000fd5b505050506040513d60208110156109c957600080fd5b810190808051906020019092919050505015156109e557600080fd5b600060055490506109f461188c565b610120604051908101604052808381526020018b81526020018a81526020018981526020018881526020018781526020018681526020018581526020018461ffff168152509050600260003373ffffffffffffffffffffffffffffffffffffffff1673ffffffffffffffffffffffffffffffffffffffff168152602001908152602001600020829080600181540180825580915050906001820390600052602060002001600090919290919091505550600360008c81526020019081526020016000208290806001815401808255809150509060018203906000526020600020016000909192909190915055508060046000848152602001908152602001600020600082015181600001556020820151816001015560408201518160020155606082015181600301556080820151816004015560a0820151816005015560c0820151816006015560e0820151816007019080519060200190610b579291906118ef565b506101008201518160080160006101000a81548161ffff021916908361ffff160217905550905050600560008154809291906001019190505550817f028fab2af9f6df3e6215ef542e8bd298b7ac1c79aa0a798a4355a91fad738fdf8c338d8d8d8d8d8d8d8d604051808b81526020018a73ffffffffffffffffffffffffffffffffffffffff1673ffffffffffffffffffffffffffffffffffffffff168152602001898152602001888152602001878152602001868152602001858152602001848152602001806020018361ffff1661ffff168152602001828103825284818151815260200191508051906020019080838360005b83811015610c67578082015181840152602081019050610c4c565b50505050905090810190601f168015610c945780820380516001836020036101000a031916815260200191505b509b50505050505050505050505060405180910390a2505050505050505050505050565b610cc0611327565b1515610d34576040517f08c379a000000000000000000000000000000000000000000000000000000000815260040180806020018281038252600a8152602001807f4f6e6c79206f776e65720000000000000000000000000000000000000000000081525060200191505060405180910390fd5b600060149054906101000a900460ff161515610d4f57600080fd5b60008060146101000a81548160ff0219169083151502179055507f5db9ee0a495bf2e6ff9c91a7834c1ba4fdd244a5e8aa4e537bd38aeae4b073aa33604051808273ffffffffffffffffffffffffffffffffffffffff1673ffffffffffffffffffffffffffffffffffffffff16815260200191505060405180910390a1565b60008060149054906101000a900460ff16905090565b600260205281600052604060002081815481101515610dff57fe5b90600052602060002001600091509150505481565b610e1c611327565b1515610e90576040517f08c379a000000000000000000000000000000000000000000000000000000000815260040180806020018281038252600a8152602001807f4f6e6c79206f776e65720000000000000000000000000000000000000000000081525060200191505060405180910390fd5b600073ffffffffffffffffffffffffffffffffffffffff166000809054906101000a900473ffffffffffffffffffffffffffffffffffffffff1673ffffffffffffffffffffffffffffffffffffffff167f8be0079c531659141344cd1fd0a4f28419497f9722a3daafe3b4186f6b6457e060405160405180910390a360008060006101000a81548173ffffffffffffffffffffffffffffffffffffffff021916908373ffffffffffffffffffffffffffffffffffffffff160217905550565b600080600080600080600060606000610f6661188c565b600460008c8152602001908152602001600020610120604051908101604052908160008201548152602001600182015481526020016002820154815260200160038201548152602001600482015481526020016005820154815260200160068201548152602001600782018054600181600116156101000203166002900480601f0160208091040260200160405190810160405280929190818152602001828054600181600116156101000203166002900480156110655780601f1061103a57610100808354040283529160200191611065565b820191906000526020600020905b81548152906001019060200180831161104857829003601f168201915b505050505081526020016008820160009054906101000a900461ffff1661ffff1661ffff16815250509050806000015181602001518260400151836060015184608001518560a001518660c001518760e00151886101000151819150995099509950995099509950995099509950509193959799909294969850565b6110e9611327565b151561115d576040517f08c379a000000000000000000000000000000000000000000000000000000000815260040180806020018281038252600a8152602001807f4f6e6c79206f776e65720000000000000000000000000000000000000000000081525060200191505060405180910390fd5b6111656112fe565b73ffffffffffffffffffffffffffffffffffffffff16ff5b611185611327565b15156111f9576040517f08c379a000000000000000000000000000000000000000000000000000000000815260040180806020018281038252600a8152602001807f4f6e6c79206f776e65720000000000000000000000000000000000000000000081525060200191505060405180910390fd5b600060149054906101000a900460ff1615151561127e576040517f08c379a00000000000000000000000000000000000000000000000000000000081526004018080602001828103825260128152602001807f436f6e747261637420697320706175736564000000000000000000000000000081525060200191505060405180910390fd5b6001600060146101000a81548160ff0219169083151502179055507f62e78cea01bee320cd4e420270b5ea74000d11b0c9f74754ebdbfc544b05a25833604051808273ffffffffffffffffffffffffffffffffffffffff1673ffffffffffffffffffffffffffffffffffffffff16815260200191505060405180910390a1565b60008060009054906101000a900473ffffffffffffffffffffffffffffffffffffffff16905090565b60008060009054906101000a900473ffffffffffffffffffffffffffffffffffffffff1673ffffffffffffffffffffffffffffffffffffffff163373ffffffffffffffffffffffffffffffffffffffff1614905090565b6000600260008373ffffffffffffffffffffffffffffffffffffffff1673ffffffffffffffffffffffffffffffffffffffff168152602001908152602001600020805490509050919050565b6003602052816000526040600020818154811015156113e557fe5b90600052602060002001600091509150505481565b6004602052806000526040600020600091509050806000015490806001015490806002015490806003015490806004015490806005015490806006015490806007018054600181600116156101000203166002900480601f0160208091040260200160405190810160405280929190818152602001828054600181600116156101000203166002900480156114d05780601f106114a5576101008083540402835291602001916114d0565b820191906000526020600020905b8154815290600101906020018083116114b357829003601f168201915b5050505050908060080160009054906101000a900461ffff16905089565b600060149054906101000a900460ff16151515611573576040517f08c379a00000000000000000000000000000000000000000000000000000000081526004018080602001828103825260128152602001807f436f6e747261637420697320706175736564000000000000000000000000000081525060200191505060405180910390fd5b6000600102600460008b8152602001908152602001600020600101541415151561159c57600080fd5b6000600460008b815260200190815260200160002090508881600101819055508781600201819055508681600301819055508581600401819055508481600501819055508381600601819055508281600701908051906020019061160192919061196f565b50818160080160006101000a81548161ffff021916908361ffff160217905550897f5d07727eac4519d7b42068cdde43f994c10f6a086258a4c36ab03303039a80088a8a8a8a8a8a8a8a60405180898152602001888152602001878152602001868152602001858152602001848152602001806020018361ffff1661ffff168152602001828103825284818151815260200191508051906020019080838360005b838110156116bd5780820151818401526020810190506116a2565b50505050905090810190601f1680156116ea5780820380516001836020036101000a031916815260200191505b50995050505050505050505060405180910390a250505050505050505050565b611712611327565b1515611786576040517f08c379a000000000000000000000000000000000000000000000000000000000815260040180806020018281038252600a8152602001807f4f6e6c79206f776e65720000000000000000000000000000000000000000000081525060200191505060405180910390fd5b61178f81611792565b50565b600073ffffffffffffffffffffffffffffffffffffffff168173ffffffffffffffffffffffffffffffffffffffff16141515156117ce57600080fd5b8073ffffffffffffffffffffffffffffffffffffffff166000809054906101000a900473ffffffffffffffffffffffffffffffffffffffff1673ffffffffffffffffffffffffffffffffffffffff167f8be0079c531659141344cd1fd0a4f28419497f9722a3daafe3b4186f6b6457e060405160405180910390a3806000806101000a81548173ffffffffffffffffffffffffffffffffffffffff021916908373ffffffffffffffffffffffffffffffffffffffff16021790555050565b610120604051908101604052806000815260200160008019168152602001600080191681526020016000801916815260200160008019168152602001600080191681526020016000801916815260200160608152602001600061ffff1681525090565b828054600181600116156101000203166002900490600052602060002090601f016020900481019282601f1061193057805160ff191683800117855561195e565b8280016001018555821561195e579182015b8281111561195d578251825591602001919060010190611942565b5b50905061196b91906119ef565b5090565b828054600181600116156101000203166002900490600052602060002090601f016020900481019282601f106119b057805160ff19168380011785556119de565b828001600101855582156119de579182015b828111156119dd5782518255916020019190600101906119c2565b5b5090506119eb91906119ef565b5090565b611a1191905b80821115611a0d5760008160009055506001016119f5565b5090565b9056fea165627a7a72305820694a669ae6610d978913df6183dcb63309ee504549eb120932c72a53117df00a0029",
  "source": "pragma solidity ^0.5.0;\nimport 'openzeppelin-solidity/contracts/ownership/Ownable.sol';\nimport './Libraries/Pausable.sol';\nimport \"./ActorFactory.sol\";\n\n//TODO: Destroy Tasting\n//TODO: Should add ownerAddress\ncontract TastingFactory is Ownable, Pausable{\n    event LogAddCupProfile(\n        uint indexed _id,\n        uint _coffeeBatchId,\n        address _tasterAddress,\n        bytes32 _aroma,\n        bytes32 _sweetness,\n        bytes32 _flavor,\n        bytes32 _acidity,\n        bytes32 _body,\n        bytes32 _aftertaste,\n        string _imageHash,\n        uint16 _cuppingNote\n    );\n    event LogUpdateCupProfile(\n        uint indexed _id,\n        bytes32 _aroma,\n        bytes32 _sweetness,\n        bytes32 _flavor,\n        bytes32 _acidity,\n        bytes32 _body,\n        bytes32 _aftertaste,\n        string _imageHash,\n        uint16 _cuppingNote\n    );\n\n    ActorFactory actor;\n\n    struct CupProfile {\n        uint uid;\n        bytes32 aroma;\n        bytes32 sweetness;\n        bytes32 flavor;\n        bytes32 acidity;\n        bytes32 body;\n        bytes32 aftertaste;\n        string imageHash;\n        //Precision two decimals 100.00\n        uint16 cuppingNote;\n    }\n\n    mapping(address => uint[]) public tasterToCupProfiles;\n    mapping(uint => uint[]) public coffeeBatchToCupProfiles;\n    mapping(uint => CupProfile) public cupProfiles;\n    uint tastingCount = 1;\n\n    constructor(address _actorAddress) public {\n        actor = ActorFactory(_actorAddress);\n    }\n\n    function getTasterCupProfileCount(address _taster) public view returns (uint) {\n        return tasterToCupProfiles[_taster].length;\n    }\n\n    function getCoffeeCupProfileCount(uint _coffeeBatch) public view returns (uint) {\n        return coffeeBatchToCupProfiles[_coffeeBatch].length;\n    }\n\n    function getCupProfileById(uint uid)\n        public\n        view\n        returns (uint, bytes32, bytes32, bytes32, bytes32, bytes32, bytes32, string memory, uint16)\n    {\n        CupProfile memory cupProfile = cupProfiles[uid];\n        return (cupProfile.uid, cupProfile.aroma, cupProfile.sweetness, cupProfile.flavor, cupProfile.acidity, cupProfile.body, cupProfile.aftertaste, cupProfile.imageHash, cupProfile.cuppingNote);\n    }\n\n    function addCupProfile(\n        address _owner,\n        uint _coffeeBatchId,\n        bytes32 _aroma,\n        bytes32 _sweetness,\n        bytes32 _flavor,\n        bytes32 _acidity,\n        bytes32 _body,\n        bytes32 _aftertaste,\n        string memory _imageHash,\n        uint16 _cuppingNote\n    ) public whenNotPaused {\n        require(actor.isAllowed(_owner, msg.sender));\n        uint uid = tastingCount;\n        CupProfile memory cupProfile = CupProfile(uid, _aroma, _sweetness, _flavor, _acidity, _body, _aftertaste, _imageHash, _cuppingNote);\n        tasterToCupProfiles[msg.sender].push(uid);\n        coffeeBatchToCupProfiles[_coffeeBatchId].push(uid);\n        cupProfiles[uid] = cupProfile;\n        tastingCount++;\n        emit LogAddCupProfile(\n            uid,\n            _coffeeBatchId,\n            msg.sender,\n            _aroma,\n            _sweetness,\n            _flavor,\n            _acidity,\n            _body,\n            _aftertaste,\n            _imageHash,\n            _cuppingNote\n        );\n    }\n    //TODO: Tastings can't be updated\n    function updateCupProfileById(\n        uint _uid,\n        bytes32 _aroma,\n        bytes32 _sweetness,\n        bytes32 _flavor,\n        bytes32 _acidity,\n        bytes32 _body,\n        bytes32 _aftertaste,\n        string memory _imageHash,\n        uint16 _cuppingNote\n    ) public whenNotPaused {\n        require(cupProfiles[_uid].aroma != 0);\n        CupProfile storage cupProfile = cupProfiles[_uid];\n        cupProfile.aroma = _aroma;\n        cupProfile.sweetness = _sweetness;\n        cupProfile.flavor = _flavor;\n        cupProfile.acidity = _acidity;\n        cupProfile.body = _body;\n        cupProfile.aftertaste = _aftertaste;\n        cupProfile.imageHash = _imageHash;\n        cupProfile.cuppingNote = _cuppingNote;\n        emit LogUpdateCupProfile(_uid, _aroma, _sweetness, _flavor, _acidity, _body, _aftertaste, _imageHash, _cuppingNote);\n    }\n\n    function destroy() public onlyOwner {\n        selfdestruct(owner());\n    }\n}\n",
  "sourcePath": "/home/crisgarner/Projects/affogato/affogato/contracts/TastingFactory.sol",
  "compiler": {
    "name": "solc",
    "version": "0.5.0+commit.1d4f565a.Emscripten.clang"
  },
  "schemaVersion": "3.0.0",
  "updatedAt": "2019-02-11T20:53:08.096Z",
  "devdoc": {
    "methods": {
      "isOwner()": {
        "return": "true if `msg.sender` is the owner of the contract."
      },
      "owner()": {
        "return": "the address of the owner."
      },
      "pause()": {
        "details": "called by the owner to pause, triggers stopped state"
      },
      "paused()": {
        "return": "true if the contract is paused, false otherwise."
      },
      "renounceOwnership()": {
        "details": "Allows the current owner to relinquish control of the contract."
      },
      "transferOwnership(address)": {
        "details": "Allows the current owner to transfer control of the contract to a newOwner.",
        "params": {
          "newOwner": "The address to transfer ownership to."
        }
      },
      "unpause()": {
        "details": "called by the owner to unpause, returns to normal state"
      }
    }
  },
  "userdoc": {
    "methods": {
      "renounceOwnership()": {
        "notice": "Renouncing to ownership will leave the contract without an owner. It will not be possible to call the functions with the `onlyOwner` modifier anymore."
      }
    }
  }
}