{
  "contractName": "TastingFactory",
  "abi": [
    {
      "constant": true,
      "inputs": [
        {
          "name": "",
          "type": "address"
        },
        {
          "name": "",
          "type": "uint256"
        }
      ],
      "name": "tasterToCupProfiles",
      "outputs": [
        {
          "name": "",
          "type": "uint256"
        }
      ],
      "payable": false,
      "stateMutability": "view",
      "type": "function"
    },
    {
      "constant": true,
      "inputs": [
        {
          "name": "",
          "type": "uint256"
        },
        {
          "name": "",
          "type": "uint256"
        }
      ],
      "name": "coffeeBatchToCupProfiles",
      "outputs": [
        {
          "name": "",
          "type": "uint256"
        }
      ],
      "payable": false,
      "stateMutability": "view",
      "type": "function"
    },
    {
      "constant": true,
      "inputs": [
        {
          "name": "",
          "type": "uint256"
        }
      ],
      "name": "cupProfiles",
      "outputs": [
        {
          "name": "uid",
          "type": "uint256"
        },
        {
          "name": "aroma",
          "type": "bytes32"
        },
        {
          "name": "flavor",
          "type": "bytes32"
        },
        {
          "name": "acidity",
          "type": "bytes32"
        },
        {
          "name": "body",
          "type": "bytes32"
        },
        {
          "name": "aftertaste",
          "type": "bytes32"
        },
        {
          "name": "cuppingNote",
          "type": "uint16"
        }
      ],
      "payable": false,
      "stateMutability": "view",
      "type": "function"
    },
    {
      "inputs": [
        {
          "name": "_actorAddress",
          "type": "address"
        }
      ],
      "payable": false,
      "stateMutability": "nonpayable",
      "type": "constructor"
    },
    {
      "anonymous": false,
      "inputs": [
        {
          "indexed": true,
          "name": "_id",
          "type": "uint256"
        },
        {
          "indexed": false,
          "name": "_coffeeBatchId",
          "type": "uint256"
        },
        {
          "indexed": false,
          "name": "_tasterAddress",
          "type": "address"
        },
        {
          "indexed": false,
          "name": "_aroma",
          "type": "bytes32"
        },
        {
          "indexed": false,
          "name": "_flavor",
          "type": "bytes32"
        },
        {
          "indexed": false,
          "name": "_acidity",
          "type": "bytes32"
        },
        {
          "indexed": false,
          "name": "_body",
          "type": "bytes32"
        },
        {
          "indexed": false,
          "name": "_aftertaste",
          "type": "bytes32"
        },
        {
          "indexed": false,
          "name": "_cuppingNote",
          "type": "uint16"
        }
      ],
      "name": "LogAddCupProfile",
      "type": "event"
    },
    {
      "anonymous": false,
      "inputs": [
        {
          "indexed": true,
          "name": "_id",
          "type": "uint256"
        },
        {
          "indexed": false,
          "name": "_aroma",
          "type": "bytes32"
        },
        {
          "indexed": false,
          "name": "_flavor",
          "type": "bytes32"
        },
        {
          "indexed": false,
          "name": "_acidity",
          "type": "bytes32"
        },
        {
          "indexed": false,
          "name": "_body",
          "type": "bytes32"
        },
        {
          "indexed": false,
          "name": "_aftertaste",
          "type": "bytes32"
        },
        {
          "indexed": false,
          "name": "_cuppingNote",
          "type": "uint16"
        }
      ],
      "name": "LogUpdateCupProfile",
      "type": "event"
    },
    {
      "constant": true,
      "inputs": [
        {
          "name": "_taster",
          "type": "address"
        }
      ],
      "name": "getTasterCupProfileCount",
      "outputs": [
        {
          "name": "",
          "type": "uint256"
        }
      ],
      "payable": false,
      "stateMutability": "view",
      "type": "function"
    },
    {
      "constant": true,
      "inputs": [
        {
          "name": "_coffeeBatch",
          "type": "uint256"
        }
      ],
      "name": "getCoffeeCupProfileCount",
      "outputs": [
        {
          "name": "",
          "type": "uint256"
        }
      ],
      "payable": false,
      "stateMutability": "view",
      "type": "function"
    },
    {
      "constant": true,
      "inputs": [
        {
          "name": "uid",
          "type": "uint256"
        }
      ],
      "name": "getCupProfileById",
      "outputs": [
        {
          "name": "",
          "type": "uint256"
        },
        {
          "name": "",
          "type": "bytes32"
        },
        {
          "name": "",
          "type": "bytes32"
        },
        {
          "name": "",
          "type": "bytes32"
        },
        {
          "name": "",
          "type": "bytes32"
        },
        {
          "name": "",
          "type": "bytes32"
        },
        {
          "name": "",
          "type": "uint16"
        }
      ],
      "payable": false,
      "stateMutability": "view",
      "type": "function"
    },
    {
      "constant": false,
      "inputs": [
        {
          "name": "_owner",
          "type": "address"
        },
        {
          "name": "_coffeeBatchId",
          "type": "uint256"
        },
        {
          "name": "_aroma",
          "type": "bytes32"
        },
        {
          "name": "_flavor",
          "type": "bytes32"
        },
        {
          "name": "_acidity",
          "type": "bytes32"
        },
        {
          "name": "_body",
          "type": "bytes32"
        },
        {
          "name": "_aftertaste",
          "type": "bytes32"
        },
        {
          "name": "_cuppingNote",
          "type": "uint16"
        }
      ],
      "name": "addCupProfile",
      "outputs": [],
      "payable": false,
      "stateMutability": "nonpayable",
      "type": "function"
    },
    {
      "constant": false,
      "inputs": [
        {
          "name": "_uid",
          "type": "uint256"
        },
        {
          "name": "_aroma",
          "type": "bytes32"
        },
        {
          "name": "_flavor",
          "type": "bytes32"
        },
        {
          "name": "_acidity",
          "type": "bytes32"
        },
        {
          "name": "_body",
          "type": "bytes32"
        },
        {
          "name": "_aftertaste",
          "type": "bytes32"
        },
        {
          "name": "_cuppingNote",
          "type": "uint16"
        }
      ],
      "name": "updateCupProfileById",
      "outputs": [],
      "payable": false,
      "stateMutability": "nonpayable",
      "type": "function"
    }
  ],
  "bytecode": "0x6080604052600160045534801561001557600080fd5b50604051602080610c3983398101806040528101908080519060200190929190505050806000806101000a81548173ffffffffffffffffffffffffffffffffffffffff021916908373ffffffffffffffffffffffffffffffffffffffff16021790555050610bb1806100886000396000f30060806040526004361061008e576000357c0100000000000000000000000000000000000000000000000000000000900463ffffffff1680630ebed1a1146100935780635ca1bcb2146100d45780635e5e031a146101355780637d2427eb146101d65780637eeb2d931461025757806396f915d1146102f2578063b6f2ff5c14610349578063ce47c40d14610394575b600080fd5b34801561009f57600080fd5b506100be6004803603810190808035906020019092919050505061042f565b6040518082815260200191505060405180910390f35b3480156100e057600080fd5b5061011f600480360381019080803573ffffffffffffffffffffffffffffffffffffffff1690602001909291908035906020019092919050505061044f565b6040518082815260200191505060405180910390f35b34801561014157600080fd5b506101d4600480360381019080803573ffffffffffffffffffffffffffffffffffffffff1690602001909291908035906020019092919080356000191690602001909291908035600019169060200190929190803560001916906020019092919080356000191690602001909291908035600019169060200190929190803561ffff16906020019092919050505061047f565b005b3480156101e257600080fd5b506102556004803603810190808035906020019092919080356000191690602001909291908035600019169060200190929190803560001916906020019092919080356000191690602001909291908035600019169060200190929190803561ffff169060200190929190505050610836565b005b34801561026357600080fd5b5061028260048036038101908080359060200190929190505050610973565b60405180888152602001876000191660001916815260200186600019166000191681526020018560001916600019168152602001846000191660001916815260200183600019166000191681526020018261ffff1661ffff16815260200197505050505050505060405180910390f35b3480156102fe57600080fd5b50610333600480360381019080803573ffffffffffffffffffffffffffffffffffffffff169060200190929190505050610a68565b6040518082815260200191505060405180910390f35b34801561035557600080fd5b5061037e6004803603810190808035906020019092919080359060200190929190505050610ab4565b6040518082815260200191505060405180910390f35b3480156103a057600080fd5b506103bf60048036038101908080359060200190929190505050610ae4565b60405180888152602001876000191660001916815260200186600019166000191681526020018560001916600019168152602001846000191660001916815260200183600019166000191681526020018261ffff1661ffff16815260200197505050505050505060405180910390f35b600060026000838152602001908152602001600020805490509050919050565b60016020528160005260406000208181548110151561046a57fe5b90600052602060002001600091509150505481565b6000610489610b34565b6000809054906101000a900473ffffffffffffffffffffffffffffffffffffffff1673ffffffffffffffffffffffffffffffffffffffff1663a16543798b336040518363ffffffff167c0100000000000000000000000000000000000000000000000000000000028152600401808373ffffffffffffffffffffffffffffffffffffffff1673ffffffffffffffffffffffffffffffffffffffff1681526020018273ffffffffffffffffffffffffffffffffffffffff1673ffffffffffffffffffffffffffffffffffffffff16815260200192505050602060405180830381600087803b15801561057957600080fd5b505af115801561058d573d6000803e3d6000fd5b505050506040513d60208110156105a357600080fd5b810190808051906020019092919050505015156105bf57600080fd5b600454915060e06040519081016040528083815260200189600019168152602001886000191681526020018760001916815260200186600019168152602001856000191681526020018461ffff168152509050600160003373ffffffffffffffffffffffffffffffffffffffff1673ffffffffffffffffffffffffffffffffffffffff168152602001908152602001600020829080600181540180825580915050906001820390600052602060002001600090919290919091505550600260008a81526020019081526020016000208290806001815401808255809150509060018203906000526020600020016000909192909190915055508060036000848152602001908152602001600020600082015181600001556020820151816001019060001916905560408201518160020190600019169055606082015181600301906000191690556080820151816004019060001916905560a0820151816005019060001916905560c08201518160060160006101000a81548161ffff021916908361ffff160217905550905050600460008154809291906001019190505550817fc9fb67041885b3c8aec2d6aab8363b013cc6a8b3baa1852fcb84e8fe94de11838a338b8b8b8b8b8b604051808981526020018873ffffffffffffffffffffffffffffffffffffffff1673ffffffffffffffffffffffffffffffffffffffff168152602001876000191660001916815260200186600019166000191681526020018560001916600019168152602001846000191660001916815260200183600019166000191681526020018261ffff1661ffff1681526020019850505050505050505060405180910390a250505050505050505050565b600080600102600360008a815260200190815260200160002060010154600019161415151561086457600080fd5b6003600089815260200190815260200160002090508681600101816000191690555085816002018160001916905550848160030181600019169055508381600401816000191690555082816005018160001916905550818160060160006101000a81548161ffff021916908361ffff160217905550877f59c3852248c648800557b5df600fec3a5bf092002b9ba0db24233edaf6f1ec7a88888888888860405180876000191660001916815260200186600019166000191681526020018560001916600019168152602001846000191660001916815260200183600019166000191681526020018261ffff1661ffff168152602001965050505050505060405180910390a25050505050505050565b6000806000806000806000610986610b34565b600360008a815260200190815260200160002060e06040519081016040529081600082015481526020016001820154600019166000191681526020016002820154600019166000191681526020016003820154600019166000191681526020016004820154600019166000191681526020016005820154600019166000191681526020016006820160009054906101000a900461ffff1661ffff1661ffff16815250509050806000015181602001518260400151836060015184608001518560a001518660c00151975097509750975097509750975050919395979092949650565b6000600160008373ffffffffffffffffffffffffffffffffffffffff1673ffffffffffffffffffffffffffffffffffffffff168152602001908152602001600020805490509050919050565b600260205281600052604060002081815481101515610acf57fe5b90600052602060002001600091509150505481565b60036020528060005260406000206000915090508060000154908060010154908060020154908060030154908060040154908060050154908060060160009054906101000a900461ffff16905087565b60e060405190810160405280600081526020016000801916815260200160008019168152602001600080191681526020016000801916815260200160008019168152602001600061ffff16815250905600a165627a7a72305820c9ef4242c7c097d2d381d557df7923dd87f29d74c483fc89ea36bed4d96e9f620029",
  "source": "pragma solidity ^0.4.23;\n\nimport \"./Utils.sol\";\nimport \"./ActorFactory.sol\";\n\ncontract TastingFactory is Utils{\n\n   event LogAddCupProfile(\n        uint indexed _id,\n        uint _coffeeBatchId,\n        address _tasterAddress,\n        bytes32 _aroma,\n        bytes32 _flavor,\n        bytes32 _acidity,\n        bytes32 _body,\n        bytes32 _aftertaste,\n        uint16 _cuppingNote\n    );\n   event LogUpdateCupProfile(\n        uint indexed _id,\n        bytes32 _aroma,\n        bytes32 _flavor,\n        bytes32 _acidity,\n        bytes32 _body,\n        bytes32 _aftertaste,\n        uint16 _cuppingNote\n    );\n\n   ActorFactory actor;\n\n   struct CupProfile{\n        uint uid;\n        bytes32 aroma;\n        bytes32 flavor;\n        bytes32 acidity;\n        bytes32 body;\n        bytes32 aftertaste;\n        //Precision two decimals 100.00\n        uint16 cuppingNote;\n    }\n\n    mapping(address => uint[]) public tasterToCupProfiles;\n    mapping(uint => uint[]) public coffeeBatchToCupProfiles;\n    mapping(uint => CupProfile) public cupProfiles;\n    uint tastingCount = 1;\n\n    constructor(address _actorAddress) public {\n        actor = ActorFactory(_actorAddress);\n    }\n\n    function getTasterCupProfileCount(address _taster)public view returns (uint){\n        return tasterToCupProfiles[_taster].length;\n    }\n\n    function getCoffeeCupProfileCount(uint _coffeeBatch)public view returns (uint){\n        return coffeeBatchToCupProfiles[_coffeeBatch].length;\n    }\n\n    function getCupProfileById(uint uid) public view returns(\n        uint,\n        bytes32, \n        bytes32, \n        bytes32, \n        bytes32,\n        bytes32, \n        uint16\n        ){\n        CupProfile memory cupProfile = cupProfiles[uid];\n        return(\n            cupProfile.uid,\n            cupProfile.aroma,\n            cupProfile.flavor,\n            cupProfile.acidity,\n            cupProfile.body,\n            cupProfile.aftertaste,\n            cupProfile.cuppingNote\n        );\n    }\n\n    function addCupProfile(\n        address _owner,\n        uint _coffeeBatchId,\n        bytes32 _aroma,\n        bytes32 _flavor,\n        bytes32 _acidity,\n        bytes32 _body,\n        bytes32 _aftertaste,\n        uint16 _cuppingNote\n    ) public {\n        require(actor.isAllowed(_owner,msg.sender));\n        uint uid = tastingCount;\n        CupProfile memory cupProfile = CupProfile(uid,_aroma,_flavor,_acidity,_body,_aftertaste,_cuppingNote);\n        tasterToCupProfiles[msg.sender].push(uid);\n        coffeeBatchToCupProfiles[_coffeeBatchId].push(uid);\n        cupProfiles[uid] = cupProfile;\n        tastingCount++;\n        emit LogAddCupProfile(uid,_coffeeBatchId,msg.sender,_aroma,_flavor,_acidity,_body,_aftertaste,_cuppingNote);\n    }\n    //Coffee Batch can't be updated\n    function updateCupProfileById(\n        uint _uid,\n        bytes32 _aroma,\n        bytes32 _flavor,\n        bytes32 _acidity,\n        bytes32 _body,\n        bytes32 _aftertaste,\n        uint16 _cuppingNote\n    ) public {\n        require(cupProfiles[_uid].aroma != 0);\n        CupProfile storage cupProfile = cupProfiles[_uid];\n        cupProfile.aroma = _aroma;\n        cupProfile.flavor = _flavor;\n        cupProfile.acidity = _acidity;\n        cupProfile.body = _body;\n        cupProfile.aftertaste = _aftertaste;\n        cupProfile.cuppingNote = _cuppingNote;\n        emit LogUpdateCupProfile(_uid,_aroma,_flavor,_acidity,_body,_aftertaste,_cuppingNote);\n    }\n}",
  "sourcePath": "/Users/crisgarner/Projects/affogato/contracts/TastingFactory.sol",
  "compiler": {
    "name": "solc",
    "version": "0.4.24+commit.e67f0147.Emscripten.clang"
  },
  "schemaVersion": "2.0.1",
  "updatedAt": "2018-10-04T15:29:13.683Z"
}