{
  "contractName": "TastingFactory",
  "abi": [
    {
      "constant": true,
      "inputs": [
        {
          "name": "",
          "type": "address"
        },
        {
          "name": "",
          "type": "uint256"
        }
      ],
      "name": "tasterToCupProfiles",
      "outputs": [
        {
          "name": "",
          "type": "uint256"
        }
      ],
      "payable": false,
      "stateMutability": "view",
      "type": "function"
    },
    {
      "constant": true,
      "inputs": [
        {
          "name": "",
          "type": "uint256"
        },
        {
          "name": "",
          "type": "uint256"
        }
      ],
      "name": "coffeeBatchToCupProfiles",
      "outputs": [
        {
          "name": "",
          "type": "uint256"
        }
      ],
      "payable": false,
      "stateMutability": "view",
      "type": "function"
    },
    {
      "constant": true,
      "inputs": [
        {
          "name": "",
          "type": "uint256"
        }
      ],
      "name": "cupProfiles",
      "outputs": [
        {
          "name": "uid",
          "type": "uint256"
        },
        {
          "name": "aroma",
          "type": "bytes32"
        },
        {
          "name": "flavor",
          "type": "bytes32"
        },
        {
          "name": "acidity",
          "type": "bytes32"
        },
        {
          "name": "body",
          "type": "bytes32"
        },
        {
          "name": "aftertaste",
          "type": "bytes32"
        },
        {
          "name": "cuppingNote",
          "type": "uint16"
        }
      ],
      "payable": false,
      "stateMutability": "view",
      "type": "function"
    },
    {
      "anonymous": false,
      "inputs": [
        {
          "indexed": true,
          "name": "_id",
          "type": "uint256"
        }
      ],
      "name": "LogAddCupProfile",
      "type": "event"
    },
    {
      "anonymous": false,
      "inputs": [
        {
          "indexed": true,
          "name": "_id",
          "type": "uint256"
        }
      ],
      "name": "LogUpdateCupProfile",
      "type": "event"
    },
    {
      "anonymous": false,
      "inputs": [
        {
          "indexed": true,
          "name": "_owner",
          "type": "address"
        },
        {
          "indexed": true,
          "name": "_taster",
          "type": "address"
        },
        {
          "indexed": false,
          "name": "_value",
          "type": "bool"
        }
      ],
      "name": "LogApproval",
      "type": "event"
    },
    {
      "constant": true,
      "inputs": [
        {
          "name": "_taster",
          "type": "address"
        }
      ],
      "name": "getTasterCupProfileCount",
      "outputs": [
        {
          "name": "",
          "type": "uint256"
        }
      ],
      "payable": false,
      "stateMutability": "view",
      "type": "function"
    },
    {
      "constant": true,
      "inputs": [
        {
          "name": "_coffeeBatch",
          "type": "uint256"
        }
      ],
      "name": "getCoffeeCupProfileCount",
      "outputs": [
        {
          "name": "",
          "type": "uint256"
        }
      ],
      "payable": false,
      "stateMutability": "view",
      "type": "function"
    },
    {
      "constant": true,
      "inputs": [
        {
          "name": "uid",
          "type": "uint256"
        }
      ],
      "name": "getCupProfileById",
      "outputs": [
        {
          "name": "",
          "type": "uint256"
        },
        {
          "name": "",
          "type": "bytes32"
        },
        {
          "name": "",
          "type": "bytes32"
        },
        {
          "name": "",
          "type": "bytes32"
        },
        {
          "name": "",
          "type": "bytes32"
        },
        {
          "name": "",
          "type": "bytes32"
        },
        {
          "name": "",
          "type": "uint16"
        }
      ],
      "payable": false,
      "stateMutability": "view",
      "type": "function"
    },
    {
      "constant": false,
      "inputs": [
        {
          "name": "_owner",
          "type": "address"
        },
        {
          "name": "_coffeeBatchId",
          "type": "uint256"
        },
        {
          "name": "_aroma",
          "type": "bytes32"
        },
        {
          "name": "_flavor",
          "type": "bytes32"
        },
        {
          "name": "_acidity",
          "type": "bytes32"
        },
        {
          "name": "_body",
          "type": "bytes32"
        },
        {
          "name": "_aftertaste",
          "type": "bytes32"
        },
        {
          "name": "_cuppingNote",
          "type": "uint16"
        }
      ],
      "name": "addCupProfile",
      "outputs": [],
      "payable": false,
      "stateMutability": "nonpayable",
      "type": "function"
    },
    {
      "constant": false,
      "inputs": [
        {
          "name": "_uid",
          "type": "uint256"
        },
        {
          "name": "_aroma",
          "type": "bytes32"
        },
        {
          "name": "_flavor",
          "type": "bytes32"
        },
        {
          "name": "_acidity",
          "type": "bytes32"
        },
        {
          "name": "_body",
          "type": "bytes32"
        },
        {
          "name": "_aftertaste",
          "type": "bytes32"
        },
        {
          "name": "_cuppingNote",
          "type": "uint16"
        }
      ],
      "name": "updateCupProfileById",
      "outputs": [],
      "payable": false,
      "stateMutability": "nonpayable",
      "type": "function"
    },
    {
      "constant": false,
      "inputs": [
        {
          "name": "_spender",
          "type": "address"
        },
        {
          "name": "_value",
          "type": "bool"
        }
      ],
      "name": "approve",
      "outputs": [
        {
          "name": "",
          "type": "bool"
        }
      ],
      "payable": false,
      "stateMutability": "nonpayable",
      "type": "function"
    }
  ],
  "bytecode": "0x6080604052600160035534801561001557600080fd5b50610b87806100256000396000f300608060405260043610610099576000357c0100000000000000000000000000000000000000000000000000000000900463ffffffff1680630ebed1a11461009e5780633d140d21146100df5780635ca1bcb2146101465780635e5e031a146101a75780637d2427eb146102485780637eeb2d93146102c957806396f915d114610364578063b6f2ff5c146103bb578063ce47c40d14610406575b600080fd5b3480156100aa57600080fd5b506100c9600480360381019080803590602001909291905050506104a1565b6040518082815260200191505060405180910390f35b3480156100eb57600080fd5b5061012c600480360381019080803573ffffffffffffffffffffffffffffffffffffffff1690602001909291908035151590602001909291905050506104c1565b604051808215151515815260200191505060405180910390f35b34801561015257600080fd5b50610191600480360381019080803573ffffffffffffffffffffffffffffffffffffffff169060200190929190803590602001909291905050506105ca565b6040518082815260200191505060405180910390f35b3480156101b357600080fd5b50610246600480360381019080803573ffffffffffffffffffffffffffffffffffffffff1690602001909291908035906020019092919080356000191690602001909291908035600019169060200190929190803560001916906020019092919080356000191690602001909291908035600019169060200190929190803561ffff1690602001909291905050506105fa565b005b34801561025457600080fd5b506102c76004803603810190808035906020019092919080356000191690602001909291908035600019169060200190929190803560001916906020019092919080356000191690602001909291908035600019169060200190929190803561ffff169060200190929190505050610870565b005b3480156102d557600080fd5b506102f46004803603810190808035906020019092919050505061094a565b60405180888152602001876000191660001916815260200186600019166000191681526020018560001916600019168152602001846000191660001916815260200183600019166000191681526020018261ffff1661ffff16815260200197505050505050505060405180910390f35b34801561037057600080fd5b506103a5600480360381019080803573ffffffffffffffffffffffffffffffffffffffff169060200190929190505050610a3f565b6040518082815260200191505060405180910390f35b3480156103c757600080fd5b506103f06004803603810190808035906020019092919080359060200190929190505050610a8a565b6040518082815260200191505060405180910390f35b34801561041257600080fd5b5061043160048036038101908080359060200190929190505050610aba565b60405180888152602001876000191660001916815260200186600019166000191681526020018560001916600019168152602001846000191660001916815260200183600019166000191681526020018261ffff1661ffff16815260200197505050505050505060405180910390f35b600060016000838152602001908152602001600020805490509050919050565b600081600460003373ffffffffffffffffffffffffffffffffffffffff1673ffffffffffffffffffffffffffffffffffffffff16815260200190815260200160002060008573ffffffffffffffffffffffffffffffffffffffff1673ffffffffffffffffffffffffffffffffffffffff16815260200190815260200160002060006101000a81548160ff0219169083151502179055508273ffffffffffffffffffffffffffffffffffffffff163373ffffffffffffffffffffffffffffffffffffffff167f6cc438beee050a8338ac87dc4353c517532095b48b678a7e50f680da7e6c789184604051808215151515815260200191505060405180910390a36001905092915050565b6000602052816000526040600020818154811015156105e557fe5b90600052602060002001600091509150505481565b6000610604610b0a565b600460008b73ffffffffffffffffffffffffffffffffffffffff1673ffffffffffffffffffffffffffffffffffffffff16815260200190815260200160002060003373ffffffffffffffffffffffffffffffffffffffff1673ffffffffffffffffffffffffffffffffffffffff16815260200190815260200160002060009054906101000a900460ff16151561069957600080fd5b600354915060e06040519081016040528083815260200189600019168152602001886000191681526020018760001916815260200186600019168152602001856000191681526020018461ffff1681525090506000803373ffffffffffffffffffffffffffffffffffffffff1673ffffffffffffffffffffffffffffffffffffffff168152602001908152602001600020829080600181540180825580915050906001820390600052602060002001600090919290919091505550600160008a81526020019081526020016000208290806001815401808255809150509060018203906000526020600020016000909192909190915055508060026000848152602001908152602001600020600082015181600001556020820151816001019060001916905560408201518160020190600019169055606082015181600301906000191690556080820151816004019060001916905560a0820151816005019060001916905560c08201518160060160006101000a81548161ffff021916908361ffff160217905550905050600360008154809291906001019190505550817ffed9f12640a4a9da5f5c5fcbd82cf5bdc14f64751f0b1ef8fd5a987a0cb6bcb760405160405180910390a250505050505050505050565b600080600102600260008a815260200190815260200160002060010154600019161415151561089e57600080fd5b6002600089815260200190815260200160002090508681600101816000191690555085816002018160001916905550848160030181600019169055508381600401816000191690555082816005018160001916905550818160060160006101000a81548161ffff021916908361ffff160217905550877fb6bb1211420527da5af26077a914e593ef9c7e11a9b07ebec68f062688ae5b5760405160405180910390a25050505050505050565b600080600080600080600061095d610b0a565b600260008a815260200190815260200160002060e06040519081016040529081600082015481526020016001820154600019166000191681526020016002820154600019166000191681526020016003820154600019166000191681526020016004820154600019166000191681526020016005820154600019166000191681526020016006820160009054906101000a900461ffff1661ffff1661ffff16815250509050806000015181602001518260400151836060015184608001518560a001518660c00151975097509750975097509750975050919395979092949650565b60008060008373ffffffffffffffffffffffffffffffffffffffff1673ffffffffffffffffffffffffffffffffffffffff168152602001908152602001600020805490509050919050565b600160205281600052604060002081815481101515610aa557fe5b90600052602060002001600091509150505481565b60026020528060005260406000206000915090508060000154908060010154908060020154908060030154908060040154908060050154908060060160009054906101000a900461ffff16905087565b60e060405190810160405280600081526020016000801916815260200160008019168152602001600080191681526020016000801916815260200160008019168152602001600061ffff16815250905600a165627a7a7230582062545e7558751babc503454edff5a61982c0ccfa6389f0dd97f5a95235cc185b0029",
  "source": "pragma solidity ^0.4.23;\n\nimport \"./Utils.sol\";\n\ncontract TastingFactory is Utils{\n\n   event LogAddCupProfile(uint indexed _id);\n   event LogUpdateCupProfile(uint indexed _id);\n   event LogApproval(\n    address indexed _owner,\n    address indexed _taster,\n    bool _value\n   );\n\n   struct CupProfile{\n        uint uid;\n        bytes32 aroma;\n        bytes32 flavor;\n        bytes32 acidity;\n        bytes32 body;\n        bytes32 aftertaste;\n        //Precision two decimals 100.00\n        uint16 cuppingNote;\n    }\n\n    mapping(address => uint[]) public tasterToCupProfiles;\n    mapping(uint => uint[]) public coffeeBatchToCupProfiles;\n    mapping(uint => CupProfile) public cupProfiles;\n    uint tastingCount = 1;\n\n    mapping (address => mapping (address => bool)) private allowed_;\n\n    function getTasterCupProfileCount(address _taster)public view returns (uint){\n        return tasterToCupProfiles[_taster].length;\n    }\n\n    function getCoffeeCupProfileCount(uint _coffeeBatch)public view returns (uint){\n        return coffeeBatchToCupProfiles[_coffeeBatch].length;\n    }\n\n    function getCupProfileById(uint uid) public view returns(\n        uint,\n        bytes32, \n        bytes32, \n        bytes32, \n        bytes32,\n        bytes32, \n        uint16\n        ){\n        CupProfile memory cupProfile = cupProfiles[uid];\n        return(\n            cupProfile.uid,\n            cupProfile.aroma,\n            cupProfile.flavor,\n            cupProfile.acidity,\n            cupProfile.body,\n            cupProfile.aftertaste,\n            cupProfile.cuppingNote\n        );\n    }\n\n    function addCupProfile(\n        address _owner,\n        uint _coffeeBatchId,\n        bytes32 _aroma,\n        bytes32 _flavor,\n        bytes32 _acidity,\n        bytes32 _body,\n        bytes32 _aftertaste,\n        uint16 _cuppingNote\n    ) public {\n        require(allowed_[_owner][msg.sender]);\n        uint uid = tastingCount;\n        CupProfile memory cupProfile = CupProfile(uid,_aroma,_flavor,_acidity,_body,_aftertaste,_cuppingNote);\n        tasterToCupProfiles[msg.sender].push(uid);\n        coffeeBatchToCupProfiles[_coffeeBatchId].push(uid);\n        cupProfiles[uid] = cupProfile;\n        tastingCount++;\n        emit LogAddCupProfile(uid);\n    }\n    //Coffee Batch can't be updated\n    function updateCupProfileById(\n        uint _uid,\n        bytes32 _aroma,\n        bytes32 _flavor,\n        bytes32 _acidity,\n        bytes32 _body,\n        bytes32 _aftertaste,\n        uint16 _cuppingNote\n    ) public {\n        require(cupProfiles[_uid].aroma != 0);\n        CupProfile storage cupProfile = cupProfiles[_uid];\n        cupProfile.aroma = _aroma;\n        cupProfile.flavor = _flavor;\n        cupProfile.acidity = _acidity;\n        cupProfile.body = _body;\n        cupProfile.aftertaste = _aftertaste;\n        cupProfile.cuppingNote = _cuppingNote;\n        emit LogUpdateCupProfile(_uid);\n    }\n\n    function approve(address _spender, bool _value) public returns (bool) {\n        allowed_[msg.sender][_spender] = _value;\n        emit LogApproval(msg.sender, _spender, _value);\n        return true;\n    }\n}",
  "sourcePath": "/Users/crisgarner/Projects/affogato/contracts/TastingFactory.sol",
  "compiler": {
    "name": "solc",
    "version": "0.4.24+commit.e67f0147.Emscripten.clang"
  },
  "schemaVersion": "2.0.1",
  "updatedAt": "2018-09-09T15:20:10.799Z"
}